{
  "address": "0x9E3c511C2C69077A46aB5fce1b79663fe14bD611",
  "abi": [
    {
      "inputs": [],
      "stateMutability": "nonpayable",
      "type": "constructor"
    },
    {
      "anonymous": false,
      "inputs": [
        {
          "indexed": false,
          "internalType": "address",
          "name": "sender",
          "type": "address"
        }
      ],
      "name": "FlybyInitLauncher",
      "type": "event"
    },
    {
      "anonymous": false,
      "inputs": [
        {
          "indexed": true,
          "internalType": "address",
          "name": "owner",
          "type": "address"
        },
        {
          "indexed": true,
          "internalType": "address",
          "name": "addr",
          "type": "address"
        },
        {
          "indexed": false,
          "internalType": "address",
          "name": "launcherTemplate",
          "type": "address"
        }
      ],
      "name": "LauncherCreated",
      "type": "event"
    },
    {
      "anonymous": false,
      "inputs": [
        {
          "indexed": false,
          "internalType": "address",
          "name": "newLauncher",
          "type": "address"
        },
        {
          "indexed": false,
          "internalType": "uint256",
          "name": "templateId",
          "type": "uint256"
        }
      ],
      "name": "LauncherTemplateAdded",
      "type": "event"
    },
    {
      "anonymous": false,
      "inputs": [
        {
          "indexed": false,
          "internalType": "address",
          "name": "launcher",
          "type": "address"
        },
        {
          "indexed": false,
          "internalType": "uint256",
          "name": "templateId",
          "type": "uint256"
        }
      ],
      "name": "LauncherTemplateRemoved",
      "type": "event"
    },
    {
      "inputs": [],
      "name": "LAUNCHER_MINTER_ROLE",
      "outputs": [
        {
          "internalType": "bytes32",
          "name": "",
          "type": "bytes32"
        }
      ],
      "stateMutability": "view",
      "type": "function"
    },
    {
      "inputs": [],
      "name": "WETH",
      "outputs": [
        {
          "internalType": "address",
          "name": "",
          "type": "address"
        }
      ],
      "stateMutability": "view",
      "type": "function"
    },
    {
      "inputs": [],
      "name": "accessControls",
      "outputs": [
        {
          "internalType": "contract FLYBYAccessControls",
          "name": "",
          "type": "address"
        }
      ],
      "stateMutability": "view",
      "type": "function"
    },
    {
      "inputs": [
        {
          "internalType": "address",
          "name": "_template",
          "type": "address"
        }
      ],
      "name": "addLiquidityLauncherTemplate",
      "outputs": [],
      "stateMutability": "nonpayable",
      "type": "function"
    },
    {
      "inputs": [
        {
          "internalType": "uint256",
          "name": "_templateId",
          "type": "uint256"
        },
        {
          "internalType": "address",
          "name": "_token",
          "type": "address"
        },
        {
          "internalType": "uint256",
          "name": "_tokenSupply",
          "type": "uint256"
        },
        {
          "internalType": "address payable",
          "name": "_integratorFeeAccount",
          "type": "address"
        },
        {
          "internalType": "bytes",
          "name": "_data",
          "type": "bytes"
        }
      ],
      "name": "createLauncher",
      "outputs": [
        {
          "internalType": "address",
          "name": "newLauncher",
          "type": "address"
        }
      ],
      "stateMutability": "payable",
      "type": "function"
    },
    {
      "inputs": [
        {
          "internalType": "uint256",
          "name": "",
          "type": "uint256"
        }
      ],
      "name": "currentTemplateId",
      "outputs": [
        {
          "internalType": "uint256",
          "name": "",
          "type": "uint256"
        }
      ],
      "stateMutability": "view",
      "type": "function"
    },
    {
      "inputs": [
        {
          "internalType": "uint256",
          "name": "_templateId",
          "type": "uint256"
        },
        {
          "internalType": "address payable",
          "name": "_integratorFeeAccount",
          "type": "address"
        }
      ],
      "name": "deployLauncher",
      "outputs": [
        {
          "internalType": "address",
          "name": "launcher",
          "type": "address"
        }
      ],
      "stateMutability": "payable",
      "type": "function"
    },
    {
      "inputs": [],
      "name": "flybyDiv",
      "outputs": [
        {
          "internalType": "address payable",
          "name": "",
          "type": "address"
        }
      ],
      "stateMutability": "view",
      "type": "function"
    },
    {
      "inputs": [
        {
          "internalType": "address",
          "name": "_launcher",
          "type": "address"
        }
      ],
      "name": "getLauncherTemplateId",
      "outputs": [
        {
          "internalType": "uint64",
          "name": "",
          "type": "uint64"
        }
      ],
      "stateMutability": "view",
      "type": "function"
    },
    {
      "inputs": [],
      "name": "getLaunchers",
      "outputs": [
        {
          "internalType": "address[]",
          "name": "",
          "type": "address[]"
        }
      ],
      "stateMutability": "view",
      "type": "function"
    },
    {
      "inputs": [
        {
          "internalType": "uint256",
          "name": "_templateId",
          "type": "uint256"
        }
      ],
      "name": "getLiquidityLauncherTemplate",
      "outputs": [
        {
          "internalType": "address",
          "name": "",
          "type": "address"
        }
      ],
      "stateMutability": "view",
      "type": "function"
    },
    {
      "inputs": [
        {
          "internalType": "address",
          "name": "_launcherTemplate",
          "type": "address"
        }
      ],
      "name": "getTemplateId",
      "outputs": [
        {
          "internalType": "uint256",
          "name": "",
          "type": "uint256"
        }
      ],
      "stateMutability": "view",
      "type": "function"
    },
    {
      "inputs": [
        {
          "internalType": "address",
          "name": "_address",
          "type": "address"
        }
      ],
      "name": "hasLauncherMinterRole",
      "outputs": [
        {
          "internalType": "bool",
          "name": "",
          "type": "bool"
        }
      ],
      "stateMutability": "view",
      "type": "function"
    },
    {
      "inputs": [
        {
          "internalType": "address",
          "name": "_accessControls",
          "type": "address"
        },
        {
          "internalType": "address",
          "name": "_WETH",
          "type": "address"
        },
        {
          "internalType": "address",
          "name": "_spaceBox",
          "type": "address"
        }
      ],
      "name": "initFLYBYLauncher",
      "outputs": [],
      "stateMutability": "nonpayable",
      "type": "function"
    },
    {
      "inputs": [],
      "name": "launcherFees",
      "outputs": [
        {
          "internalType": "uint128",
          "name": "minimumFee",
          "type": "uint128"
        },
        {
          "internalType": "uint32",
          "name": "integratorFeePct",
          "type": "uint32"
        }
      ],
      "stateMutability": "view",
      "type": "function"
    },
    {
      "inputs": [
        {
          "internalType": "address",
          "name": "",
          "type": "address"
        }
      ],
      "name": "launcherInfo",
      "outputs": [
        {
          "internalType": "bool",
          "name": "exists",
          "type": "bool"
        },
        {
          "internalType": "uint64",
          "name": "templateId",
          "type": "uint64"
        },
        {
          "internalType": "uint128",
          "name": "index",
          "type": "uint128"
        }
      ],
      "stateMutability": "view",
      "type": "function"
    },
    {
      "inputs": [],
      "name": "launcherTemplateId",
      "outputs": [
        {
          "internalType": "uint256",
          "name": "",
          "type": "uint256"
        }
      ],
      "stateMutability": "view",
      "type": "function"
    },
    {
      "inputs": [
        {
          "internalType": "uint256",
          "name": "",
          "type": "uint256"
        }
      ],
      "name": "launchers",
      "outputs": [
        {
          "internalType": "address",
          "name": "",
          "type": "address"
        }
      ],
      "stateMutability": "view",
      "type": "function"
    },
    {
      "inputs": [],
      "name": "locked",
      "outputs": [
        {
          "internalType": "bool",
          "name": "",
          "type": "bool"
        }
      ],
      "stateMutability": "view",
      "type": "function"
    },
    {
      "inputs": [],
      "name": "minimumFee",
      "outputs": [
        {
          "internalType": "uint128",
          "name": "",
          "type": "uint128"
        }
      ],
      "stateMutability": "view",
      "type": "function"
    },
    {
      "inputs": [],
      "name": "numberOfLiquidityLauncherContracts",
      "outputs": [
        {
          "internalType": "uint256",
          "name": "",
          "type": "uint256"
        }
      ],
      "stateMutability": "view",
      "type": "function"
    },
    {
      "inputs": [
        {
          "internalType": "uint256",
          "name": "_templateId",
          "type": "uint256"
        }
      ],
      "name": "removeLiquidityLauncherTemplate",
      "outputs": [],
      "stateMutability": "nonpayable",
      "type": "function"
    },
    {
      "inputs": [
        {
          "internalType": "uint256",
          "name": "_templateType",
          "type": "uint256"
        },
        {
          "internalType": "uint256",
          "name": "_templateId",
          "type": "uint256"
        }
      ],
      "name": "setCurrentTemplateId",
      "outputs": [],
      "stateMutability": "nonpayable",
      "type": "function"
    },
    {
      "inputs": [
        {
          "internalType": "address payable",
          "name": "_divaddr",
          "type": "address"
        }
      ],
      "name": "setDividends",
      "outputs": [],
      "stateMutability": "nonpayable",
      "type": "function"
    },
    {
      "inputs": [
        {
          "internalType": "uint256",
          "name": "_amount",
          "type": "uint256"
        }
      ],
      "name": "setIntegratorFeePct",
      "outputs": [],
      "stateMutability": "nonpayable",
      "type": "function"
    },
    {
      "inputs": [
        {
          "internalType": "bool",
          "name": "_locked",
          "type": "bool"
        }
      ],
      "name": "setLocked",
      "outputs": [],
      "stateMutability": "nonpayable",
      "type": "function"
    },
    {
      "inputs": [
        {
          "internalType": "uint256",
          "name": "_amount",
          "type": "uint256"
        }
      ],
      "name": "setMinimumFee",
      "outputs": [],
      "stateMutability": "nonpayable",
      "type": "function"
    },
    {
      "inputs": [],
      "name": "spaceBox",
      "outputs": [
        {
          "internalType": "contract ISpaceBoxFactory",
          "name": "",
          "type": "address"
        }
      ],
      "stateMutability": "view",
      "type": "function"
    }
  ],
  "transactionHash": "0xb2b00050a3ce707e3c88eca6e1a1125fae72be6942e4fc140a9588cb3b9882be",
  "args": [],
  "solcInputHash": "0bb2481c0a33b756a35d8c75b9e1dee6",
  "bytecode": "0x608060405234801561001057600080fd5b506121c2806100206000396000f3fe6080604052600436106101b75760003560e01c806386adc322116100ec578063b3053c9b1161008a578063cf30901211610064578063cf309012146104a7578063d335ebda146104bc578063f029deb4146104dc578063fcb62f90146104fc576101b7565b8063b3053c9b14610452578063bc79913b14610467578063cd70f73414610494576101b7565b806396f1266e116100c657806396f1266e146103e85780639e5940cc146103fd5780639e9188ea1461041d578063ad5c46481461043d576101b7565b806386adc322146103865780638c363a0b1461039b57806392787b48146103c8576101b7565b80636c4ceb361161015957806370433d031161013357806370433d031461031a578063748365ef1461033c5780637b7fb153146103515780638637e04114610371576101b7565b80636c4ceb36146102b65780636de88d97146102e55780636eb4a74214610305576101b7565b80632ed4f578116101955780632ed4f578146102295780633eb63aa0146102565780633f1f44b014610283578063632cef90146102a3576101b7565b8063182a7506146101bc5780631a7626e7146101de578063211e28b614610209575b600080fd5b3480156101c857600080fd5b506101dc6101d73660046119e4565b61051f565b005b3480156101ea57600080fd5b506101f36105f9565b6040516102009190612097565b60405180910390f35b34801561021557600080fd5b506101dc6102243660046119ac565b610608565b34801561023557600080fd5b506102496102443660046119e4565b6106b7565b6040516102009190611c40565b34801561026257600080fd5b506102766102713660046119e4565b6106c9565b6040516102009190611b42565b34801561028f57600080fd5b506101dc61029e3660046119e4565b6106f3565b6102766102b1366004611a43565b6107e2565b3480156102c257600080fd5b506102d66102d1366004611923565b6109a4565b60405161020093929190611c15565b3480156102f157600080fd5b506102766103003660046119e4565b6109db565b34801561031157600080fd5b506102766109f6565b34801561032657600080fd5b5061032f610a0a565b6040516102009190611bbd565b34801561034857600080fd5b50610276610a6c565b34801561035d57600080fd5b506101dc61036c366004611923565b610a7b565b34801561037d57600080fd5b50610249610cd1565b34801561039257600080fd5b50610249610cf5565b3480156103a757600080fd5b506103bb6103b6366004611923565b610cfb565b6040516102009190611c0a565b3480156103d457600080fd5b506101dc6103e33660046119e4565b610da4565b3480156103f457600080fd5b50610249610f51565b34801561040957600080fd5b506101dc610418366004611ae8565b610f57565b34801561042957600080fd5b506101dc610438366004611923565b61108b565b34801561044957600080fd5b50610276611162565b34801561045e57600080fd5b50610276611171565b34801561047357600080fd5b50610487610482366004611923565b611180565b60405161020091906120ca565b6102766104a2366004611a14565b6111aa565b3480156104b357600080fd5b506103bb611649565b3480156104c857600080fd5b506102496104d7366004611923565b611652565b3480156104e857600080fd5b506101dc6104f7366004611962565b61166d565b34801561050857600080fd5b50610511611787565b6040516102009291906120ab565b60005460405163c395fcb360e01b81526001600160a01b039091169063c395fcb39061054f903390600401611b42565b60206040518083038186803b15801561056757600080fd5b505afa15801561057b573d6000803e3d6000fd5b505050506040513d601f19601f8201168201806040525081019061059f91906119c8565b6105c45760405162461bcd60e51b81526004016105bb90611ef2565b60405180910390fd5b6105cd816117a5565b600980546fffffffffffffffffffffffffffffffff19166001600160801b039290921691909117905550565b6009546001600160801b031690565b60005460405163c395fcb360e01b81526001600160a01b039091169063c395fcb390610638903390600401611b42565b60206040518083038186803b15801561065057600080fd5b505afa158015610664573d6000803e3d6000fd5b505050506040513d601f19601f8201168201806040525081019061068891906119c8565b6106a45760405162461bcd60e51b81526004016105bb90611fc0565b600a805460ff1916911515919091179055565b60076020526000908152604090205481565b600181815481106106d957600080fd5b6000918252602090912001546001600160a01b0316905081565b60005460405163c395fcb360e01b81526001600160a01b039091169063c395fcb390610723903390600401611b42565b60206040518083038186803b15801561073b57600080fd5b505afa15801561074f573d6000803e3d6000fd5b505050506040513d601f19601f8201168201806040525081019061077391906119c8565b61078f5760405162461bcd60e51b81526004016105bb90611ef2565b6103e88111156107b15760405162461bcd60e51b81526004016105bb90611d38565b6107ba816117d2565b6009805463ffffffff92909216600160801b0263ffffffff60801b1990921691909117905550565b60006107ee87856111aa565b9050841561089d576108018633876117f8565b60405163095ea7b360e01b81526001600160a01b0387169063095ea7b39061082f9084908990600401611ba4565b602060405180830381600087803b15801561084957600080fd5b505af115801561085d573d6000803e3d6000fd5b505050506040513d601f19601f8201168201806040525081019061088191906119c8565b61089d5760405162461bcd60e51b81526004016105bb90611e89565b604051637c17e46760e11b81526001600160a01b0382169063f82fc8ce906108cb9086908690600401611c60565b600060405180830381600087803b1580156108e557600080fd5b505af11580156108f9573d6000803e3d6000fd5b50505050600085111561099a576040516370a0823160e01b81526000906001600160a01b038816906370a0823190610935903090600401611b42565b60206040518083038186803b15801561094d57600080fd5b505afa158015610961573d6000803e3d6000fd5b505050506040513d601f19601f8201168201806040525081019061098591906119fc565b90508015610998576109988733836118d4565b505b9695505050505050565b60086020526000908152604090205460ff811690610100810467ffffffffffffffff1690600160481b90046001600160801b031683565b6000908152600560205260409020546001600160a01b031690565b600a5461010090046001600160a01b031681565b60606001805480602002602001604051908101604052809291908181526020018280548015610a6257602002820191906000526020600020905b81546001600160a01b03168152600190910190602001808311610a44575b5050505050905090565b6000546001600160a01b031681565b60005460405163c395fcb360e01b81526001600160a01b039091169063c395fcb390610aab903390600401611b42565b60206040518083038186803b158015610ac357600080fd5b505afa158015610ad7573d6000803e3d6000fd5b505050506040513d601f19601f82011682018060405250810190610afb91906119c8565b80610b815750600054604051637e271f0560e11b81526001600160a01b039091169063fc4e3e0a90610b31903390600401611b42565b60206040518083038186803b158015610b4957600080fd5b505afa158015610b5d573d6000803e3d6000fd5b505050506040513d601f19601f82011682018060405250810190610b8191906119c8565b610b9d5760405162461bcd60e51b81526004016105bb90611ef2565b6000816001600160a01b0316638566de4b6040518163ffffffff1660e01b815260040160206040518083038186803b158015610bd857600080fd5b505afa158015610bec573d6000803e3d6000fd5b505050506040513d601f19601f82011682018060405250810190610c1091906119fc565b905060008111610c325760405162461bcd60e51b81526004016105bb90612050565b60028054906000610c4283612135565b909155505060028054600090815260056020908152604080832080546001600160a01b0319166001600160a01b038816908117909155935493835260068252808320849055848352600790915290819020829055517f6c52e34db307a16709b387d61b2de0b4dd4a2ef6fd68b04b5515ef00a533b18f91610cc591859190611ba4565b60405180910390a15050565b7fceb69df9dd42f6c115645ad1e6ac8c9f124a39546dd50de2e04024128b14698081565b60015490565b60008054604051632474521560e21b81526001600160a01b03909116906391d1485490610d4e907fceb69df9dd42f6c115645ad1e6ac8c9f124a39546dd50de2e04024128b146980908690600401611c49565b60206040518083038186803b158015610d6657600080fd5b505afa158015610d7a573d6000803e3d6000fd5b505050506040513d601f19601f82011682018060405250810190610d9e91906119c8565b92915050565b60005460405163c395fcb360e01b81526001600160a01b039091169063c395fcb390610dd4903390600401611b42565b60206040518083038186803b158015610dec57600080fd5b505afa158015610e00573d6000803e3d6000fd5b505050506040513d601f19601f82011682018060405250810190610e2491906119c8565b80610eaa5750600054604051637e271f0560e11b81526001600160a01b039091169063fc4e3e0a90610e5a903390600401611b42565b60206040518083038186803b158015610e7257600080fd5b505afa158015610e86573d6000803e3d6000fd5b505050506040513d601f19601f82011682018060405250810190610eaa91906119c8565b610ec65760405162461bcd60e51b81526004016105bb90611ef2565b6000818152600560205260409020546001600160a01b0316610ee757600080fd5b600081815260056020908152604080832080546001600160a01b031981169091556001600160a01b031680845260069092528083209290925590517f9c4b27a4ee95cde6444d871111211ff603accbdff0b4e96e07af9f4eba52be5790610cc59083908590611ba4565b60025481565b60005460405163c395fcb360e01b81526001600160a01b039091169063c395fcb390610f87903390600401611b42565b60206040518083038186803b158015610f9f57600080fd5b505afa158015610fb3573d6000803e3d6000fd5b505050506040513d601f19601f82011682018060405250810190610fd791906119c8565b8061105d5750600054604051637e271f0560e11b81526001600160a01b039091169063fc4e3e0a9061100d903390600401611b42565b60206040518083038186803b15801561102557600080fd5b505afa158015611039573d6000803e3d6000fd5b505050506040513d601f19601f8201168201806040525081019061105d91906119c8565b6110795760405162461bcd60e51b81526004016105bb90611fc0565b60009182526007602052604090912055565b60005460405163c395fcb360e01b81526001600160a01b039091169063c395fcb3906110bb903390600401611b42565b60206040518083038186803b1580156110d357600080fd5b505afa1580156110e7573d6000803e3d6000fd5b505050506040513d601f19601f8201168201806040525081019061110b91906119c8565b6111275760405162461bcd60e51b81526004016105bb90612003565b6001600160a01b03811661113a57600080fd5b600a80546001600160a01b0390921661010002610100600160a81b0319909216919091179055565b6003546001600160a01b031681565b6004546001600160a01b031681565b6001600160a01b0316600090815260086020526040902054610100900467ffffffffffffffff1690565b600a5460009060ff16156112e95760005460405163c395fcb360e01b81526001600160a01b039091169063c395fcb3906111e8903390600401611b42565b60206040518083038186803b15801561120057600080fd5b505afa158015611214573d6000803e3d6000fd5b505050506040513d601f19601f8201168201806040525081019061123891906119c8565b806112be575060005460405163099db01760e01b81526001600160a01b039091169063099db0179061126e903390600401611b42565b60206040518083038186803b15801561128657600080fd5b505afa15801561129a573d6000803e3d6000fd5b505050506040513d601f19601f820116820180604052508101906112be91906119c8565b806112cd57506112cd33610cfb565b6112e95760405162461bcd60e51b81526004016105bb90611ea4565b6040805180820182526009546001600160801b038082168352600160801b90910463ffffffff16602080840191909152600087815260059091529290922054815191926001600160a01b0390911691163410156113585760405162461bcd60e51b81526004016105bb90611c8f565b6001600160a01b03811661137e5760405162461bcd60e51b81526004016105bb90611db7565b6000346001600160a01b038616158015906113ac5750600a546001600160a01b038781166101009092041614155b156113e3576103e8846020015163ffffffff16826113ca91906120ff565b6113d491906120df565b91506113e0828261211e565b90505b60048054604051631f54245b60e01b81526001600160a01b0390911691631f54245b9161141591879160009101611b7a565b602060405180830381600087803b15801561142f57600080fd5b505af1158015611443573d6000803e3d6000fd5b505050506040513d601f19601f820116820180604052508101906114679190611946565b94506040518060600160405280600115158152602001611486896118f9565b67ffffffffffffffff1681526020016114a36001805490506117a5565b6001600160801b039081169091526001600160a01b038088166000818152600860209081526040808320875181548985015199840151909816600160481b0278ffffffffffffffffffffffffffffffff0000000000000000001967ffffffffffffffff909a166101000268ffffffffffffffff001992151560ff19909a169990991791909116979097179790971695909517909555600180548082019091557fb10e2d527612073b26eecdfd717e6a320cf44b4afac2b0732d9fcbe2b7fa0cf60180546001600160a01b031916831790558b815260059094529282902054915133927f3ba8b254094e662ed7500a3ad77fd9f4f041f221a7b9f0714e3fdbf324c5d863926115b392911690611b42565b60405180910390a3801561160157600a546040516101009091046001600160a01b0316906108fc8315029083906000818181858888f193505050501580156115ff573d6000803e3d6000fd5b505b811561163f576040516001600160a01b0387169083156108fc029084906000818181858888f1935050505015801561163d573d6000803e3d6000fd5b505b5050505092915050565b600a5460ff1681565b6001600160a01b031660009081526006602052604090205490565b600054600160a01b900460ff161561168457600080fd5b6001600160a01b0382166116aa5760405162461bcd60e51b81526004016105bb90611e3c565b6001600160a01b0383166116d05760405162461bcd60e51b81526004016105bb90611cdb565b6001600160a01b0381166116f65760405162461bcd60e51b81526004016105bb90611f38565b60008054600480546001600160a01b03199081166001600160a01b0386811691909117909255600380548216878416179055600a805460ff19166001179055600160a01b92169086161760ff60a01b19161790556040517f6c60faff639da6beda457ab6e58bec8f9d637c557cd7462a96aa5a9ea7f0f9f39061177a903390611b42565b60405180910390a1505050565b6009546001600160801b03811690600160801b900463ffffffff1682565b60006001600160801b038211156117ce5760405162461bcd60e51b81526004016105bb90611d80565b5090565b600063ffffffff8211156117ce5760405162461bcd60e51b81526004016105bb90611f89565b600080846001600160a01b03166323b872dd85308660405160240161181f93929190611b56565b6040516020818303038152906040529060e01b6020820180516001600160e01b0383818316178352505050506040516118589190611b09565b6000604051808303816000865af19150503d8060008114611895576040519150601f19603f3d011682016040523d82523d6000602084013e61189a565b606091505b50915091508180156118c45750805115806118c45750808060200190518101906118c491906119c8565b6118cd57600080fd5b5050505050565b600080846001600160a01b031663a9059cbb858560405160240161181f929190611ba4565b600067ffffffffffffffff8211156117ce5760405162461bcd60e51b81526004016105bb90611e05565b600060208284031215611934578081fd5b813561193f81612166565b9392505050565b600060208284031215611957578081fd5b815161193f81612166565b600080600060608486031215611976578182fd5b833561198181612166565b9250602084013561199181612166565b915060408401356119a181612166565b809150509250925092565b6000602082840312156119bd578081fd5b813561193f8161217e565b6000602082840312156119d9578081fd5b815161193f8161217e565b6000602082840312156119f5578081fd5b5035919050565b600060208284031215611a0d578081fd5b5051919050565b60008060408385031215611a26578182fd5b823591506020830135611a3881612166565b809150509250929050565b60008060008060008060a08789031215611a5b578182fd5b863595506020870135611a6d81612166565b9450604087013593506060870135611a8481612166565b9250608087013567ffffffffffffffff80821115611aa0578384fd5b818901915089601f830112611ab3578384fd5b813581811115611ac1578485fd5b8a6020828501011115611ad2578485fd5b6020830194508093505050509295509295509295565b60008060408385031215611afa578182fd5b50508035926020909101359150565b60008251815b81811015611b295760208186018101518583015201611b0f565b81811115611b375782828501525b509190910192915050565b6001600160a01b0391909116815260200190565b6001600160a01b039384168152919092166020820152604081019190915260600190565b6001600160a01b039290921682526060602083018190526000908301521515604082015260800190565b6001600160a01b03929092168252602082015260400190565b6020808252825182820181905260009190848201906040850190845b81811015611bfe5783516001600160a01b031683529284019291840191600101611bd9565b50909695505050505050565b901515815260200190565b921515835267ffffffffffffffff9190911660208301526001600160801b0316604082015260600190565b90815260200190565b9182526001600160a01b0316602082015260400190565b60006020825282602083015282846040840137818301604090810191909152601f909201601f19160101919050565b6020808252602c908201527f464c5942594c61756e636865723a204661696c656420746f207472616e73666560408201526b72206d696e696d756d46656560a01b606082015260800190565b60208082526037908201527f696e6974464c5942594c61756e636865723a20616363657373436f6e74726f6c60408201527f732063616e6e6f742062652073657420746f207a65726f000000000000000000606082015260800190565b60208082526028908201527f464c5942594c61756e636865723a2050657263656e74616765206973206f75746040820152670206f6620313030360c41b606082015260800190565b6020808252601c908201527f426f72696e674d6174683a2075696e74313238204f766572666c6f7700000000604082015260600190565b6020808252602e908201527f464c5942594c61756e636865723a204c61756e636865722074656d706c61746560408201526d08191bd95cdb89dd08195e1a5cdd60921b606082015260800190565b6020808252601b908201527f426f72696e674d6174683a2075696e743634204f766572666c6f770000000000604082015260600190565b6020808252602d908201527f696e6974464c5942594c61756e636865723a20574554482063616e6e6f74206260408201526c652073657420746f207a65726f60981b606082015260800190565b6020808252600190820152603160f81b604082015260600190565b6020808252602e908201527f464c5942594c61756e636865723a2053656e646572206d757374206265206d6960408201526d1b9d195c881a59881b1bd8dad95960921b606082015260800190565b60208082526026908201527f464c5942594c61756e636865723a2053656e646572206d757374206265206f7060408201526532b930ba37b960d11b606082015260800190565b60208082526031908201527f696e6974464c5942594c61756e636865723a207370616365426f782063616e6e6040820152706f742062652073657420746f207a65726f60781b606082015260800190565b6020808252601b908201527f426f72696e674d6174683a2075696e743332204f766572666c6f770000000000604082015260600190565b60208082526023908201527f464c5942594c61756e636865723a2053656e646572206d75737420626520616460408201526236b4b760e91b606082015260800190565b6020808252602d908201527f464c5942594c61756e636865722e7365744465763a2053656e646572206d757360408201526c3a1031329037b832b930ba37b960991b606082015260800190565b60208082526027908201527f464c5942594c61756e636865723a20496e636f72726563742074656d706c61746040820152660329031b7b232960cd1b606082015260800190565b6001600160801b0391909116815260200190565b6001600160801b0392909216825263ffffffff16602082015260400190565b67ffffffffffffffff91909116815260200190565b6000826120fa57634e487b7160e01b81526012600452602481fd5b500490565b600081600019048311821515161561211957612119612150565b500290565b60008282101561213057612130612150565b500390565b600060001982141561214957612149612150565b5060010190565b634e487b7160e01b600052601160045260246000fd5b6001600160a01b038116811461217b57600080fd5b50565b801515811461217b57600080fdfea2646970667358221220f210d101a5543111336ec986ff5ea6f52ca51635cf269d3ee37503bf2dfe453064736f6c63430008000033",
  "devdoc": {
    "kind": "dev",
    "methods": {},
    "version": 1
  },
  "userdoc": {
    "kind": "user",
    "methods": {},
    "version": 1
  },
  "storageLayout": {
    "storage": [
      {
        "astId": 7045,
        "contract": "contracts/FLYBYLauncher.sol:FLYBYLauncher",
        "label": "accessControls",
        "offset": 0,
        "slot": "0",
        "type": "t_contract(FLYBYAccessControls)208"
      },
      {
        "astId": 7052,
        "contract": "contracts/FLYBYLauncher.sol:FLYBYLauncher",
        "label": "initialised",
        "offset": 20,
        "slot": "0",
        "type": "t_bool"
      },
      {
        "astId": 7062,
        "contract": "contracts/FLYBYLauncher.sol:FLYBYLauncher",
        "label": "launchers",
        "offset": 0,
        "slot": "1",
        "type": "t_array(t_address)dyn_storage"
      },
      {
        "astId": 7064,
        "contract": "contracts/FLYBYLauncher.sol:FLYBYLauncher",
        "label": "launcherTemplateId",
        "offset": 0,
        "slot": "2",
        "type": "t_uint256"
      },
      {
        "astId": 7066,
        "contract": "contracts/FLYBYLauncher.sol:FLYBYLauncher",
        "label": "WETH",
        "offset": 0,
        "slot": "3",
        "type": "t_address"
      },
      {
        "astId": 7069,
        "contract": "contracts/FLYBYLauncher.sol:FLYBYLauncher",
        "label": "spaceBox",
        "offset": 0,
        "slot": "4",
        "type": "t_contract(ISpaceBoxFactory)11373"
      },
      {
        "astId": 7073,
        "contract": "contracts/FLYBYLauncher.sol:FLYBYLauncher",
        "label": "launcherTemplates",
        "offset": 0,
        "slot": "5",
        "type": "t_mapping(t_uint256,t_address)"
      },
      {
        "astId": 7077,
        "contract": "contracts/FLYBYLauncher.sol:FLYBYLauncher",
        "label": "launcherTemplateToId",
        "offset": 0,
        "slot": "6",
        "type": "t_mapping(t_address,t_uint256)"
      },
      {
        "astId": 7081,
        "contract": "contracts/FLYBYLauncher.sol:FLYBYLauncher",
        "label": "currentTemplateId",
        "offset": 0,
        "slot": "7",
        "type": "t_mapping(t_uint256,t_uint256)"
      },
      {
        "astId": 7086,
        "contract": "contracts/FLYBYLauncher.sol:FLYBYLauncher",
        "label": "launcherInfo",
        "offset": 0,
        "slot": "8",
        "type": "t_mapping(t_address,t_struct(Launcher)7059_storage)"
      },
      {
        "astId": 7094,
        "contract": "contracts/FLYBYLauncher.sol:FLYBYLauncher",
        "label": "launcherFees",
        "offset": 0,
        "slot": "9",
        "type": "t_struct(LauncherFees)7091_storage"
      },
      {
        "astId": 7096,
        "contract": "contracts/FLYBYLauncher.sol:FLYBYLauncher",
        "label": "locked",
        "offset": 0,
        "slot": "10",
        "type": "t_bool"
      },
      {
        "astId": 7098,
        "contract": "contracts/FLYBYLauncher.sol:FLYBYLauncher",
        "label": "flybyDiv",
        "offset": 1,
        "slot": "10",
        "type": "t_address_payable"
      }
    ],
    "types": {
      "t_address": {
        "encoding": "inplace",
        "label": "address",
        "numberOfBytes": "20"
      },
      "t_address_payable": {
        "encoding": "inplace",
        "label": "address payable",
        "numberOfBytes": "20"
      },
      "t_array(t_address)dyn_storage": {
        "base": "t_address",
        "encoding": "dynamic_array",
        "label": "address[]",
        "numberOfBytes": "32"
      },
      "t_bool": {
        "encoding": "inplace",
        "label": "bool",
        "numberOfBytes": "1"
      },
      "t_contract(FLYBYAccessControls)208": {
        "encoding": "inplace",
        "label": "contract FLYBYAccessControls",
        "numberOfBytes": "20"
      },
      "t_contract(ISpaceBoxFactory)11373": {
        "encoding": "inplace",
        "label": "contract ISpaceBoxFactory",
        "numberOfBytes": "20"
      },
      "t_mapping(t_address,t_struct(Launcher)7059_storage)": {
        "encoding": "mapping",
        "key": "t_address",
        "label": "mapping(address => struct FLYBYLauncher.Launcher)",
        "numberOfBytes": "32",
        "value": "t_struct(Launcher)7059_storage"
      },
      "t_mapping(t_address,t_uint256)": {
        "encoding": "mapping",
        "key": "t_address",
        "label": "mapping(address => uint256)",
        "numberOfBytes": "32",
        "value": "t_uint256"
      },
      "t_mapping(t_uint256,t_address)": {
        "encoding": "mapping",
        "key": "t_uint256",
        "label": "mapping(uint256 => address)",
        "numberOfBytes": "32",
        "value": "t_address"
      },
      "t_mapping(t_uint256,t_uint256)": {
        "encoding": "mapping",
        "key": "t_uint256",
        "label": "mapping(uint256 => uint256)",
        "numberOfBytes": "32",
        "value": "t_uint256"
      },
      "t_struct(Launcher)7059_storage": {
        "encoding": "inplace",
        "label": "struct FLYBYLauncher.Launcher",
        "members": [
          {
            "astId": 7054,
            "contract": "contracts/FLYBYLauncher.sol:FLYBYLauncher",
            "label": "exists",
            "offset": 0,
            "slot": "0",
            "type": "t_bool"
          },
          {
            "astId": 7056,
            "contract": "contracts/FLYBYLauncher.sol:FLYBYLauncher",
            "label": "templateId",
            "offset": 1,
            "slot": "0",
            "type": "t_uint64"
          },
          {
            "astId": 7058,
            "contract": "contracts/FLYBYLauncher.sol:FLYBYLauncher",
            "label": "index",
            "offset": 9,
            "slot": "0",
            "type": "t_uint128"
          }
        ],
        "numberOfBytes": "32"
      },
      "t_struct(LauncherFees)7091_storage": {
        "encoding": "inplace",
        "label": "struct FLYBYLauncher.LauncherFees",
        "members": [
          {
            "astId": 7088,
            "contract": "contracts/FLYBYLauncher.sol:FLYBYLauncher",
            "label": "minimumFee",
            "offset": 0,
            "slot": "0",
            "type": "t_uint128"
          },
          {
            "astId": 7090,
            "contract": "contracts/FLYBYLauncher.sol:FLYBYLauncher",
            "label": "integratorFeePct",
            "offset": 16,
            "slot": "0",
            "type": "t_uint32"
          }
        ],
        "numberOfBytes": "32"
      },
      "t_uint128": {
        "encoding": "inplace",
        "label": "uint128",
        "numberOfBytes": "16"
      },
      "t_uint256": {
        "encoding": "inplace",
        "label": "uint256",
        "numberOfBytes": "32"
      },
      "t_uint32": {
        "encoding": "inplace",
        "label": "uint32",
        "numberOfBytes": "4"
      },
      "t_uint64": {
        "encoding": "inplace",
        "label": "uint64",
        "numberOfBytes": "8"
      }
    }
  }
}