{
  "address": "0x8F8dbD1159A9664F861d9179889a98D65f5D0235",
  "abi": [
    {
      "anonymous": false,
      "inputs": [
        {
          "indexed": false,
          "internalType": "address",
          "name": "sender",
          "type": "address"
        }
      ],
      "name": "FlybyInitTokenFactory",
      "type": "event"
    },
    {
      "anonymous": false,
      "inputs": [
        {
          "indexed": true,
          "internalType": "address",
          "name": "owner",
          "type": "address"
        },
        {
          "indexed": true,
          "internalType": "address",
          "name": "addr",
          "type": "address"
        },
        {
          "indexed": false,
          "internalType": "address",
          "name": "tokenTemplate",
          "type": "address"
        }
      ],
      "name": "TokenCreated",
      "type": "event"
    },
    {
      "anonymous": false,
      "inputs": [
        {
          "indexed": true,
          "internalType": "address",
          "name": "addr",
          "type": "address"
        },
        {
          "indexed": false,
          "internalType": "uint256",
          "name": "templateId",
          "type": "uint256"
        },
        {
          "indexed": false,
          "internalType": "bytes",
          "name": "data",
          "type": "bytes"
        }
      ],
      "name": "TokenInitialized",
      "type": "event"
    },
    {
      "anonymous": false,
      "inputs": [
        {
          "indexed": false,
          "internalType": "address",
          "name": "newToken",
          "type": "address"
        },
        {
          "indexed": false,
          "internalType": "uint256",
          "name": "templateId",
          "type": "uint256"
        }
      ],
      "name": "TokenTemplateAdded",
      "type": "event"
    },
    {
      "anonymous": false,
      "inputs": [
        {
          "indexed": false,
          "internalType": "address",
          "name": "token",
          "type": "address"
        },
        {
          "indexed": false,
          "internalType": "uint256",
          "name": "templateId",
          "type": "uint256"
        }
      ],
      "name": "TokenTemplateRemoved",
      "type": "event"
    },
    {
      "inputs": [],
      "name": "TOKEN_MINTER_ROLE",
      "outputs": [
        {
          "internalType": "bytes32",
          "name": "",
          "type": "bytes32"
        }
      ],
      "stateMutability": "view",
      "type": "function"
    },
    {
      "inputs": [],
      "name": "accessControls",
      "outputs": [
        {
          "internalType": "contract FLYBYAccessControls",
          "name": "",
          "type": "address"
        }
      ],
      "stateMutability": "view",
      "type": "function"
    },
    {
      "inputs": [
        {
          "internalType": "address",
          "name": "_template",
          "type": "address"
        }
      ],
      "name": "addTokenTemplate",
      "outputs": [],
      "stateMutability": "nonpayable",
      "type": "function"
    },
    {
      "inputs": [
        {
          "internalType": "uint256",
          "name": "_templateId",
          "type": "uint256"
        },
        {
          "internalType": "address payable",
          "name": "_integratorFeeAccount",
          "type": "address"
        },
        {
          "internalType": "bytes",
          "name": "_data",
          "type": "bytes"
        }
      ],
      "name": "createToken",
      "outputs": [
        {
          "internalType": "address",
          "name": "token",
          "type": "address"
        }
      ],
      "stateMutability": "payable",
      "type": "function"
    },
    {
      "inputs": [
        {
          "internalType": "uint256",
          "name": "",
          "type": "uint256"
        }
      ],
      "name": "currentTemplateId",
      "outputs": [
        {
          "internalType": "uint256",
          "name": "",
          "type": "uint256"
        }
      ],
      "stateMutability": "view",
      "type": "function"
    },
    {
      "inputs": [
        {
          "internalType": "uint256",
          "name": "_templateId",
          "type": "uint256"
        },
        {
          "internalType": "address payable",
          "name": "_integratorFeeAccount",
          "type": "address"
        }
      ],
      "name": "deployToken",
      "outputs": [
        {
          "internalType": "address",
          "name": "token",
          "type": "address"
        }
      ],
      "stateMutability": "payable",
      "type": "function"
    },
    {
      "inputs": [],
      "name": "flybyDiv",
      "outputs": [
        {
          "internalType": "address payable",
          "name": "",
          "type": "address"
        }
      ],
      "stateMutability": "view",
      "type": "function"
    },
    {
      "inputs": [
        {
          "internalType": "address",
          "name": "_tokenTemplate",
          "type": "address"
        }
      ],
      "name": "getTemplateId",
      "outputs": [
        {
          "internalType": "uint256",
          "name": "",
          "type": "uint256"
        }
      ],
      "stateMutability": "view",
      "type": "function"
    },
    {
      "inputs": [
        {
          "internalType": "uint256",
          "name": "_templateId",
          "type": "uint256"
        }
      ],
      "name": "getTokenTemplate",
      "outputs": [
        {
          "internalType": "address",
          "name": "",
          "type": "address"
        }
      ],
      "stateMutability": "view",
      "type": "function"
    },
    {
      "inputs": [],
      "name": "getTokens",
      "outputs": [
        {
          "internalType": "address[]",
          "name": "",
          "type": "address[]"
        }
      ],
      "stateMutability": "view",
      "type": "function"
    },
    {
      "inputs": [
        {
          "internalType": "address",
          "name": "_address",
          "type": "address"
        }
      ],
      "name": "hasTokenMinterRole",
      "outputs": [
        {
          "internalType": "bool",
          "name": "",
          "type": "bool"
        }
      ],
      "stateMutability": "view",
      "type": "function"
    },
    {
      "inputs": [
        {
          "internalType": "address",
          "name": "_accessControls",
          "type": "address"
        }
      ],
      "name": "initFLYBYTokenFactory",
      "outputs": [],
      "stateMutability": "nonpayable",
      "type": "function"
    },
    {
      "inputs": [],
      "name": "integratorFeePct",
      "outputs": [
        {
          "internalType": "uint256",
          "name": "",
          "type": "uint256"
        }
      ],
      "stateMutability": "view",
      "type": "function"
    },
    {
      "inputs": [],
      "name": "locked",
      "outputs": [
        {
          "internalType": "bool",
          "name": "",
          "type": "bool"
        }
      ],
      "stateMutability": "view",
      "type": "function"
    },
    {
      "inputs": [],
      "name": "minimumFee",
      "outputs": [
        {
          "internalType": "uint256",
          "name": "",
          "type": "uint256"
        }
      ],
      "stateMutability": "view",
      "type": "function"
    },
    {
      "inputs": [],
      "name": "numberOfTokens",
      "outputs": [
        {
          "internalType": "uint256",
          "name": "",
          "type": "uint256"
        }
      ],
      "stateMutability": "view",
      "type": "function"
    },
    {
      "inputs": [
        {
          "internalType": "uint256",
          "name": "_templateId",
          "type": "uint256"
        }
      ],
      "name": "removeTokenTemplate",
      "outputs": [],
      "stateMutability": "nonpayable",
      "type": "function"
    },
    {
      "inputs": [
        {
          "internalType": "uint256",
          "name": "_templateType",
          "type": "uint256"
        },
        {
          "internalType": "uint256",
          "name": "_templateId",
          "type": "uint256"
        }
      ],
      "name": "setCurrentTemplateId",
      "outputs": [],
      "stateMutability": "nonpayable",
      "type": "function"
    },
    {
      "inputs": [
        {
          "internalType": "address payable",
          "name": "_divaddr",
          "type": "address"
        }
      ],
      "name": "setDividends",
      "outputs": [],
      "stateMutability": "nonpayable",
      "type": "function"
    },
    {
      "inputs": [
        {
          "internalType": "uint256",
          "name": "_amount",
          "type": "uint256"
        }
      ],
      "name": "setIntegratorFeePct",
      "outputs": [],
      "stateMutability": "nonpayable",
      "type": "function"
    },
    {
      "inputs": [
        {
          "internalType": "bool",
          "name": "_locked",
          "type": "bool"
        }
      ],
      "name": "setLocked",
      "outputs": [],
      "stateMutability": "nonpayable",
      "type": "function"
    },
    {
      "inputs": [
        {
          "internalType": "uint256",
          "name": "_amount",
          "type": "uint256"
        }
      ],
      "name": "setMinimumFee",
      "outputs": [],
      "stateMutability": "nonpayable",
      "type": "function"
    },
    {
      "inputs": [
        {
          "internalType": "address",
          "name": "",
          "type": "address"
        }
      ],
      "name": "tokenInfo",
      "outputs": [
        {
          "internalType": "bool",
          "name": "exists",
          "type": "bool"
        },
        {
          "internalType": "uint256",
          "name": "templateId",
          "type": "uint256"
        },
        {
          "internalType": "uint256",
          "name": "index",
          "type": "uint256"
        }
      ],
      "stateMutability": "view",
      "type": "function"
    },
    {
      "inputs": [],
      "name": "tokenTemplateId",
      "outputs": [
        {
          "internalType": "uint256",
          "name": "",
          "type": "uint256"
        }
      ],
      "stateMutability": "view",
      "type": "function"
    },
    {
      "inputs": [
        {
          "internalType": "uint256",
          "name": "",
          "type": "uint256"
        }
      ],
      "name": "tokens",
      "outputs": [
        {
          "internalType": "address",
          "name": "",
          "type": "address"
        }
      ],
      "stateMutability": "view",
      "type": "function"
    }
  ],
  "transactionHash": "0x4d4730c759209c61c769a91b310943de5d16b95cc01851bd1df628e23e9e9002",
  "args": [],
  "solcInputHash": "0bb2481c0a33b756a35d8c75b9e1dee6",
  "bytecode": "0x608060405234801561001057600080fd5b50611cf4806100206000396000f3fe6080604052600436106101665760003560e01c8063512b336d116100d15780639e9188ea1161008a578063cf30901211610064578063cf309012146103e3578063d335ebda146103f8578063f5dab71114610418578063f9f16ef21461044757610166565b80639e9188ea14610381578063aa6ca808146103a1578063b3c93151146103c357610166565b8063512b336d146102ef5780636eb4a74214610304578063748365ef146103195780637b20bccf1461032e578063870837d71461034e5780639e5940cc1461036157610166565b80632ed4f578116101235780632ed4f57814610238578063361dbb4a146102585780633f1f44b01461028557806343efca82146102a55780634520ca75146102ba5780634f64b2be146102cf57610166565b8063042ab9b31461016b5780630bf18f85146101a1578063182a7506146101b45780631a7626e7146101d6578063211e28b6146101f8578063265b41f714610218575b600080fd5b34801561017757600080fd5b5061018b610186366004611722565b61045c565b6040516101989190611889565b60405180910390f35b61018b6101af366004611752565b610477565b3480156101c057600080fd5b506101d46101cf366004611722565b6107e6565b005b3480156101e257600080fd5b506101eb610887565b6040516101989190611926565b34801561020457600080fd5b506101d46102133660046116ea565b61088d565b34801561022457600080fd5b506101d46102333660046116c7565b61093c565b34801561024457600080fd5b506101eb610253366004611722565b6109c7565b34801561026457600080fd5b506102786102733660046116c7565b6109d9565b6040516101989190611903565b34801561029157600080fd5b506101d46102a0366004611722565b610a82565b3480156102b157600080fd5b506101eb610b45565b3480156102c657600080fd5b506101eb610b4b565b3480156102db57600080fd5b5061018b6102ea366004611722565b610b51565b3480156102fb57600080fd5b506101eb610b7b565b34801561031057600080fd5b5061018b610b9f565b34801561032557600080fd5b5061018b610bb3565b34801561033a57600080fd5b506101d46103493660046116c7565b610bc2565b61018b61035c366004611781565b610e4e565b34801561036d57600080fd5b506101d461037c366004611805565b610f9c565b34801561038d57600080fd5b506101d461039c3660046116c7565b6111aa565b3480156103ad57600080fd5b506103b6611281565b60405161019891906118b6565b3480156103cf57600080fd5b506101d46103de366004611722565b6112e3565b3480156103ef57600080fd5b5061027861154b565b34801561040457600080fd5b506101eb6104133660046116c7565b611554565b34801561042457600080fd5b506104386104333660046116c7565b61156f565b6040516101989392919061190e565b34801561045357600080fd5b506101eb611595565b6000908152600460205260409020546001600160a01b031690565b60095460009060ff16156105bf5760005460405163c395fcb360e01b81526001600160a01b039091169063c395fcb3906104b5903390600401611889565b60206040518083038186803b1580156104cd57600080fd5b505afa1580156104e1573d6000803e3d6000fd5b505050506040513d601f19601f820116820180604052508101906105059190611706565b8061058b575060005460405163099db01760e01b81526001600160a01b039091169063099db0179061053b903390600401611889565b60206040518083038186803b15801561055357600080fd5b505afa158015610567573d6000803e3d6000fd5b505050506040513d601f19601f8201168201806040525081019061058b9190611706565b8061059a575061059a336109d9565b6105bf5760405162461bcd60e51b81526004016105b6906119e8565b60405180910390fd5b6007543410156105e15760405162461bcd60e51b81526004016105b690611a3a565b6000838152600460205260409020546001600160a01b031661060257600080fd5b6000346001600160a01b0384161580159061063057506009546001600160a01b038581166101009092041614155b1561065f576103e8600854826106469190611c31565b6106509190611c11565b915061065c8282611c50565b90505b600085815260046020526040902054610680906001600160a01b031661159b565b60408051606081018252600180825260208083018a8152600280548587019081526001600160a01b0388811660008181528787528981209851895460ff191690151517895594518888015591519683019690965581549485019091557f405787fa12a823e0f2b7631cc41b3ba8828b3321ca811111fa75cd3aa3bb5ace90930180546001600160a01b031916841790558a815260049091528390205492519396509233927fb5a149b73151b44553ff737ca050c61de65038e2ae67ec044215d3261cc6fa009261075292911690611889565b60405180910390a380156107a0576009546040516101009091046001600160a01b0316906108fc8315029083906000818181858888f1935050505015801561079e573d6000803e3d6000fd5b505b81156107de576040516001600160a01b0385169083156108fc029084906000818181858888f193505050501580156107dc573d6000803e3d6000fd5b505b505092915050565b60005460405163c395fcb360e01b81526001600160a01b039091169063c395fcb390610816903390600401611889565b60206040518083038186803b15801561082e57600080fd5b505afa158015610842573d6000803e3d6000fd5b505050506040513d601f19601f820116820180604052508101906108669190611706565b6108825760405162461bcd60e51b81526004016105b690611b13565b600755565b60075481565b60005460405163c395fcb360e01b81526001600160a01b039091169063c395fcb3906108bd903390600401611889565b60206040518083038186803b1580156108d557600080fd5b505afa1580156108e9573d6000803e3d6000fd5b505050506040513d601f19601f8201168201806040525081019061090d9190611706565b6109295760405162461bcd60e51b81526004016105b690611acc565b6009805460ff1916911515919091179055565b600054600160a01b900460ff161561095357600080fd5b6000805460098054600160ff19909116179055600160a01b60ff60a01b19909116176001600160a01b0319166001600160a01b0383161790556040517f4ba946cbcec8a19e7bc293a23390942c631a52dbf03a4e982fee9d06abcfeaab906109bc903390611889565b60405180910390a150565b60066020526000908152604090205481565b60008054604051632474521560e21b81526001600160a01b03909116906391d1485490610a2c907fb3bb6029312d1001076133d40b75b7eca92ba54e4963b3ce24e1486a3d5a038b90869060040161192f565b60206040518083038186803b158015610a4457600080fd5b505afa158015610a58573d6000803e3d6000fd5b505050506040513d601f19601f82011682018060405250810190610a7c9190611706565b92915050565b60005460405163c395fcb360e01b81526001600160a01b039091169063c395fcb390610ab2903390600401611889565b60206040518083038186803b158015610aca57600080fd5b505afa158015610ade573d6000803e3d6000fd5b505050506040513d601f19601f82011682018060405250810190610b029190611706565b610b1e5760405162461bcd60e51b81526004016105b690611b13565b6103e8811115610b405760405162461bcd60e51b81526004016105b690611b5d565b600855565b60035481565b60085481565b60028181548110610b6157600080fd5b6000918252602090912001546001600160a01b0316905081565b7fb3bb6029312d1001076133d40b75b7eca92ba54e4963b3ce24e1486a3d5a038b81565b60095461010090046001600160a01b031681565b6000546001600160a01b031681565b60005460405163c395fcb360e01b81526001600160a01b039091169063c395fcb390610bf2903390600401611889565b60206040518083038186803b158015610c0a57600080fd5b505afa158015610c1e573d6000803e3d6000fd5b505050506040513d601f19601f82011682018060405250810190610c429190611706565b80610cc85750600054604051637e271f0560e11b81526001600160a01b039091169063fc4e3e0a90610c78903390600401611889565b60206040518083038186803b158015610c9057600080fd5b505afa158015610ca4573d6000803e3d6000fd5b505050506040513d601f19601f82011682018060405250810190610cc89190611706565b610ce45760405162461bcd60e51b81526004016105b690611b13565b6000816001600160a01b0316630814d3dd6040518163ffffffff1660e01b815260040160206040518083038186803b158015610d1f57600080fd5b505afa158015610d33573d6000803e3d6000fd5b505050506040513d601f19601f82011682018060405250810190610d57919061173a565b905060008111610d795760405162461bcd60e51b81526004016105b690611ba7565b6001600160a01b03821660009081526005602052604090205415610daf5760405162461bcd60e51b81526004016105b690611962565b60038054906000610dbf83611c67565b909155505060038054600090815260046020908152604080832080546001600160a01b0319166001600160a01b038816908117909155935493835260058252808320849055848352600690915290819020829055517f95595b6ea45697235ed18194d52346c97420d7edf2aa7fc902cb37e25f81962e91610e429185919061189d565b60405180910390a15050565b6000806001600160a01b03167fb16d4375f452e77e87811cc8f3549effd92a08a60c760f79ba9e2de067c95e30868585604051610e8d93929190611bee565b60405180910390a2610e9f8585610477565b60405162c1639960e71b81529091506001600160a01b038216906360b1cc8090610ecf9086908690600401611946565b600060405180830381600087803b158015610ee957600080fd5b505af1158015610efd573d6000803e3d6000fd5b50506040516370a0823160e01b8152600092506001600160a01b03841691506370a0823190610f30903090600401611889565b60206040518083038186803b158015610f4857600080fd5b505afa158015610f5c573d6000803e3d6000fd5b505050506040513d601f19601f82011682018060405250810190610f80919061173a565b90508015610f9357610f938233836115ed565b50949350505050565b60005460405163c395fcb360e01b81526001600160a01b039091169063c395fcb390610fcc903390600401611889565b60206040518083038186803b158015610fe457600080fd5b505afa158015610ff8573d6000803e3d6000fd5b505050506040513d601f19601f8201168201806040525081019061101c9190611706565b806110a25750600054604051637e271f0560e11b81526001600160a01b039091169063fc4e3e0a90611052903390600401611889565b60206040518083038186803b15801561106a57600080fd5b505afa15801561107e573d6000803e3d6000fd5b505050506040513d601f19601f820116820180604052508101906110a29190611706565b6110be5760405162461bcd60e51b81526004016105b690611acc565b6000818152600460205260409020546001600160a01b03166110f25760405162461bcd60e51b81526004016105b690611a8a565b600081815260046020818152604092839020548351630814d3dd60e01b8152935186946001600160a01b0390921693630814d3dd938382019390929190829003018186803b15801561114357600080fd5b505afa158015611157573d6000803e3d6000fd5b505050506040513d601f19601f8201168201806040525081019061117b919061173a565b146111985760405162461bcd60e51b81526004016105b6906119a4565b60009182526006602052604090912055565b60005460405163c395fcb360e01b81526001600160a01b039091169063c395fcb3906111da903390600401611889565b60206040518083038186803b1580156111f257600080fd5b505afa158015611206573d6000803e3d6000fd5b505050506040513d601f19601f8201168201806040525081019061122a9190611706565b6112465760405162461bcd60e51b81526004016105b690611b13565b6001600160a01b03811661125957600080fd5b600980546001600160a01b0390921661010002610100600160a81b0319909216919091179055565b606060028054806020026020016040519081016040528092919081815260200182805480156112d957602002820191906000526020600020905b81546001600160a01b031681526001909101906020018083116112bb575b5050505050905090565b60005460405163c395fcb360e01b81526001600160a01b039091169063c395fcb390611313903390600401611889565b60206040518083038186803b15801561132b57600080fd5b505afa15801561133f573d6000803e3d6000fd5b505050506040513d601f19601f820116820180604052508101906113639190611706565b806113e95750600054604051637e271f0560e11b81526001600160a01b039091169063fc4e3e0a90611399903390600401611889565b60206040518083038186803b1580156113b157600080fd5b505afa1580156113c5573d6000803e3d6000fd5b505050506040513d601f19601f820116820180604052508101906113e99190611706565b6114055760405162461bcd60e51b81526004016105b690611b13565b6000818152600460205260409020546001600160a01b031661142657600080fd5b6000818152600460208181526040808420548151630814d3dd60e01b815291516001600160a01b0390911694938593630814d3dd9380830193919290829003018186803b15801561147657600080fd5b505afa15801561148a573d6000803e3d6000fd5b505050506040513d601f19601f820116820180604052508101906114ae919061173a565b6000818152600660205260409020549091508314156114d7576000818152600660205260408120555b600083815260046020908152604080832080546001600160a01b03191690556001600160a01b0385168352600590915280822091909155517f11eaf16c318162956db9f4f1fc5f7696fabbbf409382c1ddcebfe74b20a92a839061153e908490869061189d565b60405180910390a1505050565b60095460ff1681565b6001600160a01b031660009081526005602052604090205490565b600160208190526000918252604090912080549181015460029091015460ff9092169183565b60025490565b6000808260601b9050604051733d602d80600a3d3981f3363d3d373d3d3d363d7360601b81528160148201526e5af43d82803e903d91602b57fd5bf360881b60288201526037816000f0949350505050565b600080846001600160a01b031663a9059cbb858560405160240161161292919061189d565b6040516020818303038152906040529060e01b6020820180516001600160e01b03838183161783525050505060405161164b9190611850565b6000604051808303816000865af19150503d8060008114611688576040519150601f19603f3d011682016040523d82523d6000602084013e61168d565b606091505b50915091508180156116b75750805115806116b75750808060200190518101906116b79190611706565b6116c057600080fd5b5050505050565b6000602082840312156116d8578081fd5b81356116e381611c98565b9392505050565b6000602082840312156116fb578081fd5b81356116e381611cb0565b600060208284031215611717578081fd5b81516116e381611cb0565b600060208284031215611733578081fd5b5035919050565b60006020828403121561174b578081fd5b5051919050565b60008060408385031215611764578081fd5b82359150602083013561177681611c98565b809150509250929050565b60008060008060608587031215611796578182fd5b8435935060208501356117a881611c98565b9250604085013567ffffffffffffffff808211156117c4578384fd5b818701915087601f8301126117d7578384fd5b8135818111156117e5578485fd5b8860208285010111156117f6578485fd5b95989497505060200194505050565b60008060408385031215611817578182fd5b50508035926020909101359150565b60008284528282602086013780602084860101526020601f19601f85011685010190509392505050565b60008251815b818110156118705760208186018101518583015201611856565b8181111561187e5782828501525b509190910192915050565b6001600160a01b0391909116815260200190565b6001600160a01b03929092168252602082015260400190565b6020808252825182820181905260009190848201906040850190845b818110156118f75783516001600160a01b0316835292840192918401916001016118d2565b50909695505050505050565b901515815260200190565b92151583526020830191909152604082015260600190565b90815260200190565b9182526001600160a01b0316602082015260400190565b60006020825261195a602083018486611826565b949350505050565b60208082526022908201527f464c594259546f6b656e466163746f72793a2054656d706c6174652065786973604082015261747360f01b606082015260800190565b60208082526024908201527f464c5942594d61726b65743a20696e636f7272656374205f74656d706c6174656040820152635479706560e01b606082015260800190565b60208082526032908201527f464c594259546f6b656e466163746f72793a2053656e646572206d757374206260408201527119481b5a5b9d195c881a59881b1bd8dad95960721b606082015260800190565b60208082526030908201527f464c594259546f6b656e466163746f72793a204661696c656420746f2074726160408201526f6e73666572206d696e696d756d46656560801b606082015260800190565b60208082526022908201527f464c5942594d61726b65743a20696e636f7272656374205f74656d706c617465604082015261125960f21b606082015260800190565b60208082526027908201527f464c594259546f6b656e466163746f72793a2053656e646572206d7573742062604082015266329030b236b4b760c91b606082015260800190565b6020808252602a908201527f464c594259546f6b656e466163746f72793a2053656e646572206d7573742062604082015269329037b832b930ba37b960b11b606082015260800190565b6020808252602a908201527f464c594259546f6b656e466163746f72793a2052616e67652069732066726f6d6040820152690203020746f20313030360b41b606082015260800190565b60208082526027908201527f464c5942594c61756e636865723a20496e636f72726563742074656d706c61746040820152660329031b7b232960cd1b606082015260800190565b600084825260406020830152611c08604083018486611826565b95945050505050565b600082611c2c57634e487b7160e01b81526012600452602481fd5b500490565b6000816000190483118215151615611c4b57611c4b611c82565b500290565b600082821015611c6257611c62611c82565b500390565b6000600019821415611c7b57611c7b611c82565b5060010190565b634e487b7160e01b600052601160045260246000fd5b6001600160a01b0381168114611cad57600080fd5b50565b8015158114611cad57600080fdfea26469706673582212204adb4efb3004621ff87bdded2d5d9fd9b2228676294ccbb44087e3bc02529a9564736f6c63430008000033",
  "devdoc": {
    "kind": "dev",
    "methods": {},
    "version": 1
  },
  "userdoc": {
    "kind": "user",
    "methods": {},
    "version": 1
  },
  "storageLayout": {
    "storage": [
      {
        "astId": 8623,
        "contract": "contracts/FLYBYTokenFactory.sol:FLYBYTokenFactory",
        "label": "accessControls",
        "offset": 0,
        "slot": "0",
        "type": "t_contract(FLYBYAccessControls)208"
      },
      {
        "astId": 8630,
        "contract": "contracts/FLYBYTokenFactory.sol:FLYBYTokenFactory",
        "label": "initialised",
        "offset": 20,
        "slot": "0",
        "type": "t_bool"
      },
      {
        "astId": 8642,
        "contract": "contracts/FLYBYTokenFactory.sol:FLYBYTokenFactory",
        "label": "tokenInfo",
        "offset": 0,
        "slot": "1",
        "type": "t_mapping(t_address,t_struct(Token)8637_storage)"
      },
      {
        "astId": 8645,
        "contract": "contracts/FLYBYTokenFactory.sol:FLYBYTokenFactory",
        "label": "tokens",
        "offset": 0,
        "slot": "2",
        "type": "t_array(t_address)dyn_storage"
      },
      {
        "astId": 8647,
        "contract": "contracts/FLYBYTokenFactory.sol:FLYBYTokenFactory",
        "label": "tokenTemplateId",
        "offset": 0,
        "slot": "3",
        "type": "t_uint256"
      },
      {
        "astId": 8651,
        "contract": "contracts/FLYBYTokenFactory.sol:FLYBYTokenFactory",
        "label": "tokenTemplates",
        "offset": 0,
        "slot": "4",
        "type": "t_mapping(t_uint256,t_address)"
      },
      {
        "astId": 8655,
        "contract": "contracts/FLYBYTokenFactory.sol:FLYBYTokenFactory",
        "label": "tokenTemplateToId",
        "offset": 0,
        "slot": "5",
        "type": "t_mapping(t_address,t_uint256)"
      },
      {
        "astId": 8659,
        "contract": "contracts/FLYBYTokenFactory.sol:FLYBYTokenFactory",
        "label": "currentTemplateId",
        "offset": 0,
        "slot": "6",
        "type": "t_mapping(t_uint256,t_uint256)"
      },
      {
        "astId": 8661,
        "contract": "contracts/FLYBYTokenFactory.sol:FLYBYTokenFactory",
        "label": "minimumFee",
        "offset": 0,
        "slot": "7",
        "type": "t_uint256"
      },
      {
        "astId": 8663,
        "contract": "contracts/FLYBYTokenFactory.sol:FLYBYTokenFactory",
        "label": "integratorFeePct",
        "offset": 0,
        "slot": "8",
        "type": "t_uint256"
      },
      {
        "astId": 8665,
        "contract": "contracts/FLYBYTokenFactory.sol:FLYBYTokenFactory",
        "label": "locked",
        "offset": 0,
        "slot": "9",
        "type": "t_bool"
      },
      {
        "astId": 8667,
        "contract": "contracts/FLYBYTokenFactory.sol:FLYBYTokenFactory",
        "label": "flybyDiv",
        "offset": 1,
        "slot": "9",
        "type": "t_address_payable"
      }
    ],
    "types": {
      "t_address": {
        "encoding": "inplace",
        "label": "address",
        "numberOfBytes": "20"
      },
      "t_address_payable": {
        "encoding": "inplace",
        "label": "address payable",
        "numberOfBytes": "20"
      },
      "t_array(t_address)dyn_storage": {
        "base": "t_address",
        "encoding": "dynamic_array",
        "label": "address[]",
        "numberOfBytes": "32"
      },
      "t_bool": {
        "encoding": "inplace",
        "label": "bool",
        "numberOfBytes": "1"
      },
      "t_contract(FLYBYAccessControls)208": {
        "encoding": "inplace",
        "label": "contract FLYBYAccessControls",
        "numberOfBytes": "20"
      },
      "t_mapping(t_address,t_struct(Token)8637_storage)": {
        "encoding": "mapping",
        "key": "t_address",
        "label": "mapping(address => struct FLYBYTokenFactory.Token)",
        "numberOfBytes": "32",
        "value": "t_struct(Token)8637_storage"
      },
      "t_mapping(t_address,t_uint256)": {
        "encoding": "mapping",
        "key": "t_address",
        "label": "mapping(address => uint256)",
        "numberOfBytes": "32",
        "value": "t_uint256"
      },
      "t_mapping(t_uint256,t_address)": {
        "encoding": "mapping",
        "key": "t_uint256",
        "label": "mapping(uint256 => address)",
        "numberOfBytes": "32",
        "value": "t_address"
      },
      "t_mapping(t_uint256,t_uint256)": {
        "encoding": "mapping",
        "key": "t_uint256",
        "label": "mapping(uint256 => uint256)",
        "numberOfBytes": "32",
        "value": "t_uint256"
      },
      "t_struct(Token)8637_storage": {
        "encoding": "inplace",
        "label": "struct FLYBYTokenFactory.Token",
        "members": [
          {
            "astId": 8632,
            "contract": "contracts/FLYBYTokenFactory.sol:FLYBYTokenFactory",
            "label": "exists",
            "offset": 0,
            "slot": "0",
            "type": "t_bool"
          },
          {
            "astId": 8634,
            "contract": "contracts/FLYBYTokenFactory.sol:FLYBYTokenFactory",
            "label": "templateId",
            "offset": 0,
            "slot": "1",
            "type": "t_uint256"
          },
          {
            "astId": 8636,
            "contract": "contracts/FLYBYTokenFactory.sol:FLYBYTokenFactory",
            "label": "index",
            "offset": 0,
            "slot": "2",
            "type": "t_uint256"
          }
        ],
        "numberOfBytes": "96"
      },
      "t_uint256": {
        "encoding": "inplace",
        "label": "uint256",
        "numberOfBytes": "32"
      }
    }
  }
}