{
  "address": "0xe8013FF27A699E32DBAD0D330cb646754c3cf304",
  "abi": [
    {
      "anonymous": false,
      "inputs": [
        {
          "indexed": false,
          "internalType": "address",
          "name": "newAuction",
          "type": "address"
        },
        {
          "indexed": false,
          "internalType": "uint256",
          "name": "templateId",
          "type": "uint256"
        }
      ],
      "name": "AuctionTemplateAdded",
      "type": "event"
    },
    {
      "anonymous": false,
      "inputs": [
        {
          "indexed": false,
          "internalType": "address",
          "name": "auction",
          "type": "address"
        },
        {
          "indexed": false,
          "internalType": "uint256",
          "name": "templateId",
          "type": "uint256"
        }
      ],
      "name": "AuctionTemplateRemoved",
      "type": "event"
    },
    {
      "anonymous": false,
      "inputs": [
        {
          "indexed": false,
          "internalType": "address",
          "name": "sender",
          "type": "address"
        }
      ],
      "name": "FlybyInitMarket",
      "type": "event"
    },
    {
      "anonymous": false,
      "inputs": [
        {
          "indexed": true,
          "internalType": "address",
          "name": "owner",
          "type": "address"
        },
        {
          "indexed": true,
          "internalType": "address",
          "name": "addr",
          "type": "address"
        },
        {
          "indexed": false,
          "internalType": "address",
          "name": "marketTemplate",
          "type": "address"
        }
      ],
      "name": "MarketCreated",
      "type": "event"
    },
    {
      "inputs": [],
      "name": "MARKET_MINTER_ROLE",
      "outputs": [
        {
          "internalType": "bytes32",
          "name": "",
          "type": "bytes32"
        }
      ],
      "stateMutability": "view",
      "type": "function"
    },
    {
      "inputs": [],
      "name": "accessControls",
      "outputs": [
        {
          "internalType": "contract FLYBYAccessControls",
          "name": "",
          "type": "address"
        }
      ],
      "stateMutability": "view",
      "type": "function"
    },
    {
      "inputs": [
        {
          "internalType": "address",
          "name": "_template",
          "type": "address"
        }
      ],
      "name": "addAuctionTemplate",
      "outputs": [],
      "stateMutability": "nonpayable",
      "type": "function"
    },
    {
      "inputs": [
        {
          "internalType": "address",
          "name": "",
          "type": "address"
        }
      ],
      "name": "auctionInfo",
      "outputs": [
        {
          "internalType": "bool",
          "name": "exists",
          "type": "bool"
        },
        {
          "internalType": "uint64",
          "name": "templateId",
          "type": "uint64"
        },
        {
          "internalType": "uint128",
          "name": "index",
          "type": "uint128"
        }
      ],
      "stateMutability": "view",
      "type": "function"
    },
    {
      "inputs": [],
      "name": "auctionTemplateId",
      "outputs": [
        {
          "internalType": "uint256",
          "name": "",
          "type": "uint256"
        }
      ],
      "stateMutability": "view",
      "type": "function"
    },
    {
      "inputs": [
        {
          "internalType": "uint256",
          "name": "",
          "type": "uint256"
        }
      ],
      "name": "auctions",
      "outputs": [
        {
          "internalType": "address",
          "name": "",
          "type": "address"
        }
      ],
      "stateMutability": "view",
      "type": "function"
    },
    {
      "inputs": [
        {
          "internalType": "uint256",
          "name": "_templateId",
          "type": "uint256"
        },
        {
          "internalType": "address",
          "name": "_token",
          "type": "address"
        },
        {
          "internalType": "uint256",
          "name": "_tokenSupply",
          "type": "uint256"
        },
        {
          "internalType": "bytes",
          "name": "_data",
          "type": "bytes"
        }
      ],
      "name": "createMarket",
      "outputs": [
        {
          "internalType": "address",
          "name": "newMarket",
          "type": "address"
        }
      ],
      "stateMutability": "payable",
      "type": "function"
    },
    {
      "inputs": [
        {
          "internalType": "uint256",
          "name": "",
          "type": "uint256"
        }
      ],
      "name": "currentTemplateId",
      "outputs": [
        {
          "internalType": "uint256",
          "name": "",
          "type": "uint256"
        }
      ],
      "stateMutability": "view",
      "type": "function"
    },
    {
      "inputs": [
        {
          "internalType": "uint256",
          "name": "_templateId",
          "type": "uint256"
        },
        {
          "internalType": "address payable",
          "name": "_integratorFeeAccount",
          "type": "address"
        }
      ],
      "name": "deployMarket",
      "outputs": [
        {
          "internalType": "address",
          "name": "newMarket",
          "type": "address"
        }
      ],
      "stateMutability": "payable",
      "type": "function"
    },
    {
      "inputs": [],
      "name": "flybyDiv",
      "outputs": [
        {
          "internalType": "address payable",
          "name": "",
          "type": "address"
        }
      ],
      "stateMutability": "view",
      "type": "function"
    },
    {
      "inputs": [
        {
          "internalType": "uint256",
          "name": "_templateId",
          "type": "uint256"
        }
      ],
      "name": "getAuctionTemplate",
      "outputs": [
        {
          "internalType": "address",
          "name": "",
          "type": "address"
        }
      ],
      "stateMutability": "view",
      "type": "function"
    },
    {
      "inputs": [
        {
          "internalType": "address",
          "name": "_auction",
          "type": "address"
        }
      ],
      "name": "getMarketTemplateId",
      "outputs": [
        {
          "internalType": "uint64",
          "name": "",
          "type": "uint64"
        }
      ],
      "stateMutability": "view",
      "type": "function"
    },
    {
      "inputs": [],
      "name": "getMarkets",
      "outputs": [
        {
          "internalType": "address[]",
          "name": "",
          "type": "address[]"
        }
      ],
      "stateMutability": "view",
      "type": "function"
    },
    {
      "inputs": [
        {
          "internalType": "address",
          "name": "_auctionTemplate",
          "type": "address"
        }
      ],
      "name": "getTemplateId",
      "outputs": [
        {
          "internalType": "uint256",
          "name": "",
          "type": "uint256"
        }
      ],
      "stateMutability": "view",
      "type": "function"
    },
    {
      "inputs": [
        {
          "internalType": "address",
          "name": "_address",
          "type": "address"
        }
      ],
      "name": "hasMarketMinterRole",
      "outputs": [
        {
          "internalType": "bool",
          "name": "",
          "type": "bool"
        }
      ],
      "stateMutability": "view",
      "type": "function"
    },
    {
      "inputs": [
        {
          "internalType": "address",
          "name": "_accessControls",
          "type": "address"
        },
        {
          "internalType": "address",
          "name": "_spaceBox",
          "type": "address"
        },
        {
          "internalType": "address[]",
          "name": "_templates",
          "type": "address[]"
        }
      ],
      "name": "initFLYBYMarket",
      "outputs": [],
      "stateMutability": "nonpayable",
      "type": "function"
    },
    {
      "inputs": [],
      "name": "locked",
      "outputs": [
        {
          "internalType": "bool",
          "name": "",
          "type": "bool"
        }
      ],
      "stateMutability": "view",
      "type": "function"
    },
    {
      "inputs": [],
      "name": "marketFees",
      "outputs": [
        {
          "internalType": "uint128",
          "name": "minimumFee",
          "type": "uint128"
        },
        {
          "internalType": "uint32",
          "name": "integratorFeePct",
          "type": "uint32"
        }
      ],
      "stateMutability": "view",
      "type": "function"
    },
    {
      "inputs": [],
      "name": "minimumFee",
      "outputs": [
        {
          "internalType": "uint128",
          "name": "",
          "type": "uint128"
        }
      ],
      "stateMutability": "view",
      "type": "function"
    },
    {
      "inputs": [],
      "name": "numberOfAuctions",
      "outputs": [
        {
          "internalType": "uint256",
          "name": "",
          "type": "uint256"
        }
      ],
      "stateMutability": "view",
      "type": "function"
    },
    {
      "inputs": [
        {
          "internalType": "uint256",
          "name": "_templateId",
          "type": "uint256"
        }
      ],
      "name": "removeAuctionTemplate",
      "outputs": [],
      "stateMutability": "nonpayable",
      "type": "function"
    },
    {
      "inputs": [
        {
          "internalType": "uint256",
          "name": "_templateType",
          "type": "uint256"
        },
        {
          "internalType": "uint256",
          "name": "_templateId",
          "type": "uint256"
        }
      ],
      "name": "setCurrentTemplateId",
      "outputs": [],
      "stateMutability": "nonpayable",
      "type": "function"
    },
    {
      "inputs": [
        {
          "internalType": "address payable",
          "name": "_divaddr",
          "type": "address"
        }
      ],
      "name": "setDividends",
      "outputs": [],
      "stateMutability": "nonpayable",
      "type": "function"
    },
    {
      "inputs": [
        {
          "internalType": "uint256",
          "name": "_amount",
          "type": "uint256"
        }
      ],
      "name": "setIntegratorFeePct",
      "outputs": [],
      "stateMutability": "nonpayable",
      "type": "function"
    },
    {
      "inputs": [
        {
          "internalType": "bool",
          "name": "_locked",
          "type": "bool"
        }
      ],
      "name": "setLocked",
      "outputs": [],
      "stateMutability": "nonpayable",
      "type": "function"
    },
    {
      "inputs": [
        {
          "internalType": "uint256",
          "name": "_amount",
          "type": "uint256"
        }
      ],
      "name": "setMinimumFee",
      "outputs": [],
      "stateMutability": "nonpayable",
      "type": "function"
    },
    {
      "inputs": [],
      "name": "spaceBox",
      "outputs": [
        {
          "internalType": "contract ISpaceBoxFactory",
          "name": "",
          "type": "address"
        }
      ],
      "stateMutability": "view",
      "type": "function"
    }
  ],
  "transactionHash": "0x27dcd51c07d6d7c47c3e7c4cc6e5ec43ebca676fc9a7787d13a3db8465b39a4f",
  "args": [],
  "solcInputHash": "54bfd4bc68c6865dfa56b805d327ab5b",
  "bytecode": "0x608060405234801561001057600080fd5b5061251b806100206000396000f3fe60806040526004361061019c5760003560e01c80636c2eefe1116100ec578063b03434931161008a578063cf30901211610064578063cf30901214610478578063d335ebda1461048d578063ec2c9016146104ad578063ef8e1dd2146104cf5761019c565b8063b034349314610416578063b3053c9b14610443578063b9551d14146104585761019c565b80639e5940cc116100c65780639e5940cc146103935780639e9188ea146103b35780639edbd90a146103d3578063a5fd7565146103f65761019c565b80636c2eefe1146103545780636eb4a74214610369578063748365ef1461037e5761019c565b80632ed4f578116101595780634b939ed7116101335780634b939ed7146102ea5780634f5f2a451461030a57806350d9d4721461031f578063571a26a0146103345761019c565b80632ed4f57814610270578063390467b61461029d5780633f1f44b0146102ca5761019c565b80630448e51a146101a1578063182a7506146101d95780631a7626e7146101fb5780631dc325a51461021d578063211e28b61461023d57806328e58e4f1461025d575b600080fd5b3480156101ad57600080fd5b506101c16101bc366004611b10565b6104ef565b6040516101d093929190611e8c565b60405180910390f35b3480156101e557600080fd5b506101f96101f4366004611c6f565b610526565b005b34801561020757600080fd5b50610210610600565b6040516101d091906123dd565b61023061022b366004611cce565b61060f565b6040516101d09190611db9565b34801561024957600080fd5b506101f9610258366004611c37565b6107d0565b61023061026b366004611c9f565b61087f565b34801561027c57600080fd5b5061029061028b366004611c6f565b610d10565b6040516101d09190611eb7565b3480156102a957600080fd5b506102bd6102b8366004611b10565b610d22565b6040516101d09190611e81565b3480156102d657600080fd5b506101f96102e5366004611c6f565b610dcd565b3480156102f657600080fd5b50610230610305366004611c6f565b610ebc565b34801561031657600080fd5b50610290610ed7565b34801561032b57600080fd5b50610290610efb565b34801561034057600080fd5b5061023061034f366004611c6f565b610f01565b34801561036057600080fd5b50610290610f2b565b34801561037557600080fd5b50610230610f31565b34801561038a57600080fd5b50610230610f45565b34801561039f57600080fd5b506101f96103ae366004611d5f565b610f54565b3480156103bf57600080fd5b506101f96103ce366004611b10565b6110dc565b3480156103df57600080fd5b506103e86111b3565b6040516101d09291906123f1565b34801561040257600080fd5b506101f9610411366004611b10565b6111d1565b34801561042257600080fd5b50610436610431366004611b10565b6112ff565b6040516101d09190612410565b34801561044f57600080fd5b50610230611329565b34801561046457600080fd5b506101f9610473366004611c6f565b611338565b34801561048457600080fd5b506102bd61157f565b34801561049957600080fd5b506102906104a8366004611b10565b611588565b3480156104b957600080fd5b506104c26115a3565b6040516101d09190611e34565b3480156104db57600080fd5b506101f96104ea366004611b4f565b611605565b60076020526000908152604090205460ff811690610100810467ffffffffffffffff1690600160481b90046001600160801b031683565b60005460405163c395fcb360e01b81526001600160a01b039091169063c395fcb390610556903390600401611db9565b60206040518083038186803b15801561056e57600080fd5b505afa158015610582573d6000803e3d6000fd5b505050506040513d601f19601f820116820180604052508101906105a69190611c53565b6105cb5760405162461bcd60e51b81526004016105c290611f06565b60405180910390fd5b6105d481611736565b600880546fffffffffffffffffffffffffffffffff19166001600160801b039290921691909117905550565b6008546001600160801b031690565b600061061b863361087f565b905083156106ca5761062e853386611763565b60405163095ea7b360e01b81526001600160a01b0386169063095ea7b39061065c9084908890600401611e1b565b602060405180830381600087803b15801561067657600080fd5b505af115801561068a573d6000803e3d6000fd5b505050506040513d601f19601f820116820180604052508101906106ae9190611c53565b6106ca5760405162461bcd60e51b81526004016105c290612246565b60405163409a9e4760e11b81526001600160a01b038216906381353c8e906106f89086908690600401611ed7565b600060405180830381600087803b15801561071257600080fd5b505af1158015610726573d6000803e3d6000fd5b5050505060008411156107c7576040516370a0823160e01b81526000906001600160a01b038716906370a0823190610762903090600401611db9565b60206040518083038186803b15801561077a57600080fd5b505afa15801561078e573d6000803e3d6000fd5b505050506040513d601f19601f820116820180604052508101906107b29190611c87565b905080156107c5576107c5863383611852565b505b95945050505050565b60005460405163c395fcb360e01b81526001600160a01b039091169063c395fcb390610800903390600401611db9565b60206040518083038186803b15801561081857600080fd5b505afa15801561082c573d6000803e3d6000fd5b505050506040513d601f19601f820116820180604052508101906108509190611c53565b61086c5760405162461bcd60e51b81526004016105c290612320565b6009805460ff1916911515919091179055565b60095460009060ff16156109be5760005460405163c395fcb360e01b81526001600160a01b039091169063c395fcb3906108bd903390600401611db9565b60206040518083038186803b1580156108d557600080fd5b505afa1580156108e9573d6000803e3d6000fd5b505050506040513d601f19601f8201168201806040525081019061090d9190611c53565b80610993575060005460405163099db01760e01b81526001600160a01b039091169063099db01790610943903390600401611db9565b60206040518083038186803b15801561095b57600080fd5b505afa15801561096f573d6000803e3d6000fd5b505050506040513d601f19601f820116820180604052508101906109939190611c53565b806109a257506109a233610d22565b6109be5760405162461bcd60e51b81526004016105c290611f4a565b6040805180820182526008546001600160801b038082168352600160801b90910463ffffffff16602080840191909152600087815260049091529290922054815191926001600160a01b039091169116341015610a2d5760405162461bcd60e51b81526004016105c2906120e0565b6001600160a01b038116610a535760405162461bcd60e51b81526004016105c29061212a565b6000346001600160a01b03861615801590610a8157506009546001600160a01b038781166101009092041614155b15610ab8576103e8846020015163ffffffff1682610a9f9190612445565b610aa99190612425565b9150610ab58282612464565b90505b600354604051631f54245b60e01b81526001600160a01b0390911690631f54245b90610aeb908690600090600401611df1565b602060405180830381600087803b158015610b0557600080fd5b505af1158015610b19573d6000803e3d6000fd5b505050506040513d601f19601f82011682018060405250810190610b3d9190611b33565b94506040518060600160405280600115158152602001610b5c89611925565b67ffffffffffffffff168152602001610b79600180549050611736565b6001600160801b039081169091526001600160a01b038716600081815260076020908152604080832086518154938801519783015160ff199094169015151768ffffffffffffffff00191661010067ffffffffffffffff909816979097029690961778ffffffffffffffffffffffffffffffff0000000000000000001916600160481b92909516919091029390931790935560018054808201825593527fb10e2d527612073b26eecdfd717e6a320cf44b4afac2b0732d9fcbe2b7fa0cf690920180546001600160a01b031916831790555133907fe63e6130091e2155004c4b5ac35e8fb9be704d6637ff3068a8f710ba36c9f41a90610c7a908790611db9565b60405180910390a38015610cc8576009546040516101009091046001600160a01b0316906108fc8315029083906000818181858888f19350505050158015610cc6573d6000803e3d6000fd5b505b8115610d06576040516001600160a01b0387169083156108fc029084906000818181858888f19350505050158015610d04573d6000803e3d6000fd5b505b5050505092915050565b60066020526000908152604090205481565b60008054604051632474521560e21b81526001600160a01b03909116906391d1485490610d75907f185f85149db0f205130703941d0f9ccd8133e50df5d5080231c7704337aa2c38908690600401611ec0565b60206040518083038186803b158015610d8d57600080fd5b505afa158015610da1573d6000803e3d6000fd5b505050506040513d601f19601f82011682018060405250810190610dc59190611c53565b90505b919050565b60005460405163c395fcb360e01b81526001600160a01b039091169063c395fcb390610dfd903390600401611db9565b60206040518083038186803b158015610e1557600080fd5b505afa158015610e29573d6000803e3d6000fd5b505050506040513d601f19601f82011682018060405250810190610e4d9190611c53565b610e695760405162461bcd60e51b81526004016105c290611f06565b6103e8811115610e8b5760405162461bcd60e51b81526004016105c2906122a3565b610e948161194f565b6008805463ffffffff92909216600160801b0263ffffffff60801b1990921691909117905550565b6000908152600460205260409020546001600160a01b031690565b7f185f85149db0f205130703941d0f9ccd8133e50df5d5080231c7704337aa2c3881565b60015490565b60018181548110610f1157600080fd5b6000918252602090912001546001600160a01b0316905081565b60025481565b60095461010090046001600160a01b031681565b6000546001600160a01b031681565b60005460405163c395fcb360e01b81526001600160a01b039091169063c395fcb390610f84903390600401611db9565b60206040518083038186803b158015610f9c57600080fd5b505afa158015610fb0573d6000803e3d6000fd5b505050506040513d601f19601f82011682018060405250810190610fd49190611c53565b610ff05760405162461bcd60e51b81526004016105c290612320565b6000818152600460205260409020546001600160a01b03166110245760405162461bcd60e51b81526004016105c290612261565b600081815260046020818152604092839020548351630d9f230760e11b8152935186946001600160a01b0390921693631b3e460e938382019390929190829003018186803b15801561107557600080fd5b505afa158015611089573d6000803e3d6000fd5b505050506040513d601f19601f820116820180604052508101906110ad9190611c87565b146110ca5760405162461bcd60e51b81526004016105c29061209c565b60009182526006602052604090912055565b60005460405163c395fcb360e01b81526001600160a01b039091169063c395fcb39061110c903390600401611db9565b60206040518083038186803b15801561112457600080fd5b505afa158015611138573d6000803e3d6000fd5b505050506040513d601f19601f8201168201806040525081019061115c9190611c53565b6111785760405162461bcd60e51b81526004016105c2906121fb565b6001600160a01b03811661118b57600080fd5b600980546001600160a01b0390921661010002610100600160a81b0319909216919091179055565b6008546001600160801b03811690600160801b900463ffffffff1682565b60005460405163c395fcb360e01b81526001600160a01b039091169063c395fcb390611201903390600401611db9565b60206040518083038186803b15801561121957600080fd5b505afa15801561122d573d6000803e3d6000fd5b505050506040513d601f19601f820116820180604052508101906112519190611c53565b806112d75750600054604051637e271f0560e11b81526001600160a01b039091169063fc4e3e0a90611287903390600401611db9565b60206040518083038186803b15801561129f57600080fd5b505afa1580156112b3573d6000803e3d6000fd5b505050506040513d601f19601f820116820180604052508101906112d79190611c53565b6112f35760405162461bcd60e51b81526004016105c290611f06565b6112fc81611975565b50565b6001600160a01b0316600090815260076020526040902054610100900467ffffffffffffffff1690565b6003546001600160a01b031681565b60005460405163c395fcb360e01b81526001600160a01b039091169063c395fcb390611368903390600401611db9565b60206040518083038186803b15801561138057600080fd5b505afa158015611394573d6000803e3d6000fd5b505050506040513d601f19601f820116820180604052508101906113b89190611c53565b8061143e5750600054604051637e271f0560e11b81526001600160a01b039091169063fc4e3e0a906113ee903390600401611db9565b60206040518083038186803b15801561140657600080fd5b505afa15801561141a573d6000803e3d6000fd5b505050506040513d601f19601f8201168201806040525081019061143e9190611c53565b61145a5760405162461bcd60e51b81526004016105c290611f06565b6000818152600460208181526040808420548151630d9f230760e11b815291516001600160a01b0390911694938593631b3e460e9380830193919290829003018186803b1580156114aa57600080fd5b505afa1580156114be573d6000803e3d6000fd5b505050506040513d601f19601f820116820180604052508101906114e29190611c87565b60008181526006602052604090205490915083141561150b576000818152600660205260408120555b600083815260046020908152604080832080546001600160a01b03191690556001600160a01b0385168352600590915280822091909155517f9e451d330e5bb7320c38b55046b66305a869486110a27e84e383b9b2a329875b906115729084908690611e1b565b60405180910390a1505050565b60095460ff1681565b6001600160a01b031660009081526005602052604090205490565b606060018054806020026020016040519081016040528092919081815260200182805480156115fb57602002820191906000526020600020905b81546001600160a01b031681526001909101906020018083116115dd575b5050505050905090565b600054600160a01b900460ff161561161c57600080fd5b6001600160a01b0383166116425760405162461bcd60e51b81526004016105c290612010565b6001600160a01b0382166116685760405162461bcd60e51b81526004016105c2906121ac565b600080546001600160a01b038086166001600160a01b0319928316178355600380549186169190921617905560028190555b81518110156116e5576116d38282815181106116c657634e487b7160e01b600052603260045260246000fd5b6020026020010151611975565b806116dd8161247b565b91505061169a565b506009805460ff191660011790556000805460ff60a01b1916600160a01b1790556040517f4b2ecdf8f830bb7e9a67fd6deffd1ce51740390bec9042b1baa6b539a9cdb53190611572903390611db9565b60006001600160801b0382111561175f5760405162461bcd60e51b81526004016105c290612065565b5090565b600080846001600160a01b03166323b872dd85308660405160240161178a93929190611dcd565b6040516020818303038152906040529060e01b6020820180516001600160e01b0383818316178352505050506040516117c39190611d80565b6000604051808303816000865af19150503d8060008114611800576040519150601f19603f3d011682016040523d82523d6000602084013e611805565b606091505b509150915081801561182f57508051158061182f57508080602001905181019061182f9190611c53565b61184b5760405162461bcd60e51b81526004016105c290612361565b5050505050565b600080846001600160a01b031663a9059cbb8585604051602401611877929190611e1b565b6040516020818303038152906040529060e01b6020820180516001600160e01b0383818316178352505050506040516118b09190611d80565b6000604051808303816000865af19150503d80600081146118ed576040519150601f19603f3d011682016040523d82523d6000602084013e6118f2565b606091505b509150915081801561191c57508051158061191c57508080602001905181019061191c9190611c53565b61184b57600080fd5b600067ffffffffffffffff82111561175f5760405162461bcd60e51b81526004016105c290612175565b600063ffffffff82111561175f5760405162461bcd60e51b81526004016105c2906122e9565b6001600160a01b03811661199b5760405162461bcd60e51b81526004016105c290611f96565b6001600160a01b038116600090815260056020526040902054156119d15760405162461bcd60e51b81526004016105c290611fcd565b6000816001600160a01b0316631b3e460e6040518163ffffffff1660e01b815260040160206040518083038186803b158015611a0c57600080fd5b505afa158015611a20573d6000803e3d6000fd5b505050506040513d601f19601f82011682018060405250810190611a449190611c87565b905060008111611a665760405162461bcd60e51b81526004016105c290612398565b60028054906000611a768361247b565b909155505060028054600090815260046020908152604080832080546001600160a01b0319166001600160a01b038816908117909155935493835260058252808320849055848352600690915290819020829055517f893e8595c407d2a22d29ff3ba939d15ec3966113ce988bd39c68e4b00350400791611af991859190611e1b565b60405180910390a15050565b8035610dc8816124c2565b600060208284031215611b21578081fd5b8135611b2c816124c2565b9392505050565b600060208284031215611b44578081fd5b8151611b2c816124c2565b600080600060608486031215611b63578182fd5b8335611b6e816124c2565b9250602084810135611b7f816124c2565b9250604085013567ffffffffffffffff80821115611b9b578384fd5b818701915087601f830112611bae578384fd5b813581811115611bc057611bc06124ac565b83810260405185828201018181108582111715611bdf57611bdf6124ac565b604052828152858101935084860182860187018c1015611bfd578788fd5b8795505b83861015611c2657611c1281611b05565b855260019590950194938601938601611c01565b508096505050505050509250925092565b600060208284031215611c48578081fd5b8135611b2c816124d7565b600060208284031215611c64578081fd5b8151611b2c816124d7565b600060208284031215611c80578081fd5b5035919050565b600060208284031215611c98578081fd5b5051919050565b60008060408385031215611cb1578182fd5b823591506020830135611cc3816124c2565b809150509250929050565b600080600080600060808688031215611ce5578081fd5b853594506020860135611cf7816124c2565b935060408601359250606086013567ffffffffffffffff80821115611d1a578283fd5b818801915088601f830112611d2d578283fd5b813581811115611d3b578384fd5b896020828501011115611d4c578384fd5b9699959850939650602001949392505050565b60008060408385031215611d71578182fd5b50508035926020909101359150565b60008251815b81811015611da05760208186018101518583015201611d86565b81811115611dae5782828501525b509190910192915050565b6001600160a01b0391909116815260200190565b6001600160a01b039384168152919092166020820152604081019190915260600190565b6001600160a01b039290921682526060602083018190526000908301521515604082015260800190565b6001600160a01b03929092168252602082015260400190565b6020808252825182820181905260009190848201906040850190845b81811015611e755783516001600160a01b031683529284019291840191600101611e50565b50909695505050505050565b901515815260200190565b921515835267ffffffffffffffff9190911660208301526001600160801b0316604082015260600190565b90815260200190565b9182526001600160a01b0316602082015260400190565b60006020825282602083015282846040840137818301604090810191909152601f909201601f19160101919050565b60208082526024908201527f464c5942594d61726b65743a2053656e646572206d757374206265206f70657260408201526330ba37b960e11b606082015260800190565b6020808252602c908201527f464c5942594d61726b65743a2053656e646572206d757374206265206d696e7460408201526b195c881a59881b1bd8dad95960a21b606082015260800190565b6020808252601f908201527f464c5942594d61726b65743a20496e636f72726563742074656d706c61746500604082015260600190565b60208082526023908201527f464c5942594d61726b65743a2054656d706c61746520616c726561647920616460408201526219195960ea1b606082015260800190565b60208082526035908201527f696e6974464c5942594d61726b65743a20616363657373436f6e74726f6c732060408201527463616e6e6f742062652073657420746f207a65726f60581b606082015260800190565b6020808252601c908201527f426f72696e674d6174683a2075696e74313238204f766572666c6f7700000000604082015260600190565b60208082526024908201527f464c5942594d61726b65743a20696e636f7272656374205f74656d706c6174656040820152635479706560e01b606082015260800190565b6020808252602a908201527f464c5942594d61726b65743a204661696c656420746f207472616e73666572206040820152696d696e696d756d46656560b01b606082015260800190565b6020808252602b908201527f464c5942594d61726b65743a2041756374696f6e2074656d706c61746520646f60408201526a195cdb89dd08195e1a5cdd60aa1b606082015260800190565b6020808252601b908201527f426f72696e674d6174683a2075696e743634204f766572666c6f770000000000604082015260600190565b6020808252602f908201527f696e6974464c5942594d61726b65743a207370616365426f782063616e6e6f7460408201526e2062652073657420746f207a65726f60881b606082015260800190565b6020808252602b908201527f464c5942594d61726b65742e7365744465763a2053656e646572206d7573742060408201526a31329037b832b930ba37b960a91b606082015260800190565b6020808252600190820152603160f81b604082015260600190565b60208082526022908201527f464c5942594d61726b65743a20696e636f7272656374205f74656d706c617465604082015261125960f21b606082015260800190565b60208082526026908201527f464c5942594d61726b65743a2050657263656e74616765206973206f7574206f60408201526506620313030360d41b606082015260800190565b6020808252601b908201527f426f72696e674d6174683a2075696e743332204f766572666c6f770000000000604082015260600190565b60208082526021908201527f464c5942594d61726b65743a2053656e646572206d7573742062652061646d696040820152603760f91b606082015260800190565b6020808252601f908201527f5472616e7366657248656c7065723a2063616e6e6f74207472616e7366657200604082015260600190565b60208082526025908201527f464c5942594d61726b65743a20496e636f72726563742074656d706c61746520604082015264031b7b232960dd1b606082015260800190565b6001600160801b0391909116815260200190565b6001600160801b0392909216825263ffffffff16602082015260400190565b67ffffffffffffffff91909116815260200190565b60008261244057634e487b7160e01b81526012600452602481fd5b500490565b600081600019048311821515161561245f5761245f612496565b500290565b60008282101561247657612476612496565b500390565b600060001982141561248f5761248f612496565b5060010190565b634e487b7160e01b600052601160045260246000fd5b634e487b7160e01b600052604160045260246000fd5b6001600160a01b03811681146112fc57600080fd5b80151581146112fc57600080fdfea2646970667358221220ae2f15e66f4e7aed1a7830c69cd9b6cf0fc2f57aea13be638d688cabeb0cf01664736f6c63430008000033",
  "devdoc": {
    "kind": "dev",
    "methods": {},
    "version": 1
  },
  "userdoc": {
    "kind": "user",
    "methods": {},
    "version": 1
  },
  "storageLayout": {
    "storage": [
      {
        "astId": 3346,
        "contract": "contracts/FLYBYMarket.sol:FLYBYMarket",
        "label": "accessControls",
        "offset": 0,
        "slot": "0",
        "type": "t_contract(FLYBYAccessControls)208"
      },
      {
        "astId": 3353,
        "contract": "contracts/FLYBYMarket.sol:FLYBYMarket",
        "label": "initialised",
        "offset": 20,
        "slot": "0",
        "type": "t_bool"
      },
      {
        "astId": 3363,
        "contract": "contracts/FLYBYMarket.sol:FLYBYMarket",
        "label": "auctions",
        "offset": 0,
        "slot": "1",
        "type": "t_array(t_address)dyn_storage"
      },
      {
        "astId": 3365,
        "contract": "contracts/FLYBYMarket.sol:FLYBYMarket",
        "label": "auctionTemplateId",
        "offset": 0,
        "slot": "2",
        "type": "t_uint256"
      },
      {
        "astId": 3368,
        "contract": "contracts/FLYBYMarket.sol:FLYBYMarket",
        "label": "spaceBox",
        "offset": 0,
        "slot": "3",
        "type": "t_contract(ISpaceBoxFactory)6907"
      },
      {
        "astId": 3372,
        "contract": "contracts/FLYBYMarket.sol:FLYBYMarket",
        "label": "auctionTemplates",
        "offset": 0,
        "slot": "4",
        "type": "t_mapping(t_uint256,t_address)"
      },
      {
        "astId": 3376,
        "contract": "contracts/FLYBYMarket.sol:FLYBYMarket",
        "label": "auctionTemplateToId",
        "offset": 0,
        "slot": "5",
        "type": "t_mapping(t_address,t_uint256)"
      },
      {
        "astId": 3380,
        "contract": "contracts/FLYBYMarket.sol:FLYBYMarket",
        "label": "currentTemplateId",
        "offset": 0,
        "slot": "6",
        "type": "t_mapping(t_uint256,t_uint256)"
      },
      {
        "astId": 3385,
        "contract": "contracts/FLYBYMarket.sol:FLYBYMarket",
        "label": "auctionInfo",
        "offset": 0,
        "slot": "7",
        "type": "t_mapping(t_address,t_struct(Auction)3360_storage)"
      },
      {
        "astId": 3393,
        "contract": "contracts/FLYBYMarket.sol:FLYBYMarket",
        "label": "marketFees",
        "offset": 0,
        "slot": "8",
        "type": "t_struct(MarketFees)3390_storage"
      },
      {
        "astId": 3395,
        "contract": "contracts/FLYBYMarket.sol:FLYBYMarket",
        "label": "locked",
        "offset": 0,
        "slot": "9",
        "type": "t_bool"
      },
      {
        "astId": 3397,
        "contract": "contracts/FLYBYMarket.sol:FLYBYMarket",
        "label": "flybyDiv",
        "offset": 1,
        "slot": "9",
        "type": "t_address_payable"
      }
    ],
    "types": {
      "t_address": {
        "encoding": "inplace",
        "label": "address",
        "numberOfBytes": "20"
      },
      "t_address_payable": {
        "encoding": "inplace",
        "label": "address payable",
        "numberOfBytes": "20"
      },
      "t_array(t_address)dyn_storage": {
        "base": "t_address",
        "encoding": "dynamic_array",
        "label": "address[]",
        "numberOfBytes": "32"
      },
      "t_bool": {
        "encoding": "inplace",
        "label": "bool",
        "numberOfBytes": "1"
      },
      "t_contract(FLYBYAccessControls)208": {
        "encoding": "inplace",
        "label": "contract FLYBYAccessControls",
        "numberOfBytes": "20"
      },
      "t_contract(ISpaceBoxFactory)6907": {
        "encoding": "inplace",
        "label": "contract ISpaceBoxFactory",
        "numberOfBytes": "20"
      },
      "t_mapping(t_address,t_struct(Auction)3360_storage)": {
        "encoding": "mapping",
        "key": "t_address",
        "label": "mapping(address => struct FLYBYMarket.Auction)",
        "numberOfBytes": "32",
        "value": "t_struct(Auction)3360_storage"
      },
      "t_mapping(t_address,t_uint256)": {
        "encoding": "mapping",
        "key": "t_address",
        "label": "mapping(address => uint256)",
        "numberOfBytes": "32",
        "value": "t_uint256"
      },
      "t_mapping(t_uint256,t_address)": {
        "encoding": "mapping",
        "key": "t_uint256",
        "label": "mapping(uint256 => address)",
        "numberOfBytes": "32",
        "value": "t_address"
      },
      "t_mapping(t_uint256,t_uint256)": {
        "encoding": "mapping",
        "key": "t_uint256",
        "label": "mapping(uint256 => uint256)",
        "numberOfBytes": "32",
        "value": "t_uint256"
      },
      "t_struct(Auction)3360_storage": {
        "encoding": "inplace",
        "label": "struct FLYBYMarket.Auction",
        "members": [
          {
            "astId": 3355,
            "contract": "contracts/FLYBYMarket.sol:FLYBYMarket",
            "label": "exists",
            "offset": 0,
            "slot": "0",
            "type": "t_bool"
          },
          {
            "astId": 3357,
            "contract": "contracts/FLYBYMarket.sol:FLYBYMarket",
            "label": "templateId",
            "offset": 1,
            "slot": "0",
            "type": "t_uint64"
          },
          {
            "astId": 3359,
            "contract": "contracts/FLYBYMarket.sol:FLYBYMarket",
            "label": "index",
            "offset": 9,
            "slot": "0",
            "type": "t_uint128"
          }
        ],
        "numberOfBytes": "32"
      },
      "t_struct(MarketFees)3390_storage": {
        "encoding": "inplace",
        "label": "struct FLYBYMarket.MarketFees",
        "members": [
          {
            "astId": 3387,
            "contract": "contracts/FLYBYMarket.sol:FLYBYMarket",
            "label": "minimumFee",
            "offset": 0,
            "slot": "0",
            "type": "t_uint128"
          },
          {
            "astId": 3389,
            "contract": "contracts/FLYBYMarket.sol:FLYBYMarket",
            "label": "integratorFeePct",
            "offset": 16,
            "slot": "0",
            "type": "t_uint32"
          }
        ],
        "numberOfBytes": "32"
      },
      "t_uint128": {
        "encoding": "inplace",
        "label": "uint128",
        "numberOfBytes": "16"
      },
      "t_uint256": {
        "encoding": "inplace",
        "label": "uint256",
        "numberOfBytes": "32"
      },
      "t_uint32": {
        "encoding": "inplace",
        "label": "uint32",
        "numberOfBytes": "4"
      },
      "t_uint64": {
        "encoding": "inplace",
        "label": "uint64",
        "numberOfBytes": "8"
      }
    }
  }
}