{
  "address": "0x33662248943e97701783ebFE0ae7A6307A2A3b37",
  "abi": [
    {
      "inputs": [
        {
          "internalType": "address",
          "name": "_accessControls",
          "type": "address"
        },
        {
          "internalType": "address",
          "name": "_market",
          "type": "address"
        }
      ],
      "stateMutability": "nonpayable",
      "type": "constructor"
    },
    {
      "inputs": [],
      "name": "accessControls",
      "outputs": [
        {
          "internalType": "contract FLYBYAccessControls",
          "name": "",
          "type": "address"
        }
      ],
      "stateMutability": "view",
      "type": "function"
    },
    {
      "inputs": [
        {
          "internalType": "address",
          "name": "_token",
          "type": "address"
        },
        {
          "internalType": "address",
          "name": "_owner",
          "type": "address"
        },
        {
          "internalType": "address",
          "name": "_spender",
          "type": "address"
        }
      ],
      "name": "allowance",
      "outputs": [
        {
          "internalType": "uint256",
          "name": "",
          "type": "uint256"
        }
      ],
      "stateMutability": "view",
      "type": "function"
    },
    {
      "inputs": [
        {
          "internalType": "address payable",
          "name": "_batchAuction",
          "type": "address"
        }
      ],
      "name": "getBatchAuctionInfo",
      "outputs": [
        {
          "components": [
            {
              "internalType": "address",
              "name": "addr",
              "type": "address"
            },
            {
              "internalType": "address",
              "name": "paymentCurrency",
              "type": "address"
            },
            {
              "internalType": "uint64",
              "name": "startTime",
              "type": "uint64"
            },
            {
              "internalType": "uint64",
              "name": "endTime",
              "type": "uint64"
            },
            {
              "internalType": "uint128",
              "name": "totalTokens",
              "type": "uint128"
            },
            {
              "internalType": "uint256",
              "name": "commitmentsTotal",
              "type": "uint256"
            },
            {
              "internalType": "uint256",
              "name": "minimumCommitmentAmount",
              "type": "uint256"
            },
            {
              "internalType": "bool",
              "name": "finalized",
              "type": "bool"
            },
            {
              "internalType": "bool",
              "name": "usePointList",
              "type": "bool"
            },
            {
              "internalType": "bool",
              "name": "auctionSuccessful",
              "type": "bool"
            },
            {
              "components": [
                {
                  "internalType": "address",
                  "name": "addr",
                  "type": "address"
                },
                {
                  "internalType": "uint256",
                  "name": "decimals",
                  "type": "uint256"
                },
                {
                  "internalType": "string",
                  "name": "name",
                  "type": "string"
                },
                {
                  "internalType": "string",
                  "name": "symbol",
                  "type": "string"
                }
              ],
              "internalType": "struct TokenHelper.TokenInfo",
              "name": "tokenInfo",
              "type": "tuple"
            },
            {
              "components": [
                {
                  "internalType": "address",
                  "name": "addr",
                  "type": "address"
                },
                {
                  "internalType": "uint256",
                  "name": "decimals",
                  "type": "uint256"
                },
                {
                  "internalType": "string",
                  "name": "name",
                  "type": "string"
                },
                {
                  "internalType": "string",
                  "name": "symbol",
                  "type": "string"
                }
              ],
              "internalType": "struct TokenHelper.TokenInfo",
              "name": "paymentCurrencyInfo",
              "type": "tuple"
            }
          ],
          "internalType": "struct MarketHelper.BatchAuctionInfo",
          "name": "",
          "type": "tuple"
        }
      ],
      "stateMutability": "view",
      "type": "function"
    },
    {
      "inputs": [
        {
          "internalType": "address",
          "name": "_crowdsale",
          "type": "address"
        }
      ],
      "name": "getCrowdsaleInfo",
      "outputs": [
        {
          "components": [
            {
              "internalType": "address",
              "name": "addr",
              "type": "address"
            },
            {
              "internalType": "address",
              "name": "paymentCurrency",
              "type": "address"
            },
            {
              "internalType": "uint128",
              "name": "commitmentsTotal",
              "type": "uint128"
            },
            {
              "internalType": "uint128",
              "name": "totalTokens",
              "type": "uint128"
            },
            {
              "internalType": "uint128",
              "name": "rate",
              "type": "uint128"
            },
            {
              "internalType": "uint128",
              "name": "goal",
              "type": "uint128"
            },
            {
              "internalType": "uint64",
              "name": "startTime",
              "type": "uint64"
            },
            {
              "internalType": "uint64",
              "name": "endTime",
              "type": "uint64"
            },
            {
              "internalType": "bool",
              "name": "finalized",
              "type": "bool"
            },
            {
              "internalType": "bool",
              "name": "usePointList",
              "type": "bool"
            },
            {
              "internalType": "bool",
              "name": "auctionSuccessful",
              "type": "bool"
            },
            {
              "components": [
                {
                  "internalType": "address",
                  "name": "addr",
                  "type": "address"
                },
                {
                  "internalType": "uint256",
                  "name": "decimals",
                  "type": "uint256"
                },
                {
                  "internalType": "string",
                  "name": "name",
                  "type": "string"
                },
                {
                  "internalType": "string",
                  "name": "symbol",
                  "type": "string"
                }
              ],
              "internalType": "struct TokenHelper.TokenInfo",
              "name": "tokenInfo",
              "type": "tuple"
            },
            {
              "components": [
                {
                  "internalType": "address",
                  "name": "addr",
                  "type": "address"
                },
                {
                  "internalType": "uint256",
                  "name": "decimals",
                  "type": "uint256"
                },
                {
                  "internalType": "string",
                  "name": "name",
                  "type": "string"
                },
                {
                  "internalType": "string",
                  "name": "symbol",
                  "type": "string"
                }
              ],
              "internalType": "struct TokenHelper.TokenInfo",
              "name": "paymentCurrencyInfo",
              "type": "tuple"
            }
          ],
          "internalType": "struct MarketHelper.CrowdsaleInfo",
          "name": "",
          "type": "tuple"
        }
      ],
      "stateMutability": "view",
      "type": "function"
    },
    {
      "inputs": [
        {
          "internalType": "address",
          "name": "_address",
          "type": "address"
        }
      ],
      "name": "getTokenInfo",
      "outputs": [
        {
          "components": [
            {
              "internalType": "address",
              "name": "addr",
              "type": "address"
            },
            {
              "internalType": "uint256",
              "name": "decimals",
              "type": "uint256"
            },
            {
              "internalType": "string",
              "name": "name",
              "type": "string"
            },
            {
              "internalType": "string",
              "name": "symbol",
              "type": "string"
            }
          ],
          "internalType": "struct TokenHelper.TokenInfo",
          "name": "",
          "type": "tuple"
        }
      ],
      "stateMutability": "view",
      "type": "function"
    },
    {
      "inputs": [
        {
          "internalType": "address[]",
          "name": "addresses",
          "type": "address[]"
        }
      ],
      "name": "getTokensInfo",
      "outputs": [
        {
          "components": [
            {
              "internalType": "address",
              "name": "addr",
              "type": "address"
            },
            {
              "internalType": "uint256",
              "name": "decimals",
              "type": "uint256"
            },
            {
              "internalType": "string",
              "name": "name",
              "type": "string"
            },
            {
              "internalType": "string",
              "name": "symbol",
              "type": "string"
            }
          ],
          "internalType": "struct TokenHelper.TokenInfo[]",
          "name": "",
          "type": "tuple[]"
        }
      ],
      "stateMutability": "view",
      "type": "function"
    },
    {
      "inputs": [],
      "name": "market",
      "outputs": [
        {
          "internalType": "contract IFlybyMarketFactory",
          "name": "",
          "type": "address"
        }
      ],
      "stateMutability": "view",
      "type": "function"
    },
    {
      "inputs": [
        {
          "internalType": "address",
          "name": "_market",
          "type": "address"
        }
      ],
      "name": "setContracts",
      "outputs": [],
      "stateMutability": "nonpayable",
      "type": "function"
    }
  ],
  "transactionHash": "0xd116494b40b906da139d7609547f7819bec59304f00760d613c7f9bdd3842578",
  "args": [
    "0x519ef066A4db4e967b5f471cca5b69700c217a67",
    "0x9e2aC590611f8e2ed465423dbD5915E92A448462"
  ],
  "solcInputHash": "d514d32e00e632aec9997748b28effb2",
  "bytecode": "0x608060405234801561001057600080fd5b50604051620015e1380380620015e183398101604081905261003191610091565b6001600160a01b03821661004457600080fd5b600180546001600160a01b039384166001600160a01b031991821617909155600080549290931691161790556100c3565b80516001600160a01b038116811461008c57600080fd5b919050565b600080604083850312156100a3578182fd5b6100ac83610075565b91506100ba60208401610075565b90509250929050565b61150e80620000d36000396000f3fe608060405234801561001057600080fd5b50600436106100885760003560e01c80635a2e2f471161005b5780635a2e2f4714610116578063748365ef1461012b57806380f5560514610140578063927da1051461014857610088565b8063193d13621461008d5780631f69565f146100b65780633c74720c146100d657806346a0fe47146100f6575b600080fd5b6100a061009b366004610d97565b610168565b6040516100ad9190611224565b60405180910390f35b6100c96100c4366004610d97565b61047e565b6040516100ad9190611410565b6100e96100e4366004610d97565b610614565b6040516100ad919061131a565b610109610104366004610e20565b61097e565b6040516100ad9190611183565b610129610124366004610d97565b610a67565b005b610133610b3a565b6040516100ad9190611155565b610133610b49565b61015b610156366004610dd6565b610b58565b6040516100ad9190611423565b610170610c51565b81610179610c51565b6001600160a01b0382168082526040805162018df760e91b8152905163031bee0091600480820192606092909190829003018186803b1580156101bb57600080fd5b505afa1580156101cf573d6000803e3d6000fd5b505050506040513d601f19601f820116820180604052508101906101f3919061104e565b6001600160801b0316608084015267ffffffffffffffff90811660608401521660408083019190915280516336d0054b60e01b815290516001600160a01b038416916336d0054b916004808301926020929190829003018186803b15801561025a57600080fd5b505afa15801561026e573d6000803e3d6000fd5b505050506040513d601f19601f820116820180604052508101906102929190610ed3565b15156101208201526040805163e0e081d760e01b815290516001600160a01b0384169163e0e081d7916004808301926080929190829003018186803b1580156102da57600080fd5b505afa1580156102ee573d6000803e3d6000fd5b505050506040513d601f19601f820116820180604052508101906103129190611009565b1515610100850152151560e084015260c083015260a0820152604080516304cfed9960e51b815290516103a8916001600160a01b038516916399fdb32091600480820192602092909190829003018186803b15801561037057600080fd5b505afa158015610384573d6000803e3d6000fd5b505050506040513d601f19601f820116820180604052508101906100c49190610dba565b8161014001819052506000826001600160a01b0316633d15cc6d6040518163ffffffff1660e01b815260040160206040518083038186803b1580156103ec57600080fd5b505afa158015610400573d6000803e3d6000fd5b505050506040513d601f19601f820116820180604052508101906104249190610dba565b905061042e610cc1565b6001600160a01b03821673eeeeeeeeeeeeeeeeeeeeeeeeeeeeeeeeeeeeeeee14156104625761045b610be1565b905061046e565b61046b8261047e565b90505b610160830152509150505b919050565b610486610cc1565b61048e610cc1565b6001600160a01b038316808252604080516306fdde0360e01b815290518592916306fdde03916004808301926000929190829003018186803b1580156104d357600080fd5b505afa1580156104e7573d6000803e3d6000fd5b505050506040513d6000823e601f3d908101601f1916820160405261050f9190810190610eed565b8260400181905250806001600160a01b03166395d89b416040518163ffffffff1660e01b815260040160006040518083038186803b15801561055057600080fd5b505afa158015610564573d6000803e3d6000fd5b505050506040513d6000823e601f3d908101601f1916820160405261058c9190810190610eed565b8260600181905250806001600160a01b031663313ce5676040518163ffffffff1660e01b815260040160206040518083038186803b1580156105cd57600080fd5b505afa1580156105e1573d6000803e3d6000fd5b505050506040513d601f19601f820116820180604052508101906106059190611087565b60ff1660208301525092915050565b61061c610cf2565b81610625610cf2565b6001600160a01b0382168082526040805163e0e081d760e01b8152905163e0e081d791600480820192606092909190829003018186803b15801561066857600080fd5b505afa15801561067c573d6000803e3d6000fd5b505050506040513d601f19601f820116820180604052508101906106a09190610f7d565b151561012084015215156101008301526001600160801b0316604080830191909152805162018df760e91b815290516001600160a01b0384169163031bee00916004808301926060929190829003018186803b1580156106ff57600080fd5b505afa158015610713573d6000803e3d6000fd5b505050506040513d601f19601f82011682018060405250810190610737919061104e565b6001600160801b0316606084015267ffffffffffffffff90811660e08401521660c0820152604080516308b42a7160e31b815281516001600160a01b038516926345a153889260048082019391829003018186803b15801561079857600080fd5b505afa1580156107ac573d6000803e3d6000fd5b505050506040513d601f19601f820116820180604052508101906107d09190610fbf565b6001600160801b0390811660a0840152166080820152604080516336d0054b60e01b815290516001600160a01b038416916336d0054b916004808301926020929190829003018186803b15801561082657600080fd5b505afa15801561083a573d6000803e3d6000fd5b505050506040513d601f19601f8201168201806040525081019061085e9190610ed3565b816101400190151590811515815250506108aa826001600160a01b03166399fdb3206040518163ffffffff1660e01b815260040160206040518083038186803b15801561037057600080fd5b8161016001819052506000826001600160a01b0316633d15cc6d6040518163ffffffff1660e01b815260040160206040518083038186803b1580156108ee57600080fd5b505afa158015610902573d6000803e3d6000fd5b505050506040513d601f19601f820116820180604052508101906109269190610dba565b9050610930610cc1565b6001600160a01b03821673eeeeeeeeeeeeeeeeeeeeeeeeeeeeeeeeeeeeeeee14156109645761095d610be1565b9050610970565b61096d8261047e565b90505b610180830152509392505050565b60606000825167ffffffffffffffff8111156109aa57634e487b7160e01b600052604160045260246000fd5b6040519080825280602002602001820160405280156109e357816020015b6109d0610cc1565b8152602001906001900390816109c85790505b50905060005b8351811015610a6057610a22848281518110610a1557634e487b7160e01b600052603260045260246000fd5b602002602001015161047e565b828281518110610a4257634e487b7160e01b600052603260045260246000fd5b60200260200101819052508080610a5890611486565b9150506109e9565b5092915050565b60015460405163c395fcb360e01b81526001600160a01b039091169063c395fcb390610a97903390600401611155565b60206040518083038186803b158015610aaf57600080fd5b505afa158015610ac3573d6000803e3d6000fd5b505050506040513d601f19601f82011682018060405250810190610ae79190610ed3565b610b0c5760405162461bcd60e51b8152600401610b03906111e3565b60405180910390fd5b6001600160a01b03811615610b3757600080546001600160a01b0319166001600160a01b0383161790555b50565b6001546001600160a01b031681565b6000546001600160a01b031681565b604051636eb1769f60e11b81526000906001600160a01b0385169063dd62ed3e90610b899086908690600401611169565b60206040518083038186803b158015610ba157600080fd5b505afa158015610bb5573d6000803e3d6000fd5b505050506040513d601f19601f82011682018060405250810190610bd99190610ff1565b949350505050565b610be9610cc1565b73eeeeeeeeeeeeeeeeeeeeeeeeeeeeeeeeeeeeeeee81526040805180820182526008815267455448455245554d60c01b602080830191909152828401919091528151808301909252600382526208aa8960eb1b82820152606083019190915260129082015290565b6040805161018081018252600080825260208201819052918101829052606081018290526080810182905260a0810182905260c0810182905260e0810182905261010081018290526101208101919091526101408101610caf610cc1565b8152602001610cbc610cc1565b905290565b604051806080016040528060006001600160a01b031681526020016000815260200160608152602001606081525090565b604080516101a081018252600080825260208201819052918101829052606081018290526080810182905260a0810182905260c0810182905260e08101829052610100810182905261012081018290526101408101919091526101608101610caf610cc1565b8051801515811461047957600080fd5b80516001600160801b038116811461047957600080fd5b805167ffffffffffffffff8116811461047957600080fd5b600060208284031215610da8578081fd5b8135610db3816114c3565b9392505050565b600060208284031215610dcb578081fd5b8151610db3816114c3565b600080600060608486031215610dea578182fd5b8335610df5816114c3565b92506020840135610e05816114c3565b91506040840135610e15816114c3565b809150509250925092565b60006020808385031215610e32578182fd5b823567ffffffffffffffff80821115610e49578384fd5b818501915085601f830112610e5c578384fd5b813581811115610e6e57610e6e6114ad565b8381029150610e7e84830161142c565b8181528481019084860184860187018a1015610e98578788fd5b8795505b83861015610ec65780359450610eb1856114c3565b84835260019590950194918601918601610e9c565b5098975050505050505050565b600060208284031215610ee4578081fd5b610db382610d58565b600060208284031215610efe578081fd5b815167ffffffffffffffff80821115610f15578283fd5b818401915084601f830112610f28578283fd5b815181811115610f3a57610f3a6114ad565b610f4d601f8201601f191660200161142c565b9150808252856020828501011115610f63578384fd5b610f74816020840160208601611456565b50949350505050565b600080600060608486031215610f91578283fd5b610f9a84610d68565b9250610fa860208501610d58565b9150610fb660408501610d58565b90509250925092565b60008060408385031215610fd1578182fd5b610fda83610d68565b9150610fe860208401610d68565b90509250929050565b600060208284031215611002578081fd5b5051919050565b6000806000806080858703121561101e578081fd5b845193506020850151925061103560408601610d58565b915061104360608601610d58565b905092959194509250565b600080600060608486031215611062578283fd5b61106b84610d7f565b925061107960208501610d7f565b9150610fb660408501610d68565b600060208284031215611098578081fd5b815160ff81168114610db3578182fd5b6001600160a01b03169052565b15159052565b600081518084526110d3816020860160208601611456565b601f01601f19169290920160200192915050565b600060018060a01b0382511683526020820151602084015260408201516080604085015261111860808501826110bb565b90506060830151848203606086015261113182826110bb565b95945050505050565b6001600160801b03169052565b67ffffffffffffffff169052565b6001600160a01b0391909116815260200190565b6001600160a01b0392831681529116602082015260400190565b6000602080830181845280855180835260408601915060408482028701019250838701855b828110156111d657603f198886030184526111c48583516110e7565b945092850192908501906001016111a8565b5092979650505050505050565b60208082526021908201527f464c59425948656c7065723a2053656e646572206d7573742062652041646d696040820152603760f91b606082015260800190565b6000602082526112386020830184516110a8565b602083015161124a60408401826110a8565b50604083015161125d6060840182611147565b5060608301516112706080840182611147565b50608083015161128360a084018261113a565b5060a083015160c083015260c083015160e083015260e08301516101006112ac818501836110b5565b84015190506101206112c0848201836110b5565b84015190506101406112d4848201836110b5565b8085015191505061018061016081818601526112f46101a08601846110e7565b90860151858203601f19018387015290925061131083826110e7565b9695505050505050565b60006020825261132e6020830184516110a8565b602083015161134060408401826110a8565b506040830151611353606084018261113a565b506060830151611366608084018261113a565b50608083015161137960a084018261113a565b5060a083015161138c60c084018261113a565b5060c083015161139f60e0840182611147565b5060e08301516101006113b481850183611147565b84015190506101206113c8848201836110b5565b84015190506101406113dc848201836110b5565b84015190506101606113f0848201836110b5565b808501519150506101a061018081818601526112f46101c08601846110e7565b600060208252610db360208301846110e7565b90815260200190565b60405181810167ffffffffffffffff8111828210171561144e5761144e6114ad565b604052919050565b60005b83811015611471578181015183820152602001611459565b83811115611480576000848401525b50505050565b60006000198214156114a657634e487b7160e01b81526011600452602481fd5b5060010190565b634e487b7160e01b600052604160045260246000fd5b6001600160a01b0381168114610b3757600080fdfea2646970667358221220925105c1e107ce7e8460c9097085fe80d2d9d893867ee40cb6ed0bf9ddf62fc364736f6c63430008000033",
  "devdoc": {
    "kind": "dev",
    "methods": {},
    "version": 1
  },
  "userdoc": {
    "kind": "user",
    "methods": {},
    "version": 1
  },
  "storageLayout": {
    "storage": [
      {
        "astId": 6057,
        "contract": "contracts/Helper/FLYBYHelper.sol:FLYBYHelper",
        "label": "market",
        "offset": 0,
        "slot": "0",
        "type": "t_contract(IFlybyMarketFactory)6116"
      },
      {
        "astId": 6060,
        "contract": "contracts/Helper/FLYBYHelper.sol:FLYBYHelper",
        "label": "accessControls",
        "offset": 0,
        "slot": "1",
        "type": "t_contract(FLYBYAccessControls)208"
      }
    ],
    "types": {
      "t_contract(FLYBYAccessControls)208": {
        "encoding": "inplace",
        "label": "contract FLYBYAccessControls",
        "numberOfBytes": "20"
      },
      "t_contract(IFlybyMarketFactory)6116": {
        "encoding": "inplace",
        "label": "contract IFlybyMarketFactory",
        "numberOfBytes": "20"
      }
    }
  }
}