{
  "address": "0xEe10D3DA099a8A0A7d621Fa32B555AF75414b957",
  "abi": [
    {
      "anonymous": false,
      "inputs": [
        {
          "indexed": false,
          "internalType": "address",
          "name": "addr",
          "type": "address"
        },
        {
          "indexed": false,
          "internalType": "uint256",
          "name": "commitment",
          "type": "uint256"
        }
      ],
      "name": "AddedCommitment",
      "type": "event"
    },
    {
      "anonymous": false,
      "inputs": [
        {
          "indexed": true,
          "internalType": "address",
          "name": "beneficiary",
          "type": "address"
        },
        {
          "indexed": true,
          "internalType": "address",
          "name": "caller",
          "type": "address"
        }
      ],
      "name": "AdminRoleGranted",
      "type": "event"
    },
    {
      "anonymous": false,
      "inputs": [
        {
          "indexed": true,
          "internalType": "address",
          "name": "beneficiary",
          "type": "address"
        },
        {
          "indexed": true,
          "internalType": "address",
          "name": "caller",
          "type": "address"
        }
      ],
      "name": "AdminRoleRemoved",
      "type": "event"
    },
    {
      "anonymous": false,
      "inputs": [],
      "name": "AuctionCancelled",
      "type": "event"
    },
    {
      "anonymous": false,
      "inputs": [],
      "name": "AuctionFinalized",
      "type": "event"
    },
    {
      "anonymous": false,
      "inputs": [
        {
          "indexed": false,
          "internalType": "uint256",
          "name": "rate",
          "type": "uint256"
        },
        {
          "indexed": false,
          "internalType": "uint256",
          "name": "goal",
          "type": "uint256"
        }
      ],
      "name": "AuctionPriceUpdated",
      "type": "event"
    },
    {
      "anonymous": false,
      "inputs": [
        {
          "indexed": false,
          "internalType": "uint256",
          "name": "startTime",
          "type": "uint256"
        },
        {
          "indexed": false,
          "internalType": "uint256",
          "name": "endTime",
          "type": "uint256"
        }
      ],
      "name": "AuctionTimeUpdated",
      "type": "event"
    },
    {
      "anonymous": false,
      "inputs": [
        {
          "indexed": false,
          "internalType": "address",
          "name": "wallet",
          "type": "address"
        }
      ],
      "name": "AuctionWalletUpdated",
      "type": "event"
    },
    {
      "anonymous": false,
      "inputs": [
        {
          "indexed": true,
          "internalType": "string",
          "name": "_name",
          "type": "string"
        },
        {
          "indexed": false,
          "internalType": "string",
          "name": "_data",
          "type": "string"
        }
      ],
      "name": "DocumentRemoved",
      "type": "event"
    },
    {
      "anonymous": false,
      "inputs": [
        {
          "indexed": true,
          "internalType": "string",
          "name": "_name",
          "type": "string"
        },
        {
          "indexed": false,
          "internalType": "string",
          "name": "_data",
          "type": "string"
        }
      ],
      "name": "DocumentUpdated",
      "type": "event"
    },
    {
      "anonymous": false,
      "inputs": [
        {
          "indexed": true,
          "internalType": "address",
          "name": "beneficiary",
          "type": "address"
        },
        {
          "indexed": true,
          "internalType": "address",
          "name": "caller",
          "type": "address"
        }
      ],
      "name": "MinterRoleGranted",
      "type": "event"
    },
    {
      "anonymous": false,
      "inputs": [
        {
          "indexed": true,
          "internalType": "address",
          "name": "beneficiary",
          "type": "address"
        },
        {
          "indexed": true,
          "internalType": "address",
          "name": "caller",
          "type": "address"
        }
      ],
      "name": "MinterRoleRemoved",
      "type": "event"
    },
    {
      "anonymous": false,
      "inputs": [
        {
          "indexed": true,
          "internalType": "address",
          "name": "beneficiary",
          "type": "address"
        },
        {
          "indexed": true,
          "internalType": "address",
          "name": "caller",
          "type": "address"
        }
      ],
      "name": "OperatorRoleGranted",
      "type": "event"
    },
    {
      "anonymous": false,
      "inputs": [
        {
          "indexed": true,
          "internalType": "address",
          "name": "beneficiary",
          "type": "address"
        },
        {
          "indexed": true,
          "internalType": "address",
          "name": "caller",
          "type": "address"
        }
      ],
      "name": "OperatorRoleRemoved",
      "type": "event"
    },
    {
      "anonymous": false,
      "inputs": [
        {
          "indexed": true,
          "internalType": "bytes32",
          "name": "role",
          "type": "bytes32"
        },
        {
          "indexed": true,
          "internalType": "bytes32",
          "name": "previousAdminRole",
          "type": "bytes32"
        },
        {
          "indexed": true,
          "internalType": "bytes32",
          "name": "newAdminRole",
          "type": "bytes32"
        }
      ],
      "name": "RoleAdminChanged",
      "type": "event"
    },
    {
      "anonymous": false,
      "inputs": [
        {
          "indexed": true,
          "internalType": "bytes32",
          "name": "role",
          "type": "bytes32"
        },
        {
          "indexed": true,
          "internalType": "address",
          "name": "account",
          "type": "address"
        },
        {
          "indexed": true,
          "internalType": "address",
          "name": "sender",
          "type": "address"
        }
      ],
      "name": "RoleGranted",
      "type": "event"
    },
    {
      "anonymous": false,
      "inputs": [
        {
          "indexed": true,
          "internalType": "bytes32",
          "name": "role",
          "type": "bytes32"
        },
        {
          "indexed": true,
          "internalType": "address",
          "name": "account",
          "type": "address"
        },
        {
          "indexed": true,
          "internalType": "address",
          "name": "sender",
          "type": "address"
        }
      ],
      "name": "RoleRevoked",
      "type": "event"
    },
    {
      "anonymous": false,
      "inputs": [
        {
          "indexed": true,
          "internalType": "address",
          "name": "beneficiary",
          "type": "address"
        },
        {
          "indexed": true,
          "internalType": "address",
          "name": "caller",
          "type": "address"
        }
      ],
      "name": "SmartContractRoleGranted",
      "type": "event"
    },
    {
      "anonymous": false,
      "inputs": [
        {
          "indexed": true,
          "internalType": "address",
          "name": "beneficiary",
          "type": "address"
        },
        {
          "indexed": true,
          "internalType": "address",
          "name": "caller",
          "type": "address"
        }
      ],
      "name": "SmartContractRoleRemoved",
      "type": "event"
    },
    {
      "inputs": [],
      "name": "DEFAULT_ADMIN_ROLE",
      "outputs": [
        {
          "internalType": "bytes32",
          "name": "",
          "type": "bytes32"
        }
      ],
      "stateMutability": "view",
      "type": "function"
    },
    {
      "inputs": [],
      "name": "MINTER_ROLE",
      "outputs": [
        {
          "internalType": "bytes32",
          "name": "",
          "type": "bytes32"
        }
      ],
      "stateMutability": "view",
      "type": "function"
    },
    {
      "inputs": [],
      "name": "OPERATOR_ROLE",
      "outputs": [
        {
          "internalType": "bytes32",
          "name": "",
          "type": "bytes32"
        }
      ],
      "stateMutability": "view",
      "type": "function"
    },
    {
      "inputs": [],
      "name": "SMART_CONTRACT_ROLE",
      "outputs": [
        {
          "internalType": "bytes32",
          "name": "",
          "type": "bytes32"
        }
      ],
      "stateMutability": "view",
      "type": "function"
    },
    {
      "inputs": [
        {
          "internalType": "address",
          "name": "_address",
          "type": "address"
        }
      ],
      "name": "addAdminRole",
      "outputs": [],
      "stateMutability": "nonpayable",
      "type": "function"
    },
    {
      "inputs": [
        {
          "internalType": "address",
          "name": "_address",
          "type": "address"
        }
      ],
      "name": "addMinterRole",
      "outputs": [],
      "stateMutability": "nonpayable",
      "type": "function"
    },
    {
      "inputs": [
        {
          "internalType": "address",
          "name": "_address",
          "type": "address"
        }
      ],
      "name": "addOperatorRole",
      "outputs": [],
      "stateMutability": "nonpayable",
      "type": "function"
    },
    {
      "inputs": [
        {
          "internalType": "address",
          "name": "_address",
          "type": "address"
        }
      ],
      "name": "addSmartContractRole",
      "outputs": [],
      "stateMutability": "nonpayable",
      "type": "function"
    },
    {
      "inputs": [],
      "name": "auctionEnded",
      "outputs": [
        {
          "internalType": "bool",
          "name": "",
          "type": "bool"
        }
      ],
      "stateMutability": "view",
      "type": "function"
    },
    {
      "inputs": [],
      "name": "auctionSuccessful",
      "outputs": [
        {
          "internalType": "bool",
          "name": "",
          "type": "bool"
        }
      ],
      "stateMutability": "view",
      "type": "function"
    },
    {
      "inputs": [],
      "name": "auctionToken",
      "outputs": [
        {
          "internalType": "address",
          "name": "",
          "type": "address"
        }
      ],
      "stateMutability": "view",
      "type": "function"
    },
    {
      "inputs": [
        {
          "internalType": "bytes[]",
          "name": "calls",
          "type": "bytes[]"
        },
        {
          "internalType": "bool",
          "name": "revertOnFail",
          "type": "bool"
        }
      ],
      "name": "batch",
      "outputs": [
        {
          "internalType": "bool[]",
          "name": "successes",
          "type": "bool[]"
        },
        {
          "internalType": "bytes[]",
          "name": "results",
          "type": "bytes[]"
        }
      ],
      "stateMutability": "payable",
      "type": "function"
    },
    {
      "inputs": [
        {
          "internalType": "uint256",
          "name": "_commitment",
          "type": "uint256"
        }
      ],
      "name": "calculateCommitment",
      "outputs": [
        {
          "internalType": "uint256",
          "name": "committed",
          "type": "uint256"
        }
      ],
      "stateMutability": "view",
      "type": "function"
    },
    {
      "inputs": [
        {
          "internalType": "address",
          "name": "",
          "type": "address"
        }
      ],
      "name": "claimed",
      "outputs": [
        {
          "internalType": "uint256",
          "name": "",
          "type": "uint256"
        }
      ],
      "stateMutability": "view",
      "type": "function"
    },
    {
      "inputs": [
        {
          "internalType": "uint256",
          "name": "_amount",
          "type": "uint256"
        },
        {
          "internalType": "bool",
          "name": "readAndAgreedToMarketParticipationAgreement",
          "type": "bool"
        }
      ],
      "name": "commitTokens",
      "outputs": [],
      "stateMutability": "nonpayable",
      "type": "function"
    },
    {
      "inputs": [
        {
          "internalType": "address",
          "name": "_from",
          "type": "address"
        },
        {
          "internalType": "uint256",
          "name": "_amount",
          "type": "uint256"
        },
        {
          "internalType": "bool",
          "name": "readAndAgreedToMarketParticipationAgreement",
          "type": "bool"
        }
      ],
      "name": "commitTokensFrom",
      "outputs": [],
      "stateMutability": "nonpayable",
      "type": "function"
    },
    {
      "inputs": [
        {
          "internalType": "address",
          "name": "",
          "type": "address"
        }
      ],
      "name": "commitments",
      "outputs": [
        {
          "internalType": "uint256",
          "name": "",
          "type": "uint256"
        }
      ],
      "stateMutability": "view",
      "type": "function"
    },
    {
      "inputs": [
        {
          "internalType": "bool",
          "name": "_status",
          "type": "bool"
        }
      ],
      "name": "enableList",
      "outputs": [],
      "stateMutability": "nonpayable",
      "type": "function"
    },
    {
      "inputs": [],
      "name": "finalize",
      "outputs": [],
      "stateMutability": "nonpayable",
      "type": "function"
    },
    {
      "inputs": [],
      "name": "finalizeTimeExpired",
      "outputs": [
        {
          "internalType": "bool",
          "name": "",
          "type": "bool"
        }
      ],
      "stateMutability": "view",
      "type": "function"
    },
    {
      "inputs": [],
      "name": "finalized",
      "outputs": [
        {
          "internalType": "bool",
          "name": "",
          "type": "bool"
        }
      ],
      "stateMutability": "view",
      "type": "function"
    },
    {
      "inputs": [],
      "name": "getAllDocuments",
      "outputs": [
        {
          "internalType": "string[]",
          "name": "",
          "type": "string[]"
        }
      ],
      "stateMutability": "view",
      "type": "function"
    },
    {
      "inputs": [],
      "name": "getBaseInformation",
      "outputs": [
        {
          "internalType": "address",
          "name": "",
          "type": "address"
        },
        {
          "internalType": "uint256",
          "name": "",
          "type": "uint256"
        },
        {
          "internalType": "uint256",
          "name": "",
          "type": "uint256"
        },
        {
          "internalType": "bool",
          "name": "",
          "type": "bool"
        }
      ],
      "stateMutability": "view",
      "type": "function"
    },
    {
      "inputs": [
        {
          "internalType": "address",
          "name": "_funder",
          "type": "address"
        },
        {
          "internalType": "address",
          "name": "_token",
          "type": "address"
        },
        {
          "internalType": "address",
          "name": "_paymentCurrency",
          "type": "address"
        },
        {
          "internalType": "uint256",
          "name": "_totalTokens",
          "type": "uint256"
        },
        {
          "internalType": "uint256",
          "name": "_startTime",
          "type": "uint256"
        },
        {
          "internalType": "uint256",
          "name": "_endTime",
          "type": "uint256"
        },
        {
          "internalType": "uint256",
          "name": "_rate",
          "type": "uint256"
        },
        {
          "internalType": "uint256",
          "name": "_goal",
          "type": "uint256"
        },
        {
          "internalType": "address",
          "name": "_admin",
          "type": "address"
        },
        {
          "internalType": "address",
          "name": "_pointList",
          "type": "address"
        },
        {
          "internalType": "address payable",
          "name": "_wallet",
          "type": "address"
        }
      ],
      "name": "getCrowdsaleInitData",
      "outputs": [
        {
          "internalType": "bytes",
          "name": "_data",
          "type": "bytes"
        }
      ],
      "stateMutability": "pure",
      "type": "function"
    },
    {
      "inputs": [
        {
          "internalType": "string",
          "name": "_name",
          "type": "string"
        }
      ],
      "name": "getDocument",
      "outputs": [
        {
          "internalType": "string",
          "name": "",
          "type": "string"
        },
        {
          "internalType": "uint256",
          "name": "",
          "type": "uint256"
        }
      ],
      "stateMutability": "view",
      "type": "function"
    },
    {
      "inputs": [],
      "name": "getDocumentCount",
      "outputs": [
        {
          "internalType": "uint256",
          "name": "",
          "type": "uint256"
        }
      ],
      "stateMutability": "view",
      "type": "function"
    },
    {
      "inputs": [
        {
          "internalType": "uint256",
          "name": "_index",
          "type": "uint256"
        }
      ],
      "name": "getDocumentName",
      "outputs": [
        {
          "internalType": "string",
          "name": "",
          "type": "string"
        }
      ],
      "stateMutability": "view",
      "type": "function"
    },
    {
      "inputs": [
        {
          "internalType": "bytes32",
          "name": "role",
          "type": "bytes32"
        }
      ],
      "name": "getRoleAdmin",
      "outputs": [
        {
          "internalType": "bytes32",
          "name": "",
          "type": "bytes32"
        }
      ],
      "stateMutability": "view",
      "type": "function"
    },
    {
      "inputs": [
        {
          "internalType": "bytes32",
          "name": "role",
          "type": "bytes32"
        },
        {
          "internalType": "uint256",
          "name": "index",
          "type": "uint256"
        }
      ],
      "name": "getRoleMember",
      "outputs": [
        {
          "internalType": "address",
          "name": "",
          "type": "address"
        }
      ],
      "stateMutability": "view",
      "type": "function"
    },
    {
      "inputs": [
        {
          "internalType": "bytes32",
          "name": "role",
          "type": "bytes32"
        }
      ],
      "name": "getRoleMemberCount",
      "outputs": [
        {
          "internalType": "uint256",
          "name": "",
          "type": "uint256"
        }
      ],
      "stateMutability": "view",
      "type": "function"
    },
    {
      "inputs": [
        {
          "internalType": "uint256",
          "name": "_amount",
          "type": "uint256"
        }
      ],
      "name": "getTokenAmount",
      "outputs": [
        {
          "internalType": "uint256",
          "name": "",
          "type": "uint256"
        }
      ],
      "stateMutability": "view",
      "type": "function"
    },
    {
      "inputs": [],
      "name": "getTotalTokens",
      "outputs": [
        {
          "internalType": "uint256",
          "name": "",
          "type": "uint256"
        }
      ],
      "stateMutability": "view",
      "type": "function"
    },
    {
      "inputs": [
        {
          "internalType": "bytes32",
          "name": "role",
          "type": "bytes32"
        },
        {
          "internalType": "address",
          "name": "account",
          "type": "address"
        }
      ],
      "name": "grantRole",
      "outputs": [],
      "stateMutability": "nonpayable",
      "type": "function"
    },
    {
      "inputs": [
        {
          "internalType": "address",
          "name": "_address",
          "type": "address"
        }
      ],
      "name": "hasAdminRole",
      "outputs": [
        {
          "internalType": "bool",
          "name": "",
          "type": "bool"
        }
      ],
      "stateMutability": "view",
      "type": "function"
    },
    {
      "inputs": [
        {
          "internalType": "address",
          "name": "_address",
          "type": "address"
        }
      ],
      "name": "hasMinterRole",
      "outputs": [
        {
          "internalType": "bool",
          "name": "",
          "type": "bool"
        }
      ],
      "stateMutability": "view",
      "type": "function"
    },
    {
      "inputs": [
        {
          "internalType": "address",
          "name": "_address",
          "type": "address"
        }
      ],
      "name": "hasOperatorRole",
      "outputs": [
        {
          "internalType": "bool",
          "name": "",
          "type": "bool"
        }
      ],
      "stateMutability": "view",
      "type": "function"
    },
    {
      "inputs": [
        {
          "internalType": "bytes32",
          "name": "role",
          "type": "bytes32"
        },
        {
          "internalType": "address",
          "name": "account",
          "type": "address"
        }
      ],
      "name": "hasRole",
      "outputs": [
        {
          "internalType": "bool",
          "name": "",
          "type": "bool"
        }
      ],
      "stateMutability": "view",
      "type": "function"
    },
    {
      "inputs": [
        {
          "internalType": "address",
          "name": "_address",
          "type": "address"
        }
      ],
      "name": "hasSmartContractRole",
      "outputs": [
        {
          "internalType": "bool",
          "name": "",
          "type": "bool"
        }
      ],
      "stateMutability": "view",
      "type": "function"
    },
    {
      "inputs": [
        {
          "internalType": "bytes",
          "name": "_data",
          "type": "bytes"
        }
      ],
      "name": "init",
      "outputs": [],
      "stateMutability": "payable",
      "type": "function"
    },
    {
      "inputs": [
        {
          "internalType": "address",
          "name": "_admin",
          "type": "address"
        }
      ],
      "name": "initAccessControls",
      "outputs": [],
      "stateMutability": "nonpayable",
      "type": "function"
    },
    {
      "inputs": [
        {
          "internalType": "address",
          "name": "_funder",
          "type": "address"
        },
        {
          "internalType": "address",
          "name": "_token",
          "type": "address"
        },
        {
          "internalType": "address",
          "name": "_paymentCurrency",
          "type": "address"
        },
        {
          "internalType": "uint256",
          "name": "_totalTokens",
          "type": "uint256"
        },
        {
          "internalType": "uint256",
          "name": "_startTime",
          "type": "uint256"
        },
        {
          "internalType": "uint256",
          "name": "_endTime",
          "type": "uint256"
        },
        {
          "internalType": "uint256",
          "name": "_rate",
          "type": "uint256"
        },
        {
          "internalType": "uint256",
          "name": "_goal",
          "type": "uint256"
        },
        {
          "internalType": "address",
          "name": "_admin",
          "type": "address"
        },
        {
          "internalType": "address",
          "name": "_pointList",
          "type": "address"
        },
        {
          "internalType": "address payable",
          "name": "_wallet",
          "type": "address"
        }
      ],
      "name": "initCrowdsale",
      "outputs": [],
      "stateMutability": "nonpayable",
      "type": "function"
    },
    {
      "inputs": [
        {
          "internalType": "bytes",
          "name": "_data",
          "type": "bytes"
        }
      ],
      "name": "initMarket",
      "outputs": [],
      "stateMutability": "nonpayable",
      "type": "function"
    },
    {
      "inputs": [],
      "name": "isOpen",
      "outputs": [
        {
          "internalType": "bool",
          "name": "",
          "type": "bool"
        }
      ],
      "stateMutability": "view",
      "type": "function"
    },
    {
      "inputs": [],
      "name": "marketInfo",
      "outputs": [
        {
          "internalType": "uint256",
          "name": "startTime",
          "type": "uint256"
        },
        {
          "internalType": "uint256",
          "name": "endTime",
          "type": "uint256"
        },
        {
          "internalType": "uint128",
          "name": "totalTokens",
          "type": "uint128"
        }
      ],
      "stateMutability": "view",
      "type": "function"
    },
    {
      "inputs": [],
      "name": "marketPrice",
      "outputs": [
        {
          "internalType": "uint128",
          "name": "rate",
          "type": "uint128"
        },
        {
          "internalType": "uint128",
          "name": "goal",
          "type": "uint128"
        }
      ],
      "stateMutability": "view",
      "type": "function"
    },
    {
      "inputs": [],
      "name": "marketStatus",
      "outputs": [
        {
          "internalType": "uint128",
          "name": "commitmentsTotal",
          "type": "uint128"
        },
        {
          "internalType": "bool",
          "name": "finalized",
          "type": "bool"
        },
        {
          "internalType": "bool",
          "name": "usePointList",
          "type": "bool"
        }
      ],
      "stateMutability": "view",
      "type": "function"
    },
    {
      "inputs": [],
      "name": "marketTemplate",
      "outputs": [
        {
          "internalType": "uint256",
          "name": "",
          "type": "uint256"
        }
      ],
      "stateMutability": "view",
      "type": "function"
    },
    {
      "inputs": [],
      "name": "paymentCurrency",
      "outputs": [
        {
          "internalType": "address",
          "name": "",
          "type": "address"
        }
      ],
      "stateMutability": "view",
      "type": "function"
    },
    {
      "inputs": [
        {
          "internalType": "contract IERC20",
          "name": "token",
          "type": "address"
        },
        {
          "internalType": "address",
          "name": "from",
          "type": "address"
        },
        {
          "internalType": "address",
          "name": "to",
          "type": "address"
        },
        {
          "internalType": "uint256",
          "name": "amount",
          "type": "uint256"
        },
        {
          "internalType": "uint256",
          "name": "deadline",
          "type": "uint256"
        },
        {
          "internalType": "uint8",
          "name": "v",
          "type": "uint8"
        },
        {
          "internalType": "bytes32",
          "name": "r",
          "type": "bytes32"
        },
        {
          "internalType": "bytes32",
          "name": "s",
          "type": "bytes32"
        }
      ],
      "name": "permitToken",
      "outputs": [],
      "stateMutability": "nonpayable",
      "type": "function"
    },
    {
      "inputs": [],
      "name": "pointList",
      "outputs": [
        {
          "internalType": "address",
          "name": "",
          "type": "address"
        }
      ],
      "stateMutability": "view",
      "type": "function"
    },
    {
      "inputs": [
        {
          "internalType": "address",
          "name": "_address",
          "type": "address"
        }
      ],
      "name": "removeAdminRole",
      "outputs": [],
      "stateMutability": "nonpayable",
      "type": "function"
    },
    {
      "inputs": [
        {
          "internalType": "string",
          "name": "_name",
          "type": "string"
        }
      ],
      "name": "removeDocument",
      "outputs": [],
      "stateMutability": "nonpayable",
      "type": "function"
    },
    {
      "inputs": [
        {
          "internalType": "address",
          "name": "_address",
          "type": "address"
        }
      ],
      "name": "removeMinterRole",
      "outputs": [],
      "stateMutability": "nonpayable",
      "type": "function"
    },
    {
      "inputs": [
        {
          "internalType": "address",
          "name": "_address",
          "type": "address"
        }
      ],
      "name": "removeOperatorRole",
      "outputs": [],
      "stateMutability": "nonpayable",
      "type": "function"
    },
    {
      "inputs": [
        {
          "internalType": "address",
          "name": "_address",
          "type": "address"
        }
      ],
      "name": "removeSmartContractRole",
      "outputs": [],
      "stateMutability": "nonpayable",
      "type": "function"
    },
    {
      "inputs": [
        {
          "internalType": "bytes32",
          "name": "role",
          "type": "bytes32"
        },
        {
          "internalType": "address",
          "name": "account",
          "type": "address"
        }
      ],
      "name": "renounceRole",
      "outputs": [],
      "stateMutability": "nonpayable",
      "type": "function"
    },
    {
      "inputs": [
        {
          "internalType": "bytes32",
          "name": "role",
          "type": "bytes32"
        },
        {
          "internalType": "address",
          "name": "account",
          "type": "address"
        }
      ],
      "name": "revokeRole",
      "outputs": [],
      "stateMutability": "nonpayable",
      "type": "function"
    },
    {
      "inputs": [
        {
          "internalType": "uint256",
          "name": "_rate",
          "type": "uint256"
        },
        {
          "internalType": "uint256",
          "name": "_goal",
          "type": "uint256"
        }
      ],
      "name": "setAuctionPrice",
      "outputs": [],
      "stateMutability": "nonpayable",
      "type": "function"
    },
    {
      "inputs": [
        {
          "internalType": "uint256",
          "name": "_startTime",
          "type": "uint256"
        },
        {
          "internalType": "uint256",
          "name": "_endTime",
          "type": "uint256"
        }
      ],
      "name": "setAuctionTime",
      "outputs": [],
      "stateMutability": "nonpayable",
      "type": "function"
    },
    {
      "inputs": [
        {
          "internalType": "address payable",
          "name": "_wallet",
          "type": "address"
        }
      ],
      "name": "setAuctionWallet",
      "outputs": [],
      "stateMutability": "nonpayable",
      "type": "function"
    },
    {
      "inputs": [
        {
          "internalType": "string",
          "name": "_name",
          "type": "string"
        },
        {
          "internalType": "string",
          "name": "_data",
          "type": "string"
        }
      ],
      "name": "setDocument",
      "outputs": [],
      "stateMutability": "nonpayable",
      "type": "function"
    },
    {
      "inputs": [
        {
          "internalType": "string[]",
          "name": "_name",
          "type": "string[]"
        },
        {
          "internalType": "string[]",
          "name": "_data",
          "type": "string[]"
        }
      ],
      "name": "setDocuments",
      "outputs": [],
      "stateMutability": "nonpayable",
      "type": "function"
    },
    {
      "inputs": [
        {
          "internalType": "address",
          "name": "_list",
          "type": "address"
        }
      ],
      "name": "setList",
      "outputs": [],
      "stateMutability": "nonpayable",
      "type": "function"
    },
    {
      "inputs": [],
      "name": "tokenPrice",
      "outputs": [
        {
          "internalType": "uint256",
          "name": "",
          "type": "uint256"
        }
      ],
      "stateMutability": "view",
      "type": "function"
    },
    {
      "inputs": [
        {
          "internalType": "address",
          "name": "_user",
          "type": "address"
        }
      ],
      "name": "tokensClaimable",
      "outputs": [
        {
          "internalType": "uint256",
          "name": "claimerCommitment",
          "type": "uint256"
        }
      ],
      "stateMutability": "view",
      "type": "function"
    },
    {
      "inputs": [],
      "name": "wallet",
      "outputs": [
        {
          "internalType": "address payable",
          "name": "",
          "type": "address"
        }
      ],
      "stateMutability": "view",
      "type": "function"
    },
    {
      "inputs": [
        {
          "internalType": "address payable",
          "name": "beneficiary",
          "type": "address"
        }
      ],
      "name": "withdrawTokens",
      "outputs": [],
      "stateMutability": "nonpayable",
      "type": "function"
    },
    {
      "inputs": [],
      "name": "withdrawTokens",
      "outputs": [],
      "stateMutability": "nonpayable",
      "type": "function"
    }
  ],
  "transactionHash": "0x8be9114b2bef92102a4fdcc59486616a0212fbf305574a49f88551709d457a4c",
  "args": [],
  "solcInputHash": "50852c6d72e3e8c7a752c6c0819cd8dc",
  "bytecode": "0x608060405234801561001057600080fd5b5060016005556149c0806100256000396000f3fe6080604052600436106103ef5760003560e01c80638a845fc011610208578063c92bce8711610118578063dccfe310116100ab578063e8fcf7231161007a578063e8fcf72314610b77578063f04899d314610b97578063f08b82e614610bac578063f5b541a614610bc1578063fc4e3e0a14610bd6576103ef565b8063dccfe31014610af3578063dde51f6d14610b13578063e0e081d714610b33578063e6594abd14610b57576103ef565b8063d5391393116100e7578063d539139314610a7e578063d547741f14610a93578063d69d3e6214610ab3578063dc97e08214610ad3576103ef565b8063c92bce87146109fd578063c9fab05914610a1d578063ca15c87314610a3d578063d2423b5114610a5d576103ef565b80639fa5f50b1161019b578063b7928b1d1161016a578063b7928b1d1461095d578063c2507ac11461097d578063c395fcb31461099d578063c6b547e6146109bd578063c884ef83146109dd576103ef565b80639fa5f50b146108f1578063a217fddf14610913578063adbf377614610928578063b3f05b9714610948576103ef565b80639478941c116101d75780639478941c1461087c57806399fdb3201461089c5780639a87222c146108b15780639c64d0ae146108d1576103ef565b80638a845fc0146108075780638d8f2adb146108275780639010d07c1461083c57806391d148541461085c576103ef565b806347535d7b116103035780636595171c116102965780637ccb6a64116102655780637ccb6a641461077a5780637ff9b596146107a857806381353c8e146107bd578063857d2608146107dd57806386433374146107f2576103ef565b80636595171c146106fa5780636ae260c11461071a57806373973fcb1461073a5780637c516e941461075a576103ef565b80634dc80e15116102d25780634dc80e15146106925780634ddf47d4146106b2578063521eb273146106c557806354f1e126146106da576103ef565b806347535d7b1461062857806349df728c1461063d5780634b3e6abb1461065d5780634bb278f31461067d576103ef565b806324e4025b1161038657806336d0054b1161035557806336d0054b146105995780633d15cc6d146105ae5780633d1c2273146105d05780633f16431a146105e557806345a1538814610605576103ef565b806324e4025b146105145780632f2ff15d14610534578063314148e21461055457806336568abe14610579576103ef565b806317026455116103c2578063170264551461049b5780631b3e460e146104b0578063212f8a81146104d2578063248a9ca3146104f4576103ef565b8063031bee00146103f4578063099db017146104215780630cc4c0331461044e578063113b0ab21461047b575b600080fd5b34801561040057600080fd5b50610409610bf6565b6040516104189392919061461b565b60405180910390f35b34801561042d57600080fd5b5061044161043c366004613910565b610c0b565b60405161041891906140d4565b34801561045a57600080fd5b5061046e6104693660046139e9565b610c2d565b60405161041891906140e8565b34801561048757600080fd5b50610441610496366004613910565b610c74565b3480156104a757600080fd5b50610441610c8e565b3480156104bc57600080fd5b506104c5610ca9565b60405161041891906140df565b3480156104de57600080fd5b506104f26104ed366004613a0a565b610cae565b005b34801561050057600080fd5b506104c561050f366004613b34565b610d82565b34801561052057600080fd5b506104f261052f366004613b7b565b610d97565b34801561054057600080fd5b506104f261054f366004613b4c565b610e7d565b34801561056057600080fd5b50610569610ec5565b6040516104189493929190613fb5565b34801561058557600080fd5b506104f2610594366004613b4c565b610eee565b3480156105a557600080fd5b50610441610f30565b3480156105ba57600080fd5b506105c3610f4f565b6040516104189190613e7a565b3480156105dc57600080fd5b506104c5610f5e565b3480156105f157600080fd5b506104f2610600366004613910565b610f64565b34801561061157600080fd5b5061061a610fc6565b6040516104189291906145f3565b34801561063457600080fd5b50610441610fe0565b34801561064957600080fd5b506104f2610658366004613910565b610ffc565b34801561066957600080fd5b506104f2610678366004613afc565b611425565b34801561068957600080fd5b506104f2611457565b34801561069e57600080fd5b506104c56106ad366004613910565b611601565b6104f26106c0366004613b9c565b610ec1565b3480156106d157600080fd5b506105c36116e6565b3480156106e657600080fd5b506104f26106f5366004613910565b6116f5565b34801561070657600080fd5b506104f2610715366004613910565b611757565b34801561072657600080fd5b506104f2610735366004613b7b565b6117ac565b34801561074657600080fd5b506104c5610755366004613b34565b61186d565b34801561076657600080fd5b506104f2610775366004613bdb565b6118e3565b34801561078657600080fd5b5061079a610795366004613b9c565b611957565b60405161041892919061412a565b3480156107b457600080fd5b506104c5611a4f565b3480156107c957600080fd5b506104f26107d8366004613b9c565b611a5e565b3480156107e957600080fd5b506104c5611aae565b3480156107fe57600080fd5b50610441611ac0565b34801561081357600080fd5b506104f2610822366004613910565b611afc565b34801561083357600080fd5b506104f2611b5e565b34801561084857600080fd5b506105c3610857366004613b7b565b611b6b565b34801561086857600080fd5b50610441610877366004613b4c565b611b8c565b34801561088857600080fd5b506104f2610897366004613910565b611ba4565b3480156108a857600080fd5b506105c3611c06565b3480156108bd57600080fd5b506104f26108cc366004613910565b611c15565b3480156108dd57600080fd5b506104f26108ec366004613c5d565b611c92565b3480156108fd57600080fd5b50610906611cb8565b6040516104189190614074565b34801561091f57600080fd5b506104c5611d91565b34801561093457600080fd5b506104f2610943366004613910565b611d96565b34801561095457600080fd5b50610441611df8565b34801561096957600080fd5b506104f2610978366004613910565b611e08565b34801561098957600080fd5b506104c5610998366004613b34565b611e6a565b3480156109a957600080fd5b506104416109b8366004613910565b611e75565b3480156109c957600080fd5b5061046e6109d8366004613b34565b611e81565b3480156109e957600080fd5b506104c56109f8366004613910565b611f60565b348015610a0957600080fd5b506104f2610a18366004613a94565b611f72565b348015610a2957600080fd5b506104f2610a383660046139e9565b612018565b348015610a4957600080fd5b506104c5610a58366004613b34565b6122aa565b610a70610a6b366004613a4b565b6122c1565b604051610418929190613fdd565b348015610a8a57600080fd5b506104c56124b5565b348015610a9f57600080fd5b506104f2610aae366004613b4c565b6124c7565b348015610abf57600080fd5b506104f2610ace366004613910565b612501565b348015610adf57600080fd5b506104f2610aee366004613d73565b612521565b348015610aff57600080fd5b506104f2610b0e366004613910565b612533565b348015610b1f57600080fd5b506104f2610b2e366004613b9c565b612588565b348015610b3f57600080fd5b50610b486125a6565b604051610418939291906145d0565b348015610b6357600080fd5b506104f2610b72366004613910565b6125cb565b348015610b8357600080fd5b506104c5610b92366004613910565b61262e565b348015610ba357600080fd5b506105c3612640565b348015610bb857600080fd5b506104c561264f565b348015610bcd57600080fd5b506104c561265e565b348015610be257600080fd5b50610441610bf1366004613910565b612670565b6007546008546009546001600160801b031683565b6000610c2560008051602061496b83398151915283611b8c565b90505b919050565b60608b8b8b8b8b8b8b8b8b8b8b604051602001610c549b9a99989796959493929190613ea8565b60405160208183030381529060405290509b9a5050505050505050505050565b6000610c2560008051602061492b83398151915283611b8c565b6008546000904290610ca39062093a8061467e565b10905090565b600181565b60026005541415610cda5760405162461bcd60e51b8152600401610cd1906144ae565b60405180910390fd5b600260055581610ce861268a565b11158015610cfd5750610cf9612732565b8211155b610d0657600080fd5b80610d1057600080fd5b6000610d1b8361186d565b90508015610d7757600d54610d41906001600160a01b0316610d3b6127d4565b836127d8565b610d4b84826128c7565b600a54610d60906001600160801b0316612a53565b6009546001600160801b03161415610d7757426008555b505060016005555050565b60009081526020819052604090206002015490565b610da26109b86127d4565b610dab57600080fd5b60008111610db857600080fd5b60008211610dc557600080fd5b600a546001600160801b031615610ddb57600080fd5b610de482612a7e565b600680546001600160801b0319166001600160801b0392909216919091179055610e0d81612a7e565b600680546001600160801b03928316600160801b0290831617905560095416610e3582612a53565b1115610e4057600080fd5b7f622a57040c34e45abc5fadeb22e4c3c687cf48a096c86694cd21a7be9e7851ee8282604051610e7192919061460d565b60405180910390a15050565b600082815260208190526040902060020154610e9b906108776127d4565b610eb75760405162461bcd60e51b8152600401610cd19061426b565b610ec18282612aab565b5050565b600b54600754600854600a546001600160a01b039093169260ff600160801b9091041690919293565b610ef66127d4565b6001600160a01b0316816001600160a01b031614610f265760405162461bcd60e51b8152600401610cd190614553565b610ec18282612b14565b600654600a546001600160801b03600160801b90920482169116101590565b600d546001600160a01b031681565b60045490565b610f7c60008051602061492b83398151915282610e7d565b610f846127d4565b6001600160a01b0316816001600160a01b03167f1d5f9ec24c6f91be922ea13ceaad919ad6554a41b5c26087f96289a9baf98ad260405160405180910390a350565b6006546001600160801b0380821691600160801b90041682565b6007546000904210801590610ff757506008544211155b905090565b6002600554141561101f5760405162461bcd60e51b8152600401610cd1906144ae565b600260055561102c610f30565b156113de57600a54600160801b900460ff1661104757600080fd5b600061105282611601565b90506000811161106157600080fd5b6001600160a01b0382166000908152601060205260409020546110849082612b7d565b6001600160a01b03808416600090815260106020908152604080832094909455600f905291822091909155600b546110d3917348cb5b461fc321ddac997f32b6eea0bf089b1e0f911683612bab565b60006110e0826004612cb6565b905060006110ef836004612cb6565b905060006110fe846004612cb6565b9050600061110d856004612cb6565b600b546008549192507348cb5b461fc321ddac997f32b6eea0bf089b1e0f916302ef846a916001600160a01b0316903090889061114b90607861467e565b8b6040518663ffffffff1660e01b815260040161116c959493929190613f2b565b602060405180830381600087803b15801561118657600080fd5b505af115801561119a573d6000803e3d6000fd5b505050506040513d601f19601f820116820180604052508101906111be9190613d5b565b50600b546008547348cb5b461fc321ddac997f32b6eea0bf089b1e0f916302ef846a916001600160a01b0390911690309087906111fc9060f061467e565b8b6040518663ffffffff1660e01b815260040161121d959493929190613f2b565b602060405180830381600087803b15801561123757600080fd5b505af115801561124b573d6000803e3d6000fd5b505050506040513d601f19601f8201168201806040525081019061126f9190613d5b565b50600b546008547348cb5b461fc321ddac997f32b6eea0bf089b1e0f916302ef846a916001600160a01b0390911690309086906112ae9061016861467e565b8b6040518663ffffffff1660e01b81526004016112cf959493929190613f2b565b602060405180830381600087803b1580156112e957600080fd5b505af11580156112fd573d6000803e3d6000fd5b505050506040513d601f19601f820116820180604052508101906113219190613d5b565b50600b546008547348cb5b461fc321ddac997f32b6eea0bf089b1e0f916302ef846a916001600160a01b039091169030908590611360906101e061467e565b8b6040518663ffffffff1660e01b8152600401611381959493929190613f2b565b602060405180830381600087803b15801561139b57600080fd5b505af11580156113af573d6000803e3d6000fd5b505050506040513d601f19601f820116820180604052508101906113d39190613d5b565b50505050505061141d565b60085442116113ec57600080fd5b6001600160a01b038082166000908152600f602052604081208054919055600d54909161141b91168383612ce1565b505b506001600555565b6114306109b86127d4565b61143957600080fd5b600a8054911515600160881b0260ff60881b19909216919091179055565b6002600554141561147a5760405162461bcd60e51b8152600401610cd1906144ae565b600260055561148a6109b86127d4565b806114aa57506114986127d4565b600c546001600160a01b039081169116145b806114bb57506114bb6104966127d4565b806114c957506114c9610c8e565b6114d257600080fd5b600a8054600160801b900460ff16156114ea57600080fd5b60076114f4611ac0565b6114fd57600080fd5b611505610f30565b1561159357600d54600c548354611532926001600160a01b039081169216906001600160801b0316612ce1565b8154600090611549906001600160801b0316612a53565b6002830154909150600090611567906001600160801b031683612d20565b9050801561158c57600b54600c5461158c916001600160a01b03908116911683612ce1565b50506115be565b600b54600c5460028301546115be926001600160a01b039081169216906001600160801b0316612ce1565b815460ff60801b1916600160801b1782556040517f32bebcfd2d04dbae321298091d96d2cb1d07279f59718cd83bd98245b8b82b5a90600090a150506001600555565b600b546040516370a0823160e01b815260009182916001600160a01b03909116906370a0823190611636903090600401613e7a565b60206040518083038186803b15801561164e57600080fd5b505afa158015611662573d6000803e3d6000fd5b505050506040513d601f19601f820116820180604052508101906116869190613d5b565b6001600160a01b0384166000908152600f60205260409020549091506116ab90612a53565b6001600160a01b0384166000908152601060205260409020549092506116d2908390612d20565b9150808211156116e0578091505b50919050565b600c546001600160a01b031681565b61170d60008051602061496b833981519152826124c7565b6117156127d4565b6001600160a01b0316816001600160a01b03167f56692a161ffec953ddf9def93b958ea8d1ec95e21b80870c66be91a4374dc4e360405160405180910390a350565b611762600082610e7d565b61176a6127d4565b6001600160a01b0316816001600160a01b03167f2570ac42fd8b322dc453ada624dc2ed0e9bdd67f16f201a25bbd30468f2aa18760405160405180910390a350565b6117b76109b86127d4565b6117c057600080fd5b6402540be40082106117d157600080fd5b6402540be40081106117e257600080fd5b428210156117ef57600080fd5b8181116117fb57600080fd5b600a546001600160801b03161561181157600080fd5b61181a82612a7e565b6001600160801b031660075561182f81612a7e565b6001600160801b03166008556040517f5725d1e4352d6944889e54837ffaefde55cdc0b55796b831365d61cd4c87fdb890610e71908490849061460d565b60008061187983612a53565b600a54909150600090611894906001600160801b0316612a53565b6009549091506001600160801b03166118ad8284612b7d565b11156118db576009546118d2906118cd906001600160801b031683612d20565b612d4e565b92505050610c28565b509192915050565b60405163d505accf60e01b81526001600160a01b0389169063d505accf9061191b908a908a908a908a908a908a908a90600401613f5b565b600060405180830381600087803b15801561193557600080fd5b505af1158015611949573d6000803e3d6000fd5b505050505050505050505050565b606060006002848460405161196d929190613ddf565b908152602001604051809103902060010160028585604051611990929190613ddf565b9081526040519081900360200190205481546001600160401b03640100000000909204919091169082906119c39061487c565b80601f01602080910402602001604051908101604052809291908181526020018280546119ef9061487c565b8015611a3c5780601f10611a1157610100808354040283529160200191611a3c565b820191906000526020600020905b815481529060010190602001808311611a1f57829003601f168201915b50505050509150915091505b9250929050565b6006546001600160801b031690565b600080808080808080808080611a768c8e018e613933565b9a509a509a509a509a509a509a509a509a509a509a50611a9f8b8b8b8b8b8b8b8b8b8b8b612018565b50505050505050505050505050565b60008051602061492b83398151915281565b600854600090421180610ff75750600954600a546001600160801b0391821691611af591611af09116600161467e565b612a53565b1015905090565b611b1460008051602061492b833981519152826124c7565b611b1c6127d4565b6001600160a01b0316816001600160a01b03167fe5f1aa9e528307345194b88b24a32401c13926e0823060f1049d9b26c0bb62b260405160405180910390a350565b611b696106586127d4565b565b6000828152602081905260408120611b839083612d76565b90505b92915050565b6000828152602081905260408120611b839083612d82565b611bbc60008051602061494b833981519152826124c7565b611bc46127d4565b6001600160a01b0316816001600160a01b03167f70b25138b6fadeb9992d18b9653564271823e34b3e3257515d12a6d4b15fcddf60405160405180910390a350565b600b546001600160a01b031681565b611c206109b86127d4565b611c2957600080fd5b6001600160a01b038116611c3c57600080fd5b600c80546001600160a01b0319166001600160a01b0383161790556040517f34ae2bad9265f0212d4cf341708b8250949164bb54f9d0e4f442024f83bb2f9090611c87908390613e7a565b60405180910390a150565b611c9d6109b86127d4565b611ca657600080fd5b611cb284848484612d97565b50505050565b60606004805480602002602001604051908101604052809291908181526020016000905b82821015611d88578382906000526020600020018054611cfb9061487c565b80601f0160208091040260200160405190810160405280929190818152602001828054611d279061487c565b8015611d745780601f10611d4957610100808354040283529160200191611d74565b820191906000526020600020905b815481529060010190602001808311611d5757829003601f168201915b505050505081526020019060010190611cdc565b50505050905090565b600081565b611dae60008051602061496b83398151915282610e7d565b611db66127d4565b6001600160a01b0316816001600160a01b03167f0be6ab9784c7401fafb73f7bc47bc67cc4ef8c47a60ad3cb66d1de0353a0784c60405160405180910390a350565b600a54600160801b900460ff1690565b611e2060008051602061494b83398151915282610e7d565b611e286127d4565b6001600160a01b0316816001600160a01b03167f2d45ee102874989882745a26688d0b4fffee125a18df26536b12582c7fde4e1760405160405180910390a350565b60006116e082612a53565b6000610c258183611b8c565b6004546060908210611ea55760405162461bcd60e51b8152600401610cd19061444a565b60048281548110611ec657634e487b7160e01b600052603260045260246000fd5b906000526020600020018054611edb9061487c565b80601f0160208091040260200160405190810160405280929190818152602001828054611f079061487c565b8015611f545780601f10611f2957610100808354040283529160200191611f54565b820191906000526020600020905b815481529060010190602001808311611f3757829003601f168201915b50505050509050919050565b60106020526000908152604090205481565b611f7d6109b86127d4565b611f8657600080fd5b8260005b8181101561201057611ffe868683818110611fb557634e487b7160e01b600052603260045260246000fd5b9050602002810190611fc7919061463a565b868685818110611fe757634e487b7160e01b600052603260045260246000fd5b9050602002810190611ff9919061463a565b612d97565b80612008816148b1565b915050611f8a565b505050505050565b6402540be400871061202957600080fd5b6402540be400861061203a57600080fd5b4287101561204757600080fd5b86861161205357600080fd5b6000851161206057600080fd5b6001600160a01b03811661207357600080fd5b6001600160a01b03831661208657600080fd5b6000881161209357600080fd5b600084116120a057600080fd5b896001600160a01b031663313ce5676040518163ffffffff1660e01b815260040160206040518083038186803b1580156120d957600080fd5b505afa1580156120ed573d6000803e3d6000fd5b505050506040513d601f19601f820116820180604052508101906121119190613d97565b60ff1660121461212057600080fd5b6000896001600160a01b031663313ce5676040518163ffffffff1660e01b815260040160206040518083038186803b15801561215b57600080fd5b505afa15801561216f573d6000803e3d6000fd5b505050506040513d601f19601f820116820180604052508101906121939190613d97565b60ff16116121a057600080fd5b6121a985612a7e565b600680546001600160801b0319166001600160801b03929092169190911790556121d284612a7e565b600680546001600160801b03928316600160801b0292169190911790556121f887612a7e565b6001600160801b031660075561220d86612a7e565b6001600160801b031660085561222288612a7e565b600980546001600160801b0319166001600160801b0392909216919091179055600b80546001600160a01b03199081166001600160a01b038d811691909117909255600d805482168c8416179055600c8054909116918316919091179055612289836125cb565b61229282612fe9565b61229d8a8c8a6127d8565b5050505050505050505050565b6000818152602081905260408120610c259061302b565b606080836001600160401b038111156122ea57634e487b7160e01b600052604160045260246000fd5b604051908082528060200260200182016040528015612313578160200160208202803683370190505b509150836001600160401b0381111561233c57634e487b7160e01b600052604160045260246000fd5b60405190808252806020026020018201604052801561236f57816020015b606081526020019060019003908161235a5790505b50905060005b848110156124ac57600080308888858181106123a157634e487b7160e01b600052603260045260246000fd5b90506020028101906123b3919061463a565b6040516123c1929190613ddf565b600060405180830381855af49150503d80600081146123fc576040519150601f19603f3d011682016040523d82523d6000602084013e612401565b606091505b50915091508180612410575085155b61241982613036565b906124375760405162461bcd60e51b8152600401610cd191906140e8565b508185848151811061245957634e487b7160e01b600052603260045260246000fd5b6020026020010190151590811515815250508084848151811061248c57634e487b7160e01b600052603260045260246000fd5b6020026020010181905250505080806124a4906148b1565b915050612375565b50935093915050565b60008051602061496b83398151915281565b6000828152602081905260409020600201546124e5906108776127d4565b610f265760405162461bcd60e51b8152600401610cd190614320565b61250c6109b86127d4565b61251557600080fd5b61251e81612fe9565b50565b610ec161252c6127d4565b8383610cae565b61253e6000826124c7565b6125466127d4565b6001600160a01b0316816001600160a01b03167f21ba1239795d4e22874e3dc55f0a9d7b65bfb23069d32965d7c23be9524ccf9560405160405180910390a350565b6125936109b86127d4565b61259c57600080fd5b610ec18282613096565b600a546001600160801b0381169060ff600160801b8204811691600160881b90041683565b60015460ff16156125ee5760405162461bcd60e51b8152600401610cd1906141fc565b6001600160a01b0381166126145760405162461bcd60e51b8152600401610cd1906143de565b61261f600082610eb7565b506001805460ff191681179055565b600f6020526000908152604090205481565b600e546001600160a01b031681565b6009546001600160801b031690565b60008051602061494b83398151915281565b6000610c2560008051602061494b83398151915283611b8c565b600080600d60009054906101000a90046001600160a01b03166001600160a01b031663313ce5676040518163ffffffff1660e01b815260040160206040518083038186803b1580156126db57600080fd5b505afa1580156126ef573d6000803e3d6000fd5b505050506040513d601f19601f820116820180604052508101906127139190613d97565b905061272081600a614724565b61272c906103e76147f5565b91505090565b600080600d60009054906101000a90046001600160a01b03166001600160a01b031663313ce5676040518163ffffffff1660e01b815260040160206040518083038186803b15801561278357600080fd5b505afa158015612797573d6000803e3d6000fd5b505050506040513d601f19601f820116820180604052508101906127bb9190613d97565b90506127c881600a614724565b61272c9061270f6147f5565b3390565b600080846001600160a01b03166323b872dd8530866040516024016127ff93929190613f07565b6040516020818303038152906040529060e01b6020820180516001600160e01b0383818316178352505050506040516128389190613def565b6000604051808303816000865af19150503d8060008114612875576040519150601f19603f3d011682016040523d82523d6000602084013e61287a565b606091505b50915091508180156128a45750805115806128a45750808060200190518101906128a49190613b18565b6128c05760405162461bcd60e51b8152600401610cd19061451c565b5050505050565b60075442108015906128db57506008544211155b6128e457600080fd5b6001600160a01b0382166128f757600080fd5b6001600160a01b0382166000908152600f602052604081205461291a9083612b7d565b600a54909150600160881b900460ff16156129ba57600e54604051631cd53d5560e01b81526001600160a01b0390911690631cd53d55906129619086908590600401613f9c565b60206040518083038186803b15801561297957600080fd5b505afa15801561298d573d6000803e3d6000fd5b505050506040513d601f19601f820116820180604052508101906129b19190613b18565b6129ba57600080fd5b6001600160a01b0383166000908152600f60205260409020819055600a546129f4906129ef906001600160801b031684612b7d565b612a7e565b600a80546001600160801b0319166001600160801b03929092169190911790556040517f077511a636ba1f10551cc7b89c13ff66a6ac9344e8a917527817a9690b15af7a90612a469085908590613f9c565b60405180910390a1505050565b600654600090610c25906001600160801b0316612a7884670de0b6b3a764000061332e565b90612cb6565b60006001600160801b03821115612aa75760405162461bcd60e51b8152600401610cd1906142e9565b5090565b6000828152602081905260409020612ac3908261336e565b15610ec157612ad06127d4565b6001600160a01b0316816001600160a01b0316837f2f8788117e7eff1d82e926ec794901d17c78024a50270940304540a733656f0d60405160405180910390a45050565b6000828152602081905260409020612b2c9082613383565b15610ec157612b396127d4565b6001600160a01b0316816001600160a01b0316837ff6391f5c32d9c69d2a47ea670b442974b53935d1edc7fd64eb21e047a839171b60405160405180910390a45050565b600081612b8a818561467e565b9150811015611b865760405162461bcd60e51b8152600401610cd190614370565b604051636eb1769f60e11b815281906001600160a01b0384169063dd62ed3e90612bdb9030908890600401613e8e565b60206040518083038186803b158015612bf357600080fd5b505afa158015612c07573d6000803e3d6000fd5b505050506040513d601f19601f82011682018060405250810190612c2b9190613d5b565b1015612cb15760405163095ea7b360e01b81526001600160a01b0383169063095ea7b390612c5f9086908590600401613f9c565b602060405180830381600087803b158015612c7957600080fd5b505af1158015612c8d573d6000803e3d6000fd5b505050506040513d601f19601f82011682018060405250810190611cb29190613b18565b505050565b6000808211612cd75760405162461bcd60e51b8152600401610cd1906145a2565b611b8382846146be565b6001600160a01b03831673eeeeeeeeeeeeeeeeeeeeeeeeeeeeeeeeeeeeeeee1415612d1557612d108282613398565b612cb1565b612cb1838383613425565b600082612d2d8382614814565b9150811115611b865760405162461bcd60e51b8152600401610cd1906141cd565b600654600090610c2590670de0b6b3a764000090612a789085906001600160801b031661332e565b6000611b8383836134f8565b6000611b83836001600160a01b038416613551565b82612db45760405162461bcd60e51b8152600401610cd1906143a7565b80612dd15760405162461bcd60e51b8152600401610cd190614477565b60006001600160401b031660028585604051612dee929190613ddf565b908152604051908190036020019020546001600160401b03640100000000909104161415612e945760048054600181018255600091909152612e53907f8a35acfbc15ff81a39ae7d344fd709f28e8600b4aa8c65c6b64bfe7fe36bd19b0185856136d4565b50600454604051600290612e6a9087908790613ddf565b908152604051908190036020019020805463ffffffff9290921663ffffffff199092169190911790555b604051806060016040528060028686604051612eb1929190613ddf565b90815260408051602092819003830190205463ffffffff168352426001600160401b0316838301528051601f860183900483028101830182528581529201919085908590819084018382808284376000920191909152505050915250604051600290612f209087908790613ddf565b9081526040805191829003602090810190922083518154858501516001600160401b0316640100000000026bffffffffffffffff000000001963ffffffff90931663ffffffff1990921691909117919091161781559083015180519192612f8f92600185019290910190613754565b5050604051612fa2915085908590613ddf565b60405180910390207fbaa206e5ea800eb88bce099f453fee53295b793b9d5d1cfc4ce4b6db06a34f538383604051612fdb9291906140fb565b60405180910390a250505050565b6001600160a01b0381161561251e57600e80546001600160a01b0383166001600160a01b0319909116179055600a805460ff60881b1916600160881b17905550565b6000610c2582613569565b606060448251101561307c575060408051808201909152601d81527f5472616e73616374696f6e2072657665727465642073696c656e746c790000006020820152610c28565b60048201915081806020019051810190610c259190613cb9565b60006001600160401b0316600283836040516130b3929190613ddf565b908152604051908190036020019020546001600160401b036401000000009091041614156130f35760405162461bcd60e51b8152600401610cd1906142ba565b6000600160028484604051613109929190613ddf565b90815260405190819003602001902054613129919063ffffffff1661482b565b60045490915061313b90600190614814565b8163ffffffff161461323d576004805461315790600190614814565b8154811061317557634e487b7160e01b600052603260045260246000fd5b9060005260206000200160048263ffffffff16815481106131a657634e487b7160e01b600052603260045260246000fd5b906000526020600020019080546131bc9061487c565b6131c79291906137c8565b506131d3816001614696565b600260048363ffffffff16815481106131fc57634e487b7160e01b600052603260045260246000fd5b906000526020600020016040516132139190613e0b565b908152604051908190036020019020805463ffffffff9290921663ffffffff199092169190911790555b600480548061325c57634e487b7160e01b600052603160045260246000fd5b6001900381819060005260206000200160006132789190613843565b9055828260405161328a929190613ddf565b60405180910390207f4b5338540b4d1c0f6dd0308a25f633b7ff60472f894d711cff9dd64e35c613b2600285856040516132c5929190613ddf565b90815260200160405180910390206001016040516132e3919061414c565b60405180910390a2600283836040516132fd929190613ddf565b90815260405190819003602001902080546bffffffffffffffffffffffff1916815560006128c06001830182613843565b60008115806133525750828261334481836147f5565b925061335090836146be565b145b611b865760405162461bcd60e51b8152600401610cd1906144e5565b6000611b83836001600160a01b03841661356d565b6000611b83836001600160a01b0384166135b7565b604080516000808252602082019092526001600160a01b0384169083906040516133c29190613def565b60006040518083038185875af1925050503d80600081146133ff576040519150601f19603f3d011682016040523d82523d6000602084013e613404565b606091505b5050905080612cb15760405162461bcd60e51b8152600401610cd190614407565b600080846001600160a01b031663a9059cbb858560405160240161344a929190613f9c565b6040516020818303038152906040529060e01b6020820180516001600160e01b0383818316178352505050506040516134839190613def565b6000604051808303816000865af19150503d80600081146134c0576040519150601f19603f3d011682016040523d82523d6000602084013e6134c5565b606091505b50915091508180156134ef5750805115806134ef5750808060200190518101906134ef9190613b18565b6128c057600080fd5b8154600090821061351b5760405162461bcd60e51b8152600401610cd190614229565b82600001828154811061353e57634e487b7160e01b600052603260045260246000fd5b9060005260206000200154905092915050565b60009081526001919091016020526040902054151590565b5490565b60006135798383613551565b6135af57508154600181810184556000848152602080822090930184905584548482528286019093526040902091909155611b86565b506000611b86565b600081815260018301602052604081205480156136ca5760006135db600183614814565b85549091506000906135ef90600190614814565b9050600086600001828154811061361657634e487b7160e01b600052603260045260246000fd5b906000526020600020015490508087600001848154811061364757634e487b7160e01b600052603260045260246000fd5b60009182526020909120015561365e83600161467e565b6000828152600189016020526040902055865487908061368e57634e487b7160e01b600052603160045260246000fd5b60019003818190600052602060002001600090559055866001016000878152602001908152602001600020600090556001945050505050611b86565b6000915050611b86565b8280546136e09061487c565b90600052602060002090601f0160209004810192826137025760008555613748565b82601f1061371b5782800160ff19823516178555613748565b82800160010185558215613748579182015b8281111561374857823582559160200191906001019061372d565b50612aa792915061387b565b8280546137609061487c565b90600052602060002090601f0160209004810192826137825760008555613748565b82601f1061379b57805160ff1916838001178555613748565b82800160010185558215613748579182015b828111156137485782518255916020019190600101906137ad565b8280546137d49061487c565b90600052602060002090601f0160209004810192826137f65760008555613748565b82601f106138075780548555613748565b8280016001018555821561374857600052602060002091601f016020900482015b82811115613748578254825591600101919060010190613828565b50805461384f9061487c565b6000825580601f10613861575061251e565b601f01602090049060005260206000209081019061251e91905b5b80821115612aa7576000815560010161387c565b60008083601f8401126138a1578081fd5b5081356001600160401b038111156138b7578182fd5b6020830191508360208083028501011115611a4857600080fd5b60008083601f8401126138e2578182fd5b5081356001600160401b038111156138f8578182fd5b602083019150836020828501011115611a4857600080fd5b600060208284031215613921578081fd5b813561392c816148f8565b9392505050565b60008060008060008060008060008060006101608c8e031215613954578687fd5b8b3561395f816148f8565b9a5060208c013561396f816148f8565b995060408c013561397f816148f8565b985060608c0135975060808c0135965060a08c0135955060c08c0135945060e08c013593506101008c01356139b3816148f8565b92506101208c01356139c4816148f8565b91506101408c01356139d5816148f8565b809150509295989b509295989b9093969950565b60008060008060008060008060008060006101608c8e031215613954578081fd5b600080600060608486031215613a1e578283fd5b8335613a29816148f8565b9250602084013591506040840135613a408161490d565b809150509250925092565b600080600060408486031215613a5f578081fd5b83356001600160401b03811115613a74578182fd5b613a8086828701613890565b9094509250506020840135613a408161490d565b60008060008060408587031215613aa9578182fd5b84356001600160401b0380821115613abf578384fd5b613acb88838901613890565b90965094506020870135915080821115613ae3578384fd5b50613af087828801613890565b95989497509550505050565b600060208284031215613b0d578081fd5b813561392c8161490d565b600060208284031215613b29578081fd5b815161392c8161490d565b600060208284031215613b45578081fd5b5035919050565b60008060408385031215613b5e578182fd5b823591506020830135613b70816148f8565b809150509250929050565b60008060408385031215613b8d578182fd5b50508035926020909101359150565b60008060208385031215613bae578182fd5b82356001600160401b03811115613bc3578283fd5b613bcf858286016138d1565b90969095509350505050565b600080600080600080600080610100898b031215613bf7578182fd5b8835613c02816148f8565b97506020890135613c12816148f8565b96506040890135613c22816148f8565b9550606089013594506080890135935060a0890135613c408161491b565b979a969950949793969295929450505060c08201359160e0013590565b60008060008060408587031215613c72578182fd5b84356001600160401b0380821115613c88578384fd5b613c94888389016138d1565b90965094506020870135915080821115613cac578384fd5b50613af0878288016138d1565b600060208284031215613cca578081fd5b81516001600160401b0380821115613ce0578283fd5b818401915084601f830112613cf3578283fd5b815181811115613d0557613d056148e2565b604051601f8201601f191681016020018381118282101715613d2957613d296148e2565b604052818152838201602001871015613d40578485fd5b613d51826020830160208701614850565b9695505050505050565b600060208284031215613d6c578081fd5b5051919050565b60008060408385031215613d85578182fd5b823591506020830135613b708161490d565b600060208284031215613da8578081fd5b815161392c8161491b565b60008151808452613dcb816020860160208601614850565b601f01601f19169290920160200192915050565b6000828483379101908152919050565b60008251613e01818460208701614850565b9190910192915050565b6000808354613e198161487c565b60018281168015613e315760018114613e4257613e6e565b60ff19841687528287019450613e6e565b8786526020808720875b85811015613e655781548a820152908401908201613e4c565b50505082870194505b50929695505050505050565b6001600160a01b0391909116815260200190565b6001600160a01b0392831681529116602082015260400190565b6001600160a01b039b8c168152998b1660208b0152978a1660408a01526060890196909652608088019490945260a087019290925260c086015260e0850152841661010084015283166101208301529091166101408201526101600190565b6001600160a01b039384168152919092166020820152604081019190915260600190565b6001600160a01b039586168152938516602085015260408401929092526060830152909116608082015260a00190565b6001600160a01b0397881681529590961660208601526040850193909352606084019190915260ff16608083015260a082015260c081019190915260e00190565b6001600160a01b03929092168252602082015260400190565b6001600160a01b03949094168452602084019290925260408301521515606082015260800190565b604080825283519082018190526000906020906060840190828701845b82811015614018578151151584529284019290840190600101613ffa565b5050508381038285015284518082528282019080840283018401878501865b8381101561406557601f19868403018552614053838351613db3565b94870194925090860190600101614037565b50909998505050505050505050565b6000602080830181845280855180835260408601915060408482028701019250838701855b828110156140c757603f198886030184526140b5858351613db3565b94509285019290850190600101614099565b5092979650505050505050565b901515815260200190565b90815260200190565b600060208252611b836020830184613db3565b60006020825282602083015282846040840137818301604090810191909152601f909201601f19160101919050565b60006040825261413d6040830185613db3565b90508260208301529392505050565b6000602080835281845461415f8161487c565b808487015260406001808416600081146141805760018114614194576141bf565b60ff198516898401526060890195506141bf565b898852868820885b858110156141b75781548b820186015290830190880161419c565b8a0184019650505b509398975050505050505050565b602080825260159082015274426f72696e674d6174683a20556e646572666c6f7760581b604082015260600190565b602080825260139082015272105b1c9958591e481a5b9a5d1a585b1a5cd959606a1b604082015260600190565b60208082526022908201527f456e756d657261626c655365743a20696e646578206f7574206f6620626f756e604082015261647360f01b606082015260800190565b6020808252602f908201527f416363657373436f6e74726f6c3a2073656e646572206d75737420626520616e60408201526e0818591b5a5b881d1bc819dc985b9d608a1b606082015260800190565b602080825260159082015274111bd8dd5b595b9d081cda1bdd5b1908195e1a5cdd605a1b604082015260600190565b6020808252601c908201527f426f72696e674d6174683a2075696e74313238204f766572666c6f7700000000604082015260600190565b60208082526030908201527f416363657373436f6e74726f6c3a2073656e646572206d75737420626520616e60408201526f2061646d696e20746f207265766f6b6560801b606082015260800190565b60208082526018908201527f426f72696e674d6174683a20416464204f766572666c6f770000000000000000604082015260600190565b60208082526018908201527f5a65726f206e616d65206973206e6f7420616c6c6f7765640000000000000000604082015260600190565b6020808252600f908201526e125b98dbdc9c9958dd081a5b9c1d5d608a1b604082015260600190565b60208082526023908201527f5472616e7366657248656c7065723a204554485f5452414e534645525f46414960408201526213115160ea1b606082015260800190565b602080825260139082015272496e646578206f7574206f6620626f756e647360681b604082015260600190565b6020808252601a908201527f53686f756c64206e6f74206265206120656d7074792064617461000000000000604082015260600190565b6020808252601f908201527f5265656e7472616e637947756172643a207265656e7472616e742063616c6c00604082015260600190565b60208082526018908201527f426f72696e674d6174683a204d756c204f766572666c6f770000000000000000604082015260600190565b6020808252601f908201527f5472616e7366657248656c7065723a2063616e6e6f74207472616e7366657200604082015260600190565b6020808252602f908201527f416363657373436f6e74726f6c3a2063616e206f6e6c792072656e6f756e636560408201526e103937b632b9903337b91039b2b63360891b606082015260800190565b602080825260149082015273426f72696e674d6174683a20446976207a65726f60601b604082015260600190565b6001600160801b0393909316835290151560208301521515604082015260600190565b6001600160801b0392831681529116602082015260400190565b918252602082015260400190565b92835260208301919091526001600160801b0316604082015260600190565b6000808335601e19843603018112614650578283fd5b8301803591506001600160401b03821115614669578283fd5b602001915036819003821315611a4857600080fd5b60008219821115614691576146916148cc565b500190565b600063ffffffff8083168185168083038211156146b5576146b56148cc565b01949350505050565b6000826146d957634e487b7160e01b81526012600452602481fd5b500490565b80825b60018086116146f0575061471b565b818704821115614702576147026148cc565b8086161561470f57918102915b9490941c9380026146e1565b94509492505050565b6000611b8360001960ff8516846000826147405750600161392c565b8161474d5750600061392c565b8160018114614763576002811461476d5761479a565b600191505061392c565b60ff84111561477e5761477e6148cc565b6001841b915084821115614794576147946148cc565b5061392c565b5060208310610133831016604e8410600b84101617156147cd575081810a838111156147c8576147c86148cc565b61392c565b6147da84848460016146de565b8086048211156147ec576147ec6148cc565b02949350505050565b600081600019048311821515161561480f5761480f6148cc565b500290565b600082821015614826576148266148cc565b500390565b600063ffffffff83811690831681811015614848576148486148cc565b039392505050565b60005b8381101561486b578181015183820152602001614853565b83811115611cb25750506000910152565b60028104600182168061489057607f821691505b602082108114156116e057634e487b7160e01b600052602260045260246000fd5b60006000198214156148c5576148c56148cc565b5060010190565b634e487b7160e01b600052601160045260246000fd5b634e487b7160e01b600052604160045260246000fd5b6001600160a01b038116811461251e57600080fd5b801515811461251e57600080fd5b60ff8116811461251e57600080fdfe9d49f397ae9ef1a834b569acb967799a367061e305932181a44f5773da873bfd97667070c54ef182b0f5858b034beac1b6f3089aa2d3188bb1e8929f4fa9b9299f2df0fed2c77648de5860a4cc508cd0818c85b8b8a1ab4ceeef8d981c8956a6a2646970667358221220feabb2c29b6fe97c2463de9bdaf34ad302befa280ee26e412c59ab698b07389664736f6c63430008000033",
  "devdoc": {
    "kind": "dev",
    "methods": {
      "addAdminRole(address)": {
        "details": "The sender must have the admin role.",
        "params": {
          "_address": "EOA or contract receiving the new role."
        }
      },
      "addMinterRole(address)": {
        "details": "The sender must have the admin role",
        "params": {
          "_address": "EOA or contract receiving the new role"
        }
      },
      "addOperatorRole(address)": {
        "details": "The sender must have the admin role",
        "params": {
          "_address": "EOA or contract receiving the new role"
        }
      },
      "addSmartContractRole(address)": {
        "details": "The sender must have the admin role",
        "params": {
          "_address": "EOA or contract receiving the new role"
        }
      },
      "auctionEnded()": {
        "returns": {
          "_0": "auctionEnded True if sold out or time has ended."
        }
      },
      "auctionSuccessful()": {
        "returns": {
          "_0": "auctionSuccessful True if the commitmentsTotal is equal or higher than goal."
        }
      },
      "batch(bytes[],bool)": {
        "params": {
          "calls": "An array of inputs for each call.",
          "revertOnFail": "If True then reverts after a failed call and stops doing further calls."
        },
        "returns": {
          "results": "An array with the returned data of each function call, mapped one-to-one to `calls`. F1: External is ok here because this is the batch function, adding it to a batch makes no sense F2: Calls in the batch may be payable, delegatecall operates in the same context, so each call in the batch has access to msg.value C3: The length of the loop is fully under user control, so can't be exploited C7: Delegatecall is only used on the same contract, so it's safe",
          "successes": "An array indicating the success of a call, mapped one-to-one to `calls`."
        }
      },
      "finalize()": {
        "details": "Must be called after crowdsale ends, to do some extra finalization work. Calls the contracts finalization function."
      },
      "finalizeTimeExpired()": {
        "returns": {
          "_0": "True if 7 days have passed since the end of the auction"
        }
      },
      "finalized()": {
        "returns": {
          "_0": "bool True if sale has been finalised."
        }
      },
      "getAllDocuments()": {
        "returns": {
          "_0": "string List of all documents names present in the contract."
        }
      },
      "getDocument(string)": {
        "params": {
          "_name": "Name of the document"
        },
        "returns": {
          "_0": "string The data associated with the document.",
          "_1": "uint256 the timestamp at which the document was last modified."
        }
      },
      "getDocumentCount()": {
        "returns": {
          "_0": "uint256 Count of the document names present in the contract."
        }
      },
      "getDocumentName(uint256)": {
        "returns": {
          "_0": "string Name of the document name."
        }
      },
      "getRoleAdmin(bytes32)": {
        "details": "Returns the admin role that controls `role`. See {grantRole} and {revokeRole}. To change a role's admin, use {_setRoleAdmin}."
      },
      "getRoleMember(bytes32,uint256)": {
        "details": "Returns one of the accounts that have `role`. `index` must be a value between 0 and {getRoleMemberCount}, non-inclusive. Role bearers are not sorted in any particular way, and their ordering may change at any point. WARNING: When using {getRoleMember} and {getRoleMemberCount}, make sure you perform all queries on the same block. See the following https://forum.openzeppelin.com/t/iterating-over-elements-on-enumerableset-in-openzeppelin-contracts/2296[forum post] for more information."
      },
      "getRoleMemberCount(bytes32)": {
        "details": "Returns the number of accounts that have `role`. Can be used together with {getRoleMember} to enumerate all bearers of a role."
      },
      "grantRole(bytes32,address)": {
        "details": "Grants `role` to `account`. If `account` had not been already granted `role`, emits a {RoleGranted} event. Requirements: - the caller must have ``role``'s admin role."
      },
      "hasAdminRole(address)": {
        "params": {
          "_address": "EOA or contract being checked."
        },
        "returns": {
          "_0": "bool True if the account has the role or false if it does not."
        }
      },
      "hasMinterRole(address)": {
        "params": {
          "_address": "EOA or contract being checked"
        },
        "returns": {
          "_0": "bool True if the account has the role or false if it does not"
        }
      },
      "hasOperatorRole(address)": {
        "params": {
          "_address": "EOA or contract being checked"
        },
        "returns": {
          "_0": "bool True if the account has the role or false if it does not"
        }
      },
      "hasRole(bytes32,address)": {
        "details": "Returns `true` if `account` has been granted `role`."
      },
      "hasSmartContractRole(address)": {
        "params": {
          "_address": "EOA or contract being checked"
        },
        "returns": {
          "_0": "bool True if the account has the role or false if it does not"
        }
      },
      "initAccessControls(address)": {
        "params": {
          "_admin": "Admins address."
        }
      },
      "initMarket(bytes)": {
        "params": {
          "_data": "Encoded data for initialization."
        }
      },
      "isOpen()": {
        "returns": {
          "_0": "isOpen True if the crowdsale is open, false otherwise."
        }
      },
      "removeAdminRole(address)": {
        "details": "The sender must have the admin role.",
        "params": {
          "_address": "EOA or contract affected."
        }
      },
      "removeMinterRole(address)": {
        "details": "The sender must have the admin role",
        "params": {
          "_address": "EOA or contract affected"
        }
      },
      "removeOperatorRole(address)": {
        "details": "The sender must have the admin role",
        "params": {
          "_address": "EOA or contract affected"
        }
      },
      "removeSmartContractRole(address)": {
        "details": "The sender must have the admin role",
        "params": {
          "_address": "EOA or contract affected"
        }
      },
      "renounceRole(bytes32,address)": {
        "details": "Revokes `role` from the calling account. Roles are often managed via {grantRole} and {revokeRole}: this function's purpose is to provide a mechanism for accounts to lose their privileges if they are compromised (such as when a trusted device is misplaced). If the calling account had been granted `role`, emits a {RoleRevoked} event. Requirements: - the caller must be `account`."
      },
      "revokeRole(bytes32,address)": {
        "details": "Revokes `role` from `account`. If `account` had been granted `role`, emits a {RoleRevoked} event. Requirements: - the caller must have ``role``'s admin role."
      },
      "setAuctionPrice(uint256,uint256)": {
        "params": {
          "_goal": "Minimum amount raised and goal for the auction.",
          "_rate": "Price per token."
        }
      },
      "setAuctionTime(uint256,uint256)": {
        "params": {
          "_endTime": "Auction end time.",
          "_startTime": "Auction start time."
        }
      },
      "setAuctionWallet(address)": {
        "params": {
          "_wallet": "Auction wallet is where funds will be sent."
        }
      },
      "tokensClaimable(address)": {
        "returns": {
          "claimerCommitment": "How many tokens the user is able to claim."
        }
      },
      "withdrawTokens(address)": {
        "details": "Withdraw tokens only after crowdsale ends.",
        "params": {
          "beneficiary": "Whose tokens will be withdrawn."
        }
      }
    },
    "stateVariables": {
      "marketTemplate": {
        "details": "For different marketplace types, this must be incremented."
      }
    },
    "version": 1
  },
  "userdoc": {
    "events": {
      "MinterRoleGranted(address,address)": {
        "notice": "Events for adding and removing various roles"
      }
    },
    "kind": "user",
    "methods": {
      "MINTER_ROLE()": {
        "notice": "Role definitions"
      },
      "addAdminRole(address)": {
        "notice": "Grants the admin role to an address."
      },
      "addMinterRole(address)": {
        "notice": "Grants the minter role to an address"
      },
      "addOperatorRole(address)": {
        "notice": "Grants the operator role to an address"
      },
      "addSmartContractRole(address)": {
        "notice": "Grants the smart contract role to an address"
      },
      "auctionEnded()": {
        "notice": "Checks if the sale has ended."
      },
      "auctionSuccessful()": {
        "notice": "Checks if the sale minimum amount was raised."
      },
      "batch(bytes[],bool)": {
        "notice": "Allows batched call to self (this contract)."
      },
      "finalize()": {
        "notice": "Manually finalizes the Crowdsale."
      },
      "finalized()": {
        "notice": "Checks if the sale has been finalised."
      },
      "getAllDocuments()": {
        "notice": "Used to retrieve a full list of documents attached to the smart contract."
      },
      "getDocument(string)": {
        "notice": "Used to return the details of a document with a known name (`string`)."
      },
      "getDocumentCount()": {
        "notice": "Used to retrieve the total documents in the smart contract."
      },
      "getDocumentName(uint256)": {
        "notice": "Used to retrieve the document name from index in the smart contract."
      },
      "hasAdminRole(address)": {
        "notice": "Used to check whether an address has the admin role."
      },
      "hasMinterRole(address)": {
        "notice": "Used to check whether an address has the minter role"
      },
      "hasOperatorRole(address)": {
        "notice": "Used to check whether an address has the operator role"
      },
      "hasSmartContractRole(address)": {
        "notice": "Used to check whether an address has the smart contract role"
      },
      "initAccessControls(address)": {
        "notice": "Initializes access controls."
      },
      "initMarket(bytes)": {
        "notice": "Decodes and hands Crowdsale data to the initCrowdsale function."
      },
      "isOpen()": {
        "notice": "Checks if the sale is open."
      },
      "marketTemplate()": {
        "notice": "FLYBYMarket template id for the factory contract."
      },
      "permitToken(address,address,address,uint256,uint256,uint8,bytes32,bytes32)": {
        "notice": "Call wrapper that performs `ERC20.permit` on `token`. Lookup `IERC20.permit`. F6: Parameters can be used front-run the permit and the user's permit will fail (due to nonce or other revert) if part of a batch this could be used to grief once as the second call would not need the permit"
      },
      "removeAdminRole(address)": {
        "notice": "Removes the admin role from an address."
      },
      "removeMinterRole(address)": {
        "notice": "Removes the minter role from an address"
      },
      "removeOperatorRole(address)": {
        "notice": "Removes the operator role from an address"
      },
      "removeSmartContractRole(address)": {
        "notice": "Removes the smart contract role from an address"
      },
      "setAuctionPrice(uint256,uint256)": {
        "notice": "Admin can set auction price through this function."
      },
      "setAuctionTime(uint256,uint256)": {
        "notice": "Admin can set start and end time through this function."
      },
      "setAuctionWallet(address)": {
        "notice": "Admin can set the auction wallet through this function."
      },
      "tokensClaimable(address)": {
        "notice": "Adjusts users commitment depending on amount already claimed and unclaimed tokens left."
      },
      "withdrawTokens(address)": {
        "notice": "Withdraws bought tokens, or returns commitment if the sale is unsuccessful."
      }
    },
    "version": 1
  },
  "storageLayout": {
    "storage": [
      {
        "astId": 7893,
        "contract": "contracts/Auctions/PrivateSale.sol:PrivateSale",
        "label": "_roles",
        "offset": 0,
        "slot": "0",
        "type": "t_mapping(t_bytes32,t_struct(RoleData)7888_storage)"
      },
      {
        "astId": 215,
        "contract": "contracts/Auctions/PrivateSale.sol:PrivateSale",
        "label": "initAccess",
        "offset": 0,
        "slot": "1",
        "type": "t_bool"
      },
      {
        "astId": 16557,
        "contract": "contracts/Auctions/PrivateSale.sol:PrivateSale",
        "label": "_documents",
        "offset": 0,
        "slot": "2",
        "type": "t_mapping(t_string_memory_ptr,t_struct(Document)16552_storage)"
      },
      {
        "astId": 16561,
        "contract": "contracts/Auctions/PrivateSale.sol:PrivateSale",
        "label": "_docIndexes",
        "offset": 0,
        "slot": "3",
        "type": "t_mapping(t_string_memory_ptr,t_uint32)"
      },
      {
        "astId": 16564,
        "contract": "contracts/Auctions/PrivateSale.sol:PrivateSale",
        "label": "_docNames",
        "offset": 0,
        "slot": "4",
        "type": "t_array(t_string_storage)dyn_storage"
      },
      {
        "astId": 10669,
        "contract": "contracts/Auctions/PrivateSale.sol:PrivateSale",
        "label": "_status",
        "offset": 0,
        "slot": "5",
        "type": "t_uint256"
      },
      {
        "astId": 896,
        "contract": "contracts/Auctions/PrivateSale.sol:PrivateSale",
        "label": "marketPrice",
        "offset": 0,
        "slot": "6",
        "type": "t_struct(MarketPrice)893_storage"
      },
      {
        "astId": 906,
        "contract": "contracts/Auctions/PrivateSale.sol:PrivateSale",
        "label": "marketInfo",
        "offset": 0,
        "slot": "7",
        "type": "t_struct(MarketInfo)903_storage"
      },
      {
        "astId": 916,
        "contract": "contracts/Auctions/PrivateSale.sol:PrivateSale",
        "label": "marketStatus",
        "offset": 0,
        "slot": "10",
        "type": "t_struct(MarketStatus)913_storage"
      },
      {
        "astId": 918,
        "contract": "contracts/Auctions/PrivateSale.sol:PrivateSale",
        "label": "auctionToken",
        "offset": 0,
        "slot": "11",
        "type": "t_address"
      },
      {
        "astId": 920,
        "contract": "contracts/Auctions/PrivateSale.sol:PrivateSale",
        "label": "wallet",
        "offset": 0,
        "slot": "12",
        "type": "t_address_payable"
      },
      {
        "astId": 922,
        "contract": "contracts/Auctions/PrivateSale.sol:PrivateSale",
        "label": "paymentCurrency",
        "offset": 0,
        "slot": "13",
        "type": "t_address"
      },
      {
        "astId": 924,
        "contract": "contracts/Auctions/PrivateSale.sol:PrivateSale",
        "label": "pointList",
        "offset": 0,
        "slot": "14",
        "type": "t_address"
      },
      {
        "astId": 928,
        "contract": "contracts/Auctions/PrivateSale.sol:PrivateSale",
        "label": "commitments",
        "offset": 0,
        "slot": "15",
        "type": "t_mapping(t_address,t_uint256)"
      },
      {
        "astId": 932,
        "contract": "contracts/Auctions/PrivateSale.sol:PrivateSale",
        "label": "claimed",
        "offset": 0,
        "slot": "16",
        "type": "t_mapping(t_address,t_uint256)"
      }
    ],
    "types": {
      "t_address": {
        "encoding": "inplace",
        "label": "address",
        "numberOfBytes": "20"
      },
      "t_address_payable": {
        "encoding": "inplace",
        "label": "address payable",
        "numberOfBytes": "20"
      },
      "t_array(t_bytes32)dyn_storage": {
        "base": "t_bytes32",
        "encoding": "dynamic_array",
        "label": "bytes32[]",
        "numberOfBytes": "32"
      },
      "t_array(t_string_storage)dyn_storage": {
        "base": "t_string_storage",
        "encoding": "dynamic_array",
        "label": "string[]",
        "numberOfBytes": "32"
      },
      "t_bool": {
        "encoding": "inplace",
        "label": "bool",
        "numberOfBytes": "1"
      },
      "t_bytes32": {
        "encoding": "inplace",
        "label": "bytes32",
        "numberOfBytes": "32"
      },
      "t_mapping(t_address,t_uint256)": {
        "encoding": "mapping",
        "key": "t_address",
        "label": "mapping(address => uint256)",
        "numberOfBytes": "32",
        "value": "t_uint256"
      },
      "t_mapping(t_bytes32,t_struct(RoleData)7888_storage)": {
        "encoding": "mapping",
        "key": "t_bytes32",
        "label": "mapping(bytes32 => struct AccessControl.RoleData)",
        "numberOfBytes": "32",
        "value": "t_struct(RoleData)7888_storage"
      },
      "t_mapping(t_bytes32,t_uint256)": {
        "encoding": "mapping",
        "key": "t_bytes32",
        "label": "mapping(bytes32 => uint256)",
        "numberOfBytes": "32",
        "value": "t_uint256"
      },
      "t_mapping(t_string_memory_ptr,t_struct(Document)16552_storage)": {
        "encoding": "mapping",
        "key": "t_string_memory_ptr",
        "label": "mapping(string => struct Documents.Document)",
        "numberOfBytes": "32",
        "value": "t_struct(Document)16552_storage"
      },
      "t_mapping(t_string_memory_ptr,t_uint32)": {
        "encoding": "mapping",
        "key": "t_string_memory_ptr",
        "label": "mapping(string => uint32)",
        "numberOfBytes": "32",
        "value": "t_uint32"
      },
      "t_string_memory_ptr": {
        "encoding": "bytes",
        "label": "string",
        "numberOfBytes": "32"
      },
      "t_string_storage": {
        "encoding": "bytes",
        "label": "string",
        "numberOfBytes": "32"
      },
      "t_struct(AddressSet)10339_storage": {
        "encoding": "inplace",
        "label": "struct EnumerableSet.AddressSet",
        "members": [
          {
            "astId": 10338,
            "contract": "contracts/Auctions/PrivateSale.sol:PrivateSale",
            "label": "_inner",
            "offset": 0,
            "slot": "0",
            "type": "t_struct(Set)10062_storage"
          }
        ],
        "numberOfBytes": "64"
      },
      "t_struct(Document)16552_storage": {
        "encoding": "inplace",
        "label": "struct Documents.Document",
        "members": [
          {
            "astId": 16547,
            "contract": "contracts/Auctions/PrivateSale.sol:PrivateSale",
            "label": "docIndex",
            "offset": 0,
            "slot": "0",
            "type": "t_uint32"
          },
          {
            "astId": 16549,
            "contract": "contracts/Auctions/PrivateSale.sol:PrivateSale",
            "label": "lastModified",
            "offset": 4,
            "slot": "0",
            "type": "t_uint64"
          },
          {
            "astId": 16551,
            "contract": "contracts/Auctions/PrivateSale.sol:PrivateSale",
            "label": "data",
            "offset": 0,
            "slot": "1",
            "type": "t_string_storage"
          }
        ],
        "numberOfBytes": "64"
      },
      "t_struct(MarketInfo)903_storage": {
        "encoding": "inplace",
        "label": "struct PrivateSale.MarketInfo",
        "members": [
          {
            "astId": 898,
            "contract": "contracts/Auctions/PrivateSale.sol:PrivateSale",
            "label": "startTime",
            "offset": 0,
            "slot": "0",
            "type": "t_uint256"
          },
          {
            "astId": 900,
            "contract": "contracts/Auctions/PrivateSale.sol:PrivateSale",
            "label": "endTime",
            "offset": 0,
            "slot": "1",
            "type": "t_uint256"
          },
          {
            "astId": 902,
            "contract": "contracts/Auctions/PrivateSale.sol:PrivateSale",
            "label": "totalTokens",
            "offset": 0,
            "slot": "2",
            "type": "t_uint128"
          }
        ],
        "numberOfBytes": "96"
      },
      "t_struct(MarketPrice)893_storage": {
        "encoding": "inplace",
        "label": "struct PrivateSale.MarketPrice",
        "members": [
          {
            "astId": 890,
            "contract": "contracts/Auctions/PrivateSale.sol:PrivateSale",
            "label": "rate",
            "offset": 0,
            "slot": "0",
            "type": "t_uint128"
          },
          {
            "astId": 892,
            "contract": "contracts/Auctions/PrivateSale.sol:PrivateSale",
            "label": "goal",
            "offset": 16,
            "slot": "0",
            "type": "t_uint128"
          }
        ],
        "numberOfBytes": "32"
      },
      "t_struct(MarketStatus)913_storage": {
        "encoding": "inplace",
        "label": "struct PrivateSale.MarketStatus",
        "members": [
          {
            "astId": 908,
            "contract": "contracts/Auctions/PrivateSale.sol:PrivateSale",
            "label": "commitmentsTotal",
            "offset": 0,
            "slot": "0",
            "type": "t_uint128"
          },
          {
            "astId": 910,
            "contract": "contracts/Auctions/PrivateSale.sol:PrivateSale",
            "label": "finalized",
            "offset": 16,
            "slot": "0",
            "type": "t_bool"
          },
          {
            "astId": 912,
            "contract": "contracts/Auctions/PrivateSale.sol:PrivateSale",
            "label": "usePointList",
            "offset": 17,
            "slot": "0",
            "type": "t_bool"
          }
        ],
        "numberOfBytes": "32"
      },
      "t_struct(RoleData)7888_storage": {
        "encoding": "inplace",
        "label": "struct AccessControl.RoleData",
        "members": [
          {
            "astId": 7885,
            "contract": "contracts/Auctions/PrivateSale.sol:PrivateSale",
            "label": "members",
            "offset": 0,
            "slot": "0",
            "type": "t_struct(AddressSet)10339_storage"
          },
          {
            "astId": 7887,
            "contract": "contracts/Auctions/PrivateSale.sol:PrivateSale",
            "label": "adminRole",
            "offset": 0,
            "slot": "2",
            "type": "t_bytes32"
          }
        ],
        "numberOfBytes": "96"
      },
      "t_struct(Set)10062_storage": {
        "encoding": "inplace",
        "label": "struct EnumerableSet.Set",
        "members": [
          {
            "astId": 10057,
            "contract": "contracts/Auctions/PrivateSale.sol:PrivateSale",
            "label": "_values",
            "offset": 0,
            "slot": "0",
            "type": "t_array(t_bytes32)dyn_storage"
          },
          {
            "astId": 10061,
            "contract": "contracts/Auctions/PrivateSale.sol:PrivateSale",
            "label": "_indexes",
            "offset": 0,
            "slot": "1",
            "type": "t_mapping(t_bytes32,t_uint256)"
          }
        ],
        "numberOfBytes": "64"
      },
      "t_uint128": {
        "encoding": "inplace",
        "label": "uint128",
        "numberOfBytes": "16"
      },
      "t_uint256": {
        "encoding": "inplace",
        "label": "uint256",
        "numberOfBytes": "32"
      },
      "t_uint32": {
        "encoding": "inplace",
        "label": "uint32",
        "numberOfBytes": "4"
      },
      "t_uint64": {
        "encoding": "inplace",
        "label": "uint64",
        "numberOfBytes": "8"
      }
    }
  }
}