{
  "address": "0xB6AaDa04B2B496658A3fF0303c0477Be78b1d527",
  "abi": [
    {
      "anonymous": false,
      "inputs": [
        {
          "indexed": false,
          "internalType": "address",
          "name": "addr",
          "type": "address"
        },
        {
          "indexed": false,
          "internalType": "uint256",
          "name": "commitment",
          "type": "uint256"
        }
      ],
      "name": "AddedCommitment",
      "type": "event"
    },
    {
      "anonymous": false,
      "inputs": [
        {
          "indexed": true,
          "internalType": "address",
          "name": "beneficiary",
          "type": "address"
        },
        {
          "indexed": true,
          "internalType": "address",
          "name": "caller",
          "type": "address"
        }
      ],
      "name": "AdminRoleGranted",
      "type": "event"
    },
    {
      "anonymous": false,
      "inputs": [
        {
          "indexed": true,
          "internalType": "address",
          "name": "beneficiary",
          "type": "address"
        },
        {
          "indexed": true,
          "internalType": "address",
          "name": "caller",
          "type": "address"
        }
      ],
      "name": "AdminRoleRemoved",
      "type": "event"
    },
    {
      "anonymous": false,
      "inputs": [],
      "name": "AuctionCancelled",
      "type": "event"
    },
    {
      "anonymous": false,
      "inputs": [],
      "name": "AuctionFinalized",
      "type": "event"
    },
    {
      "anonymous": false,
      "inputs": [
        {
          "indexed": false,
          "internalType": "uint256",
          "name": "rate",
          "type": "uint256"
        },
        {
          "indexed": false,
          "internalType": "uint256",
          "name": "goal",
          "type": "uint256"
        }
      ],
      "name": "AuctionPriceUpdated",
      "type": "event"
    },
    {
      "anonymous": false,
      "inputs": [
        {
          "indexed": false,
          "internalType": "uint256",
          "name": "startTime",
          "type": "uint256"
        },
        {
          "indexed": false,
          "internalType": "uint256",
          "name": "endTime",
          "type": "uint256"
        }
      ],
      "name": "AuctionTimeUpdated",
      "type": "event"
    },
    {
      "anonymous": false,
      "inputs": [
        {
          "indexed": false,
          "internalType": "address",
          "name": "wallet",
          "type": "address"
        }
      ],
      "name": "AuctionWalletUpdated",
      "type": "event"
    },
    {
      "anonymous": false,
      "inputs": [
        {
          "indexed": true,
          "internalType": "address",
          "name": "beneficiary",
          "type": "address"
        },
        {
          "indexed": true,
          "internalType": "address",
          "name": "caller",
          "type": "address"
        }
      ],
      "name": "MinterRoleGranted",
      "type": "event"
    },
    {
      "anonymous": false,
      "inputs": [
        {
          "indexed": true,
          "internalType": "address",
          "name": "beneficiary",
          "type": "address"
        },
        {
          "indexed": true,
          "internalType": "address",
          "name": "caller",
          "type": "address"
        }
      ],
      "name": "MinterRoleRemoved",
      "type": "event"
    },
    {
      "anonymous": false,
      "inputs": [
        {
          "indexed": true,
          "internalType": "address",
          "name": "beneficiary",
          "type": "address"
        },
        {
          "indexed": true,
          "internalType": "address",
          "name": "caller",
          "type": "address"
        }
      ],
      "name": "OperatorRoleGranted",
      "type": "event"
    },
    {
      "anonymous": false,
      "inputs": [
        {
          "indexed": true,
          "internalType": "address",
          "name": "beneficiary",
          "type": "address"
        },
        {
          "indexed": true,
          "internalType": "address",
          "name": "caller",
          "type": "address"
        }
      ],
      "name": "OperatorRoleRemoved",
      "type": "event"
    },
    {
      "anonymous": false,
      "inputs": [
        {
          "indexed": true,
          "internalType": "address",
          "name": "previousOwner",
          "type": "address"
        },
        {
          "indexed": true,
          "internalType": "address",
          "name": "newOwner",
          "type": "address"
        }
      ],
      "name": "OwnershipTransferred",
      "type": "event"
    },
    {
      "anonymous": false,
      "inputs": [
        {
          "indexed": true,
          "internalType": "bytes32",
          "name": "role",
          "type": "bytes32"
        },
        {
          "indexed": true,
          "internalType": "bytes32",
          "name": "previousAdminRole",
          "type": "bytes32"
        },
        {
          "indexed": true,
          "internalType": "bytes32",
          "name": "newAdminRole",
          "type": "bytes32"
        }
      ],
      "name": "RoleAdminChanged",
      "type": "event"
    },
    {
      "anonymous": false,
      "inputs": [
        {
          "indexed": true,
          "internalType": "bytes32",
          "name": "role",
          "type": "bytes32"
        },
        {
          "indexed": true,
          "internalType": "address",
          "name": "account",
          "type": "address"
        },
        {
          "indexed": true,
          "internalType": "address",
          "name": "sender",
          "type": "address"
        }
      ],
      "name": "RoleGranted",
      "type": "event"
    },
    {
      "anonymous": false,
      "inputs": [
        {
          "indexed": true,
          "internalType": "bytes32",
          "name": "role",
          "type": "bytes32"
        },
        {
          "indexed": true,
          "internalType": "address",
          "name": "account",
          "type": "address"
        },
        {
          "indexed": true,
          "internalType": "address",
          "name": "sender",
          "type": "address"
        }
      ],
      "name": "RoleRevoked",
      "type": "event"
    },
    {
      "anonymous": false,
      "inputs": [
        {
          "indexed": true,
          "internalType": "address",
          "name": "beneficiary",
          "type": "address"
        },
        {
          "indexed": true,
          "internalType": "address",
          "name": "caller",
          "type": "address"
        }
      ],
      "name": "SmartContractRoleGranted",
      "type": "event"
    },
    {
      "anonymous": false,
      "inputs": [
        {
          "indexed": true,
          "internalType": "address",
          "name": "beneficiary",
          "type": "address"
        },
        {
          "indexed": true,
          "internalType": "address",
          "name": "caller",
          "type": "address"
        }
      ],
      "name": "SmartContractRoleRemoved",
      "type": "event"
    },
    {
      "inputs": [],
      "name": "DEFAULT_ADMIN_ROLE",
      "outputs": [
        {
          "internalType": "bytes32",
          "name": "",
          "type": "bytes32"
        }
      ],
      "stateMutability": "view",
      "type": "function"
    },
    {
      "inputs": [],
      "name": "MINTER_ROLE",
      "outputs": [
        {
          "internalType": "bytes32",
          "name": "",
          "type": "bytes32"
        }
      ],
      "stateMutability": "view",
      "type": "function"
    },
    {
      "inputs": [],
      "name": "OPERATOR_ROLE",
      "outputs": [
        {
          "internalType": "bytes32",
          "name": "",
          "type": "bytes32"
        }
      ],
      "stateMutability": "view",
      "type": "function"
    },
    {
      "inputs": [],
      "name": "SMART_CONTRACT_ROLE",
      "outputs": [
        {
          "internalType": "bytes32",
          "name": "",
          "type": "bytes32"
        }
      ],
      "stateMutability": "view",
      "type": "function"
    },
    {
      "inputs": [
        {
          "internalType": "address",
          "name": "_address",
          "type": "address"
        }
      ],
      "name": "addAdminRole",
      "outputs": [],
      "stateMutability": "nonpayable",
      "type": "function"
    },
    {
      "inputs": [
        {
          "internalType": "address",
          "name": "_address",
          "type": "address"
        }
      ],
      "name": "addMinterRole",
      "outputs": [],
      "stateMutability": "nonpayable",
      "type": "function"
    },
    {
      "inputs": [
        {
          "internalType": "address",
          "name": "_address",
          "type": "address"
        }
      ],
      "name": "addOperatorRole",
      "outputs": [],
      "stateMutability": "nonpayable",
      "type": "function"
    },
    {
      "inputs": [
        {
          "internalType": "address",
          "name": "_address",
          "type": "address"
        }
      ],
      "name": "addSmartContractRole",
      "outputs": [],
      "stateMutability": "nonpayable",
      "type": "function"
    },
    {
      "inputs": [],
      "name": "auctionEnded",
      "outputs": [
        {
          "internalType": "bool",
          "name": "",
          "type": "bool"
        }
      ],
      "stateMutability": "view",
      "type": "function"
    },
    {
      "inputs": [],
      "name": "auctionSuccessful",
      "outputs": [
        {
          "internalType": "bool",
          "name": "",
          "type": "bool"
        }
      ],
      "stateMutability": "view",
      "type": "function"
    },
    {
      "inputs": [],
      "name": "auctionToken",
      "outputs": [
        {
          "internalType": "address",
          "name": "",
          "type": "address"
        }
      ],
      "stateMutability": "view",
      "type": "function"
    },
    {
      "inputs": [
        {
          "internalType": "bytes[]",
          "name": "calls",
          "type": "bytes[]"
        },
        {
          "internalType": "bool",
          "name": "revertOnFail",
          "type": "bool"
        }
      ],
      "name": "batch",
      "outputs": [
        {
          "internalType": "bool[]",
          "name": "successes",
          "type": "bool[]"
        },
        {
          "internalType": "bytes[]",
          "name": "results",
          "type": "bytes[]"
        }
      ],
      "stateMutability": "payable",
      "type": "function"
    },
    {
      "inputs": [
        {
          "internalType": "uint256",
          "name": "_commitment",
          "type": "uint256"
        }
      ],
      "name": "calculateCommitment",
      "outputs": [
        {
          "internalType": "uint256",
          "name": "committed",
          "type": "uint256"
        }
      ],
      "stateMutability": "view",
      "type": "function"
    },
    {
      "inputs": [
        {
          "internalType": "address",
          "name": "",
          "type": "address"
        }
      ],
      "name": "claimed",
      "outputs": [
        {
          "internalType": "uint256",
          "name": "",
          "type": "uint256"
        }
      ],
      "stateMutability": "view",
      "type": "function"
    },
    {
      "inputs": [
        {
          "internalType": "uint256",
          "name": "_amount",
          "type": "uint256"
        },
        {
          "internalType": "bool",
          "name": "readAndAgreedToMarketParticipationAgreement",
          "type": "bool"
        }
      ],
      "name": "commitTokens",
      "outputs": [],
      "stateMutability": "nonpayable",
      "type": "function"
    },
    {
      "inputs": [
        {
          "internalType": "address",
          "name": "_from",
          "type": "address"
        },
        {
          "internalType": "uint256",
          "name": "_amount",
          "type": "uint256"
        },
        {
          "internalType": "bool",
          "name": "readAndAgreedToMarketParticipationAgreement",
          "type": "bool"
        }
      ],
      "name": "commitTokensFrom",
      "outputs": [],
      "stateMutability": "nonpayable",
      "type": "function"
    },
    {
      "inputs": [
        {
          "internalType": "address",
          "name": "",
          "type": "address"
        }
      ],
      "name": "commitments",
      "outputs": [
        {
          "internalType": "uint256",
          "name": "",
          "type": "uint256"
        }
      ],
      "stateMutability": "view",
      "type": "function"
    },
    {
      "inputs": [
        {
          "internalType": "bool",
          "name": "_status",
          "type": "bool"
        }
      ],
      "name": "enableList",
      "outputs": [],
      "stateMutability": "nonpayable",
      "type": "function"
    },
    {
      "inputs": [],
      "name": "finalize",
      "outputs": [],
      "stateMutability": "nonpayable",
      "type": "function"
    },
    {
      "inputs": [],
      "name": "finalizeTimeExpired",
      "outputs": [
        {
          "internalType": "bool",
          "name": "",
          "type": "bool"
        }
      ],
      "stateMutability": "view",
      "type": "function"
    },
    {
      "inputs": [],
      "name": "finalized",
      "outputs": [
        {
          "internalType": "bool",
          "name": "",
          "type": "bool"
        }
      ],
      "stateMutability": "view",
      "type": "function"
    },
    {
      "inputs": [],
      "name": "getBaseInformation",
      "outputs": [
        {
          "internalType": "address",
          "name": "",
          "type": "address"
        },
        {
          "internalType": "uint256",
          "name": "",
          "type": "uint256"
        },
        {
          "internalType": "uint256",
          "name": "",
          "type": "uint256"
        },
        {
          "internalType": "bool",
          "name": "",
          "type": "bool"
        }
      ],
      "stateMutability": "view",
      "type": "function"
    },
    {
      "inputs": [
        {
          "internalType": "address",
          "name": "_funder",
          "type": "address"
        },
        {
          "internalType": "address",
          "name": "_token",
          "type": "address"
        },
        {
          "internalType": "address",
          "name": "_paymentCurrency",
          "type": "address"
        },
        {
          "internalType": "uint256",
          "name": "_totalTokens",
          "type": "uint256"
        },
        {
          "internalType": "uint256",
          "name": "_startTime",
          "type": "uint256"
        },
        {
          "internalType": "uint256",
          "name": "_endTime",
          "type": "uint256"
        },
        {
          "internalType": "uint256",
          "name": "_rate",
          "type": "uint256"
        },
        {
          "internalType": "uint256",
          "name": "_goal",
          "type": "uint256"
        },
        {
          "internalType": "address",
          "name": "_admin",
          "type": "address"
        },
        {
          "internalType": "address",
          "name": "_pointList",
          "type": "address"
        },
        {
          "internalType": "address payable",
          "name": "_wallet",
          "type": "address"
        }
      ],
      "name": "getCrowdsaleInitData",
      "outputs": [
        {
          "internalType": "bytes",
          "name": "_data",
          "type": "bytes"
        }
      ],
      "stateMutability": "pure",
      "type": "function"
    },
    {
      "inputs": [
        {
          "internalType": "bytes32",
          "name": "role",
          "type": "bytes32"
        }
      ],
      "name": "getRoleAdmin",
      "outputs": [
        {
          "internalType": "bytes32",
          "name": "",
          "type": "bytes32"
        }
      ],
      "stateMutability": "view",
      "type": "function"
    },
    {
      "inputs": [
        {
          "internalType": "bytes32",
          "name": "role",
          "type": "bytes32"
        },
        {
          "internalType": "uint256",
          "name": "index",
          "type": "uint256"
        }
      ],
      "name": "getRoleMember",
      "outputs": [
        {
          "internalType": "address",
          "name": "",
          "type": "address"
        }
      ],
      "stateMutability": "view",
      "type": "function"
    },
    {
      "inputs": [
        {
          "internalType": "bytes32",
          "name": "role",
          "type": "bytes32"
        }
      ],
      "name": "getRoleMemberCount",
      "outputs": [
        {
          "internalType": "uint256",
          "name": "",
          "type": "uint256"
        }
      ],
      "stateMutability": "view",
      "type": "function"
    },
    {
      "inputs": [
        {
          "internalType": "uint256",
          "name": "_amount",
          "type": "uint256"
        }
      ],
      "name": "getTokenAmount",
      "outputs": [
        {
          "internalType": "uint256",
          "name": "",
          "type": "uint256"
        }
      ],
      "stateMutability": "view",
      "type": "function"
    },
    {
      "inputs": [],
      "name": "getTotalTokens",
      "outputs": [
        {
          "internalType": "uint256",
          "name": "",
          "type": "uint256"
        }
      ],
      "stateMutability": "view",
      "type": "function"
    },
    {
      "inputs": [
        {
          "internalType": "bytes32",
          "name": "role",
          "type": "bytes32"
        },
        {
          "internalType": "address",
          "name": "account",
          "type": "address"
        }
      ],
      "name": "grantRole",
      "outputs": [],
      "stateMutability": "nonpayable",
      "type": "function"
    },
    {
      "inputs": [
        {
          "internalType": "address",
          "name": "_address",
          "type": "address"
        }
      ],
      "name": "hasAdminRole",
      "outputs": [
        {
          "internalType": "bool",
          "name": "",
          "type": "bool"
        }
      ],
      "stateMutability": "view",
      "type": "function"
    },
    {
      "inputs": [
        {
          "internalType": "address",
          "name": "_address",
          "type": "address"
        }
      ],
      "name": "hasMinterRole",
      "outputs": [
        {
          "internalType": "bool",
          "name": "",
          "type": "bool"
        }
      ],
      "stateMutability": "view",
      "type": "function"
    },
    {
      "inputs": [
        {
          "internalType": "address",
          "name": "_address",
          "type": "address"
        }
      ],
      "name": "hasOperatorRole",
      "outputs": [
        {
          "internalType": "bool",
          "name": "",
          "type": "bool"
        }
      ],
      "stateMutability": "view",
      "type": "function"
    },
    {
      "inputs": [
        {
          "internalType": "bytes32",
          "name": "role",
          "type": "bytes32"
        },
        {
          "internalType": "address",
          "name": "account",
          "type": "address"
        }
      ],
      "name": "hasRole",
      "outputs": [
        {
          "internalType": "bool",
          "name": "",
          "type": "bool"
        }
      ],
      "stateMutability": "view",
      "type": "function"
    },
    {
      "inputs": [
        {
          "internalType": "address",
          "name": "_address",
          "type": "address"
        }
      ],
      "name": "hasSmartContractRole",
      "outputs": [
        {
          "internalType": "bool",
          "name": "",
          "type": "bool"
        }
      ],
      "stateMutability": "view",
      "type": "function"
    },
    {
      "inputs": [
        {
          "internalType": "bytes",
          "name": "_data",
          "type": "bytes"
        }
      ],
      "name": "init",
      "outputs": [],
      "stateMutability": "payable",
      "type": "function"
    },
    {
      "inputs": [
        {
          "internalType": "address",
          "name": "_admin",
          "type": "address"
        }
      ],
      "name": "initAccessControls",
      "outputs": [],
      "stateMutability": "nonpayable",
      "type": "function"
    },
    {
      "inputs": [
        {
          "internalType": "address",
          "name": "_funder",
          "type": "address"
        },
        {
          "internalType": "address",
          "name": "_token",
          "type": "address"
        },
        {
          "internalType": "address",
          "name": "_paymentCurrency",
          "type": "address"
        },
        {
          "internalType": "uint256",
          "name": "_totalTokens",
          "type": "uint256"
        },
        {
          "internalType": "uint256",
          "name": "_startTime",
          "type": "uint256"
        },
        {
          "internalType": "uint256",
          "name": "_endTime",
          "type": "uint256"
        },
        {
          "internalType": "uint256",
          "name": "_rate",
          "type": "uint256"
        },
        {
          "internalType": "uint256",
          "name": "_goal",
          "type": "uint256"
        },
        {
          "internalType": "address",
          "name": "_admin",
          "type": "address"
        },
        {
          "internalType": "address",
          "name": "_pointList",
          "type": "address"
        },
        {
          "internalType": "address payable",
          "name": "_wallet",
          "type": "address"
        }
      ],
      "name": "initCrowdsale",
      "outputs": [],
      "stateMutability": "nonpayable",
      "type": "function"
    },
    {
      "inputs": [
        {
          "internalType": "bytes",
          "name": "_data",
          "type": "bytes"
        }
      ],
      "name": "initMarket",
      "outputs": [],
      "stateMutability": "nonpayable",
      "type": "function"
    },
    {
      "inputs": [],
      "name": "isOpen",
      "outputs": [
        {
          "internalType": "bool",
          "name": "",
          "type": "bool"
        }
      ],
      "stateMutability": "view",
      "type": "function"
    },
    {
      "inputs": [],
      "name": "marketInfo",
      "outputs": [
        {
          "internalType": "uint256",
          "name": "startTime",
          "type": "uint256"
        },
        {
          "internalType": "uint256",
          "name": "endTime",
          "type": "uint256"
        },
        {
          "internalType": "uint128",
          "name": "totalTokens",
          "type": "uint128"
        }
      ],
      "stateMutability": "view",
      "type": "function"
    },
    {
      "inputs": [],
      "name": "marketPrice",
      "outputs": [
        {
          "internalType": "uint128",
          "name": "rate",
          "type": "uint128"
        },
        {
          "internalType": "uint128",
          "name": "goal",
          "type": "uint128"
        }
      ],
      "stateMutability": "view",
      "type": "function"
    },
    {
      "inputs": [],
      "name": "marketStatus",
      "outputs": [
        {
          "internalType": "uint128",
          "name": "commitmentsTotal",
          "type": "uint128"
        },
        {
          "internalType": "bool",
          "name": "finalized",
          "type": "bool"
        },
        {
          "internalType": "bool",
          "name": "usePointList",
          "type": "bool"
        }
      ],
      "stateMutability": "view",
      "type": "function"
    },
    {
      "inputs": [],
      "name": "marketTemplate",
      "outputs": [
        {
          "internalType": "uint256",
          "name": "",
          "type": "uint256"
        }
      ],
      "stateMutability": "view",
      "type": "function"
    },
    {
      "inputs": [],
      "name": "owner",
      "outputs": [
        {
          "internalType": "address",
          "name": "",
          "type": "address"
        }
      ],
      "stateMutability": "view",
      "type": "function"
    },
    {
      "inputs": [],
      "name": "paymentCurrency",
      "outputs": [
        {
          "internalType": "address",
          "name": "",
          "type": "address"
        }
      ],
      "stateMutability": "view",
      "type": "function"
    },
    {
      "inputs": [
        {
          "internalType": "contract IERC20",
          "name": "token",
          "type": "address"
        },
        {
          "internalType": "address",
          "name": "from",
          "type": "address"
        },
        {
          "internalType": "address",
          "name": "to",
          "type": "address"
        },
        {
          "internalType": "uint256",
          "name": "amount",
          "type": "uint256"
        },
        {
          "internalType": "uint256",
          "name": "deadline",
          "type": "uint256"
        },
        {
          "internalType": "uint8",
          "name": "v",
          "type": "uint8"
        },
        {
          "internalType": "bytes32",
          "name": "r",
          "type": "bytes32"
        },
        {
          "internalType": "bytes32",
          "name": "s",
          "type": "bytes32"
        }
      ],
      "name": "permitToken",
      "outputs": [],
      "stateMutability": "nonpayable",
      "type": "function"
    },
    {
      "inputs": [],
      "name": "pointList",
      "outputs": [
        {
          "internalType": "address",
          "name": "",
          "type": "address"
        }
      ],
      "stateMutability": "view",
      "type": "function"
    },
    {
      "inputs": [
        {
          "internalType": "address",
          "name": "_address",
          "type": "address"
        }
      ],
      "name": "removeAdminRole",
      "outputs": [],
      "stateMutability": "nonpayable",
      "type": "function"
    },
    {
      "inputs": [
        {
          "internalType": "address",
          "name": "_address",
          "type": "address"
        }
      ],
      "name": "removeMinterRole",
      "outputs": [],
      "stateMutability": "nonpayable",
      "type": "function"
    },
    {
      "inputs": [
        {
          "internalType": "address",
          "name": "_address",
          "type": "address"
        }
      ],
      "name": "removeOperatorRole",
      "outputs": [],
      "stateMutability": "nonpayable",
      "type": "function"
    },
    {
      "inputs": [
        {
          "internalType": "address",
          "name": "_address",
          "type": "address"
        }
      ],
      "name": "removeSmartContractRole",
      "outputs": [],
      "stateMutability": "nonpayable",
      "type": "function"
    },
    {
      "inputs": [],
      "name": "renounceOwnership",
      "outputs": [],
      "stateMutability": "nonpayable",
      "type": "function"
    },
    {
      "inputs": [
        {
          "internalType": "bytes32",
          "name": "role",
          "type": "bytes32"
        },
        {
          "internalType": "address",
          "name": "account",
          "type": "address"
        }
      ],
      "name": "renounceRole",
      "outputs": [],
      "stateMutability": "nonpayable",
      "type": "function"
    },
    {
      "inputs": [
        {
          "internalType": "bytes32",
          "name": "role",
          "type": "bytes32"
        },
        {
          "internalType": "address",
          "name": "account",
          "type": "address"
        }
      ],
      "name": "revokeRole",
      "outputs": [],
      "stateMutability": "nonpayable",
      "type": "function"
    },
    {
      "inputs": [
        {
          "internalType": "uint256",
          "name": "_rate",
          "type": "uint256"
        },
        {
          "internalType": "uint256",
          "name": "_goal",
          "type": "uint256"
        }
      ],
      "name": "setAuctionPrice",
      "outputs": [],
      "stateMutability": "nonpayable",
      "type": "function"
    },
    {
      "inputs": [
        {
          "internalType": "uint256",
          "name": "_startTime",
          "type": "uint256"
        },
        {
          "internalType": "uint256",
          "name": "_endTime",
          "type": "uint256"
        }
      ],
      "name": "setAuctionTime",
      "outputs": [],
      "stateMutability": "nonpayable",
      "type": "function"
    },
    {
      "inputs": [
        {
          "internalType": "address payable",
          "name": "_wallet",
          "type": "address"
        }
      ],
      "name": "setAuctionWallet",
      "outputs": [],
      "stateMutability": "nonpayable",
      "type": "function"
    },
    {
      "inputs": [
        {
          "internalType": "address",
          "name": "_list",
          "type": "address"
        }
      ],
      "name": "setList",
      "outputs": [],
      "stateMutability": "nonpayable",
      "type": "function"
    },
    {
      "inputs": [],
      "name": "tokenPrice",
      "outputs": [
        {
          "internalType": "uint256",
          "name": "",
          "type": "uint256"
        }
      ],
      "stateMutability": "view",
      "type": "function"
    },
    {
      "inputs": [
        {
          "internalType": "address",
          "name": "_user",
          "type": "address"
        }
      ],
      "name": "tokensClaimable",
      "outputs": [
        {
          "internalType": "uint256",
          "name": "claimerCommitment",
          "type": "uint256"
        }
      ],
      "stateMutability": "view",
      "type": "function"
    },
    {
      "inputs": [
        {
          "internalType": "address",
          "name": "newOwner",
          "type": "address"
        }
      ],
      "name": "transferOwnership",
      "outputs": [],
      "stateMutability": "nonpayable",
      "type": "function"
    },
    {
      "inputs": [],
      "name": "wallet",
      "outputs": [
        {
          "internalType": "address payable",
          "name": "",
          "type": "address"
        }
      ],
      "stateMutability": "view",
      "type": "function"
    },
    {
      "inputs": [
        {
          "internalType": "address payable",
          "name": "beneficiary",
          "type": "address"
        }
      ],
      "name": "withdrawTokens",
      "outputs": [],
      "stateMutability": "nonpayable",
      "type": "function"
    },
    {
      "inputs": [],
      "name": "withdrawTokens",
      "outputs": [],
      "stateMutability": "nonpayable",
      "type": "function"
    }
  ],
  "transactionHash": "0xeefe91fbe784e2ab4054cacc8cf1da4425eada418e91afff2ee96643baaf9bf8",
  "args": [],
  "solcInputHash": "d514d32e00e632aec9997748b28effb2",
  "bytecode": "0x60806040523480156200001157600080fd5b5060006200001e6200007f565b60018054610100600160a81b0319166101006001600160a01b03841690810291909117909155604051919250906000907f8be0079c531659141344cd1fd0a4f28419497f9722a3daafe3b4186f6b6457e0908290a350600160025562000083565b3390565b613d0e80620000936000396000f3fe6080604052600436106103c35760003560e01c806386433374116101f2578063c9fab0591161010d578063e0e081d7116100a0578063f08b82e61161006f578063f08b82e614610ac5578063f2fde38b14610ada578063f5b541a614610afa578063fc4e3e0a14610b0f576103c3565b8063e0e081d714610a4c578063e6594abd14610a70578063e8fcf72314610a90578063f04899d314610ab0576103c3565b8063d547741f116100dc578063d547741f146109cc578063d69d3e62146109ec578063dc97e08214610a0c578063dccfe31014610a2c576103c3565b8063c9fab05914610956578063ca15c87314610976578063d2423b5114610996578063d5391393146109b7576103c3565b80639a87222c11610185578063b7928b1d11610154578063b7928b1d146108d6578063c2507ac1146108f6578063c395fcb314610916578063c884ef8314610936576103c3565b80639a87222c1461086c578063a217fddf1461088c578063adbf3776146108a1578063b3f05b97146108c1576103c3565b80639010d07c116101c15780639010d07c146107f757806391d14854146108175780639478941c1461083757806399fdb32014610857576103c3565b806386433374146107985780638a845fc0146107ad5780638d8f2adb146107cd5780638da5cb5b146107e2576103c3565b806347535d7b116102e25780636595171c116102755780637c516e94116102445780637c516e941461072e5780637ff9b5961461074e57806381353c8e14610763578063857d260814610783576103c3565b80636595171c146106b95780636ae260c1146106d9578063715018a6146106f957806373973fcb1461070e576103c3565b80634dc80e15116102b15780634dc80e15146106515780634ddf47d414610671578063521eb2731461068457806354f1e12614610699576103c3565b806347535d7b146105e757806349df728c146105fc5780634b3e6abb1461061c5780634bb278f31461063c576103c3565b806324e4025b1161035a57806336d0054b1161032957806336d0054b1461056d5780633d15cc6d146105825780633f16431a146105a457806345a15388146105c4576103c3565b806324e4025b146104e85780632f2ff15d14610508578063314148e21461052857806336568abe1461054d576103c3565b80631702645511610396578063170264551461046f5780631b3e460e14610484578063212f8a81146104a6578063248a9ca3146104c8576103c3565b8063031bee00146103c8578063099db017146103f55780630cc4c03314610422578063113b0ab21461044f575b600080fd5b3480156103d457600080fd5b506103dd610b2f565b6040516103ec939291906139e3565b60405180910390f35b34801561040157600080fd5b50610415610410366004612f31565b610b44565b6040516103ec91906135bd565b34801561042e57600080fd5b5061044261043d36600461300a565b610b66565b6040516103ec91906135d1565b34801561045b57600080fd5b5061041561046a366004612f31565b610bad565b34801561047b57600080fd5b50610415610bc7565b34801561049057600080fd5b50610499610be2565b6040516103ec91906135c8565b3480156104b257600080fd5b506104c66104c136600461302b565b610be7565b005b3480156104d457600080fd5b506104996104e3366004613119565b610cb9565b3480156104f457600080fd5b506104c6610503366004613160565b610cce565b34801561051457600080fd5b506104c6610523366004613131565b610db4565b34801561053457600080fd5b5061053d610dfc565b6040516103ec94939291906134fe565b34801561055957600080fd5b506104c6610568366004613131565b610e25565b34801561057957600080fd5b50610415610e67565b34801561058e57600080fd5b50610597610e86565b6040516103ec91906133c3565b3480156105b057600080fd5b506104c66105bf366004612f31565b610e95565b3480156105d057600080fd5b506105d9610ef7565b6040516103ec9291906139bb565b3480156105f357600080fd5b50610415610f11565b34801561060857600080fd5b506104c6610617366004612f31565b610f2d565b34801561062857600080fd5b506104c66106373660046130e1565b611356565b34801561064857600080fd5b506104c6611388565b34801561065d57600080fd5b5061049961066c366004612f31565b611530565b6104c661067f366004613181565b610df8565b34801561069057600080fd5b50610597611615565b3480156106a557600080fd5b506104c66106b4366004612f31565b611624565b3480156106c557600080fd5b506104c66106d4366004612f31565b611686565b3480156106e557600080fd5b506104c66106f4366004613160565b6116db565b34801561070557600080fd5b506104c661179c565b34801561071a57600080fd5b50610499610729366004613119565b61182b565b34801561073a57600080fd5b506104c66107493660046131ee565b6118a1565b34801561075a57600080fd5b50610499611915565b34801561076f57600080fd5b506104c661077e366004613181565b611924565b34801561078f57600080fd5b50610499611974565b3480156107a457600080fd5b50610415611986565b3480156107b957600080fd5b506104c66107c8366004612f31565b6119c2565b3480156107d957600080fd5b506104c6611a24565b3480156107ee57600080fd5b50610597611a31565b34801561080357600080fd5b50610597610812366004613160565b611a45565b34801561082357600080fd5b50610415610832366004613131565b611a66565b34801561084357600080fd5b506104c6610852366004612f31565b611a7e565b34801561086357600080fd5b50610597611ae0565b34801561087857600080fd5b506104c6610887366004612f31565b611aef565b34801561089857600080fd5b50610499611bab565b3480156108ad57600080fd5b506104c66108bc366004612f31565b611bb0565b3480156108cd57600080fd5b50610415611c12565b3480156108e257600080fd5b506104c66108f1366004612f31565b611c22565b34801561090257600080fd5b50610499610911366004613119565b611c84565b34801561092257600080fd5b50610415610931366004612f31565b611c8f565b34801561094257600080fd5b50610499610951366004612f31565b611c9b565b34801561096257600080fd5b506104c661097136600461300a565b611cad565b34801561098257600080fd5b50610499610991366004613119565b611f3f565b6109a96109a436600461306c565b611f56565b6040516103ec929190613526565b3480156109c357600080fd5b5061049961214c565b3480156109d857600080fd5b506104c66109e7366004613131565b61215e565b3480156109f857600080fd5b506104c6610a07366004612f31565b612198565b348015610a1857600080fd5b506104c6610a2736600461332b565b6121b8565b348015610a3857600080fd5b506104c6610a47366004612f31565b6121ca565b348015610a5857600080fd5b50610a6161221f565b6040516103ec93929190613998565b348015610a7c57600080fd5b506104c6610a8b366004612f31565b612244565b348015610a9c57600080fd5b50610499610aab366004612f31565b6122a7565b348015610abc57600080fd5b506105976122b9565b348015610ad157600080fd5b506104996122c8565b348015610ae657600080fd5b506104c6610af5366004612f31565b6122d7565b348015610b0657600080fd5b506104996123a3565b348015610b1b57600080fd5b50610415610b2a366004612f31565b6123b5565b6004546005546006546001600160801b031683565b6000610b5e600080516020613cb983398151915283611a66565b90505b919050565b60608b8b8b8b8b8b8b8b8b8b8b604051602001610b8d9b9a999897969594939291906133f1565b60405160208183030381529060405290509b9a5050505050505050505050565b6000610b5e600080516020613c7983398151915283611a66565b6005546000904290610bdc9062093a80613a4e565b10905090565b600181565b600280541415610c125760405162461bcd60e51b8152600401610c0990613876565b60405180910390fd5b6002805581610c1f6123cf565b11158015610c345750610c30612477565b8211155b610c3d57600080fd5b80610c4757600080fd5b6000610c528361182b565b90508015610cae57600a54610c78906001600160a01b0316610c72612519565b8361251d565b610c82848261260c565b600754610c97906001600160801b0316612798565b6006546001600160801b03161415610cae57426005555b505060016002555050565b60009081526020819052604090206002015490565b610cd9610931612519565b610ce257600080fd5b60008111610cef57600080fd5b60008211610cfc57600080fd5b6007546001600160801b031615610d1257600080fd5b610d1b826127c3565b600380546001600160801b0319166001600160801b0392909216919091179055610d44816127c3565b600380546001600160801b03928316600160801b0290831617905560065416610d6c82612798565b1115610d7757600080fd5b7f622a57040c34e45abc5fadeb22e4c3c687cf48a096c86694cd21a7be9e7851ee8282604051610da89291906139d5565b60405180910390a15050565b600082815260208190526040902060020154610dd290610832612519565b610dee5760405162461bcd60e51b8152600401610c0990613682565b610df882826127f0565b5050565b6008546004546005546007546001600160a01b039093169260ff600160801b9091041690919293565b610e2d612519565b6001600160a01b0316816001600160a01b031614610e5d5760405162461bcd60e51b8152600401610c099061391b565b610df88282612859565b6003546007546001600160801b03600160801b90920482169116101590565b600a546001600160a01b031681565b610ead600080516020613c7983398151915282610db4565b610eb5612519565b6001600160a01b0316816001600160a01b03167f1d5f9ec24c6f91be922ea13ceaad919ad6554a41b5c26087f96289a9baf98ad260405160405180910390a350565b6003546001600160801b0380821691600160801b90041682565b6004546000904210801590610f2857506005544211155b905090565b600280541415610f4f5760405162461bcd60e51b8152600401610c0990613876565b60028055610f5b610e67565b1561130f57600754600160801b900460ff16610f7657600080fd5b6000610f8182611530565b905060008111610f9057600080fd5b6001600160a01b0382166000908152600d6020526040902054610fb390826128c2565b6001600160a01b038084166000908152600d6020908152604080832094909455600c90529182209190915560085461100291739b1110e54430e279d740072199583845e989d30a9116836128f0565b600061100f8260046129fd565b9050600061101e8360046129fd565b9050600061102d8460046129fd565b9050600061103c8560046129fd565b600854600554919250739b1110e54430e279d740072199583845e989d30a916302ef846a916001600160a01b0316903090889061107b9061012c613a4e565b8b6040518663ffffffff1660e01b815260040161109c959493929190613474565b602060405180830381600087803b1580156110b657600080fd5b505af11580156110ca573d6000803e3d6000fd5b505050506040513d601f19601f820116820180604052508101906110ee9190613313565b50600854600554739b1110e54430e279d740072199583845e989d30a916302ef846a916001600160a01b03909116903090879061112d90610258613a4e565b8b6040518663ffffffff1660e01b815260040161114e959493929190613474565b602060405180830381600087803b15801561116857600080fd5b505af115801561117c573d6000803e3d6000fd5b505050506040513d601f19601f820116820180604052508101906111a09190613313565b50600854600554739b1110e54430e279d740072199583845e989d30a916302ef846a916001600160a01b0390911690309086906111df90610384613a4e565b8b6040518663ffffffff1660e01b8152600401611200959493929190613474565b602060405180830381600087803b15801561121a57600080fd5b505af115801561122e573d6000803e3d6000fd5b505050506040513d601f19601f820116820180604052508101906112529190613313565b50600854600554739b1110e54430e279d740072199583845e989d30a916302ef846a916001600160a01b039091169030908590611291906104b0613a4e565b8b6040518663ffffffff1660e01b81526004016112b2959493929190613474565b602060405180830381600087803b1580156112cc57600080fd5b505af11580156112e0573d6000803e3d6000fd5b505050506040513d601f19601f820116820180604052508101906113049190613313565b50505050505061134e565b600554421161131d57600080fd5b6001600160a01b038082166000908152600c602052604081208054919055600a54909161134c91168383612a28565b505b506001600255565b611361610931612519565b61136a57600080fd5b60078054911515600160881b0260ff60881b19909216919091179055565b6002805414156113aa5760405162461bcd60e51b8152600401610c0990613876565b600280556113b9610931612519565b806113d957506113c7612519565b6009546001600160a01b039081169116145b806113ea57506113ea61046a612519565b806113f857506113f8610bc7565b61140157600080fd5b60078054600160801b900460ff161561141957600080fd5b6004611423611986565b61142c57600080fd5b611434610e67565b156114c257600a546009548354611461926001600160a01b039081169216906001600160801b0316612a28565b8154600090611478906001600160801b0316612798565b6002830154909150600090611496906001600160801b031683612a67565b905080156114bb576008546009546114bb916001600160a01b03908116911683612a28565b50506114ed565b60085460095460028301546114ed926001600160a01b039081169216906001600160801b0316612a28565b815460ff60801b1916600160801b1782556040517f32bebcfd2d04dbae321298091d96d2cb1d07279f59718cd83bd98245b8b82b5a90600090a150506001600255565b6008546040516370a0823160e01b815260009182916001600160a01b03909116906370a08231906115659030906004016133c3565b60206040518083038186803b15801561157d57600080fd5b505afa158015611591573d6000803e3d6000fd5b505050506040513d601f19601f820116820180604052508101906115b59190613313565b6001600160a01b0384166000908152600c60205260409020549091506115da90612798565b6001600160a01b0384166000908152600d6020526040902054909250611601908390612a67565b91508082111561160f578091505b50919050565b6009546001600160a01b031681565b61163c600080516020613cb98339815191528261215e565b611644612519565b6001600160a01b0316816001600160a01b03167f56692a161ffec953ddf9def93b958ea8d1ec95e21b80870c66be91a4374dc4e360405160405180910390a350565b611691600082610db4565b611699612519565b6001600160a01b0316816001600160a01b03167f2570ac42fd8b322dc453ada624dc2ed0e9bdd67f16f201a25bbd30468f2aa18760405160405180910390a350565b6116e6610931612519565b6116ef57600080fd5b6402540be400821061170057600080fd5b6402540be400811061171157600080fd5b4282101561171e57600080fd5b81811161172a57600080fd5b6007546001600160801b03161561174057600080fd5b611749826127c3565b6001600160801b031660045561175e816127c3565b6001600160801b03166005556040517f5725d1e4352d6944889e54837ffaefde55cdc0b55796b831365d61cd4c87fdb890610da890849084906139d5565b6117a4612519565b6001600160a01b03166117b5611a31565b6001600160a01b0316146117db5760405162461bcd60e51b8152600401610c09906137fe565b60015460405160009161010090046001600160a01b0316907f8be0079c531659141344cd1fd0a4f28419497f9722a3daafe3b4186f6b6457e0908390a360018054610100600160a81b0319169055565b60008061183783612798565b600754909150600090611852906001600160801b0316612798565b6006549091506001600160801b031661186b82846128c2565b1115611899576006546118909061188b906001600160801b031683612a67565b612a95565b92505050610b61565b509192915050565b60405163d505accf60e01b81526001600160a01b0389169063d505accf906118d9908a908a908a908a908a908a908a906004016134a4565b600060405180830381600087803b1580156118f357600080fd5b505af1158015611907573d6000803e3d6000fd5b505050505050505050505050565b6003546001600160801b031690565b60008080808080808080808061193c8c8e018e612f54565b9a509a509a509a509a509a509a509a509a509a509a506119658b8b8b8b8b8b8b8b8b8b8b611cad565b50505050505050505050505050565b600080516020613c7983398151915281565b600554600090421180610f2857506006546007546001600160801b03918216916119bb916119b691166001613a4e565b612798565b1015905090565b6119da600080516020613c798339815191528261215e565b6119e2612519565b6001600160a01b0316816001600160a01b03167fe5f1aa9e528307345194b88b24a32401c13926e0823060f1049d9b26c0bb62b260405160405180910390a350565b611a2f610617612519565b565b60015461010090046001600160a01b031690565b6000828152602081905260408120611a5d9083612abd565b90505b92915050565b6000828152602081905260408120611a5d9083612ac9565b611a96600080516020613c998339815191528261215e565b611a9e612519565b6001600160a01b0316816001600160a01b03167f70b25138b6fadeb9992d18b9653564271823e34b3e3257515d12a6d4b15fcddf60405160405180910390a350565b6008546001600160a01b031681565b611af7612519565b6001600160a01b0316611b08611a31565b6001600160a01b031614611b2e5760405162461bcd60e51b8152600401610c09906137fe565b611b39610931612519565b611b4257600080fd5b6001600160a01b038116611b5557600080fd5b600980546001600160a01b0319166001600160a01b0383161790556040517f34ae2bad9265f0212d4cf341708b8250949164bb54f9d0e4f442024f83bb2f9090611ba09083906133c3565b60405180910390a150565b600081565b611bc8600080516020613cb983398151915282610db4565b611bd0612519565b6001600160a01b0316816001600160a01b03167f0be6ab9784c7401fafb73f7bc47bc67cc4ef8c47a60ad3cb66d1de0353a0784c60405160405180910390a350565b600754600160801b900460ff1690565b611c3a600080516020613c9983398151915282610db4565b611c42612519565b6001600160a01b0316816001600160a01b03167f2d45ee102874989882745a26688d0b4fffee125a18df26536b12582c7fde4e1760405160405180910390a350565b600061160f82612798565b6000610b5e8183611a66565b600d6020526000908152604090205481565b6402540be4008710611cbe57600080fd5b6402540be4008610611ccf57600080fd5b42871015611cdc57600080fd5b868611611ce857600080fd5b60008511611cf557600080fd5b6001600160a01b038116611d0857600080fd5b6001600160a01b038316611d1b57600080fd5b60008811611d2857600080fd5b60008411611d3557600080fd5b896001600160a01b031663313ce5676040518163ffffffff1660e01b815260040160206040518083038186803b158015611d6e57600080fd5b505afa158015611d82573d6000803e3d6000fd5b505050506040513d601f19601f82011682018060405250810190611da6919061334f565b60ff16601214611db557600080fd5b6000896001600160a01b031663313ce5676040518163ffffffff1660e01b815260040160206040518083038186803b158015611df057600080fd5b505afa158015611e04573d6000803e3d6000fd5b505050506040513d601f19601f82011682018060405250810190611e28919061334f565b60ff1611611e3557600080fd5b611e3e856127c3565b600380546001600160801b0319166001600160801b0392909216919091179055611e67846127c3565b600380546001600160801b03928316600160801b029216919091179055611e8d876127c3565b6001600160801b0316600455611ea2866127c3565b6001600160801b0316600555611eb7886127c3565b600680546001600160801b0319166001600160801b0392909216919091179055600880546001600160a01b03199081166001600160a01b038d811691909117909255600a805482168c841617905560098054909116918316919091179055611f1e83612244565b611f2782612ade565b611f328a8c8a61251d565b5050505050505050505050565b6000818152602081905260408120610b5e90612b20565b6060808367ffffffffffffffff811115611f8057634e487b7160e01b600052604160045260246000fd5b604051908082528060200260200182016040528015611fa9578160200160208202803683370190505b5091508367ffffffffffffffff811115611fd357634e487b7160e01b600052604160045260246000fd5b60405190808252806020026020018201604052801561200657816020015b6060815260200190600190039081611ff15790505b50905060005b84811015612143576000803088888581811061203857634e487b7160e01b600052603260045260246000fd5b905060200281019061204a9190613a02565b604051612058929190613397565b600060405180830381855af49150503d8060008114612093576040519150601f19603f3d011682016040523d82523d6000602084013e612098565b606091505b509150915081806120a7575085155b6120b082612b2b565b906120ce5760405162461bcd60e51b8152600401610c0991906135d1565b50818584815181106120f057634e487b7160e01b600052603260045260246000fd5b6020026020010190151590811515815250508084848151811061212357634e487b7160e01b600052603260045260246000fd5b60200260200101819052505050808061213b90613bff565b91505061200c565b50935093915050565b600080516020613cb983398151915281565b60008281526020819052604090206002015461217c90610832612519565b610e5d5760405162461bcd60e51b8152600401610c099061374e565b6121a3610931612519565b6121ac57600080fd5b6121b581612ade565b50565b610df86121c3612519565b8383610be7565b6121d560008261215e565b6121dd612519565b6001600160a01b0316816001600160a01b03167f21ba1239795d4e22874e3dc55f0a9d7b65bfb23069d32965d7c23be9524ccf9560405160405180910390a350565b6007546001600160801b0381169060ff600160801b8204811691600160881b90041683565b60015460ff16156122675760405162461bcd60e51b8152600401610c0990613613565b6001600160a01b03811661228d5760405162461bcd60e51b8152600401610c09906137d5565b612298600082610dee565b506001805460ff191681179055565b600c6020526000908152604090205481565b600b546001600160a01b031681565b6006546001600160801b031690565b6122df612519565b6001600160a01b03166122f0611a31565b6001600160a01b0316146123165760405162461bcd60e51b8152600401610c09906137fe565b6001600160a01b03811661233c5760405162461bcd60e51b8152600401610c09906136d1565b6001546040516001600160a01b0380841692610100900416907f8be0079c531659141344cd1fd0a4f28419497f9722a3daafe3b4186f6b6457e090600090a3600180546001600160a01b0390921661010002610100600160a81b0319909216919091179055565b600080516020613c9983398151915281565b6000610b5e600080516020613c9983398151915283611a66565b600080600a60009054906101000a90046001600160a01b03166001600160a01b031663313ce5676040518163ffffffff1660e01b815260040160206040518083038186803b15801561242057600080fd5b505afa158015612434573d6000803e3d6000fd5b505050506040513d601f19601f82011682018060405250810190612458919061334f565b905061246581600a613acc565b612471906103e7613b9d565b91505090565b600080600a60009054906101000a90046001600160a01b03166001600160a01b031663313ce5676040518163ffffffff1660e01b815260040160206040518083038186803b1580156124c857600080fd5b505afa1580156124dc573d6000803e3d6000fd5b505050506040513d601f19601f82011682018060405250810190612500919061334f565b905061250d81600a613acc565b6124719061270f613b9d565b3390565b600080846001600160a01b03166323b872dd85308660405160240161254493929190613450565b6040516020818303038152906040529060e01b6020820180516001600160e01b03838183161783525050505060405161257d91906133a7565b6000604051808303816000865af19150503d80600081146125ba576040519150601f19603f3d011682016040523d82523d6000602084013e6125bf565b606091505b50915091508180156125e95750805115806125e95750808060200190518101906125e991906130fd565b6126055760405162461bcd60e51b8152600401610c09906138e4565b5050505050565b600454421080159061262057506005544211155b61262957600080fd5b6001600160a01b03821661263c57600080fd5b6001600160a01b0382166000908152600c602052604081205461265f90836128c2565b600754909150600160881b900460ff16156126ff57600b54604051631cd53d5560e01b81526001600160a01b0390911690631cd53d55906126a690869085906004016134e5565b60206040518083038186803b1580156126be57600080fd5b505afa1580156126d2573d6000803e3d6000fd5b505050506040513d601f19601f820116820180604052508101906126f691906130fd565b6126ff57600080fd5b6001600160a01b0383166000908152600c6020526040902081905560075461273990612734906001600160801b0316846128c2565b6127c3565b600780546001600160801b0319166001600160801b03929092169190911790556040517f077511a636ba1f10551cc7b89c13ff66a6ac9344e8a917527817a9690b15af7a9061278b90859085906134e5565b60405180910390a1505050565b600354600090610b5e906001600160801b03166127bd84670de0b6b3a7640000612b8b565b906129fd565b60006001600160801b038211156127ec5760405162461bcd60e51b8152600401610c0990613717565b5090565b60008281526020819052604090206128089082612bcb565b15610df857612815612519565b6001600160a01b0316816001600160a01b0316837f2f8788117e7eff1d82e926ec794901d17c78024a50270940304540a733656f0d60405160405180910390a45050565b60008281526020819052604090206128719082612be0565b15610df85761287e612519565b6001600160a01b0316816001600160a01b0316837ff6391f5c32d9c69d2a47ea670b442974b53935d1edc7fd64eb21e047a839171b60405160405180910390a45050565b6000816128cf8185613a4e565b9150811015611a605760405162461bcd60e51b8152600401610c099061379e565b604051636eb1769f60e11b815281906001600160a01b0384169063dd62ed3e9061292090309088906004016133d7565b60206040518083038186803b15801561293857600080fd5b505afa15801561294c573d6000803e3d6000fd5b505050506040513d601f19601f820116820180604052508101906129709190613313565b10156129f85760405163095ea7b360e01b81526001600160a01b0383169063095ea7b3906129a490869085906004016134e5565b602060405180830381600087803b1580156129be57600080fd5b505af11580156129d2573d6000803e3d6000fd5b505050506040513d601f19601f820116820180604052508101906129f691906130fd565b505b505050565b6000808211612a1e5760405162461bcd60e51b8152600401610c099061396a565b611a5d8284613a66565b6001600160a01b03831673eeeeeeeeeeeeeeeeeeeeeeeeeeeeeeeeeeeeeeee1415612a5c57612a578282612bf5565b6129f8565b6129f8838383612c82565b600082612a748382613bbc565b9150811115611a605760405162461bcd60e51b8152600401610c09906135e4565b600354600090610b5e90670de0b6b3a7640000906127bd9085906001600160801b0316612b8b565b6000611a5d8383612d55565b6000611a5d836001600160a01b038416612dae565b6001600160a01b038116156121b557600b80546001600160a01b0383166001600160a01b03199091161790556007805460ff60881b1916600160881b17905550565b6000610b5e82612dc6565b6060604482511015612b71575060408051808201909152601d81527f5472616e73616374696f6e2072657665727465642073696c656e746c790000006020820152610b61565b60048201915081806020019051810190610b5e9190613270565b6000811580612baf57508282612ba18183613b9d565b9250612bad9083613a66565b145b611a605760405162461bcd60e51b8152600401610c09906138ad565b6000611a5d836001600160a01b038416612dca565b6000611a5d836001600160a01b038416612e14565b604080516000808252602082019092526001600160a01b038416908390604051612c1f91906133a7565b60006040518083038185875af1925050503d8060008114612c5c576040519150601f19603f3d011682016040523d82523d6000602084013e612c61565b606091505b50509050806129f85760405162461bcd60e51b8152600401610c0990613833565b600080846001600160a01b031663a9059cbb8585604051602401612ca79291906134e5565b6040516020818303038152906040529060e01b6020820180516001600160e01b038381831617835250505050604051612ce091906133a7565b6000604051808303816000865af19150503d8060008114612d1d576040519150601f19603f3d011682016040523d82523d6000602084013e612d22565b606091505b5091509150818015612d4c575080511580612d4c575080806020019051810190612d4c91906130fd565b61260557600080fd5b81546000908210612d785760405162461bcd60e51b8152600401610c0990613640565b826000018281548110612d9b57634e487b7160e01b600052603260045260246000fd5b9060005260206000200154905092915050565b60009081526001919091016020526040902054151590565b5490565b6000612dd68383612dae565b612e0c57508154600181810184556000848152602080822090930184905584548482528286019093526040902091909155611a60565b506000611a60565b60008181526001830160205260408120548015612f27576000612e38600183613bbc565b8554909150600090612e4c90600190613bbc565b90506000866000018281548110612e7357634e487b7160e01b600052603260045260246000fd5b9060005260206000200154905080876000018481548110612ea457634e487b7160e01b600052603260045260246000fd5b600091825260209091200155612ebb836001613a4e565b60008281526001890160205260409020558654879080612eeb57634e487b7160e01b600052603160045260246000fd5b60019003818190600052602060002001600090559055866001016000878152602001908152602001600020600090556001945050505050611a60565b6000915050611a60565b600060208284031215612f42578081fd5b8135612f4d81613c46565b9392505050565b60008060008060008060008060008060006101608c8e031215612f75578687fd5b8b35612f8081613c46565b9a5060208c0135612f9081613c46565b995060408c0135612fa081613c46565b985060608c0135975060808c0135965060a08c0135955060c08c0135945060e08c013593506101008c0135612fd481613c46565b92506101208c0135612fe581613c46565b91506101408c0135612ff681613c46565b809150509295989b509295989b9093969950565b60008060008060008060008060008060006101608c8e031215612f75578081fd5b60008060006060848603121561303f578283fd5b833561304a81613c46565b925060208401359150604084013561306181613c5b565b809150509250925092565b600080600060408486031215613080578283fd5b833567ffffffffffffffff80821115613097578485fd5b818601915086601f8301126130aa578485fd5b8135818111156130b8578586fd5b87602080830285010111156130cb578586fd5b6020928301955093505084013561306181613c5b565b6000602082840312156130f2578081fd5b8135612f4d81613c5b565b60006020828403121561310e578081fd5b8151612f4d81613c5b565b60006020828403121561312a578081fd5b5035919050565b60008060408385031215613143578182fd5b82359150602083013561315581613c46565b809150509250929050565b60008060408385031215613172578182fd5b50508035926020909101359150565b60008060208385031215613193578182fd5b823567ffffffffffffffff808211156131aa578384fd5b818501915085601f8301126131bd578384fd5b8135818111156131cb578485fd5b8660208285010111156131dc578485fd5b60209290920196919550909350505050565b600080600080600080600080610100898b03121561320a578182fd5b883561321581613c46565b9750602089013561322581613c46565b9650604089013561323581613c46565b9550606089013594506080890135935060a089013561325381613c69565b979a969950949793969295929450505060c08201359160e0013590565b600060208284031215613281578081fd5b815167ffffffffffffffff80821115613298578283fd5b818401915084601f8301126132ab578283fd5b8151818111156132bd576132bd613c30565b604051601f8201601f1916810160200183811182821017156132e1576132e1613c30565b6040528181528382016020018710156132f8578485fd5b613309826020830160208701613bd3565b9695505050505050565b600060208284031215613324578081fd5b5051919050565b6000806040838503121561333d578182fd5b82359150602083013561315581613c5b565b600060208284031215613360578081fd5b8151612f4d81613c69565b60008151808452613383816020860160208601613bd3565b601f01601f19169290920160200192915050565b6000828483379101908152919050565b600082516133b9818460208701613bd3565b9190910192915050565b6001600160a01b0391909116815260200190565b6001600160a01b0392831681529116602082015260400190565b6001600160a01b039b8c168152998b1660208b0152978a1660408a01526060890196909652608088019490945260a087019290925260c086015260e0850152841661010084015283166101208301529091166101408201526101600190565b6001600160a01b039384168152919092166020820152604081019190915260600190565b6001600160a01b039586168152938516602085015260408401929092526060830152909116608082015260a00190565b6001600160a01b0397881681529590961660208601526040850193909352606084019190915260ff16608083015260a082015260c081019190915260e00190565b6001600160a01b03929092168252602082015260400190565b6001600160a01b03949094168452602084019290925260408301521515606082015260800190565b604080825283519082018190526000906020906060840190828701845b82811015613561578151151584529284019290840190600101613543565b5050508381038285015284518082528282019080840283018401878501865b838110156135ae57601f1986840301855261359c83835161336b565b94870194925090860190600101613580565b50909998505050505050505050565b901515815260200190565b90815260200190565b600060208252611a5d602083018461336b565b602080825260159082015274426f72696e674d6174683a20556e646572666c6f7760581b604082015260600190565b602080825260139082015272105b1c9958591e481a5b9a5d1a585b1a5cd959606a1b604082015260600190565b60208082526022908201527f456e756d657261626c655365743a20696e646578206f7574206f6620626f756e604082015261647360f01b606082015260800190565b6020808252602f908201527f416363657373436f6e74726f6c3a2073656e646572206d75737420626520616e60408201526e0818591b5a5b881d1bc819dc985b9d608a1b606082015260800190565b60208082526026908201527f4f776e61626c653a206e6577206f776e657220697320746865207a65726f206160408201526564647265737360d01b606082015260800190565b6020808252601c908201527f426f72696e674d6174683a2075696e74313238204f766572666c6f7700000000604082015260600190565b60208082526030908201527f416363657373436f6e74726f6c3a2073656e646572206d75737420626520616e60408201526f2061646d696e20746f207265766f6b6560801b606082015260800190565b60208082526018908201527f426f72696e674d6174683a20416464204f766572666c6f770000000000000000604082015260600190565b6020808252600f908201526e125b98dbdc9c9958dd081a5b9c1d5d608a1b604082015260600190565b6020808252818101527f4f776e61626c653a2063616c6c6572206973206e6f7420746865206f776e6572604082015260600190565b60208082526023908201527f5472616e7366657248656c7065723a204554485f5452414e534645525f46414960408201526213115160ea1b606082015260800190565b6020808252601f908201527f5265656e7472616e637947756172643a207265656e7472616e742063616c6c00604082015260600190565b60208082526018908201527f426f72696e674d6174683a204d756c204f766572666c6f770000000000000000604082015260600190565b6020808252601f908201527f5472616e7366657248656c7065723a2063616e6e6f74207472616e7366657200604082015260600190565b6020808252602f908201527f416363657373436f6e74726f6c3a2063616e206f6e6c792072656e6f756e636560408201526e103937b632b9903337b91039b2b63360891b606082015260800190565b602080825260149082015273426f72696e674d6174683a20446976207a65726f60601b604082015260600190565b6001600160801b0393909316835290151560208301521515604082015260600190565b6001600160801b0392831681529116602082015260400190565b918252602082015260400190565b92835260208301919091526001600160801b0316604082015260600190565b6000808335601e19843603018112613a18578283fd5b83018035915067ffffffffffffffff821115613a32578283fd5b602001915036819003821315613a4757600080fd5b9250929050565b60008219821115613a6157613a61613c1a565b500190565b600082613a8157634e487b7160e01b81526012600452602481fd5b500490565b80825b6001808611613a985750613ac3565b818704821115613aaa57613aaa613c1a565b80861615613ab757918102915b9490941c938002613a89565b94509492505050565b6000611a5d60001960ff851684600082613ae857506001612f4d565b81613af557506000612f4d565b8160018114613b0b5760028114613b1557613b42565b6001915050612f4d565b60ff841115613b2657613b26613c1a565b6001841b915084821115613b3c57613b3c613c1a565b50612f4d565b5060208310610133831016604e8410600b8410161715613b75575081810a83811115613b7057613b70613c1a565b612f4d565b613b828484846001613a86565b808604821115613b9457613b94613c1a565b02949350505050565b6000816000190483118215151615613bb757613bb7613c1a565b500290565b600082821015613bce57613bce613c1a565b500390565b60005b83811015613bee578181015183820152602001613bd6565b838111156129f65750506000910152565b6000600019821415613c1357613c13613c1a565b5060010190565b634e487b7160e01b600052601160045260246000fd5b634e487b7160e01b600052604160045260246000fd5b6001600160a01b03811681146121b557600080fd5b80151581146121b557600080fd5b60ff811681146121b557600080fdfe9d49f397ae9ef1a834b569acb967799a367061e305932181a44f5773da873bfd97667070c54ef182b0f5858b034beac1b6f3089aa2d3188bb1e8929f4fa9b9299f2df0fed2c77648de5860a4cc508cd0818c85b8b8a1ab4ceeef8d981c8956a6a26469706673582212205f36d273a696bc356f0623e9ee711ee101933d07928630b6e527e82df2e0a76664736f6c63430008000033",
  "devdoc": {
    "kind": "dev",
    "methods": {
      "addAdminRole(address)": {
        "details": "The sender must have the admin role.",
        "params": {
          "_address": "EOA or contract receiving the new role."
        }
      },
      "addMinterRole(address)": {
        "details": "The sender must have the admin role",
        "params": {
          "_address": "EOA or contract receiving the new role"
        }
      },
      "addOperatorRole(address)": {
        "details": "The sender must have the admin role",
        "params": {
          "_address": "EOA or contract receiving the new role"
        }
      },
      "addSmartContractRole(address)": {
        "details": "The sender must have the admin role",
        "params": {
          "_address": "EOA or contract receiving the new role"
        }
      },
      "auctionEnded()": {
        "returns": {
          "_0": "auctionEnded True if sold out or time has ended."
        }
      },
      "auctionSuccessful()": {
        "returns": {
          "_0": "auctionSuccessful True if the commitmentsTotal is equal or higher than goal."
        }
      },
      "batch(bytes[],bool)": {
        "params": {
          "calls": "An array of inputs for each call.",
          "revertOnFail": "If True then reverts after a failed call and stops doing further calls."
        },
        "returns": {
          "results": "An array with the returned data of each function call, mapped one-to-one to `calls`. F1: External is ok here because this is the batch function, adding it to a batch makes no sense F2: Calls in the batch may be payable, delegatecall operates in the same context, so each call in the batch has access to msg.value C3: The length of the loop is fully under user control, so can't be exploited C7: Delegatecall is only used on the same contract, so it's safe",
          "successes": "An array indicating the success of a call, mapped one-to-one to `calls`."
        }
      },
      "finalize()": {
        "details": "Must be called after crowdsale ends, to do some extra finalization work. Calls the contracts finalization function."
      },
      "finalizeTimeExpired()": {
        "returns": {
          "_0": "True if 7 days have passed since the end of the auction"
        }
      },
      "finalized()": {
        "returns": {
          "_0": "bool True if sale has been finalised."
        }
      },
      "getRoleAdmin(bytes32)": {
        "details": "Returns the admin role that controls `role`. See {grantRole} and {revokeRole}. To change a role's admin, use {_setRoleAdmin}."
      },
      "getRoleMember(bytes32,uint256)": {
        "details": "Returns one of the accounts that have `role`. `index` must be a value between 0 and {getRoleMemberCount}, non-inclusive. Role bearers are not sorted in any particular way, and their ordering may change at any point. WARNING: When using {getRoleMember} and {getRoleMemberCount}, make sure you perform all queries on the same block. See the following https://forum.openzeppelin.com/t/iterating-over-elements-on-enumerableset-in-openzeppelin-contracts/2296[forum post] for more information."
      },
      "getRoleMemberCount(bytes32)": {
        "details": "Returns the number of accounts that have `role`. Can be used together with {getRoleMember} to enumerate all bearers of a role."
      },
      "grantRole(bytes32,address)": {
        "details": "Grants `role` to `account`. If `account` had not been already granted `role`, emits a {RoleGranted} event. Requirements: - the caller must have ``role``'s admin role."
      },
      "hasAdminRole(address)": {
        "params": {
          "_address": "EOA or contract being checked."
        },
        "returns": {
          "_0": "bool True if the account has the role or false if it does not."
        }
      },
      "hasMinterRole(address)": {
        "params": {
          "_address": "EOA or contract being checked"
        },
        "returns": {
          "_0": "bool True if the account has the role or false if it does not"
        }
      },
      "hasOperatorRole(address)": {
        "params": {
          "_address": "EOA or contract being checked"
        },
        "returns": {
          "_0": "bool True if the account has the role or false if it does not"
        }
      },
      "hasRole(bytes32,address)": {
        "details": "Returns `true` if `account` has been granted `role`."
      },
      "hasSmartContractRole(address)": {
        "params": {
          "_address": "EOA or contract being checked"
        },
        "returns": {
          "_0": "bool True if the account has the role or false if it does not"
        }
      },
      "initAccessControls(address)": {
        "params": {
          "_admin": "Admins address."
        }
      },
      "initMarket(bytes)": {
        "params": {
          "_data": "Encoded data for initialization."
        }
      },
      "isOpen()": {
        "returns": {
          "_0": "isOpen True if the crowdsale is open, false otherwise."
        }
      },
      "owner()": {
        "details": "Returns the address of the current owner."
      },
      "removeAdminRole(address)": {
        "details": "The sender must have the admin role.",
        "params": {
          "_address": "EOA or contract affected."
        }
      },
      "removeMinterRole(address)": {
        "details": "The sender must have the admin role",
        "params": {
          "_address": "EOA or contract affected"
        }
      },
      "removeOperatorRole(address)": {
        "details": "The sender must have the admin role",
        "params": {
          "_address": "EOA or contract affected"
        }
      },
      "removeSmartContractRole(address)": {
        "details": "The sender must have the admin role",
        "params": {
          "_address": "EOA or contract affected"
        }
      },
      "renounceOwnership()": {
        "details": "Leaves the contract without owner. It will not be possible to call `onlyOwner` functions anymore. Can only be called by the current owner. NOTE: Renouncing ownership will leave the contract without an owner, thereby removing any functionality that is only available to the owner."
      },
      "renounceRole(bytes32,address)": {
        "details": "Revokes `role` from the calling account. Roles are often managed via {grantRole} and {revokeRole}: this function's purpose is to provide a mechanism for accounts to lose their privileges if they are compromised (such as when a trusted device is misplaced). If the calling account had been granted `role`, emits a {RoleRevoked} event. Requirements: - the caller must be `account`."
      },
      "revokeRole(bytes32,address)": {
        "details": "Revokes `role` from `account`. If `account` had been granted `role`, emits a {RoleRevoked} event. Requirements: - the caller must have ``role``'s admin role."
      },
      "setAuctionPrice(uint256,uint256)": {
        "params": {
          "_goal": "Minimum amount raised and goal for the auction.",
          "_rate": "Price per token."
        }
      },
      "setAuctionTime(uint256,uint256)": {
        "params": {
          "_endTime": "Auction end time.",
          "_startTime": "Auction start time."
        }
      },
      "setAuctionWallet(address)": {
        "params": {
          "_wallet": "Auction wallet is where funds will be sent."
        }
      },
      "tokensClaimable(address)": {
        "returns": {
          "claimerCommitment": "How many tokens the user is able to claim."
        }
      },
      "transferOwnership(address)": {
        "details": "Transfers ownership of the contract to a new account (`newOwner`). Can only be called by the current owner."
      },
      "withdrawTokens(address)": {
        "details": "Withdraw tokens only after crowdsale ends.",
        "params": {
          "beneficiary": "Whose tokens will be withdrawn."
        }
      }
    },
    "stateVariables": {
      "marketTemplate": {
        "details": "For different marketplace types, this must be incremented."
      }
    },
    "version": 1
  },
  "userdoc": {
    "events": {
      "MinterRoleGranted(address,address)": {
        "notice": "Events for adding and removing various roles"
      }
    },
    "kind": "user",
    "methods": {
      "MINTER_ROLE()": {
        "notice": "Role definitions"
      },
      "addAdminRole(address)": {
        "notice": "Grants the admin role to an address."
      },
      "addMinterRole(address)": {
        "notice": "Grants the minter role to an address"
      },
      "addOperatorRole(address)": {
        "notice": "Grants the operator role to an address"
      },
      "addSmartContractRole(address)": {
        "notice": "Grants the smart contract role to an address"
      },
      "auctionEnded()": {
        "notice": "Checks if the sale has ended."
      },
      "auctionSuccessful()": {
        "notice": "Checks if the sale minimum amount was raised."
      },
      "batch(bytes[],bool)": {
        "notice": "Allows batched call to self (this contract)."
      },
      "finalize()": {
        "notice": "Manually finalizes the Crowdsale."
      },
      "finalized()": {
        "notice": "Checks if the sale has been finalised."
      },
      "hasAdminRole(address)": {
        "notice": "Used to check whether an address has the admin role."
      },
      "hasMinterRole(address)": {
        "notice": "Used to check whether an address has the minter role"
      },
      "hasOperatorRole(address)": {
        "notice": "Used to check whether an address has the operator role"
      },
      "hasSmartContractRole(address)": {
        "notice": "Used to check whether an address has the smart contract role"
      },
      "initAccessControls(address)": {
        "notice": "Initializes access controls."
      },
      "initMarket(bytes)": {
        "notice": "Decodes and hands Crowdsale data to the initCrowdsale function."
      },
      "isOpen()": {
        "notice": "Checks if the sale is open."
      },
      "marketTemplate()": {
        "notice": "FLYBYMarket template id for the factory contract."
      },
      "permitToken(address,address,address,uint256,uint256,uint8,bytes32,bytes32)": {
        "notice": "Call wrapper that performs `ERC20.permit` on `token`. Lookup `IERC20.permit`. F6: Parameters can be used front-run the permit and the user's permit will fail (due to nonce or other revert) if part of a batch this could be used to grief once as the second call would not need the permit"
      },
      "removeAdminRole(address)": {
        "notice": "Removes the admin role from an address."
      },
      "removeMinterRole(address)": {
        "notice": "Removes the minter role from an address"
      },
      "removeOperatorRole(address)": {
        "notice": "Removes the operator role from an address"
      },
      "removeSmartContractRole(address)": {
        "notice": "Removes the smart contract role from an address"
      },
      "setAuctionPrice(uint256,uint256)": {
        "notice": "Admin can set auction price through this function."
      },
      "setAuctionTime(uint256,uint256)": {
        "notice": "Admin can set start and end time through this function."
      },
      "setAuctionWallet(address)": {
        "notice": "Admin can set the auction wallet through this function."
      },
      "tokensClaimable(address)": {
        "notice": "Adjusts users commitment depending on amount already claimed and unclaimed tokens left."
      },
      "withdrawTokens(address)": {
        "notice": "Withdraws bought tokens, or returns commitment if the sale is unsuccessful."
      }
    },
    "version": 1
  },
  "storageLayout": {
    "storage": [
      {
        "astId": 7955,
        "contract": "contracts/Auctions/PrivateSale.sol:PrivateSale",
        "label": "_roles",
        "offset": 0,
        "slot": "0",
        "type": "t_mapping(t_bytes32,t_struct(RoleData)7950_storage)"
      },
      {
        "astId": 215,
        "contract": "contracts/Auctions/PrivateSale.sol:PrivateSale",
        "label": "initAccess",
        "offset": 0,
        "slot": "1",
        "type": "t_bool"
      },
      {
        "astId": 8223,
        "contract": "contracts/Auctions/PrivateSale.sol:PrivateSale",
        "label": "_owner",
        "offset": 1,
        "slot": "1",
        "type": "t_address"
      },
      {
        "astId": 10731,
        "contract": "contracts/Auctions/PrivateSale.sol:PrivateSale",
        "label": "_status",
        "offset": 0,
        "slot": "2",
        "type": "t_uint256"
      },
      {
        "astId": 2172,
        "contract": "contracts/Auctions/PrivateSale.sol:PrivateSale",
        "label": "marketPrice",
        "offset": 0,
        "slot": "3",
        "type": "t_struct(MarketPrice)2169_storage"
      },
      {
        "astId": 2182,
        "contract": "contracts/Auctions/PrivateSale.sol:PrivateSale",
        "label": "marketInfo",
        "offset": 0,
        "slot": "4",
        "type": "t_struct(MarketInfo)2179_storage"
      },
      {
        "astId": 2192,
        "contract": "contracts/Auctions/PrivateSale.sol:PrivateSale",
        "label": "marketStatus",
        "offset": 0,
        "slot": "7",
        "type": "t_struct(MarketStatus)2189_storage"
      },
      {
        "astId": 2194,
        "contract": "contracts/Auctions/PrivateSale.sol:PrivateSale",
        "label": "auctionToken",
        "offset": 0,
        "slot": "8",
        "type": "t_address"
      },
      {
        "astId": 2196,
        "contract": "contracts/Auctions/PrivateSale.sol:PrivateSale",
        "label": "wallet",
        "offset": 0,
        "slot": "9",
        "type": "t_address_payable"
      },
      {
        "astId": 2198,
        "contract": "contracts/Auctions/PrivateSale.sol:PrivateSale",
        "label": "paymentCurrency",
        "offset": 0,
        "slot": "10",
        "type": "t_address"
      },
      {
        "astId": 2200,
        "contract": "contracts/Auctions/PrivateSale.sol:PrivateSale",
        "label": "pointList",
        "offset": 0,
        "slot": "11",
        "type": "t_address"
      },
      {
        "astId": 2204,
        "contract": "contracts/Auctions/PrivateSale.sol:PrivateSale",
        "label": "commitments",
        "offset": 0,
        "slot": "12",
        "type": "t_mapping(t_address,t_uint256)"
      },
      {
        "astId": 2208,
        "contract": "contracts/Auctions/PrivateSale.sol:PrivateSale",
        "label": "claimed",
        "offset": 0,
        "slot": "13",
        "type": "t_mapping(t_address,t_uint256)"
      }
    ],
    "types": {
      "t_address": {
        "encoding": "inplace",
        "label": "address",
        "numberOfBytes": "20"
      },
      "t_address_payable": {
        "encoding": "inplace",
        "label": "address payable",
        "numberOfBytes": "20"
      },
      "t_array(t_bytes32)dyn_storage": {
        "base": "t_bytes32",
        "encoding": "dynamic_array",
        "label": "bytes32[]",
        "numberOfBytes": "32"
      },
      "t_bool": {
        "encoding": "inplace",
        "label": "bool",
        "numberOfBytes": "1"
      },
      "t_bytes32": {
        "encoding": "inplace",
        "label": "bytes32",
        "numberOfBytes": "32"
      },
      "t_mapping(t_address,t_uint256)": {
        "encoding": "mapping",
        "key": "t_address",
        "label": "mapping(address => uint256)",
        "numberOfBytes": "32",
        "value": "t_uint256"
      },
      "t_mapping(t_bytes32,t_struct(RoleData)7950_storage)": {
        "encoding": "mapping",
        "key": "t_bytes32",
        "label": "mapping(bytes32 => struct AccessControl.RoleData)",
        "numberOfBytes": "32",
        "value": "t_struct(RoleData)7950_storage"
      },
      "t_mapping(t_bytes32,t_uint256)": {
        "encoding": "mapping",
        "key": "t_bytes32",
        "label": "mapping(bytes32 => uint256)",
        "numberOfBytes": "32",
        "value": "t_uint256"
      },
      "t_struct(AddressSet)10401_storage": {
        "encoding": "inplace",
        "label": "struct EnumerableSet.AddressSet",
        "members": [
          {
            "astId": 10400,
            "contract": "contracts/Auctions/PrivateSale.sol:PrivateSale",
            "label": "_inner",
            "offset": 0,
            "slot": "0",
            "type": "t_struct(Set)10124_storage"
          }
        ],
        "numberOfBytes": "64"
      },
      "t_struct(MarketInfo)2179_storage": {
        "encoding": "inplace",
        "label": "struct PrivateSale.MarketInfo",
        "members": [
          {
            "astId": 2174,
            "contract": "contracts/Auctions/PrivateSale.sol:PrivateSale",
            "label": "startTime",
            "offset": 0,
            "slot": "0",
            "type": "t_uint256"
          },
          {
            "astId": 2176,
            "contract": "contracts/Auctions/PrivateSale.sol:PrivateSale",
            "label": "endTime",
            "offset": 0,
            "slot": "1",
            "type": "t_uint256"
          },
          {
            "astId": 2178,
            "contract": "contracts/Auctions/PrivateSale.sol:PrivateSale",
            "label": "totalTokens",
            "offset": 0,
            "slot": "2",
            "type": "t_uint128"
          }
        ],
        "numberOfBytes": "96"
      },
      "t_struct(MarketPrice)2169_storage": {
        "encoding": "inplace",
        "label": "struct PrivateSale.MarketPrice",
        "members": [
          {
            "astId": 2166,
            "contract": "contracts/Auctions/PrivateSale.sol:PrivateSale",
            "label": "rate",
            "offset": 0,
            "slot": "0",
            "type": "t_uint128"
          },
          {
            "astId": 2168,
            "contract": "contracts/Auctions/PrivateSale.sol:PrivateSale",
            "label": "goal",
            "offset": 16,
            "slot": "0",
            "type": "t_uint128"
          }
        ],
        "numberOfBytes": "32"
      },
      "t_struct(MarketStatus)2189_storage": {
        "encoding": "inplace",
        "label": "struct PrivateSale.MarketStatus",
        "members": [
          {
            "astId": 2184,
            "contract": "contracts/Auctions/PrivateSale.sol:PrivateSale",
            "label": "commitmentsTotal",
            "offset": 0,
            "slot": "0",
            "type": "t_uint128"
          },
          {
            "astId": 2186,
            "contract": "contracts/Auctions/PrivateSale.sol:PrivateSale",
            "label": "finalized",
            "offset": 16,
            "slot": "0",
            "type": "t_bool"
          },
          {
            "astId": 2188,
            "contract": "contracts/Auctions/PrivateSale.sol:PrivateSale",
            "label": "usePointList",
            "offset": 17,
            "slot": "0",
            "type": "t_bool"
          }
        ],
        "numberOfBytes": "32"
      },
      "t_struct(RoleData)7950_storage": {
        "encoding": "inplace",
        "label": "struct AccessControl.RoleData",
        "members": [
          {
            "astId": 7947,
            "contract": "contracts/Auctions/PrivateSale.sol:PrivateSale",
            "label": "members",
            "offset": 0,
            "slot": "0",
            "type": "t_struct(AddressSet)10401_storage"
          },
          {
            "astId": 7949,
            "contract": "contracts/Auctions/PrivateSale.sol:PrivateSale",
            "label": "adminRole",
            "offset": 0,
            "slot": "2",
            "type": "t_bytes32"
          }
        ],
        "numberOfBytes": "96"
      },
      "t_struct(Set)10124_storage": {
        "encoding": "inplace",
        "label": "struct EnumerableSet.Set",
        "members": [
          {
            "astId": 10119,
            "contract": "contracts/Auctions/PrivateSale.sol:PrivateSale",
            "label": "_values",
            "offset": 0,
            "slot": "0",
            "type": "t_array(t_bytes32)dyn_storage"
          },
          {
            "astId": 10123,
            "contract": "contracts/Auctions/PrivateSale.sol:PrivateSale",
            "label": "_indexes",
            "offset": 0,
            "slot": "1",
            "type": "t_mapping(t_bytes32,t_uint256)"
          }
        ],
        "numberOfBytes": "64"
      },
      "t_uint128": {
        "encoding": "inplace",
        "label": "uint128",
        "numberOfBytes": "16"
      },
      "t_uint256": {
        "encoding": "inplace",
        "label": "uint256",
        "numberOfBytes": "32"
      }
    }
  }
}