{
  "address": "0x05e4f6610237be5631e7e7F35a6b6FA4450724a8",
  "abi": [
    {
      "anonymous": false,
      "inputs": [
        {
          "indexed": true,
          "internalType": "address",
          "name": "owner",
          "type": "address"
        },
        {
          "indexed": true,
          "internalType": "address",
          "name": "spender",
          "type": "address"
        },
        {
          "indexed": false,
          "internalType": "uint256",
          "name": "value",
          "type": "uint256"
        }
      ],
      "name": "Approval",
      "type": "event"
    },
    {
      "anonymous": false,
      "inputs": [
        {
          "indexed": true,
          "internalType": "address",
          "name": "delegator",
          "type": "address"
        },
        {
          "indexed": true,
          "internalType": "address",
          "name": "fromDelegate",
          "type": "address"
        },
        {
          "indexed": true,
          "internalType": "address",
          "name": "toDelegate",
          "type": "address"
        }
      ],
      "name": "DelegateChanged",
      "type": "event"
    },
    {
      "anonymous": false,
      "inputs": [
        {
          "indexed": true,
          "internalType": "address",
          "name": "delegate",
          "type": "address"
        },
        {
          "indexed": false,
          "internalType": "uint256",
          "name": "previousBalance",
          "type": "uint256"
        },
        {
          "indexed": false,
          "internalType": "uint256",
          "name": "newBalance",
          "type": "uint256"
        }
      ],
      "name": "DelegateVotesChanged",
      "type": "event"
    },
    {
      "anonymous": false,
      "inputs": [
        {
          "indexed": true,
          "internalType": "bytes32",
          "name": "role",
          "type": "bytes32"
        },
        {
          "indexed": true,
          "internalType": "bytes32",
          "name": "previousAdminRole",
          "type": "bytes32"
        },
        {
          "indexed": true,
          "internalType": "bytes32",
          "name": "newAdminRole",
          "type": "bytes32"
        }
      ],
      "name": "RoleAdminChanged",
      "type": "event"
    },
    {
      "anonymous": false,
      "inputs": [
        {
          "indexed": true,
          "internalType": "bytes32",
          "name": "role",
          "type": "bytes32"
        },
        {
          "indexed": true,
          "internalType": "address",
          "name": "account",
          "type": "address"
        },
        {
          "indexed": true,
          "internalType": "address",
          "name": "sender",
          "type": "address"
        }
      ],
      "name": "RoleGranted",
      "type": "event"
    },
    {
      "anonymous": false,
      "inputs": [
        {
          "indexed": true,
          "internalType": "bytes32",
          "name": "role",
          "type": "bytes32"
        },
        {
          "indexed": true,
          "internalType": "address",
          "name": "account",
          "type": "address"
        },
        {
          "indexed": true,
          "internalType": "address",
          "name": "sender",
          "type": "address"
        }
      ],
      "name": "RoleRevoked",
      "type": "event"
    },
    {
      "anonymous": false,
      "inputs": [
        {
          "indexed": true,
          "internalType": "address",
          "name": "from",
          "type": "address"
        },
        {
          "indexed": true,
          "internalType": "address",
          "name": "to",
          "type": "address"
        },
        {
          "indexed": false,
          "internalType": "uint256",
          "name": "value",
          "type": "uint256"
        }
      ],
      "name": "Transfer",
      "type": "event"
    },
    {
      "inputs": [],
      "name": "DEFAULT_ADMIN_ROLE",
      "outputs": [
        {
          "internalType": "bytes32",
          "name": "",
          "type": "bytes32"
        }
      ],
      "stateMutability": "view",
      "type": "function"
    },
    {
      "inputs": [],
      "name": "DELEGATION_TYPEHASH",
      "outputs": [
        {
          "internalType": "bytes32",
          "name": "",
          "type": "bytes32"
        }
      ],
      "stateMutability": "view",
      "type": "function"
    },
    {
      "inputs": [],
      "name": "DOMAIN_SEPARATOR",
      "outputs": [
        {
          "internalType": "bytes32",
          "name": "",
          "type": "bytes32"
        }
      ],
      "stateMutability": "view",
      "type": "function"
    },
    {
      "inputs": [],
      "name": "DOMAIN_TYPEHASH",
      "outputs": [
        {
          "internalType": "bytes32",
          "name": "",
          "type": "bytes32"
        }
      ],
      "stateMutability": "view",
      "type": "function"
    },
    {
      "inputs": [],
      "name": "MINTER_ROLE",
      "outputs": [
        {
          "internalType": "bytes32",
          "name": "",
          "type": "bytes32"
        }
      ],
      "stateMutability": "view",
      "type": "function"
    },
    {
      "inputs": [
        {
          "internalType": "address",
          "name": "owner",
          "type": "address"
        },
        {
          "internalType": "address",
          "name": "spender",
          "type": "address"
        }
      ],
      "name": "allowance",
      "outputs": [
        {
          "internalType": "uint256",
          "name": "",
          "type": "uint256"
        }
      ],
      "stateMutability": "view",
      "type": "function"
    },
    {
      "inputs": [
        {
          "internalType": "address",
          "name": "spender",
          "type": "address"
        },
        {
          "internalType": "uint256",
          "name": "amount",
          "type": "uint256"
        }
      ],
      "name": "approve",
      "outputs": [
        {
          "internalType": "bool",
          "name": "",
          "type": "bool"
        }
      ],
      "stateMutability": "nonpayable",
      "type": "function"
    },
    {
      "inputs": [
        {
          "internalType": "address",
          "name": "account",
          "type": "address"
        }
      ],
      "name": "balanceOf",
      "outputs": [
        {
          "internalType": "uint256",
          "name": "",
          "type": "uint256"
        }
      ],
      "stateMutability": "view",
      "type": "function"
    },
    {
      "inputs": [
        {
          "internalType": "address",
          "name": "",
          "type": "address"
        },
        {
          "internalType": "uint32",
          "name": "",
          "type": "uint32"
        }
      ],
      "name": "checkpoints",
      "outputs": [
        {
          "internalType": "uint32",
          "name": "fromBlock",
          "type": "uint32"
        },
        {
          "internalType": "uint256",
          "name": "votes",
          "type": "uint256"
        }
      ],
      "stateMutability": "view",
      "type": "function"
    },
    {
      "inputs": [],
      "name": "decimals",
      "outputs": [
        {
          "internalType": "uint8",
          "name": "",
          "type": "uint8"
        }
      ],
      "stateMutability": "view",
      "type": "function"
    },
    {
      "inputs": [
        {
          "internalType": "address",
          "name": "spender",
          "type": "address"
        },
        {
          "internalType": "uint256",
          "name": "subtractedValue",
          "type": "uint256"
        }
      ],
      "name": "decreaseAllowance",
      "outputs": [
        {
          "internalType": "bool",
          "name": "",
          "type": "bool"
        }
      ],
      "stateMutability": "nonpayable",
      "type": "function"
    },
    {
      "inputs": [
        {
          "internalType": "address",
          "name": "delegatee",
          "type": "address"
        }
      ],
      "name": "delegate",
      "outputs": [],
      "stateMutability": "nonpayable",
      "type": "function"
    },
    {
      "inputs": [
        {
          "internalType": "address",
          "name": "delegatee",
          "type": "address"
        },
        {
          "internalType": "uint256",
          "name": "nonce",
          "type": "uint256"
        },
        {
          "internalType": "uint256",
          "name": "expiry",
          "type": "uint256"
        },
        {
          "internalType": "uint8",
          "name": "v",
          "type": "uint8"
        },
        {
          "internalType": "bytes32",
          "name": "r",
          "type": "bytes32"
        },
        {
          "internalType": "bytes32",
          "name": "s",
          "type": "bytes32"
        }
      ],
      "name": "delegateBySig",
      "outputs": [],
      "stateMutability": "nonpayable",
      "type": "function"
    },
    {
      "inputs": [
        {
          "internalType": "address",
          "name": "delegator",
          "type": "address"
        }
      ],
      "name": "delegates",
      "outputs": [
        {
          "internalType": "address",
          "name": "",
          "type": "address"
        }
      ],
      "stateMutability": "view",
      "type": "function"
    },
    {
      "inputs": [
        {
          "internalType": "address",
          "name": "account",
          "type": "address"
        }
      ],
      "name": "getCurrentVotes",
      "outputs": [
        {
          "internalType": "uint256",
          "name": "",
          "type": "uint256"
        }
      ],
      "stateMutability": "view",
      "type": "function"
    },
    {
      "inputs": [
        {
          "internalType": "string",
          "name": "_name",
          "type": "string"
        },
        {
          "internalType": "string",
          "name": "_symbol",
          "type": "string"
        },
        {
          "internalType": "address",
          "name": "_owner",
          "type": "address"
        },
        {
          "internalType": "uint256",
          "name": "_initialSupply",
          "type": "uint256"
        }
      ],
      "name": "getInitData",
      "outputs": [
        {
          "internalType": "bytes",
          "name": "_data",
          "type": "bytes"
        }
      ],
      "stateMutability": "pure",
      "type": "function"
    },
    {
      "inputs": [
        {
          "internalType": "address",
          "name": "account",
          "type": "address"
        },
        {
          "internalType": "uint256",
          "name": "blockNumber",
          "type": "uint256"
        }
      ],
      "name": "getPriorVotes",
      "outputs": [
        {
          "internalType": "uint256",
          "name": "",
          "type": "uint256"
        }
      ],
      "stateMutability": "view",
      "type": "function"
    },
    {
      "inputs": [
        {
          "internalType": "bytes32",
          "name": "role",
          "type": "bytes32"
        }
      ],
      "name": "getRoleAdmin",
      "outputs": [
        {
          "internalType": "bytes32",
          "name": "",
          "type": "bytes32"
        }
      ],
      "stateMutability": "view",
      "type": "function"
    },
    {
      "inputs": [
        {
          "internalType": "bytes32",
          "name": "role",
          "type": "bytes32"
        },
        {
          "internalType": "uint256",
          "name": "index",
          "type": "uint256"
        }
      ],
      "name": "getRoleMember",
      "outputs": [
        {
          "internalType": "address",
          "name": "",
          "type": "address"
        }
      ],
      "stateMutability": "view",
      "type": "function"
    },
    {
      "inputs": [
        {
          "internalType": "bytes32",
          "name": "role",
          "type": "bytes32"
        }
      ],
      "name": "getRoleMemberCount",
      "outputs": [
        {
          "internalType": "uint256",
          "name": "",
          "type": "uint256"
        }
      ],
      "stateMutability": "view",
      "type": "function"
    },
    {
      "inputs": [
        {
          "internalType": "bytes32",
          "name": "role",
          "type": "bytes32"
        },
        {
          "internalType": "address",
          "name": "account",
          "type": "address"
        }
      ],
      "name": "grantRole",
      "outputs": [],
      "stateMutability": "nonpayable",
      "type": "function"
    },
    {
      "inputs": [
        {
          "internalType": "bytes32",
          "name": "role",
          "type": "bytes32"
        },
        {
          "internalType": "address",
          "name": "account",
          "type": "address"
        }
      ],
      "name": "hasRole",
      "outputs": [
        {
          "internalType": "bool",
          "name": "",
          "type": "bool"
        }
      ],
      "stateMutability": "view",
      "type": "function"
    },
    {
      "inputs": [
        {
          "internalType": "address",
          "name": "spender",
          "type": "address"
        },
        {
          "internalType": "uint256",
          "name": "addedValue",
          "type": "uint256"
        }
      ],
      "name": "increaseAllowance",
      "outputs": [
        {
          "internalType": "bool",
          "name": "",
          "type": "bool"
        }
      ],
      "stateMutability": "nonpayable",
      "type": "function"
    },
    {
      "inputs": [
        {
          "internalType": "bytes",
          "name": "_data",
          "type": "bytes"
        }
      ],
      "name": "init",
      "outputs": [],
      "stateMutability": "payable",
      "type": "function"
    },
    {
      "inputs": [
        {
          "internalType": "bytes",
          "name": "_data",
          "type": "bytes"
        }
      ],
      "name": "initToken",
      "outputs": [],
      "stateMutability": "nonpayable",
      "type": "function"
    },
    {
      "inputs": [
        {
          "internalType": "string",
          "name": "_name",
          "type": "string"
        },
        {
          "internalType": "string",
          "name": "_symbol",
          "type": "string"
        },
        {
          "internalType": "address",
          "name": "_owner",
          "type": "address"
        },
        {
          "internalType": "uint256",
          "name": "_initialSupply",
          "type": "uint256"
        }
      ],
      "name": "initToken",
      "outputs": [],
      "stateMutability": "nonpayable",
      "type": "function"
    },
    {
      "inputs": [
        {
          "internalType": "address",
          "name": "_to",
          "type": "address"
        },
        {
          "internalType": "uint256",
          "name": "_amount",
          "type": "uint256"
        }
      ],
      "name": "mint",
      "outputs": [],
      "stateMutability": "nonpayable",
      "type": "function"
    },
    {
      "inputs": [],
      "name": "name",
      "outputs": [
        {
          "internalType": "string",
          "name": "",
          "type": "string"
        }
      ],
      "stateMutability": "view",
      "type": "function"
    },
    {
      "inputs": [
        {
          "internalType": "address",
          "name": "",
          "type": "address"
        }
      ],
      "name": "nonces",
      "outputs": [
        {
          "internalType": "uint256",
          "name": "",
          "type": "uint256"
        }
      ],
      "stateMutability": "view",
      "type": "function"
    },
    {
      "inputs": [
        {
          "internalType": "address",
          "name": "",
          "type": "address"
        }
      ],
      "name": "numCheckpoints",
      "outputs": [
        {
          "internalType": "uint32",
          "name": "",
          "type": "uint32"
        }
      ],
      "stateMutability": "view",
      "type": "function"
    },
    {
      "inputs": [
        {
          "internalType": "address",
          "name": "owner_",
          "type": "address"
        },
        {
          "internalType": "address",
          "name": "spender",
          "type": "address"
        },
        {
          "internalType": "uint256",
          "name": "value",
          "type": "uint256"
        },
        {
          "internalType": "uint256",
          "name": "deadline",
          "type": "uint256"
        },
        {
          "internalType": "uint8",
          "name": "v",
          "type": "uint8"
        },
        {
          "internalType": "bytes32",
          "name": "r",
          "type": "bytes32"
        },
        {
          "internalType": "bytes32",
          "name": "s",
          "type": "bytes32"
        }
      ],
      "name": "permit",
      "outputs": [],
      "stateMutability": "nonpayable",
      "type": "function"
    },
    {
      "inputs": [
        {
          "internalType": "bytes32",
          "name": "role",
          "type": "bytes32"
        },
        {
          "internalType": "address",
          "name": "account",
          "type": "address"
        }
      ],
      "name": "renounceRole",
      "outputs": [],
      "stateMutability": "nonpayable",
      "type": "function"
    },
    {
      "inputs": [
        {
          "internalType": "bytes32",
          "name": "role",
          "type": "bytes32"
        },
        {
          "internalType": "address",
          "name": "account",
          "type": "address"
        }
      ],
      "name": "revokeRole",
      "outputs": [],
      "stateMutability": "nonpayable",
      "type": "function"
    },
    {
      "inputs": [
        {
          "internalType": "address",
          "name": "",
          "type": "address"
        }
      ],
      "name": "sigNonces",
      "outputs": [
        {
          "internalType": "uint256",
          "name": "",
          "type": "uint256"
        }
      ],
      "stateMutability": "view",
      "type": "function"
    },
    {
      "inputs": [],
      "name": "symbol",
      "outputs": [
        {
          "internalType": "string",
          "name": "",
          "type": "string"
        }
      ],
      "stateMutability": "view",
      "type": "function"
    },
    {
      "inputs": [],
      "name": "tokenTemplate",
      "outputs": [
        {
          "internalType": "uint256",
          "name": "",
          "type": "uint256"
        }
      ],
      "stateMutability": "view",
      "type": "function"
    },
    {
      "inputs": [],
      "name": "totalSupply",
      "outputs": [
        {
          "internalType": "uint256",
          "name": "",
          "type": "uint256"
        }
      ],
      "stateMutability": "view",
      "type": "function"
    },
    {
      "inputs": [
        {
          "internalType": "address",
          "name": "recipient",
          "type": "address"
        },
        {
          "internalType": "uint256",
          "name": "amount",
          "type": "uint256"
        }
      ],
      "name": "transfer",
      "outputs": [
        {
          "internalType": "bool",
          "name": "",
          "type": "bool"
        }
      ],
      "stateMutability": "nonpayable",
      "type": "function"
    },
    {
      "inputs": [
        {
          "internalType": "address",
          "name": "sender",
          "type": "address"
        },
        {
          "internalType": "address",
          "name": "recipient",
          "type": "address"
        },
        {
          "internalType": "uint256",
          "name": "amount",
          "type": "uint256"
        }
      ],
      "name": "transferFrom",
      "outputs": [
        {
          "internalType": "bool",
          "name": "",
          "type": "bool"
        }
      ],
      "stateMutability": "nonpayable",
      "type": "function"
    }
  ],
  "transactionHash": "0x56aeca0a28faf833c939015554e4d9b9b123652d85f0dc29bc465e88e8eeb283",
  "args": [],
  "solcInputHash": "0bb2481c0a33b756a35d8c75b9e1dee6",
  "bytecode": "0x608060405234801561001057600080fd5b50612c2a806100206000396000f3fe6080604052600436106102305760003560e01c8063782d6fe11161012e578063c3cda520116100ab578063dd62ed3e1161006f578063dd62ed3e1461065e578063e7a324dc1461067e578063f1127ed814610693578063f21f007c146106c1578063f990ccd7146106e157610230565b8063c3cda520146105c9578063ca15c873146105e9578063d505accf14610609578063d539139314610629578063d547741f1461063e57610230565b806395d89b41116100f257806395d89b411461053f578063a217fddf14610554578063a457c2d714610569578063a9059cbb14610589578063b4b5ea57146105a957610230565b8063782d6fe11461049f5780637ecebe00146104bf5780638dc7df72146104df5780639010d07c146104ff57806391d148541461051f57610230565b80633644e515116101bc578063587cde1e11610180578063587cde1e146103e55780635c19a95c1461041257806360b1cc80146104325780636fcfff451461045257806370a082311461047f57610230565b80633644e5151461035d57806336568abe14610372578063395093511461039257806340c10f19146103b25780634ddf47d4146103d257610230565b806320606b701161020357806320606b70146102c457806323b872dd146102d9578063248a9ca3146102f95780632f2ff15d14610319578063313ce5671461033b57610230565b806306fdde03146102355780630814d3dd14610260578063095ea7b31461028257806318160ddd146102af575b600080fd5b34801561024157600080fd5b5061024a610701565b6040516102579190612421565b60405180910390f35b34801561026c57600080fd5b50610275610793565b604051610257919061235f565b34801561028e57600080fd5b506102a261029d36600461204e565b610798565b6040516102579190612354565b3480156102bb57600080fd5b506102756107b6565b3480156102d057600080fd5b506102756107bc565b3480156102e557600080fd5b506102a26102f4366004611fa1565b6107e0565b34801561030557600080fd5b50610275610314366004612107565b610867565b34801561032557600080fd5b5061033961033436600461211f565b61087f565b005b34801561034757600080fd5b506103506108d0565b60405161025791906129d2565b34801561036957600080fd5b506102756108d9565b34801561037e57600080fd5b5061033961038d36600461211f565b6108df565b34801561039e57600080fd5b506102a26103ad36600461204e565b610921565b3480156103be57600080fd5b506103396103cd36600461204e565b61096f565b6103396103e0366004612164565b6108cc565b3480156103f157600080fd5b50610405610400366004611f4d565b6109e6565b6040516102579190612340565b34801561041e57600080fd5b5061033961042d366004611f4d565b610a04565b34801561043e57600080fd5b5061033961044d366004612164565b610a11565b34801561045e57600080fd5b5061047261046d366004611f4d565b610a3e565b60405161025791906129ab565b34801561048b57600080fd5b5061027561049a366004611f4d565b610a56565b3480156104ab57600080fd5b506102756104ba36600461204e565b610a71565b3480156104cb57600080fd5b506102756104da366004611f4d565b610c96565b3480156104eb57600080fd5b506103396104fa36600461222d565b610ca8565b34801561050b57600080fd5b5061040561051a366004612143565b610cf7565b34801561052b57600080fd5b506102a261053a36600461211f565b610d16565b34801561054b57600080fd5b5061024a610d2e565b34801561056057600080fd5b50610275610d3d565b34801561057557600080fd5b506102a261058436600461204e565b610d42565b34801561059557600080fd5b506102a26105a436600461204e565b610daa565b3480156105b557600080fd5b506102756105c4366004611f4d565b610dbe565b3480156105d557600080fd5b506103396105e4366004612079565b610e32565b3480156105f557600080fd5b50610275610604366004612107565b61100c565b34801561061557600080fd5b50610339610624366004611fe1565b611023565b34801561063557600080fd5b506102756111d9565b34801561064a57600080fd5b5061033961065936600461211f565b6111fd565b34801561066a57600080fd5b50610275610679366004611f69565b611237565b34801561068a57600080fd5b50610275611262565b34801561069f57600080fd5b506106b36106ae3660046120d2565b611286565b6040516102579291906129bc565b3480156106cd57600080fd5b5061024a6106dc3660046121a4565b6112b3565b3480156106ed57600080fd5b506102756106fc366004611f4d565b6112eb565b60606006805461071090612ab7565b80601f016020809104026020016040519081016040528092919081815260200182805461073c90612ab7565b80156107895780601f1061075e57610100808354040283529160200191610789565b820191906000526020600020905b81548152906001019060200180831161076c57829003601f168201915b5050505050905090565b600381565b60006107ac6107a56112fd565b8484611301565b5060015b92915050565b60055490565b7f8cad95687ba82c2ce50e74f7b754645e5117c3a5bec8151c0726d5857980a86681565b60006107ed8484846113b5565b61085d846107f96112fd565b61085885604051806060016040528060288152602001612ba8602891396001600160a01b038a166000908152600460205260408120906108376112fd565b6001600160a01b0316815260208101919091526040016000205491906114ca565b611301565b5060019392505050565b6000818152602081905260409020600201545b919050565b60008281526020819052604090206002015461089d9061053a6112fd565b6108c25760405162461bcd60e51b81526004016108b990612544565b60405180910390fd5b6108cc82826114f6565b5050565b60085460ff1690565b60015481565b6108e76112fd565b6001600160a01b0316816001600160a01b0316146109175760405162461bcd60e51b81526004016108b9906128e0565b6108cc828261155f565b60006107ac61092e6112fd565b84610858856004600061093f6112fd565b6001600160a01b03908116825260208083019390935260409182016000908120918c1681529252902054906115c8565b61099b7f9f2df0fed2c77648de5860a4cc508cd0818c85b8b8a1ab4ceeef8d981c8956a661053a6112fd565b6109b75760405162461bcd60e51b81526004016108b990612705565b6109c182826115f7565b6001600160a01b038083166000908152600960205260408120546108cc9216836116b7565b6001600160a01b039081166000908152600960205260409020541690565b610a0e338261181b565b50565b6000808080610a228587018761222d565b9350935093509350610a3684848484610ca8565b505050505050565b600b6020526000908152604090205463ffffffff1681565b6001600160a01b031660009081526002602052604090205490565b6000438210610a925760405162461bcd60e51b81526004016108b990612855565b6001600160a01b0383166000908152600b602052604090205463ffffffff1680610ac05760009150506107b0565b6001600160a01b0384166000908152600a602052604081208491610ae5600185612a66565b63ffffffff90811682526020820192909252604001600020541611610b4e576001600160a01b0384166000908152600a6020526040812090610b28600184612a66565b63ffffffff1663ffffffff168152602001908152602001600020600101549150506107b0565b6001600160a01b0384166000908152600a6020908152604080832083805290915290205463ffffffff16831015610b895760009150506107b0565b600080610b97600184612a66565b90505b8163ffffffff168163ffffffff161115610c5f5760006002610bbc8484612a66565b610bc69190612a20565b610bd09083612a66565b6001600160a01b0388166000908152600a6020908152604080832063ffffffff8086168552908352928190208151808301909252805490931680825260019093015491810191909152919250871415610c33576020015194506107b09350505050565b805163ffffffff16871115610c4a57819350610c58565b610c55600183612a66565b92505b5050610b9a565b506001600160a01b0385166000908152600a6020908152604080832063ffffffff9094168352929052206001015491505092915050565b60036020526000908152604090205481565b610cb284846118b3565b610cbd6000836108c2565b610ce77f9f2df0fed2c77648de5860a4cc508cd0818c85b8b8a1ab4ceeef8d981c8956a6836108c2565b610cf133826115f7565b50505050565b6000828152602081905260408120610d0f9083611976565b9392505050565b6000828152602081905260408120610d0f9083611982565b60606007805461071090612ab7565b600081565b60006107ac610d4f6112fd565b8461085885604051806060016040528060258152602001612bd06025913960046000610d796112fd565b6001600160a01b03908116825260208083019390935260409182016000908120918d168152925290205491906114ca565b60006107ac610db76112fd565b84846113b5565b6001600160a01b0381166000908152600b602052604081205463ffffffff1680610de9576000610d0f565b6001600160a01b0383166000908152600a6020526040812090610e0d600184612a66565b63ffffffff1663ffffffff168152602001908152602001600020600101549392505050565b60007f8cad95687ba82c2ce50e74f7b754645e5117c3a5bec8151c0726d5857980a866610e5d610701565b80519060200120610e6c611997565b30604051602001610e8094939291906123c0565b60405160208183030381529060405280519060200120905060007fe48329057bfd03d55e49b547132e39cffd9c1820ad7b9d4c5307691425d15adf888888604051602001610ed1949392919061239c565b60405160208183030381529060405280519060200120905060008282604051602001610efe929190612325565b604051602081830303815290604052805190602001209050600060018288888860405160008152602001604052604051610f3b9493929190612403565b6020604051602081039080840390855afa158015610f5d573d6000803e3d6000fd5b5050604051601f1901519150506001600160a01b038116610f905760405162461bcd60e51b81526004016108b99061289b565b6001600160a01b0381166000908152600c60205260408120805491610fb483612af2565b919050558914610fd65760405162461bcd60e51b81526004016108b990612799565b87421115610ff65760405162461bcd60e51b81526004016108b9906124ff565b611000818b61181b565b50505050505050505050565b60008181526020819052604081206107b09061199b565b6001600160a01b0387166110495760405162461bcd60e51b81526004016108b99061281e565b8342106110685760405162461bcd60e51b81526004016108b9906126dd565b600060405180604001604052806002815260200161190160f01b8152506001547f6e71edae12b1b97f4d1f60370fef10105fa2faae0126114a169c64845d6126c960001b8a8a8a600360008f6001600160a01b03166001600160a01b0316815260200190815260200160002060008154809291906110e590612af2565b919050558b6040516020016110ff96959493929190612368565b60405160208183030381529060405280519060200120604051602001611127939291906122fe565b6040516020818303038152906040528051906020012090506000600182868686604051600081526020016040526040516111649493929190612403565b6020604051602081039080840390855afa158015611186573d6000803e3d6000fd5b505050602060405103519050886001600160a01b0316816001600160a01b0316146111c35760405162461bcd60e51b81526004016108b990612966565b6111ce898989611301565b505050505050505050565b7f9f2df0fed2c77648de5860a4cc508cd0818c85b8b8a1ab4ceeef8d981c8956a681565b60008281526020819052604090206002015461121b9061053a6112fd565b6109175760405162461bcd60e51b81526004016108b99061268d565b6001600160a01b03918216600090815260046020908152604080832093909416825291909152205490565b7fe48329057bfd03d55e49b547132e39cffd9c1820ad7b9d4c5307691425d15adf81565b600a6020908152600092835260408084209091529082529020805460019091015463ffffffff9091169082565b60608686868686866040516020016112d096959493929190612434565b60405160208183030381529060405290509695505050505050565b600c6020526000908152604090205481565b3390565b6001600160a01b0383166113275760405162461bcd60e51b81526004016108b9906127da565b6001600160a01b03821661134d5760405162461bcd60e51b81526004016108b990612593565b6001600160a01b0380841660008181526004602090815260408083209487168084529490915290819020849055517f8c5be1e5ebec7d5bd14f71427d1e84f3dd0314c0f7b2291e5b200ac8c7c3b925906113a890859061235f565b60405180910390a3505050565b6001600160a01b0383166113db5760405162461bcd60e51b81526004016108b990612754565b6001600160a01b0382166114015760405162461bcd60e51b81526004016108b9906124bc565b61140c8383836119a6565b61144981604051806060016040528060268152602001612b4f602691396001600160a01b03861660009081526002602052604090205491906114ca565b6001600160a01b03808516600090815260026020526040808220939093559084168152205461147890826115c8565b6001600160a01b0380841660008181526002602052604090819020939093559151908516907fddf252ad1be2c89b69c2b068fc378daa952ba7f163c4a11628f55a4df523b3ef906113a890859061235f565b600081848411156114ee5760405162461bcd60e51b81526004016108b99190612421565b505050900390565b600082815260208190526040902061150e90826119d8565b156108cc5761151b6112fd565b6001600160a01b0316816001600160a01b0316837f2f8788117e7eff1d82e926ec794901d17c78024a50270940304540a733656f0d60405160405180910390a45050565b600082815260208190526040902061157790826119ed565b156108cc576115846112fd565b6001600160a01b0316816001600160a01b0316837ff6391f5c32d9c69d2a47ea670b442974b53935d1edc7fd64eb21e047a839171b60405160405180910390a45050565b6000806115d583856129e0565b905083811015610d0f5760405162461bcd60e51b81526004016108b9906125d5565b6001600160a01b03821661161d5760405162461bcd60e51b81526004016108b99061292f565b611629600083836119a6565b60055461163690826115c8565b6005556001600160a01b03821660009081526002602052604090205461165c90826115c8565b6001600160a01b0383166000818152600260205260408082209390935591519091907fddf252ad1be2c89b69c2b068fc378daa952ba7f163c4a11628f55a4df523b3ef906116ab90859061235f565b60405180910390a35050565b816001600160a01b0316836001600160a01b0316141580156116d95750600081115b15611816576001600160a01b0383161561177c576001600160a01b0383166000908152600b602052604081205463ffffffff16908161171957600061175c565b6001600160a01b0385166000908152600a602052604081209061173d600185612a66565b63ffffffff1663ffffffff168152602001908152602001600020600101545b9050600061176a8285611a02565b905061177886848484611a2e565b5050505b6001600160a01b03821615611816576001600160a01b0382166000908152600b602052604081205463ffffffff1690816117b75760006117fa565b6001600160a01b0384166000908152600a60205260408120906117db600185612a66565b63ffffffff1663ffffffff168152602001908152602001600020600101545b9050600061180882856115c8565b9050610a3685848484611a2e565b505050565b6001600160a01b038083166000908152600960205260409020548116908216811461181657600061184b84610a56565b6001600160a01b0385811660008181526009602052604080822080546001600160a01b031916898616908117909155905194955093928616927f3134e8a2e6d97e929a7e54011ea5485d7d196dd5f0ba4d4ef95803e8e3fc257f9190a4610cf18284836116b7565b600854610100900460ff16156118db5760405162461bcd60e51b81526004016108b990612643565b81516118ee906006906020850190611ddb565b508051611902906007906020840190611ddb565b506008805460ff191660121790556040514690611947907f47e79534a245952e8b16893a336b85a3d9ea9fa8c573f3d803afb92a7946921890839030906020016123e4565b60408051601f19818403018152919052805160209091012060015550506008805461ff00191661010017905550565b6000610d0f8383611bcf565b6000610d0f836001600160a01b038416611c28565b4690565b60006107b082611c40565b6001600160a01b038083166000908152600960205260409020546119cd91859116836116b7565b611816838383611816565b6000610d0f836001600160a01b038416611c44565b6000610d0f836001600160a01b038416611c8e565b600082821115611a245760405162461bcd60e51b81526004016108b99061260c565b610d0f8284612a4f565b6000611a5243604051806060016040528060338152602001612b7560339139611dab565b905060008463ffffffff16118015611aac57506001600160a01b0385166000908152600a6020526040812063ffffffff831691611a90600188612a66565b63ffffffff908116825260208201929092526040016000205416145b15611af5576001600160a01b0385166000908152600a602052604081208391611ad6600188612a66565b63ffffffff168152602081019190915260400160002060010155611b85565b60408051808201825263ffffffff838116825260208083018681526001600160a01b038a166000908152600a83528581208a851682529092529390209151825463ffffffff191691161781559051600191820155611b549085906129f8565b6001600160a01b0386166000908152600b60205260409020805463ffffffff191663ffffffff929092169190911790555b846001600160a01b03167fdec2bacdd2f05b59de34da9b523dff8be42e5e38e818c82fdb0bae774387a7248484604051611bc092919061299d565b60405180910390a25050505050565b81546000908210611bf25760405162461bcd60e51b81526004016108b99061247a565b826000018281548110611c1557634e487b7160e01b600052603260045260246000fd5b9060005260206000200154905092915050565b60009081526001919091016020526040902054151590565b5490565b6000611c508383611c28565b611c86575081546001818101845560008481526020808220909301849055845484825282860190935260409020919091556107b0565b5060006107b0565b60008181526001830160205260408120548015611da1576000611cb2600183612a4f565b8554909150600090611cc690600190612a4f565b90506000866000018281548110611ced57634e487b7160e01b600052603260045260246000fd5b9060005260206000200154905080876000018481548110611d1e57634e487b7160e01b600052603260045260246000fd5b600091825260209091200155611d358360016129e0565b60008281526001890160205260409020558654879080611d6557634e487b7160e01b600052603160045260246000fd5b600190038181906000526020600020016000905590558660010160008781526020019081526020016000206000905560019450505050506107b0565b60009150506107b0565b6000816401000000008410611dd35760405162461bcd60e51b81526004016108b99190612421565b509192915050565b828054611de790612ab7565b90600052602060002090601f016020900481019282611e095760008555611e4f565b82601f10611e2257805160ff1916838001178555611e4f565b82800160010185558215611e4f579182015b82811115611e4f578251825591602001919060010190611e34565b50611e5b929150611e5f565b5090565b5b80821115611e5b5760008155600101611e60565b60008083601f840112611e85578182fd5b50813567ffffffffffffffff811115611e9c578182fd5b602083019150836020828501011115611eb457600080fd5b9250929050565b600082601f830112611ecb578081fd5b813567ffffffffffffffff80821115611ee657611ee6612b23565b604051601f8301601f191681016020018281118282101715611f0a57611f0a612b23565b604052828152848301602001861015611f21578384fd5b82602086016020830137918201602001929092529392505050565b803560ff8116811461087a57600080fd5b600060208284031215611f5e578081fd5b8135610d0f81612b39565b60008060408385031215611f7b578081fd5b8235611f8681612b39565b91506020830135611f9681612b39565b809150509250929050565b600080600060608486031215611fb5578081fd5b8335611fc081612b39565b92506020840135611fd081612b39565b929592945050506040919091013590565b600080600080600080600060e0888a031215611ffb578283fd5b873561200681612b39565b9650602088013561201681612b39565b9550604088013594506060880135935061203260808901611f3c565b925060a0880135915060c0880135905092959891949750929550565b60008060408385031215612060578182fd5b823561206b81612b39565b946020939093013593505050565b60008060008060008060c08789031215612091578182fd5b863561209c81612b39565b955060208701359450604087013593506120b860608801611f3c565b92506080870135915060a087013590509295509295509295565b600080604083850312156120e4578182fd5b82356120ef81612b39565b9150602083013563ffffffff81168114611f96578182fd5b600060208284031215612118578081fd5b5035919050565b60008060408385031215612131578182fd5b823591506020830135611f9681612b39565b60008060408385031215612155578182fd5b50508035926020909101359150565b60008060208385031215612176578182fd5b823567ffffffffffffffff81111561218c578283fd5b61219885828601611e74565b90969095509350505050565b600080600080600080608087890312156121bc578384fd5b863567ffffffffffffffff808211156121d3578586fd5b6121df8a838b01611e74565b909850965060208901359150808211156121f7578586fd5b5061220489828a01611e74565b909550935050604087013561221881612b39565b80925050606087013590509295509295509295565b60008060008060808587031215612242578182fd5b843567ffffffffffffffff80821115612259578384fd5b61226588838901611ebb565b9550602087013591508082111561227a578384fd5b5061228787828801611ebb565b935050604085013561229881612b39565b9396929550929360600135925050565b600081518084526122c0816020860160208601612a8b565b601f01601f19169290920160200192915050565b60008284528282602086013780602084860101526020601f19601f85011685010190509392505050565b60008451612310818460208901612a8b565b91909101928352506020820152604001919050565b61190160f01b81526002810192909252602282015260420190565b6001600160a01b0391909116815260200190565b901515815260200190565b90815260200190565b9586526001600160a01b0394851660208701529290931660408501526060840152608083019190915260a082015260c00190565b9384526001600160a01b039290921660208401526040830152606082015260800190565b938452602084019290925260408301526001600160a01b0316606082015260800190565b92835260208301919091526001600160a01b0316604082015260600190565b93845260ff9290921660208401526040830152606082015260800190565b600060208252610d0f60208301846122a8565b60006080825261244860808301888a6122d4565b828103602084015261245b8187896122d4565b6001600160a01b03959095166040840152505060600152949350505050565b60208082526022908201527f456e756d657261626c655365743a20696e646578206f7574206f6620626f756e604082015261647360f01b606082015260800190565b60208082526023908201527f45524332303a207472616e7366657220746f20746865207a65726f206164647260408201526265737360e81b606082015260800190565b60208082526025908201527f4642533a3a64656c656761746542795369673a207369676e61747572652065786040820152641c1a5c995960da1b606082015260800190565b6020808252602f908201527f416363657373436f6e74726f6c3a2073656e646572206d75737420626520616e60408201526e0818591b5a5b881d1bc819dc985b9d608a1b606082015260800190565b60208082526022908201527f45524332303a20617070726f766520746f20746865207a65726f206164647265604082015261737360f01b606082015260800190565b6020808252601b908201527f536166654d6174683a206164646974696f6e206f766572666c6f770000000000604082015260600190565b6020808252601e908201527f536166654d6174683a207375627472616374696f6e206f766572666c6f770000604082015260600190565b6020808252602a908201527f45524332303a20746f6b656e2068617320616c7265616479206265656e20696e604082015269697469616c697a65642160b01b606082015260800190565b60208082526030908201527f416363657373436f6e74726f6c3a2073656e646572206d75737420626520616e60408201526f2061646d696e20746f207265766f6b6560801b606082015260800190565b6020808252600e908201526d115490cc8c0e88115e1c1a5c995960921b604082015260600190565b6020808252602f908201527f466f726269745370616365546f6b656e3a206d7573742068617665206d696e7460408201526e195c881c9bdb19481d1bc81b5a5b9d608a1b606082015260800190565b60208082526025908201527f45524332303a207472616e736665722066726f6d20746865207a65726f206164604082015264647265737360d81b606082015260800190565b60208082526021908201527f4642533a3a64656c656761746542795369673a20696e76616c6964206e6f6e636040820152606560f81b606082015260800190565b60208082526024908201527f45524332303a20617070726f76652066726f6d20746865207a65726f206164646040820152637265737360e01b606082015260800190565b60208082526018908201527f45524332303a204f776e65722063616e6e6f7420626520300000000000000000604082015260600190565b60208082526026908201527f4642533a3a6765745072696f72566f7465733a206e6f742079657420646574656040820152651c9b5a5b995960d21b606082015260800190565b60208082526025908201527f4642533a3a64656c656761746542795369673a20696e76616c6964207369676e604082015264617475726560d81b606082015260800190565b6020808252602f908201527f416363657373436f6e74726f6c3a2063616e206f6e6c792072656e6f756e636560408201526e103937b632b9903337b91039b2b63360891b606082015260800190565b6020808252601f908201527f45524332303a206d696e7420746f20746865207a65726f206164647265737300604082015260600190565b60208082526018908201527f45524332303a20496e76616c6964205369676e61747572650000000000000000604082015260600190565b918252602082015260400190565b63ffffffff91909116815260200190565b63ffffffff929092168252602082015260400190565b60ff91909116815260200190565b600082198211156129f3576129f3612b0d565b500190565b600063ffffffff808316818516808303821115612a1757612a17612b0d565b01949350505050565b600063ffffffff80841680612a4357634e487b7160e01b83526012600452602483fd5b92169190910492915050565b600082821015612a6157612a61612b0d565b500390565b600063ffffffff83811690831681811015612a8357612a83612b0d565b039392505050565b60005b83811015612aa6578181015183820152602001612a8e565b83811115610cf15750506000910152565b600281046001821680612acb57607f821691505b60208210811415612aec57634e487b7160e01b600052602260045260246000fd5b50919050565b6000600019821415612b0657612b06612b0d565b5060010190565b634e487b7160e01b600052601160045260246000fd5b634e487b7160e01b600052604160045260246000fd5b6001600160a01b0381168114610a0e57600080fdfe45524332303a207472616e7366657220616d6f756e7420657863656564732062616c616e63654642533a3a5f7772697465436865636b706f696e743a20626c6f636b206e756d6265722065786365656473203332206269747345524332303a207472616e7366657220616d6f756e74206578636565647320616c6c6f77616e636545524332303a2064656372656173656420616c6c6f77616e63652062656c6f77207a65726fa2646970667358221220613a386d53bca34232fe43dd4c4ef0d99cfe95ecf5d12dd78c29f3fc5cf3919564736f6c63430008000033",
  "devdoc": {
    "kind": "dev",
    "methods": {
      "getRoleAdmin(bytes32)": {
        "details": "Returns the admin role that controls `role`. See {grantRole} and {revokeRole}. To change a role's admin, use {_setRoleAdmin}."
      },
      "getRoleMember(bytes32,uint256)": {
        "details": "Returns one of the accounts that have `role`. `index` must be a value between 0 and {getRoleMemberCount}, non-inclusive. Role bearers are not sorted in any particular way, and their ordering may change at any point. WARNING: When using {getRoleMember} and {getRoleMemberCount}, make sure you perform all queries on the same block. See the following https://forum.openzeppelin.com/t/iterating-over-elements-on-enumerableset-in-openzeppelin-contracts/2296[forum post] for more information."
      },
      "getRoleMemberCount(bytes32)": {
        "details": "Returns the number of accounts that have `role`. Can be used together with {getRoleMember} to enumerate all bearers of a role."
      },
      "grantRole(bytes32,address)": {
        "details": "Grants `role` to `account`. If `account` had not been already granted `role`, emits a {RoleGranted} event. Requirements: - the caller must have ``role``'s admin role."
      },
      "hasRole(bytes32,address)": {
        "details": "Returns `true` if `account` has been granted `role`."
      },
      "renounceRole(bytes32,address)": {
        "details": "Revokes `role` from the calling account. Roles are often managed via {grantRole} and {revokeRole}: this function's purpose is to provide a mechanism for accounts to lose their privileges if they are compromised (such as when a trusted device is misplaced). If the calling account had been granted `role`, emits a {RoleRevoked} event. Requirements: - the caller must be `account`."
      },
      "revokeRole(bytes32,address)": {
        "details": "Revokes `role` from `account`. If `account` had been granted `role`, emits a {RoleRevoked} event. Requirements: - the caller must have ``role``'s admin role."
      }
    },
    "version": 1
  },
  "userdoc": {
    "kind": "user",
    "methods": {},
    "version": 1
  },
  "storageLayout": {
    "storage": [
      {
        "astId": 12488,
        "contract": "contracts/Tokens/ForbitSpaceToken.sol:ForbitSpaceToken",
        "label": "_roles",
        "offset": 0,
        "slot": "0",
        "type": "t_mapping(t_bytes32,t_struct(RoleData)12483_storage)"
      },
      {
        "astId": 15307,
        "contract": "contracts/Tokens/ForbitSpaceToken.sol:ForbitSpaceToken",
        "label": "DOMAIN_SEPARATOR",
        "offset": 0,
        "slot": "1",
        "type": "t_bytes32"
      },
      {
        "astId": 15311,
        "contract": "contracts/Tokens/ForbitSpaceToken.sol:ForbitSpaceToken",
        "label": "_balances",
        "offset": 0,
        "slot": "2",
        "type": "t_mapping(t_address,t_uint256)"
      },
      {
        "astId": 15315,
        "contract": "contracts/Tokens/ForbitSpaceToken.sol:ForbitSpaceToken",
        "label": "nonces",
        "offset": 0,
        "slot": "3",
        "type": "t_mapping(t_address,t_uint256)"
      },
      {
        "astId": 15321,
        "contract": "contracts/Tokens/ForbitSpaceToken.sol:ForbitSpaceToken",
        "label": "_allowances",
        "offset": 0,
        "slot": "4",
        "type": "t_mapping(t_address,t_mapping(t_address,t_uint256))"
      },
      {
        "astId": 15323,
        "contract": "contracts/Tokens/ForbitSpaceToken.sol:ForbitSpaceToken",
        "label": "_totalSupply",
        "offset": 0,
        "slot": "5",
        "type": "t_uint256"
      },
      {
        "astId": 15325,
        "contract": "contracts/Tokens/ForbitSpaceToken.sol:ForbitSpaceToken",
        "label": "_name",
        "offset": 0,
        "slot": "6",
        "type": "t_string_storage"
      },
      {
        "astId": 15327,
        "contract": "contracts/Tokens/ForbitSpaceToken.sol:ForbitSpaceToken",
        "label": "_symbol",
        "offset": 0,
        "slot": "7",
        "type": "t_string_storage"
      },
      {
        "astId": 15329,
        "contract": "contracts/Tokens/ForbitSpaceToken.sol:ForbitSpaceToken",
        "label": "_decimals",
        "offset": 0,
        "slot": "8",
        "type": "t_uint8"
      },
      {
        "astId": 15331,
        "contract": "contracts/Tokens/ForbitSpaceToken.sol:ForbitSpaceToken",
        "label": "_initialized",
        "offset": 1,
        "slot": "8",
        "type": "t_bool"
      },
      {
        "astId": 16248,
        "contract": "contracts/Tokens/ForbitSpaceToken.sol:ForbitSpaceToken",
        "label": "_delegates",
        "offset": 0,
        "slot": "9",
        "type": "t_mapping(t_address,t_address)"
      },
      {
        "astId": 16260,
        "contract": "contracts/Tokens/ForbitSpaceToken.sol:ForbitSpaceToken",
        "label": "checkpoints",
        "offset": 0,
        "slot": "10",
        "type": "t_mapping(t_address,t_mapping(t_uint32,t_struct(Checkpoint)16253_storage))"
      },
      {
        "astId": 16264,
        "contract": "contracts/Tokens/ForbitSpaceToken.sol:ForbitSpaceToken",
        "label": "numCheckpoints",
        "offset": 0,
        "slot": "11",
        "type": "t_mapping(t_address,t_uint32)"
      },
      {
        "astId": 16278,
        "contract": "contracts/Tokens/ForbitSpaceToken.sol:ForbitSpaceToken",
        "label": "sigNonces",
        "offset": 0,
        "slot": "12",
        "type": "t_mapping(t_address,t_uint256)"
      }
    ],
    "types": {
      "t_address": {
        "encoding": "inplace",
        "label": "address",
        "numberOfBytes": "20"
      },
      "t_array(t_bytes32)dyn_storage": {
        "base": "t_bytes32",
        "encoding": "dynamic_array",
        "label": "bytes32[]",
        "numberOfBytes": "32"
      },
      "t_bool": {
        "encoding": "inplace",
        "label": "bool",
        "numberOfBytes": "1"
      },
      "t_bytes32": {
        "encoding": "inplace",
        "label": "bytes32",
        "numberOfBytes": "32"
      },
      "t_mapping(t_address,t_address)": {
        "encoding": "mapping",
        "key": "t_address",
        "label": "mapping(address => address)",
        "numberOfBytes": "32",
        "value": "t_address"
      },
      "t_mapping(t_address,t_mapping(t_address,t_uint256))": {
        "encoding": "mapping",
        "key": "t_address",
        "label": "mapping(address => mapping(address => uint256))",
        "numberOfBytes": "32",
        "value": "t_mapping(t_address,t_uint256)"
      },
      "t_mapping(t_address,t_mapping(t_uint32,t_struct(Checkpoint)16253_storage))": {
        "encoding": "mapping",
        "key": "t_address",
        "label": "mapping(address => mapping(uint32 => struct ForbitSpaceToken.Checkpoint))",
        "numberOfBytes": "32",
        "value": "t_mapping(t_uint32,t_struct(Checkpoint)16253_storage)"
      },
      "t_mapping(t_address,t_uint256)": {
        "encoding": "mapping",
        "key": "t_address",
        "label": "mapping(address => uint256)",
        "numberOfBytes": "32",
        "value": "t_uint256"
      },
      "t_mapping(t_address,t_uint32)": {
        "encoding": "mapping",
        "key": "t_address",
        "label": "mapping(address => uint32)",
        "numberOfBytes": "32",
        "value": "t_uint32"
      },
      "t_mapping(t_bytes32,t_struct(RoleData)12483_storage)": {
        "encoding": "mapping",
        "key": "t_bytes32",
        "label": "mapping(bytes32 => struct AccessControl.RoleData)",
        "numberOfBytes": "32",
        "value": "t_struct(RoleData)12483_storage"
      },
      "t_mapping(t_bytes32,t_uint256)": {
        "encoding": "mapping",
        "key": "t_bytes32",
        "label": "mapping(bytes32 => uint256)",
        "numberOfBytes": "32",
        "value": "t_uint256"
      },
      "t_mapping(t_uint32,t_struct(Checkpoint)16253_storage)": {
        "encoding": "mapping",
        "key": "t_uint32",
        "label": "mapping(uint32 => struct ForbitSpaceToken.Checkpoint)",
        "numberOfBytes": "32",
        "value": "t_struct(Checkpoint)16253_storage"
      },
      "t_string_storage": {
        "encoding": "bytes",
        "label": "string",
        "numberOfBytes": "32"
      },
      "t_struct(AddressSet)14934_storage": {
        "encoding": "inplace",
        "label": "struct EnumerableSet.AddressSet",
        "members": [
          {
            "astId": 14933,
            "contract": "contracts/Tokens/ForbitSpaceToken.sol:ForbitSpaceToken",
            "label": "_inner",
            "offset": 0,
            "slot": "0",
            "type": "t_struct(Set)14657_storage"
          }
        ],
        "numberOfBytes": "64"
      },
      "t_struct(Checkpoint)16253_storage": {
        "encoding": "inplace",
        "label": "struct ForbitSpaceToken.Checkpoint",
        "members": [
          {
            "astId": 16250,
            "contract": "contracts/Tokens/ForbitSpaceToken.sol:ForbitSpaceToken",
            "label": "fromBlock",
            "offset": 0,
            "slot": "0",
            "type": "t_uint32"
          },
          {
            "astId": 16252,
            "contract": "contracts/Tokens/ForbitSpaceToken.sol:ForbitSpaceToken",
            "label": "votes",
            "offset": 0,
            "slot": "1",
            "type": "t_uint256"
          }
        ],
        "numberOfBytes": "64"
      },
      "t_struct(RoleData)12483_storage": {
        "encoding": "inplace",
        "label": "struct AccessControl.RoleData",
        "members": [
          {
            "astId": 12480,
            "contract": "contracts/Tokens/ForbitSpaceToken.sol:ForbitSpaceToken",
            "label": "members",
            "offset": 0,
            "slot": "0",
            "type": "t_struct(AddressSet)14934_storage"
          },
          {
            "astId": 12482,
            "contract": "contracts/Tokens/ForbitSpaceToken.sol:ForbitSpaceToken",
            "label": "adminRole",
            "offset": 0,
            "slot": "2",
            "type": "t_bytes32"
          }
        ],
        "numberOfBytes": "96"
      },
      "t_struct(Set)14657_storage": {
        "encoding": "inplace",
        "label": "struct EnumerableSet.Set",
        "members": [
          {
            "astId": 14652,
            "contract": "contracts/Tokens/ForbitSpaceToken.sol:ForbitSpaceToken",
            "label": "_values",
            "offset": 0,
            "slot": "0",
            "type": "t_array(t_bytes32)dyn_storage"
          },
          {
            "astId": 14656,
            "contract": "contracts/Tokens/ForbitSpaceToken.sol:ForbitSpaceToken",
            "label": "_indexes",
            "offset": 0,
            "slot": "1",
            "type": "t_mapping(t_bytes32,t_uint256)"
          }
        ],
        "numberOfBytes": "64"
      },
      "t_uint256": {
        "encoding": "inplace",
        "label": "uint256",
        "numberOfBytes": "32"
      },
      "t_uint32": {
        "encoding": "inplace",
        "label": "uint32",
        "numberOfBytes": "4"
      },
      "t_uint8": {
        "encoding": "inplace",
        "label": "uint8",
        "numberOfBytes": "1"
      }
    }
  }
}