{
  "address": "0xCA1387727Efb78e3e9144221369751FBF80C3DD7",
  "abi": [
    {
      "anonymous": false,
      "inputs": [
        {
          "indexed": false,
          "internalType": "address",
          "name": "newAddress",
          "type": "address"
        }
      ],
      "name": "FactoryDeprecated",
      "type": "event"
    },
    {
      "anonymous": false,
      "inputs": [],
      "name": "FlybyInitListFactory",
      "type": "event"
    },
    {
      "anonymous": false,
      "inputs": [
        {
          "indexed": false,
          "internalType": "uint256",
          "name": "oldFee",
          "type": "uint256"
        },
        {
          "indexed": false,
          "internalType": "uint256",
          "name": "newFee",
          "type": "uint256"
        }
      ],
      "name": "MinimumFeeUpdated",
      "type": "event"
    },
    {
      "anonymous": false,
      "inputs": [
        {
          "indexed": true,
          "internalType": "address",
          "name": "operator",
          "type": "address"
        },
        {
          "indexed": true,
          "internalType": "address",
          "name": "addr",
          "type": "address"
        },
        {
          "indexed": false,
          "internalType": "address",
          "name": "pointList",
          "type": "address"
        },
        {
          "indexed": false,
          "internalType": "address",
          "name": "owner",
          "type": "address"
        }
      ],
      "name": "PointListDeployed",
      "type": "event"
    },
    {
      "inputs": [],
      "name": "accessControls",
      "outputs": [
        {
          "internalType": "contract FLYBYAccessControls",
          "name": "",
          "type": "address"
        }
      ],
      "stateMutability": "view",
      "type": "function"
    },
    {
      "inputs": [
        {
          "internalType": "address",
          "name": "_listOwner",
          "type": "address"
        },
        {
          "internalType": "address[]",
          "name": "_accounts",
          "type": "address[]"
        },
        {
          "internalType": "uint256[]",
          "name": "_amounts",
          "type": "uint256[]"
        }
      ],
      "name": "deployPointList",
      "outputs": [
        {
          "internalType": "address",
          "name": "pointList",
          "type": "address"
        }
      ],
      "stateMutability": "payable",
      "type": "function"
    },
    {
      "inputs": [
        {
          "internalType": "address",
          "name": "_newAddress",
          "type": "address"
        }
      ],
      "name": "deprecateFactory",
      "outputs": [],
      "stateMutability": "nonpayable",
      "type": "function"
    },
    {
      "inputs": [],
      "name": "flybyDiv",
      "outputs": [
        {
          "internalType": "address payable",
          "name": "",
          "type": "address"
        }
      ],
      "stateMutability": "view",
      "type": "function"
    },
    {
      "inputs": [
        {
          "internalType": "address",
          "name": "_accessControls",
          "type": "address"
        },
        {
          "internalType": "address",
          "name": "_pointListTemplate",
          "type": "address"
        },
        {
          "internalType": "uint256",
          "name": "_minimumFee",
          "type": "uint256"
        }
      ],
      "name": "initListFactory",
      "outputs": [],
      "stateMutability": "nonpayable",
      "type": "function"
    },
    {
      "inputs": [
        {
          "internalType": "address",
          "name": "",
          "type": "address"
        }
      ],
      "name": "isChild",
      "outputs": [
        {
          "internalType": "bool",
          "name": "",
          "type": "bool"
        }
      ],
      "stateMutability": "view",
      "type": "function"
    },
    {
      "inputs": [
        {
          "internalType": "uint256",
          "name": "",
          "type": "uint256"
        }
      ],
      "name": "lists",
      "outputs": [
        {
          "internalType": "address",
          "name": "",
          "type": "address"
        }
      ],
      "stateMutability": "view",
      "type": "function"
    },
    {
      "inputs": [],
      "name": "minimumFee",
      "outputs": [
        {
          "internalType": "uint256",
          "name": "",
          "type": "uint256"
        }
      ],
      "stateMutability": "view",
      "type": "function"
    },
    {
      "inputs": [],
      "name": "newAddress",
      "outputs": [
        {
          "internalType": "address",
          "name": "",
          "type": "address"
        }
      ],
      "stateMutability": "view",
      "type": "function"
    },
    {
      "inputs": [],
      "name": "numberOfChildren",
      "outputs": [
        {
          "internalType": "uint256",
          "name": "",
          "type": "uint256"
        }
      ],
      "stateMutability": "view",
      "type": "function"
    },
    {
      "inputs": [],
      "name": "pointListTemplate",
      "outputs": [
        {
          "internalType": "address",
          "name": "",
          "type": "address"
        }
      ],
      "stateMutability": "view",
      "type": "function"
    },
    {
      "inputs": [
        {
          "internalType": "address payable",
          "name": "_divaddr",
          "type": "address"
        }
      ],
      "name": "setDividends",
      "outputs": [],
      "stateMutability": "nonpayable",
      "type": "function"
    },
    {
      "inputs": [
        {
          "internalType": "uint256",
          "name": "_minimumFee",
          "type": "uint256"
        }
      ],
      "name": "setMinimumFee",
      "outputs": [],
      "stateMutability": "nonpayable",
      "type": "function"
    },
    {
      "inputs": [
        {
          "internalType": "address",
          "name": "_tokenAddress",
          "type": "address"
        },
        {
          "internalType": "uint256",
          "name": "_tokens",
          "type": "uint256"
        }
      ],
      "name": "transferAnyERC20Token",
      "outputs": [
        {
          "internalType": "bool",
          "name": "success",
          "type": "bool"
        }
      ],
      "stateMutability": "nonpayable",
      "type": "function"
    },
    {
      "stateMutability": "payable",
      "type": "receive"
    }
  ],
  "transactionHash": "0x4ca95cbdf322ee1aef25d054b0cba9d482faaff0fbd18d1b8f9858876e6ff0bb",
  "args": [],
  "solcInputHash": "0bb2481c0a33b756a35d8c75b9e1dee6",
  "bytecode": "0x608060405234801561001057600080fd5b50611080806100206000396000f3fe6080604052600436106100e15760003560e01c806396102cf41161007f578063dc39d06d11610059578063dc39d06d14610206578063de0946af14610233578063e9bb4b6b14610253578063fc91a89714610273576100eb565b806396102cf4146101b15780639e9188ea146101d1578063ccdb3f45146101f1576100eb565b8063534349f5116100bb578063534349f51461015d5780636eb4a74214610172578063726aba7f14610187578063748365ef1461019c576100eb565b8063182a7506146100f05780631a7626e714610112578063424599a31461013d576100eb565b366100eb57600080fd5b600080fd5b3480156100fc57600080fd5b5061011061010b366004610d64565b610293565b005b34801561011e57600080fd5b50610127610378565b6040516101349190610fb7565b60405180910390f35b61015061014b366004610c45565b61037e565b6040516101349190610db5565b34801561016957600080fd5b5061012761067a565b34801561017e57600080fd5b50610150610680565b34801561019357600080fd5b5061015061068f565b3480156101a857600080fd5b5061015061069e565b3480156101bd57600080fd5b506101506101cc366004610d64565b6106ad565b3480156101dd57600080fd5b506101106101ec366004610be9565b6106d7565b3480156101fd57600080fd5b50610150610795565b34801561021257600080fd5b50610226610221366004610d19565b6107a4565b6040516101349190610e72565b34801561023f57600080fd5b5061011061024e366004610be9565b610862565b34801561025f57600080fd5b5061011061026e366004610c05565b61096d565b34801561027f57600080fd5b5061022661028e366004610be9565b610a3c565b60005460405163c395fcb360e01b81526001600160a01b039091169063c395fcb3906102c3903390600401610db5565b60206040518083038186803b1580156102db57600080fd5b505afa1580156102ef573d6000803e3d6000fd5b505050506040513d601f19601f820116820180604052508101906103139190610d44565b6103385760405162461bcd60e51b815260040161032f90610e7d565b60405180910390fd5b7fcc2f49c6214278ae5862935eff953448e8e69118d10abfafaf63ea6aa35255cb6003548260405161036b929190610fc0565b60405180910390a1600355565b60035481565b600060035434101561038f57600080fd5b6001546103a4906001600160a01b0316610a51565b83519091501561052d5760405163283ba19b60e01b81526001600160a01b0382169063283ba19b906103da903090600401610db5565b600060405180830381600087803b1580156103f457600080fd5b505af1158015610408573d6000803e3d6000fd5b5050604051639a80c4a160e01b81526001600160a01b0384169250639a80c4a1915061043a9086908690600401610dfc565b600060405180830381600087803b15801561045457600080fd5b505af1158015610468573d6000803e3d6000fd5b505060405163196545c760e21b81526001600160a01b0384169250636595171c9150610498908790600401610db5565b600060405180830381600087803b1580156104b257600080fd5b505af11580156104c6573d6000803e3d6000fd5b5050604051630dccfe3160e41b81526001600160a01b038416925063dccfe31091506104f6903090600401610db5565b600060405180830381600087803b15801561051057600080fd5b505af1158015610524573d6000803e3d6000fd5b5050505061058c565b60405163283ba19b60e01b81526001600160a01b0382169063283ba19b90610559908790600401610db5565b600060405180830381600087803b15801561057357600080fd5b505af1158015610587573d6000803e3d6000fd5b505050505b6001600160a01b03808216600081815260046020526040808220805460ff1916600190811790915560058054808301825593527f036b6384b5eca791c62761152d0c79bb0604c104a5fb6f4eb0703f3154bb3db090920180546001600160a01b0319168417905590549051919233927f8a13771d198709940307fb40397206144caf6dfef0f59c2951c91c72e98444549261062a9216908990610dc9565b60405180910390a33415610673576006546040516001600160a01b03909116903480156108fc02916000818181858888f19350505050158015610671573d6000803e3d6000fd5b505b9392505050565b60055490565b6006546001600160a01b031681565b6001546001600160a01b031681565b6000546001600160a01b031681565b600581815481106106bd57600080fd5b6000918252602090912001546001600160a01b0316905081565b60005460405163c395fcb360e01b81526001600160a01b039091169063c395fcb390610707903390600401610db5565b60206040518083038186803b15801561071f57600080fd5b505afa158015610733573d6000803e3d6000fd5b505050506040513d601f19601f820116820180604052508101906107579190610d44565b6107735760405162461bcd60e51b815260040161032f90610f70565b600680546001600160a01b0319166001600160a01b0392909216919091179055565b6002546001600160a01b031681565b6000805460405163c395fcb360e01b81526001600160a01b039091169063c395fcb3906107d5903390600401610db5565b60206040518083038186803b1580156107ed57600080fd5b505afa158015610801573d6000803e3d6000fd5b505050506040513d601f19601f820116820180604052508101906108259190610d44565b6108415760405162461bcd60e51b815260040161032f90610ebe565b6006546108599084906001600160a01b031684610aa3565b50600192915050565b60005460405163c395fcb360e01b81526001600160a01b039091169063c395fcb390610892903390600401610db5565b60206040518083038186803b1580156108aa57600080fd5b505afa1580156108be573d6000803e3d6000fd5b505050506040513d601f19601f820116820180604052508101906108e29190610d44565b6108fe5760405162461bcd60e51b815260040161032f90610e7d565b6002546001600160a01b03161561091457600080fd5b7f0ac885cfcac9d1450e80f787dbf9546001fb50414106435b10b1d27b448b8668816040516109439190610db5565b60405180910390a1600280546001600160a01b0319166001600160a01b0392909216919091179055565b600054600160a01b900460ff161561098457600080fd5b6001600160a01b0383166109aa5760405162461bcd60e51b815260040161032f90610f39565b6001600160a01b0382166109d05760405162461bcd60e51b815260040161032f90610f02565b60008054600180546001600160a01b038681166001600160a01b031992831617909255600385905560ff60a01b1991871692169190911716600160a01b1781556040517f63b26ac1aad4c8da53e750a344226f3552aa30ceb19e547deedf1120f897e98d9190a1505050565b60046020526000908152604090205460ff1681565b6000808260601b9050604051733d602d80600a3d3981f3363d3d373d3d3d363d7360601b81528160148201526e5af43d82803e903d91602b57fd5bf360881b60288201526037816000f0949350505050565b600080846001600160a01b031663a9059cbb8585604051602401610ac8929190610de3565b6040516020818303038152906040529060e01b6020820180516001600160e01b038381831617835250505050604051610b019190610d7c565b6000604051808303816000865af19150503d8060008114610b3e576040519150601f19603f3d011682016040523d82523d6000602084013e610b43565b606091505b5091509150818015610b6d575080511580610b6d575080806020019051810190610b6d9190610d44565b610b7657600080fd5b5050505050565b600082601f830112610b8d578081fd5b81356020610ba2610b9d83610ff8565b610fce565b8281528181019085830183850287018401881015610bbe578586fd5b855b85811015610bdc57813584529284019290840190600101610bc0565b5090979650505050505050565b600060208284031215610bfa578081fd5b813561067381611032565b600080600060608486031215610c19578182fd5b8335610c2481611032565b92506020840135610c3481611032565b929592945050506040919091013590565b600080600060608486031215610c59578283fd5b8335610c6481611032565b925060208481013567ffffffffffffffff80821115610c81578485fd5b818701915087601f830112610c94578485fd5b8135610ca2610b9d82610ff8565b81815284810190848601868402860187018c1015610cbe578889fd5b8895505b83861015610ce9578035610cd581611032565b835260019590950194918601918601610cc2565b50965050506040870135925080831115610d01578384fd5b5050610d0f86828701610b7d565b9150509250925092565b60008060408385031215610d2b578182fd5b8235610d3681611032565b946020939093013593505050565b600060208284031215610d55578081fd5b81518015158114610673578182fd5b600060208284031215610d75578081fd5b5035919050565b60008251815b81811015610d9c5760208186018101518583015201610d82565b81811115610daa5782828501525b509190910192915050565b6001600160a01b0391909116815260200190565b6001600160a01b0392831681529116602082015260400190565b6001600160a01b03929092168252602082015260400190565b604080825283519082018190526000906020906060840190828701845b82811015610e3e5781516001600160a01b031684529284019290840190600101610e19565b50505083810382850152845180825285830191830190845b81811015610bdc57835183529284019291840191600101610e56565b901515815260200190565b60208082526021908201527f4c697374466163746f72793a2053656e646572206d7573742062652061646d696040820152603760f91b606082015260800190565b60208082526024908201527f4c697374466163746f72793a2053656e646572206d757374206265206f70657260408201526330ba37b960e11b606082015260800190565b60208082526017908201527f496e636f7272656374206c6973742074656d706c617465000000000000000000604082015260600190565b60208082526019908201527f496e636f72726563742061636365737320636f6e74726f6c7300000000000000604082015260600190565b60208082526027908201527f464c594259546f6b656e466163746f72793a2053656e646572206d7573742062604082015266329020b236b4b760c91b606082015260800190565b90815260200190565b918252602082015260400190565b60405181810167ffffffffffffffff81118282101715610ff057610ff061101c565b604052919050565b600067ffffffffffffffff8211156110125761101261101c565b5060209081020190565b634e487b7160e01b600052604160045260246000fd5b6001600160a01b038116811461104757600080fd5b5056fea2646970667358221220992406081a10f05a4ab8393897b090d5702426ef0875c9d0045e45c09c09da7e64736f6c63430008000033",
  "devdoc": {
    "kind": "dev",
    "methods": {
      "deployPointList(address,address[],uint256[])": {
        "params": {
          "_accounts": "An array of account addresses.",
          "_amounts": "An array of corresponding point amounts.",
          "_listOwner": "List owner address."
        },
        "returns": {
          "pointList": "Point list address."
        }
      },
      "deprecateFactory(address)": {
        "params": {
          "_newAddress": "Blank address."
        }
      },
      "initListFactory(address,address,uint256)": {
        "params": {
          "_accessControls": "Access control contract address.",
          "_minimumFee": "Minimum fee number.",
          "_pointListTemplate": "Point list template address."
        }
      },
      "numberOfChildren()": {
        "returns": {
          "_0": "uint Number of point lists."
        }
      },
      "setDividends(address)": {
        "params": {
          "_divaddr": "Dividend address."
        }
      },
      "setMinimumFee(uint256)": {
        "params": {
          "_minimumFee": "Minimum fee number."
        }
      },
      "transferAnyERC20Token(address,uint256)": {
        "params": {
          "_tokenAddress": "Address to send from.",
          "_tokens": "Number of tokens."
        },
        "returns": {
          "success": "True."
        }
      }
    },
    "version": 1
  },
  "userdoc": {
    "kind": "user",
    "methods": {
      "deployPointList(address,address[],uint256[])": {
        "notice": "Deploys new point list."
      },
      "deprecateFactory(address)": {
        "notice": "Deprecates factory."
      },
      "initListFactory(address,address,uint256)": {
        "notice": "Initializes point list factory variables."
      },
      "numberOfChildren()": {
        "notice": "Gets the number of point lists created by factory."
      },
      "setDividends(address)": {
        "notice": "Sets dividend address."
      },
      "setMinimumFee(uint256)": {
        "notice": "Sets minimum fee."
      },
      "transferAnyERC20Token(address,uint256)": {
        "notice": "Funtion for transfering any ERC20 token."
      }
    },
    "version": 1
  },
  "storageLayout": {
    "storage": [
      {
        "astId": 329,
        "contract": "contracts/Access/ListFactory.sol:ListFactory",
        "label": "accessControls",
        "offset": 0,
        "slot": "0",
        "type": "t_contract(FLYBYAccessControls)208"
      },
      {
        "astId": 331,
        "contract": "contracts/Access/ListFactory.sol:ListFactory",
        "label": "initialised",
        "offset": 20,
        "slot": "0",
        "type": "t_bool"
      },
      {
        "astId": 333,
        "contract": "contracts/Access/ListFactory.sol:ListFactory",
        "label": "pointListTemplate",
        "offset": 0,
        "slot": "1",
        "type": "t_address"
      },
      {
        "astId": 335,
        "contract": "contracts/Access/ListFactory.sol:ListFactory",
        "label": "newAddress",
        "offset": 0,
        "slot": "2",
        "type": "t_address"
      },
      {
        "astId": 337,
        "contract": "contracts/Access/ListFactory.sol:ListFactory",
        "label": "minimumFee",
        "offset": 0,
        "slot": "3",
        "type": "t_uint256"
      },
      {
        "astId": 341,
        "contract": "contracts/Access/ListFactory.sol:ListFactory",
        "label": "isChild",
        "offset": 0,
        "slot": "4",
        "type": "t_mapping(t_address,t_bool)"
      },
      {
        "astId": 344,
        "contract": "contracts/Access/ListFactory.sol:ListFactory",
        "label": "lists",
        "offset": 0,
        "slot": "5",
        "type": "t_array(t_address)dyn_storage"
      },
      {
        "astId": 346,
        "contract": "contracts/Access/ListFactory.sol:ListFactory",
        "label": "flybyDiv",
        "offset": 0,
        "slot": "6",
        "type": "t_address_payable"
      }
    ],
    "types": {
      "t_address": {
        "encoding": "inplace",
        "label": "address",
        "numberOfBytes": "20"
      },
      "t_address_payable": {
        "encoding": "inplace",
        "label": "address payable",
        "numberOfBytes": "20"
      },
      "t_array(t_address)dyn_storage": {
        "base": "t_address",
        "encoding": "dynamic_array",
        "label": "address[]",
        "numberOfBytes": "32"
      },
      "t_bool": {
        "encoding": "inplace",
        "label": "bool",
        "numberOfBytes": "1"
      },
      "t_contract(FLYBYAccessControls)208": {
        "encoding": "inplace",
        "label": "contract FLYBYAccessControls",
        "numberOfBytes": "20"
      },
      "t_mapping(t_address,t_bool)": {
        "encoding": "mapping",
        "key": "t_address",
        "label": "mapping(address => bool)",
        "numberOfBytes": "32",
        "value": "t_bool"
      },
      "t_uint256": {
        "encoding": "inplace",
        "label": "uint256",
        "numberOfBytes": "32"
      }
    }
  }
}