{
  "address": "0x810eB9f90d14Ce41bd1BBeEDEd6983eA5C001113",
  "abi": [
    {
      "anonymous": false,
      "inputs": [
        {
          "indexed": true,
          "internalType": "address",
          "name": "owner",
          "type": "address"
        },
        {
          "indexed": true,
          "internalType": "address",
          "name": "spender",
          "type": "address"
        },
        {
          "indexed": false,
          "internalType": "uint256",
          "name": "value",
          "type": "uint256"
        }
      ],
      "name": "Approval",
      "type": "event"
    },
    {
      "anonymous": false,
      "inputs": [
        {
          "indexed": false,
          "internalType": "address",
          "name": "account",
          "type": "address"
        }
      ],
      "name": "Paused",
      "type": "event"
    },
    {
      "anonymous": false,
      "inputs": [
        {
          "indexed": true,
          "internalType": "bytes32",
          "name": "role",
          "type": "bytes32"
        },
        {
          "indexed": true,
          "internalType": "bytes32",
          "name": "previousAdminRole",
          "type": "bytes32"
        },
        {
          "indexed": true,
          "internalType": "bytes32",
          "name": "newAdminRole",
          "type": "bytes32"
        }
      ],
      "name": "RoleAdminChanged",
      "type": "event"
    },
    {
      "anonymous": false,
      "inputs": [
        {
          "indexed": true,
          "internalType": "bytes32",
          "name": "role",
          "type": "bytes32"
        },
        {
          "indexed": true,
          "internalType": "address",
          "name": "account",
          "type": "address"
        },
        {
          "indexed": true,
          "internalType": "address",
          "name": "sender",
          "type": "address"
        }
      ],
      "name": "RoleGranted",
      "type": "event"
    },
    {
      "anonymous": false,
      "inputs": [
        {
          "indexed": true,
          "internalType": "bytes32",
          "name": "role",
          "type": "bytes32"
        },
        {
          "indexed": true,
          "internalType": "address",
          "name": "account",
          "type": "address"
        },
        {
          "indexed": true,
          "internalType": "address",
          "name": "sender",
          "type": "address"
        }
      ],
      "name": "RoleRevoked",
      "type": "event"
    },
    {
      "anonymous": false,
      "inputs": [
        {
          "indexed": true,
          "internalType": "address",
          "name": "from",
          "type": "address"
        },
        {
          "indexed": true,
          "internalType": "address",
          "name": "to",
          "type": "address"
        },
        {
          "indexed": false,
          "internalType": "uint256",
          "name": "value",
          "type": "uint256"
        }
      ],
      "name": "Transfer",
      "type": "event"
    },
    {
      "anonymous": false,
      "inputs": [
        {
          "indexed": false,
          "internalType": "address",
          "name": "account",
          "type": "address"
        }
      ],
      "name": "Unpaused",
      "type": "event"
    },
    {
      "inputs": [],
      "name": "DEFAULT_ADMIN_ROLE",
      "outputs": [
        {
          "internalType": "bytes32",
          "name": "",
          "type": "bytes32"
        }
      ],
      "stateMutability": "view",
      "type": "function"
    },
    {
      "inputs": [],
      "name": "DOMAIN_SEPARATOR",
      "outputs": [
        {
          "internalType": "bytes32",
          "name": "",
          "type": "bytes32"
        }
      ],
      "stateMutability": "view",
      "type": "function"
    },
    {
      "inputs": [],
      "name": "MINTER_ROLE",
      "outputs": [
        {
          "internalType": "bytes32",
          "name": "",
          "type": "bytes32"
        }
      ],
      "stateMutability": "view",
      "type": "function"
    },
    {
      "inputs": [],
      "name": "PAUSER_ROLE",
      "outputs": [
        {
          "internalType": "bytes32",
          "name": "",
          "type": "bytes32"
        }
      ],
      "stateMutability": "view",
      "type": "function"
    },
    {
      "inputs": [
        {
          "internalType": "address",
          "name": "owner",
          "type": "address"
        },
        {
          "internalType": "address",
          "name": "spender",
          "type": "address"
        }
      ],
      "name": "allowance",
      "outputs": [
        {
          "internalType": "uint256",
          "name": "",
          "type": "uint256"
        }
      ],
      "stateMutability": "view",
      "type": "function"
    },
    {
      "inputs": [
        {
          "internalType": "address",
          "name": "spender",
          "type": "address"
        },
        {
          "internalType": "uint256",
          "name": "amount",
          "type": "uint256"
        }
      ],
      "name": "approve",
      "outputs": [
        {
          "internalType": "bool",
          "name": "",
          "type": "bool"
        }
      ],
      "stateMutability": "nonpayable",
      "type": "function"
    },
    {
      "inputs": [
        {
          "internalType": "address",
          "name": "account",
          "type": "address"
        }
      ],
      "name": "balanceOf",
      "outputs": [
        {
          "internalType": "uint256",
          "name": "",
          "type": "uint256"
        }
      ],
      "stateMutability": "view",
      "type": "function"
    },
    {
      "inputs": [
        {
          "internalType": "uint256",
          "name": "amount",
          "type": "uint256"
        }
      ],
      "name": "burn",
      "outputs": [],
      "stateMutability": "nonpayable",
      "type": "function"
    },
    {
      "inputs": [
        {
          "internalType": "address",
          "name": "account",
          "type": "address"
        },
        {
          "internalType": "uint256",
          "name": "amount",
          "type": "uint256"
        }
      ],
      "name": "burnFrom",
      "outputs": [],
      "stateMutability": "nonpayable",
      "type": "function"
    },
    {
      "inputs": [],
      "name": "decimals",
      "outputs": [
        {
          "internalType": "uint8",
          "name": "",
          "type": "uint8"
        }
      ],
      "stateMutability": "view",
      "type": "function"
    },
    {
      "inputs": [
        {
          "internalType": "address",
          "name": "spender",
          "type": "address"
        },
        {
          "internalType": "uint256",
          "name": "subtractedValue",
          "type": "uint256"
        }
      ],
      "name": "decreaseAllowance",
      "outputs": [
        {
          "internalType": "bool",
          "name": "",
          "type": "bool"
        }
      ],
      "stateMutability": "nonpayable",
      "type": "function"
    },
    {
      "inputs": [
        {
          "internalType": "string",
          "name": "_name",
          "type": "string"
        },
        {
          "internalType": "string",
          "name": "_symbol",
          "type": "string"
        },
        {
          "internalType": "address",
          "name": "_owner",
          "type": "address"
        },
        {
          "internalType": "uint256",
          "name": "_initialSupply",
          "type": "uint256"
        }
      ],
      "name": "getInitData",
      "outputs": [
        {
          "internalType": "bytes",
          "name": "_data",
          "type": "bytes"
        }
      ],
      "stateMutability": "pure",
      "type": "function"
    },
    {
      "inputs": [
        {
          "internalType": "bytes32",
          "name": "role",
          "type": "bytes32"
        }
      ],
      "name": "getRoleAdmin",
      "outputs": [
        {
          "internalType": "bytes32",
          "name": "",
          "type": "bytes32"
        }
      ],
      "stateMutability": "view",
      "type": "function"
    },
    {
      "inputs": [
        {
          "internalType": "bytes32",
          "name": "role",
          "type": "bytes32"
        },
        {
          "internalType": "uint256",
          "name": "index",
          "type": "uint256"
        }
      ],
      "name": "getRoleMember",
      "outputs": [
        {
          "internalType": "address",
          "name": "",
          "type": "address"
        }
      ],
      "stateMutability": "view",
      "type": "function"
    },
    {
      "inputs": [
        {
          "internalType": "bytes32",
          "name": "role",
          "type": "bytes32"
        }
      ],
      "name": "getRoleMemberCount",
      "outputs": [
        {
          "internalType": "uint256",
          "name": "",
          "type": "uint256"
        }
      ],
      "stateMutability": "view",
      "type": "function"
    },
    {
      "inputs": [
        {
          "internalType": "bytes32",
          "name": "role",
          "type": "bytes32"
        },
        {
          "internalType": "address",
          "name": "account",
          "type": "address"
        }
      ],
      "name": "grantRole",
      "outputs": [],
      "stateMutability": "nonpayable",
      "type": "function"
    },
    {
      "inputs": [
        {
          "internalType": "bytes32",
          "name": "role",
          "type": "bytes32"
        },
        {
          "internalType": "address",
          "name": "account",
          "type": "address"
        }
      ],
      "name": "hasRole",
      "outputs": [
        {
          "internalType": "bool",
          "name": "",
          "type": "bool"
        }
      ],
      "stateMutability": "view",
      "type": "function"
    },
    {
      "inputs": [
        {
          "internalType": "address",
          "name": "spender",
          "type": "address"
        },
        {
          "internalType": "uint256",
          "name": "addedValue",
          "type": "uint256"
        }
      ],
      "name": "increaseAllowance",
      "outputs": [
        {
          "internalType": "bool",
          "name": "",
          "type": "bool"
        }
      ],
      "stateMutability": "nonpayable",
      "type": "function"
    },
    {
      "inputs": [
        {
          "internalType": "bytes",
          "name": "_data",
          "type": "bytes"
        }
      ],
      "name": "init",
      "outputs": [],
      "stateMutability": "payable",
      "type": "function"
    },
    {
      "inputs": [
        {
          "internalType": "bytes",
          "name": "_data",
          "type": "bytes"
        }
      ],
      "name": "initToken",
      "outputs": [],
      "stateMutability": "nonpayable",
      "type": "function"
    },
    {
      "inputs": [
        {
          "internalType": "string",
          "name": "_name",
          "type": "string"
        },
        {
          "internalType": "string",
          "name": "_symbol",
          "type": "string"
        },
        {
          "internalType": "address",
          "name": "_owner",
          "type": "address"
        },
        {
          "internalType": "uint256",
          "name": "_initialSupply",
          "type": "uint256"
        }
      ],
      "name": "initToken",
      "outputs": [],
      "stateMutability": "nonpayable",
      "type": "function"
    },
    {
      "inputs": [
        {
          "internalType": "address",
          "name": "to",
          "type": "address"
        },
        {
          "internalType": "uint256",
          "name": "amount",
          "type": "uint256"
        }
      ],
      "name": "mint",
      "outputs": [],
      "stateMutability": "nonpayable",
      "type": "function"
    },
    {
      "inputs": [],
      "name": "name",
      "outputs": [
        {
          "internalType": "string",
          "name": "",
          "type": "string"
        }
      ],
      "stateMutability": "view",
      "type": "function"
    },
    {
      "inputs": [
        {
          "internalType": "address",
          "name": "",
          "type": "address"
        }
      ],
      "name": "nonces",
      "outputs": [
        {
          "internalType": "uint256",
          "name": "",
          "type": "uint256"
        }
      ],
      "stateMutability": "view",
      "type": "function"
    },
    {
      "inputs": [],
      "name": "pause",
      "outputs": [],
      "stateMutability": "nonpayable",
      "type": "function"
    },
    {
      "inputs": [],
      "name": "paused",
      "outputs": [
        {
          "internalType": "bool",
          "name": "",
          "type": "bool"
        }
      ],
      "stateMutability": "view",
      "type": "function"
    },
    {
      "inputs": [
        {
          "internalType": "address",
          "name": "owner_",
          "type": "address"
        },
        {
          "internalType": "address",
          "name": "spender",
          "type": "address"
        },
        {
          "internalType": "uint256",
          "name": "value",
          "type": "uint256"
        },
        {
          "internalType": "uint256",
          "name": "deadline",
          "type": "uint256"
        },
        {
          "internalType": "uint8",
          "name": "v",
          "type": "uint8"
        },
        {
          "internalType": "bytes32",
          "name": "r",
          "type": "bytes32"
        },
        {
          "internalType": "bytes32",
          "name": "s",
          "type": "bytes32"
        }
      ],
      "name": "permit",
      "outputs": [],
      "stateMutability": "nonpayable",
      "type": "function"
    },
    {
      "inputs": [
        {
          "internalType": "bytes32",
          "name": "role",
          "type": "bytes32"
        },
        {
          "internalType": "address",
          "name": "account",
          "type": "address"
        }
      ],
      "name": "renounceRole",
      "outputs": [],
      "stateMutability": "nonpayable",
      "type": "function"
    },
    {
      "inputs": [
        {
          "internalType": "bytes32",
          "name": "role",
          "type": "bytes32"
        },
        {
          "internalType": "address",
          "name": "account",
          "type": "address"
        }
      ],
      "name": "revokeRole",
      "outputs": [],
      "stateMutability": "nonpayable",
      "type": "function"
    },
    {
      "inputs": [],
      "name": "symbol",
      "outputs": [
        {
          "internalType": "string",
          "name": "",
          "type": "string"
        }
      ],
      "stateMutability": "view",
      "type": "function"
    },
    {
      "inputs": [],
      "name": "tokenTemplate",
      "outputs": [
        {
          "internalType": "uint256",
          "name": "",
          "type": "uint256"
        }
      ],
      "stateMutability": "view",
      "type": "function"
    },
    {
      "inputs": [],
      "name": "totalSupply",
      "outputs": [
        {
          "internalType": "uint256",
          "name": "",
          "type": "uint256"
        }
      ],
      "stateMutability": "view",
      "type": "function"
    },
    {
      "inputs": [
        {
          "internalType": "address",
          "name": "recipient",
          "type": "address"
        },
        {
          "internalType": "uint256",
          "name": "amount",
          "type": "uint256"
        }
      ],
      "name": "transfer",
      "outputs": [
        {
          "internalType": "bool",
          "name": "",
          "type": "bool"
        }
      ],
      "stateMutability": "nonpayable",
      "type": "function"
    },
    {
      "inputs": [
        {
          "internalType": "address",
          "name": "sender",
          "type": "address"
        },
        {
          "internalType": "address",
          "name": "recipient",
          "type": "address"
        },
        {
          "internalType": "uint256",
          "name": "amount",
          "type": "uint256"
        }
      ],
      "name": "transferFrom",
      "outputs": [
        {
          "internalType": "bool",
          "name": "",
          "type": "bool"
        }
      ],
      "stateMutability": "nonpayable",
      "type": "function"
    },
    {
      "inputs": [],
      "name": "unpause",
      "outputs": [],
      "stateMutability": "nonpayable",
      "type": "function"
    }
  ],
  "transactionHash": "0x64ae48019373f04fde022544a625af4a86e6e667276ebe2d6050d54af7c09210",
  "args": [],
  "solcInputHash": "0bb2481c0a33b756a35d8c75b9e1dee6",
  "bytecode": "0x608060405234801561001057600080fd5b506008805462ff0000191690556123e68061002c6000396000f3fe6080604052600436106102045760003560e01c806370a0823111610118578063a457c2d7116100a0578063d53913931161006f578063d53913931461059a578063d547741f146105af578063dd62ed3e146105cf578063e63ab1e9146105ef578063f21f007c1461060457610204565b8063a457c2d71461051a578063a9059cbb1461053a578063ca15c8731461055a578063d505accf1461057a57610204565b80638dc7df72116100e75780638dc7df72146104835780639010d07c146104a357806391d14854146104d057806395d89b41146104f0578063a217fddf1461050557610204565b806370a082311461040e57806379cc67901461042e5780637ecebe001461044e5780638456cb591461046e57610204565b80633644e5151161019b57806340c10f191161016a57806340c10f191461038657806342966c68146103a65780634ddf47d4146103c65780635c975abb146103d957806360b1cc80146103ee57610204565b80633644e5151461031c57806336568abe1461033157806339509351146103515780633f4ba83a1461037157610204565b806323b872dd116101d757806323b872dd14610298578063248a9ca3146102b85780632f2ff15d146102d8578063313ce567146102fa57610204565b806306fdde03146102095780630814d3dd14610234578063095ea7b31461025657806318160ddd14610283575b600080fd5b34801561021557600080fd5b5061021e610624565b60405161022b9190611c14565b60405180910390f35b34801561024057600080fd5b506102496106b6565b60405161022b9190611b9a565b34801561026257600080fd5b506102766102713660046118e5565b6106bb565b60405161022b9190611b8f565b34801561028f57600080fd5b506102496106d9565b3480156102a457600080fd5b506102766102b3366004611830565b6106df565b3480156102c457600080fd5b506102496102d3366004611910565b610766565b3480156102e457600080fd5b506102f86102f3366004611928565b61077b565b005b34801561030657600080fd5b5061030f6107cc565b60405161022b91906121fb565b34801561032857600080fd5b506102496107d5565b34801561033d57600080fd5b506102f861034c366004611928565b6107db565b34801561035d57600080fd5b5061027661036c3660046118e5565b61081d565b34801561037d57600080fd5b506102f861086b565b34801561039257600080fd5b506102f86103a13660046118e5565b6108ab565b3480156103b257600080fd5b506102f86103c1366004611910565b6108fd565b6102f86103d436600461196d565b6107c8565b3480156103e557600080fd5b50610276610911565b3480156103fa57600080fd5b506102f861040936600461196d565b610920565b34801561041a57600080fd5b506102496104293660046117dc565b61094d565b34801561043a57600080fd5b506102f86104493660046118e5565b610968565b34801561045a57600080fd5b506102496104693660046117dc565b6109a2565b34801561047a57600080fd5b506102f86109b4565b34801561048f57600080fd5b506102f861049e366004611ab1565b6109f2565b3480156104af57600080fd5b506104c36104be36600461194c565b610a59565b60405161022b9190611b7b565b3480156104dc57600080fd5b506102766104eb366004611928565b610a78565b3480156104fc57600080fd5b5061021e610a90565b34801561051157600080fd5b50610249610a9f565b34801561052657600080fd5b506102766105353660046118e5565b610aa4565b34801561054657600080fd5b506102766105553660046118e5565b610b0c565b34801561056657600080fd5b50610249610575366004611910565b610b20565b34801561058657600080fd5b506102f8610595366004611870565b610b37565b3480156105a657600080fd5b50610249610ced565b3480156105bb57600080fd5b506102f86105ca366004611928565b610d11565b3480156105db57600080fd5b506102496105ea3660046117f8565b610d4b565b3480156105fb57600080fd5b50610249610d76565b34801561061057600080fd5b5061021e61061f3660046119ad565b610d88565b60606006805461063390612264565b80601f016020809104026020016040519081016040528092919081815260200182805461065f90612264565b80156106ac5780601f10610681576101008083540402835291602001916106ac565b820191906000526020600020905b81548152906001019060200180831161068f57829003601f168201915b5050505050905090565b600281565b60006106cf6106c8610dc0565b8484610dc4565b5060015b92915050565b60055490565b60006106ec848484610e78565b61075c846106f8610dc0565b61075785604051806060016040528060288152602001612344602891396001600160a01b038a16600090815260046020526040812090610736610dc0565b6001600160a01b031681526020810191909152604001600020549190610f8d565b610dc4565b5060019392505050565b60009081526020819052604090206002015490565b600082815260208190526040902060020154610799906104eb610dc0565b6107be5760405162461bcd60e51b81526004016107b590611cf2565b60405180910390fd5b6107c88282610fb9565b5050565b60085460ff1690565b60015481565b6107e3610dc0565b6001600160a01b0316816001600160a01b0316146108135760405162461bcd60e51b81526004016107b5906120f4565b6107c88282611022565b60006106cf61082a610dc0565b84610757856004600061083b610dc0565b6001600160a01b03908116825260208083019390935260409182016000908120918c16815292529020549061108b565b61088560008051602061236c8339815191526104eb610dc0565b6108a15760405162461bcd60e51b81526004016107b590611d6f565b6108a96110ba565b565b6108d77f9f2df0fed2c77648de5860a4cc508cd0818c85b8b8a1ab4ceeef8d981c8956a66104eb610dc0565b6108f35760405162461bcd60e51b81526004016107b590611f5a565b6107c8828261112a565b61090e610908610dc0565b826111ea565b50565b60085462010000900460ff1690565b600080808061093185870187611a36565b9350935093509350610945848484846109f2565b505050505050565b6001600160a01b031660009081526002602052604090205490565b600061097f610979846105ea610dc0565b836112c0565b90506109938361098d610dc0565b83610dc4565b61099d83836111ea565b505050565b60036020526000908152604090205481565b6109ce60008051602061236c8339815191526104eb610dc0565b6109ea5760405162461bcd60e51b81526004016107b59061202c565b6108a96112ec565b6109fc848461134b565b610a076000836107be565b610a317f9f2df0fed2c77648de5860a4cc508cd0818c85b8b8a1ab4ceeef8d981c8956a6836107be565b610a4960008051602061236c833981519152836107be565b610a53338261112a565b50505050565b6000828152602081905260408120610a71908361140e565b9392505050565b6000828152602081905260408120610a71908361141a565b60606007805461063390612264565b600081565b60006106cf610ab1610dc0565b846107578560405180606001604052806025815260200161238c6025913960046000610adb610dc0565b6001600160a01b03908116825260208083019390935260409182016000908120918d16815292529020549190610f8d565b60006106cf610b19610dc0565b8484610e78565b60008181526020819052604081206106d39061142f565b6001600160a01b038716610b5d5760405162461bcd60e51b81526004016107b5906120bd565b834210610b7c5760405162461bcd60e51b81526004016107b590611f32565b600060405180604001604052806002815260200161190160f01b8152506001547f6e71edae12b1b97f4d1f60370fef10105fa2faae0126114a169c64845d6126c960001b8a8a8a600360008f6001600160a01b03166001600160a01b031681526020019081526020016000206000815480929190610bf99061229f565b919050558b604051602001610c1396959493929190611ba3565b60405160208183030381529060405280519060200120604051602001610c3b93929190611b54565b604051602081830303815290604052805190602001209050600060018286868660405160008152602001604052604051610c789493929190611bf6565b6020604051602081039080840390855afa158015610c9a573d6000803e3d6000fd5b505050602060405103519050886001600160a01b0316816001600160a01b031614610cd75760405162461bcd60e51b81526004016107b5906121c4565b610ce2898989610dc4565b505050505050505050565b7f9f2df0fed2c77648de5860a4cc508cd0818c85b8b8a1ab4ceeef8d981c8956a681565b600082815260208190526040902060020154610d2f906104eb610dc0565b6108135760405162461bcd60e51b81526004016107b590611eb8565b6001600160a01b03918216600090815260046020908152604080832093909416825291909152205490565b60008051602061236c83398151915281565b6060868686868686604051602001610da596959493929190611c27565b60405160208183030381529060405290509695505050505050565b3390565b6001600160a01b038316610dea5760405162461bcd60e51b81526004016107b590612079565b6001600160a01b038216610e105760405162461bcd60e51b81526004016107b590611dbe565b6001600160a01b0380841660008181526004602090815260408083209487168084529490915290819020849055517f8c5be1e5ebec7d5bd14f71427d1e84f3dd0314c0f7b2291e5b200ac8c7c3b92590610e6b908590611b9a565b60405180910390a3505050565b6001600160a01b038316610e9e5760405162461bcd60e51b81526004016107b590611fe7565b6001600160a01b038216610ec45760405162461bcd60e51b81526004016107b590611caf565b610ecf83838361143a565b610f0c8160405180606001604052806026815260200161231e602691396001600160a01b0386166000908152600260205260409020549190610f8d565b6001600160a01b038085166000908152600260205260408082209390935590841681522054610f3b908261108b565b6001600160a01b0380841660008181526002602052604090819020939093559151908516907fddf252ad1be2c89b69c2b068fc378daa952ba7f163c4a11628f55a4df523b3ef90610e6b908590611b9a565b60008184841115610fb15760405162461bcd60e51b81526004016107b59190611c14565b505050900390565b6000828152602081905260409020610fd19082611445565b156107c857610fde610dc0565b6001600160a01b0316816001600160a01b0316837f2f8788117e7eff1d82e926ec794901d17c78024a50270940304540a733656f0d60405160405180910390a45050565b600082815260208190526040902061103a908261145a565b156107c857611047610dc0565b6001600160a01b0316816001600160a01b0316837ff6391f5c32d9c69d2a47ea670b442974b53935d1edc7fd64eb21e047a839171b60405160405180910390a45050565b6000806110988385612209565b905083811015610a715760405162461bcd60e51b81526004016107b590611e00565b6110c2610911565b6110de5760405162461bcd60e51b81526004016107b590611d41565b6008805462ff0000191690557f5db9ee0a495bf2e6ff9c91a7834c1ba4fdd244a5e8aa4e537bd38aeae4b073aa611113610dc0565b6040516111209190611b7b565b60405180910390a1565b6001600160a01b0382166111505760405162461bcd60e51b81526004016107b590612143565b61115c6000838361143a565b600554611169908261108b565b6005556001600160a01b03821660009081526002602052604090205461118f908261108b565b6001600160a01b0383166000818152600260205260408082209390935591519091907fddf252ad1be2c89b69c2b068fc378daa952ba7f163c4a11628f55a4df523b3ef906111de908590611b9a565b60405180910390a35050565b6001600160a01b0382166112105760405162461bcd60e51b81526004016107b590611fa6565b61121c8260008361143a565b611259816040518060600160405280602281526020016122fc602291396001600160a01b0385166000908152600260205260409020549190610f8d565b6001600160a01b03831660009081526002602052604090205560055461127f90826112c0565b6005556040516000906001600160a01b038416907fddf252ad1be2c89b69c2b068fc378daa952ba7f163c4a11628f55a4df523b3ef906111de908590611b9a565b6000828211156112e25760405162461bcd60e51b81526004016107b590611e37565b610a718284612221565b6112f4610911565b156113115760405162461bcd60e51b81526004016107b590611f08565b6008805462ff00001916620100001790557f62e78cea01bee320cd4e420270b5ea74000d11b0c9f74754ebdbfc544b05a258611113610dc0565b600854610100900460ff16156113735760405162461bcd60e51b81526004016107b590611e6e565b815161138690600690602085019061167b565b50805161139a90600790602084019061167b565b506008805460ff1916601217905560405146906113df907f47e79534a245952e8b16893a336b85a3d9ea9fa8c573f3d803afb92a794692189083903090602001611bd7565b60408051601f19818403018152919052805160209091012060015550506008805461ff00191661010017905550565b6000610a71838361146f565b6000610a71836001600160a01b0384166114c8565b60006106d3826114e0565b61099d8383836114e4565b6000610a71836001600160a01b038416611514565b6000610a71836001600160a01b03841661155e565b815460009082106114925760405162461bcd60e51b81526004016107b590611c6d565b8260000182815481106114b557634e487b7160e01b600052603260045260246000fd5b9060005260206000200154905092915050565b60009081526001919091016020526040902054151590565b5490565b6114ef83838361099d565b6114f7610911565b1561099d5760405162461bcd60e51b81526004016107b59061217a565b600061152083836114c8565b611556575081546001818101845560008481526020808220909301849055845484825282860190935260409020919091556106d3565b5060006106d3565b60008181526001830160205260408120548015611671576000611582600183612221565b855490915060009061159690600190612221565b905060008660000182815481106115bd57634e487b7160e01b600052603260045260246000fd5b90600052602060002001549050808760000184815481106115ee57634e487b7160e01b600052603260045260246000fd5b600091825260209091200155611605836001612209565b6000828152600189016020526040902055865487908061163557634e487b7160e01b600052603160045260246000fd5b600190038181906000526020600020016000905590558660010160008781526020019081526020016000206000905560019450505050506106d3565b60009150506106d3565b82805461168790612264565b90600052602060002090601f0160209004810192826116a957600085556116ef565b82601f106116c257805160ff19168380011785556116ef565b828001600101855582156116ef579182015b828111156116ef5782518255916020019190600101906116d4565b506116fb9291506116ff565b5090565b5b808211156116fb5760008155600101611700565b60008083601f840112611725578182fd5b50813567ffffffffffffffff81111561173c578182fd5b60208301915083602082850101111561175457600080fd5b9250929050565b600082601f83011261176b578081fd5b813567ffffffffffffffff80821115611786576117866122d0565b604051601f8301601f1916810160200182811182821017156117aa576117aa6122d0565b6040528281528483016020018610156117c1578384fd5b82602086016020830137918201602001929092529392505050565b6000602082840312156117ed578081fd5b8135610a71816122e6565b6000806040838503121561180a578081fd5b8235611815816122e6565b91506020830135611825816122e6565b809150509250929050565b600080600060608486031215611844578081fd5b833561184f816122e6565b9250602084013561185f816122e6565b929592945050506040919091013590565b600080600080600080600060e0888a03121561188a578283fd5b8735611895816122e6565b965060208801356118a5816122e6565b95506040880135945060608801359350608088013560ff811681146118c8578384fd5b9699959850939692959460a0840135945060c09093013592915050565b600080604083850312156118f7578182fd5b8235611902816122e6565b946020939093013593505050565b600060208284031215611921578081fd5b5035919050565b6000806040838503121561193a578182fd5b823591506020830135611825816122e6565b6000806040838503121561195e578182fd5b50508035926020909101359150565b6000806020838503121561197f578182fd5b823567ffffffffffffffff811115611995578283fd5b6119a185828601611714565b90969095509350505050565b600080600080600080608087890312156119c5578182fd5b863567ffffffffffffffff808211156119dc578384fd5b6119e88a838b01611714565b90985096506020890135915080821115611a00578384fd5b50611a0d89828a01611714565b9095509350506040870135611a21816122e6565b80925050606087013590509295509295509295565b60008060008060808587031215611a4b578384fd5b843567ffffffffffffffff80821115611a62578586fd5b611a6e8883890161175b565b95506020870135915080821115611a83578485fd5b50611a908782880161175b565b9350506040850135611aa1816122e6565b9396929550929360600135925050565b60008060008060808587031215611ac6578182fd5b843567ffffffffffffffff80821115611add578384fd5b611ae98883890161175b565b95506020870135915080821115611a83578384fd5b60008151808452611b16816020860160208601612238565b601f01601f19169290920160200192915050565b60008284528282602086013780602084860101526020601f19601f85011685010190509392505050565b60008451611b66818460208901612238565b91909101928352506020820152604001919050565b6001600160a01b0391909116815260200190565b901515815260200190565b90815260200190565b9586526001600160a01b0394851660208701529290931660408501526060840152608083019190915260a082015260c00190565b92835260208301919091526001600160a01b0316604082015260600190565b93845260ff9290921660208401526040830152606082015260800190565b600060208252610a716020830184611afe565b600060808252611c3b60808301888a611b2a565b8281036020840152611c4e818789611b2a565b6001600160a01b03959095166040840152505060600152949350505050565b60208082526022908201527f456e756d657261626c655365743a20696e646578206f7574206f6620626f756e604082015261647360f01b606082015260800190565b60208082526023908201527f45524332303a207472616e7366657220746f20746865207a65726f206164647260408201526265737360e81b606082015260800190565b6020808252602f908201527f416363657373436f6e74726f6c3a2073656e646572206d75737420626520616e60408201526e0818591b5a5b881d1bc819dc985b9d608a1b606082015260800190565b60208082526014908201527314185d5cd8589b194e881b9bdd081c185d5cd95960621b604082015260600190565b6020808252602f908201527f4d696e7461626c65546f6b656e3a206d7573742068617665207061757365722060408201526e726f6c6520746f20756e706175736560881b606082015260800190565b60208082526022908201527f45524332303a20617070726f766520746f20746865207a65726f206164647265604082015261737360f01b606082015260800190565b6020808252601b908201527f536166654d6174683a206164646974696f6e206f766572666c6f770000000000604082015260600190565b6020808252601e908201527f536166654d6174683a207375627472616374696f6e206f766572666c6f770000604082015260600190565b6020808252602a908201527f45524332303a20746f6b656e2068617320616c7265616479206265656e20696e604082015269697469616c697a65642160b01b606082015260800190565b60208082526030908201527f416363657373436f6e74726f6c3a2073656e646572206d75737420626520616e60408201526f2061646d696e20746f207265766f6b6560801b606082015260800190565b60208082526010908201526f14185d5cd8589b194e881c185d5cd95960821b604082015260600190565b6020808252600e908201526d115490cc8c0e88115e1c1a5c995960921b604082015260600190565b6020808252602c908201527f4d696e7461626c65546f6b656e3a206d7573742068617665206d696e7465722060408201526b1c9bdb19481d1bc81b5a5b9d60a21b606082015260800190565b60208082526021908201527f45524332303a206275726e2066726f6d20746865207a65726f206164647265736040820152607360f81b606082015260800190565b60208082526025908201527f45524332303a207472616e736665722066726f6d20746865207a65726f206164604082015264647265737360d81b606082015260800190565b6020808252602d908201527f4d696e7461626c65546f6b656e3a206d7573742068617665207061757365722060408201526c726f6c6520746f20706175736560981b606082015260800190565b60208082526024908201527f45524332303a20617070726f76652066726f6d20746865207a65726f206164646040820152637265737360e01b606082015260800190565b60208082526018908201527f45524332303a204f776e65722063616e6e6f7420626520300000000000000000604082015260600190565b6020808252602f908201527f416363657373436f6e74726f6c3a2063616e206f6e6c792072656e6f756e636560408201526e103937b632b9903337b91039b2b63360891b606082015260800190565b6020808252601f908201527f45524332303a206d696e7420746f20746865207a65726f206164647265737300604082015260600190565b6020808252602a908201527f45524332305061757361626c653a20746f6b656e207472616e736665722077686040820152691a5b19481c185d5cd95960b21b606082015260800190565b60208082526018908201527f45524332303a20496e76616c6964205369676e61747572650000000000000000604082015260600190565b60ff91909116815260200190565b6000821982111561221c5761221c6122ba565b500190565b600082821015612233576122336122ba565b500390565b60005b8381101561225357818101518382015260200161223b565b83811115610a535750506000910152565b60028104600182168061227857607f821691505b6020821081141561229957634e487b7160e01b600052602260045260246000fd5b50919050565b60006000198214156122b3576122b36122ba565b5060010190565b634e487b7160e01b600052601160045260246000fd5b634e487b7160e01b600052604160045260246000fd5b6001600160a01b038116811461090e57600080fdfe45524332303a206275726e20616d6f756e7420657863656564732062616c616e636545524332303a207472616e7366657220616d6f756e7420657863656564732062616c616e636545524332303a207472616e7366657220616d6f756e74206578636565647320616c6c6f77616e636565d7a28e3265b37a6474929f336521b332c1681b933f6cb9f3376673440d862a45524332303a2064656372656173656420616c6c6f77616e63652062656c6f77207a65726fa2646970667358221220ed4b0c83bf41862a3fc8c3c2b9f99831d35fccb684576f26d3db8f8d0b24c80a64736f6c63430008000033",
  "devdoc": {
    "kind": "dev",
    "methods": {
      "getRoleAdmin(bytes32)": {
        "details": "Returns the admin role that controls `role`. See {grantRole} and {revokeRole}. To change a role's admin, use {_setRoleAdmin}."
      },
      "getRoleMember(bytes32,uint256)": {
        "details": "Returns one of the accounts that have `role`. `index` must be a value between 0 and {getRoleMemberCount}, non-inclusive. Role bearers are not sorted in any particular way, and their ordering may change at any point. WARNING: When using {getRoleMember} and {getRoleMemberCount}, make sure you perform all queries on the same block. See the following https://forum.openzeppelin.com/t/iterating-over-elements-on-enumerableset-in-openzeppelin-contracts/2296[forum post] for more information."
      },
      "getRoleMemberCount(bytes32)": {
        "details": "Returns the number of accounts that have `role`. Can be used together with {getRoleMember} to enumerate all bearers of a role."
      },
      "grantRole(bytes32,address)": {
        "details": "Grants `role` to `account`. If `account` had not been already granted `role`, emits a {RoleGranted} event. Requirements: - the caller must have ``role``'s admin role."
      },
      "hasRole(bytes32,address)": {
        "details": "Returns `true` if `account` has been granted `role`."
      },
      "paused()": {
        "details": "Returns true if the contract is paused, and false otherwise."
      },
      "renounceRole(bytes32,address)": {
        "details": "Revokes `role` from the calling account. Roles are often managed via {grantRole} and {revokeRole}: this function's purpose is to provide a mechanism for accounts to lose their privileges if they are compromised (such as when a trusted device is misplaced). If the calling account had been granted `role`, emits a {RoleRevoked} event. Requirements: - the caller must be `account`."
      },
      "revokeRole(bytes32,address)": {
        "details": "Revokes `role` from `account`. If `account` had been granted `role`, emits a {RoleRevoked} event. Requirements: - the caller must have ``role``'s admin role."
      }
    },
    "version": 1
  },
  "userdoc": {
    "kind": "user",
    "methods": {},
    "version": 1
  },
  "storageLayout": {
    "storage": [
      {
        "astId": 12488,
        "contract": "contracts/Tokens/MintableToken.sol:MintableToken",
        "label": "_roles",
        "offset": 0,
        "slot": "0",
        "type": "t_mapping(t_bytes32,t_struct(RoleData)12483_storage)"
      },
      {
        "astId": 15307,
        "contract": "contracts/Tokens/MintableToken.sol:MintableToken",
        "label": "DOMAIN_SEPARATOR",
        "offset": 0,
        "slot": "1",
        "type": "t_bytes32"
      },
      {
        "astId": 15311,
        "contract": "contracts/Tokens/MintableToken.sol:MintableToken",
        "label": "_balances",
        "offset": 0,
        "slot": "2",
        "type": "t_mapping(t_address,t_uint256)"
      },
      {
        "astId": 15315,
        "contract": "contracts/Tokens/MintableToken.sol:MintableToken",
        "label": "nonces",
        "offset": 0,
        "slot": "3",
        "type": "t_mapping(t_address,t_uint256)"
      },
      {
        "astId": 15321,
        "contract": "contracts/Tokens/MintableToken.sol:MintableToken",
        "label": "_allowances",
        "offset": 0,
        "slot": "4",
        "type": "t_mapping(t_address,t_mapping(t_address,t_uint256))"
      },
      {
        "astId": 15323,
        "contract": "contracts/Tokens/MintableToken.sol:MintableToken",
        "label": "_totalSupply",
        "offset": 0,
        "slot": "5",
        "type": "t_uint256"
      },
      {
        "astId": 15325,
        "contract": "contracts/Tokens/MintableToken.sol:MintableToken",
        "label": "_name",
        "offset": 0,
        "slot": "6",
        "type": "t_string_storage"
      },
      {
        "astId": 15327,
        "contract": "contracts/Tokens/MintableToken.sol:MintableToken",
        "label": "_symbol",
        "offset": 0,
        "slot": "7",
        "type": "t_string_storage"
      },
      {
        "astId": 15329,
        "contract": "contracts/Tokens/MintableToken.sol:MintableToken",
        "label": "_decimals",
        "offset": 0,
        "slot": "8",
        "type": "t_uint8"
      },
      {
        "astId": 15331,
        "contract": "contracts/Tokens/MintableToken.sol:MintableToken",
        "label": "_initialized",
        "offset": 1,
        "slot": "8",
        "type": "t_bool"
      },
      {
        "astId": 15179,
        "contract": "contracts/Tokens/MintableToken.sol:MintableToken",
        "label": "_paused",
        "offset": 2,
        "slot": "8",
        "type": "t_bool"
      }
    ],
    "types": {
      "t_address": {
        "encoding": "inplace",
        "label": "address",
        "numberOfBytes": "20"
      },
      "t_array(t_bytes32)dyn_storage": {
        "base": "t_bytes32",
        "encoding": "dynamic_array",
        "label": "bytes32[]",
        "numberOfBytes": "32"
      },
      "t_bool": {
        "encoding": "inplace",
        "label": "bool",
        "numberOfBytes": "1"
      },
      "t_bytes32": {
        "encoding": "inplace",
        "label": "bytes32",
        "numberOfBytes": "32"
      },
      "t_mapping(t_address,t_mapping(t_address,t_uint256))": {
        "encoding": "mapping",
        "key": "t_address",
        "label": "mapping(address => mapping(address => uint256))",
        "numberOfBytes": "32",
        "value": "t_mapping(t_address,t_uint256)"
      },
      "t_mapping(t_address,t_uint256)": {
        "encoding": "mapping",
        "key": "t_address",
        "label": "mapping(address => uint256)",
        "numberOfBytes": "32",
        "value": "t_uint256"
      },
      "t_mapping(t_bytes32,t_struct(RoleData)12483_storage)": {
        "encoding": "mapping",
        "key": "t_bytes32",
        "label": "mapping(bytes32 => struct AccessControl.RoleData)",
        "numberOfBytes": "32",
        "value": "t_struct(RoleData)12483_storage"
      },
      "t_mapping(t_bytes32,t_uint256)": {
        "encoding": "mapping",
        "key": "t_bytes32",
        "label": "mapping(bytes32 => uint256)",
        "numberOfBytes": "32",
        "value": "t_uint256"
      },
      "t_string_storage": {
        "encoding": "bytes",
        "label": "string",
        "numberOfBytes": "32"
      },
      "t_struct(AddressSet)14934_storage": {
        "encoding": "inplace",
        "label": "struct EnumerableSet.AddressSet",
        "members": [
          {
            "astId": 14933,
            "contract": "contracts/Tokens/MintableToken.sol:MintableToken",
            "label": "_inner",
            "offset": 0,
            "slot": "0",
            "type": "t_struct(Set)14657_storage"
          }
        ],
        "numberOfBytes": "64"
      },
      "t_struct(RoleData)12483_storage": {
        "encoding": "inplace",
        "label": "struct AccessControl.RoleData",
        "members": [
          {
            "astId": 12480,
            "contract": "contracts/Tokens/MintableToken.sol:MintableToken",
            "label": "members",
            "offset": 0,
            "slot": "0",
            "type": "t_struct(AddressSet)14934_storage"
          },
          {
            "astId": 12482,
            "contract": "contracts/Tokens/MintableToken.sol:MintableToken",
            "label": "adminRole",
            "offset": 0,
            "slot": "2",
            "type": "t_bytes32"
          }
        ],
        "numberOfBytes": "96"
      },
      "t_struct(Set)14657_storage": {
        "encoding": "inplace",
        "label": "struct EnumerableSet.Set",
        "members": [
          {
            "astId": 14652,
            "contract": "contracts/Tokens/MintableToken.sol:MintableToken",
            "label": "_values",
            "offset": 0,
            "slot": "0",
            "type": "t_array(t_bytes32)dyn_storage"
          },
          {
            "astId": 14656,
            "contract": "contracts/Tokens/MintableToken.sol:MintableToken",
            "label": "_indexes",
            "offset": 0,
            "slot": "1",
            "type": "t_mapping(t_bytes32,t_uint256)"
          }
        ],
        "numberOfBytes": "64"
      },
      "t_uint256": {
        "encoding": "inplace",
        "label": "uint256",
        "numberOfBytes": "32"
      },
      "t_uint8": {
        "encoding": "inplace",
        "label": "uint8",
        "numberOfBytes": "1"
      }
    }
  }
}